{
    "contractName": "Eventos",
    "abi": [
        {
            "anonymous": false,
            "inputs": [
                {
                    "indexed": false,
                    "internalType": "string",
                    "name": "_nombre",
                    "type": "string"
                }
            ],
            "name": "nombre_evento1",
            "type": "event"
        },
        {
            "anonymous": false,
            "inputs": [
                {
                    "indexed": false,
                    "internalType": "string",
                    "name": "_nombre",
                    "type": "string"
                },
                {
                    "indexed": false,
                    "internalType": "uint256",
                    "name": "edad",
                    "type": "uint256"
                }
            ],
            "name": "nombre_evento2",
            "type": "event"
        },
        {
            "anonymous": false,
            "inputs": [
                {
                    "indexed": false,
                    "internalType": "string",
                    "name": "",
                    "type": "string"
                },
                {
                    "indexed": false,
                    "internalType": "uint256",
                    "name": "",
                    "type": "uint256"
                },
                {
                    "indexed": false,
                    "internalType": "address",
                    "name": "",
                    "type": "address"
                },
                {
                    "indexed": false,
                    "internalType": "bytes32",
                    "name": "",
                    "type": "bytes32"
                }
            ],
            "name": "nombre_evento3",
            "type": "event"
        },
        {
            "inputs": [
                {
                    "internalType": "string",
                    "name": "_nombre",
                    "type": "string"
                }
            ],
            "name": "EmitirEvento1",
            "outputs": [],
            "stateMutability": "nonpayable",
            "type": "function"
        },
        {
            "inputs": [
                {
                    "internalType": "string",
                    "name": "_nombre",
                    "type": "string"
                },
                {
                    "internalType": "uint256",
                    "name": "_edad",
                    "type": "uint256"
                }
            ],
            "name": "EmitirEvento2",
            "outputs": [],
            "stateMutability": "nonpayable",
            "type": "function"
        },
        {
            "inputs": [
                {
                    "internalType": "string",
                    "name": "_nombre",
                    "type": "string"
                },
                {
                    "internalType": "uint256",
                    "name": "_edad",
                    "type": "uint256"
                }
            ],
            "name": "EmitirEvento3",
            "outputs": [],
            "stateMutability": "nonpayable",
            "type": "function"
        }
    ],
    "bytecode": "608060405234801561001057600080fd5b506103cd806100206000396000f3fe608060405234801561001057600080fd5b50600436106100415760003560e01c806314d07a2514610046578063abefda811461005b578063c355a3e51461006e575b600080fd5b61005961005436600461020c565b610081565b005b610059610069366004610251565b6100f2565b61005961007c36600461020c565b61012c565b6000828233604051602001610098939291906102be565b6040516020818303038152906040528051906020012090507fd0ff1ee28f2dbf23f694467b91653073187a19cba2610b37edd759ee2e31a871838333846040516100e59493929190610323565b60405180910390a1505050565b7f5007d59453ebcd951519cabd56f016d29fe2390892307189bde962ced3d3409481604051610121919061035b565b60405180910390a150565b7f7556e8345a443b754c690a14b2cd91df7aec27fbd662a660dd25d647f4732ed1828260405161015d929190610375565b60405180910390a15050565b634e487b7160e01b600052604160045260246000fd5b600082601f83011261019057600080fd5b813567ffffffffffffffff808211156101ab576101ab610169565b604051601f8301601f19908116603f011681019082821181831017156101d3576101d3610169565b816040528381528660208588010111156101ec57600080fd5b836020870160208301376000602085830101528094505050505092915050565b6000806040838503121561021f57600080fd5b823567ffffffffffffffff81111561023657600080fd5b6102428582860161017f565b95602094909401359450505050565b60006020828403121561026357600080fd5b813567ffffffffffffffff81111561027a57600080fd5b6102868482850161017f565b949350505050565b60005b838110156102a9578181015183820152602001610291565b838111156102b8576000848401525b50505050565b600084516102d081846020890161028e565b919091019283525060601b6bffffffffffffffffffffffff19166020820152603401919050565b6000815180845261030f81602086016020860161028e565b601f01601f19169290920160200192915050565b60808152600061033660808301876102f7565b6020830195909552506001600160a01b03929092166040830152606090910152919050565b60208152600061036e60208301846102f7565b9392505050565b60408152600061038860408301856102f7565b9050826020830152939250505056fea2646970667358221220404a39b9ac3982725285e5667480cf4c1137524d80df8d5d533516e98cbdf5b564736f6c634300080d0033",
    "sourcePath": "/home/secondport/Documents/SmartContracts/Funciones/eventos.sol",
    "compiler": {
        "name": "solc",
        "version": "0.8.13+commit.abaa5c0e"
    },
    "functionHashes": {
        "EmitirEvento1(string)": "abefda81",
        "EmitirEvento2(string,uint256)": "c355a3e5",
        "EmitirEvento3(string,uint256)": "14d07a25"
    },
    "gasEstimates": {
        "creation": {
            "codeDepositCost": "194600",
            "executionCost": "238",
            "totalCost": "194838"
        },
        "external": {
            "EmitirEvento1(string)": "infinite",
            "EmitirEvento2(string,uint256)": "infinite",
            "EmitirEvento3(string,uint256)": "infinite"
        }
    }
}