{
    "contractName": "Funciones",
    "abi": [
        {
            "inputs": [
                {
                    "internalType": "string",
                    "name": "_ingredientes",
                    "type": "string"
                }
            ],
            "name": "Hamburguesas",
            "outputs": [],
            "stateMutability": "nonpayable",
            "type": "function"
        },
        {
            "inputs": [
                {
                    "internalType": "uint256",
                    "name": "",
                    "type": "uint256"
                }
            ],
            "name": "direcciones",
            "outputs": [
                {
                    "internalType": "address",
                    "name": "",
                    "type": "address"
                }
            ],
            "stateMutability": "view",
            "type": "function"
        },
        {
            "inputs": [],
            "name": "hamburguesa",
            "outputs": [
                {
                    "internalType": "string",
                    "name": "nombre",
                    "type": "string"
                },
                {
                    "internalType": "string",
                    "name": "ingredientes",
                    "type": "string"
                }
            ],
            "stateMutability": "view",
            "type": "function"
        },
        {
            "inputs": [],
            "name": "hash1",
            "outputs": [
                {
                    "internalType": "bytes32",
                    "name": "",
                    "type": "bytes32"
                }
            ],
            "stateMutability": "view",
            "type": "function"
        },
        {
            "inputs": [],
            "name": "hash_Id_alumno",
            "outputs": [
                {
                    "internalType": "bytes32",
                    "name": "",
                    "type": "bytes32"
                }
            ],
            "stateMutability": "view",
            "type": "function"
        },
        {
            "inputs": [
                {
                    "internalType": "string",
                    "name": "_datos",
                    "type": "string"
                }
            ],
            "name": "hashing",
            "outputs": [],
            "stateMutability": "nonpayable",
            "type": "function"
        },
        {
            "inputs": [
                {
                    "internalType": "uint256",
                    "name": "",
                    "type": "uint256"
                }
            ],
            "name": "lista",
            "outputs": [
                {
                    "internalType": "string",
                    "name": "nombre",
                    "type": "string"
                },
                {
                    "internalType": "address",
                    "name": "direccion",
                    "type": "address"
                },
                {
                    "internalType": "uint256",
                    "name": "edad",
                    "type": "uint256"
                }
            ],
            "stateMutability": "view",
            "type": "function"
        },
        {
            "inputs": [],
            "name": "nuevaDireccion",
            "outputs": [],
            "stateMutability": "nonpayable",
            "type": "function"
        },
        {
            "inputs": [
                {
                    "internalType": "string",
                    "name": "_nombre",
                    "type": "string"
                },
                {
                    "internalType": "uint256",
                    "name": "_edad",
                    "type": "uint256"
                }
            ],
            "name": "nuevoAlumno",
            "outputs": [],
            "stateMutability": "nonpayable",
            "type": "function"
        }
    ],
    "bytecode": "608060405234801561001057600080fd5b506108a2806100206000396000f3fe608060405234801561001057600080fd5b50600436106100935760003560e01c8063631b84bd11610066578063631b84bd1461014757806365293a0d1461015a578063ba1663ca14610171578063c74efaef1461017a578063cb31c07e1461019057600080fd5b80630cc76c141461009857806342d73314146100c3578063547cbcad146101095780635a37fba914610134575b600080fd5b6100ab6100a63660046105e5565b6101a3565b6040516100ba93929190610656565b60405180910390f35b610107600080546001810182559080527f290decd9548b62a8d60345a988386fc84ba6bc95484008f6362f93160ef3e5630180546001600160a01b03191633179055565b005b61011c6101173660046105e5565b61026f565b6040516001600160a01b0390911681526020016100ba565b610107610142366004610727565b610299565b61010761015536600461076c565b610366565b61016360045481565b6040519081526020016100ba565b61016360015481565b6101826103c8565b6040516100ba9291906107a9565b61010761019e36600461076c565b6104e8565b600581815481106101b357600080fd5b90600052602060002090600302016000915090508060000180546101d6906107d7565b80601f0160208091040260200160405190810160405280929190818152602001828054610202906107d7565b801561024f5780601f106102245761010080835404028352916020019161024f565b820191906000526020600020905b81548152906001019060200180831161023257829003601f168201915b50505050600183015460029093015491926001600160a01b031691905083565b6000818154811061027f57600080fd5b6000918252602090912001546001600160a01b0316905081565b60408051606081018252838152336020808301919091529181018390526005805460018101825560009190915281518051929360039092027f036b6384b5eca791c62761152d0c79bb0604c104a5fb6f4eb0703f3154bb3db00192610301928492019061054c565b5060208201516001820180546001600160a01b0319166001600160a01b0390921691909117905560409091015160029091015561033f823383610517565b6004546006836040516103529190610811565b908152604051908190036020019020555050565b60408051608081018252600b9181018281526a68616d627572677565736160a81b606083019081529082526020820184905290916002916103a99183919061054c565b5060208281015180516103c2926001850192019061054c565b50505050565b6002805481906103d7906107d7565b80601f0160208091040260200160405190810160405280929190818152602001828054610403906107d7565b80156104505780601f1061042557610100808354040283529160200191610450565b820191906000526020600020905b81548152906001019060200180831161043357829003601f168201915b505050505090806001018054610465906107d7565b80601f0160208091040260200160405190810160405280929190818152602001828054610491906107d7565b80156104de5780601f106104b3576101008083540402835291602001916104de565b820191906000526020600020905b8154815290600101906020018083116104c157829003601f168201915b5050505050905082565b806040516020016104f99190610811565b60408051601f19818403018152919052805160209091012060015550565b82828260405160200161052c9392919061082d565b60408051601f198184030181529190528051602090910120600455505050565b828054610558906107d7565b90600052602060002090601f01602090048101928261057a57600085556105c0565b82601f1061059357805160ff19168380011785556105c0565b828001600101855582156105c0579182015b828111156105c05782518255916020019190600101906105a5565b506105cc9291506105d0565b5090565b5b808211156105cc57600081556001016105d1565b6000602082840312156105f757600080fd5b5035919050565b60005b83811015610619578181015183820152602001610601565b838111156103c25750506000910152565b600081518084526106428160208601602086016105fe565b601f01601f19169290920160200192915050565b606081526000610669606083018661062a565b6001600160a01b039490941660208301525060400152919050565b634e487b7160e01b600052604160045260246000fd5b600082601f8301126106ab57600080fd5b813567ffffffffffffffff808211156106c6576106c6610684565b604051601f8301601f19908116603f011681019082821181831017156106ee576106ee610684565b8160405283815286602085880101111561070757600080fd5b836020870160208301376000602085830101528094505050505092915050565b6000806040838503121561073a57600080fd5b823567ffffffffffffffff81111561075157600080fd5b61075d8582860161069a565b95602094909401359450505050565b60006020828403121561077e57600080fd5b813567ffffffffffffffff81111561079557600080fd5b6107a18482850161069a565b949350505050565b6040815260006107bc604083018561062a565b82810360208401526107ce818561062a565b95945050505050565b600181811c908216806107eb57607f821691505b60208210810361080b57634e487b7160e01b600052602260045260246000fd5b50919050565b600082516108238184602087016105fe565b9190910192915050565b6000845161083f8184602089016105fe565b60609490941b6bffffffffffffffffffffffff19169190930190815260148101919091526034019291505056fea2646970667358221220bdf823064f88f215203b878123c865962c3be0af2c83c26d4d8c1af34499376164736f6c634300080d0033",
    "sourcePath": "/home/secondport/Documents/SmartContracts/Funciones/funcion.sol",
    "compiler": {
        "name": "solc",
        "version": "0.8.13+commit.abaa5c0e"
    },
    "functionHashes": {
        "Hamburguesas(string)": "631b84bd",
        "direcciones(uint256)": "547cbcad",
        "hamburguesa()": "c74efaef",
        "hash1()": "ba1663ca",
        "hash_Id_alumno()": "65293a0d",
        "hashing(string)": "cb31c07e",
        "lista(uint256)": "0cc76c14",
        "nuevaDireccion()": "42d73314",
        "nuevoAlumno(string,uint256)": "5a37fba9"
    },
    "gasEstimates": {
        "creation": {
            "codeDepositCost": "442000",
            "executionCost": "480",
            "totalCost": "442480"
        },
        "external": {
            "Hamburguesas(string)": "infinite",
            "direcciones(uint256)": "4659",
            "hamburguesa()": "infinite",
            "hash1()": "2339",
            "hash_Id_alumno()": "2317",
            "hashing(string)": "infinite",
            "lista(uint256)": "infinite",
            "nuevaDireccion()": "48620",
            "nuevoAlumno(string,uint256)": "infinite"
        },
        "internal": {
            "hashIdAlumno(string memory,address,uint256)": "infinite"
        }
    }
}