{
    "contractName": "ValoresDeRetorno",
    "abi": [
        {
            "inputs": [
                {
                    "internalType": "uint256",
                    "name": "_a",
                    "type": "uint256"
                },
                {
                    "internalType": "uint256",
                    "name": "_b",
                    "type": "uint256"
                }
            ],
            "name": "division",
            "outputs": [
                {
                    "internalType": "uint256",
                    "name": "",
                    "type": "uint256"
                },
                {
                    "internalType": "uint256",
                    "name": "",
                    "type": "uint256"
                },
                {
                    "internalType": "bool",
                    "name": "",
                    "type": "bool"
                }
            ],
            "stateMutability": "pure",
            "type": "function"
        },
        {
            "inputs": [
                {
                    "internalType": "uint256",
                    "name": "_a",
                    "type": "uint256"
                },
                {
                    "internalType": "uint256",
                    "name": "_b",
                    "type": "uint256"
                }
            ],
            "name": "multiplicacion",
            "outputs": [
                {
                    "internalType": "uint256",
                    "name": "",
                    "type": "uint256"
                }
            ],
            "stateMutability": "pure",
            "type": "function"
        },
        {
            "inputs": [],
            "name": "numeros",
            "outputs": [
                {
                    "internalType": "uint256",
                    "name": "",
                    "type": "uint256"
                },
                {
                    "internalType": "uint256",
                    "name": "",
                    "type": "uint256"
                },
                {
                    "internalType": "uint256",
                    "name": "",
                    "type": "uint256"
                },
                {
                    "internalType": "uint256",
                    "name": "",
                    "type": "uint256"
                },
                {
                    "internalType": "uint256",
                    "name": "",
                    "type": "uint256"
                },
                {
                    "internalType": "uint256",
                    "name": "",
                    "type": "uint256"
                }
            ],
            "stateMutability": "pure",
            "type": "function"
        },
        {
            "inputs": [
                {
                    "internalType": "uint256",
                    "name": "_a",
                    "type": "uint256"
                }
            ],
            "name": "par_impar",
            "outputs": [
                {
                    "internalType": "bool",
                    "name": "",
                    "type": "bool"
                }
            ],
            "stateMutability": "pure",
            "type": "function"
        },
        {
            "inputs": [],
            "name": "saludos",
            "outputs": [
                {
                    "internalType": "string",
                    "name": "",
                    "type": "string"
                }
            ],
            "stateMutability": "pure",
            "type": "function"
        },
        {
            "inputs": [],
            "name": "todos_los_valores",
            "outputs": [],
            "stateMutability": "pure",
            "type": "function"
        },
        {
            "inputs": [],
            "name": "ultimo_valor",
            "outputs": [
                {
                    "internalType": "uint256",
                    "name": "",
                    "type": "uint256"
                }
            ],
            "stateMutability": "pure",
            "type": "function"
        }
    ],
    "bytecode": "608060405234801561001057600080fd5b50610312806100206000396000f3fe608060405234801561001057600080fd5b506004361061007d5760003560e01c8063c19af07c1161005b578063c19af07c146100f3578063d17fb9ea14610116578063e006805214610129578063e664737c1461015957600080fd5b80631819f9c3146100825780634439c8c014610098578063703b3404146100be575b600080fd5b60065b6040519081526020015b60405180910390f35b6040805180820182526004815263486f6c6160e01b6020820152905161008f91906101e1565b6040805160018152600260208201526003918101919091526004606082015260056080820152600660a082015260c00161008f565b610106610101366004610236565b61015b565b604051901515815260200161008f565b61008561012436600461024f565b610182565b61013c61013736600461024f565b610195565b60408051938452602084019290925215159082015260600161008f565b005b600080610169600284610287565b6000036101785750600161017c565b5060005b92915050565b600061018e828461029b565b9392505050565b60008080806101a485876102c8565b905060006101b28688610287565b905060006101c08789610287565b6000036101cf575060016101d3565b5060005b919450925090509250925092565b600060208083528351808285015260005b8181101561020e578581018301518582016040015282016101f2565b81811115610220576000604083870101525b50601f01601f1916929092016040019392505050565b60006020828403121561024857600080fd5b5035919050565b6000806040838503121561026257600080fd5b50508035926020909101359150565b634e487b7160e01b600052601260045260246000fd5b60008261029657610296610271565b500690565b60008160001904831182151516156102c357634e487b7160e01b600052601160045260246000fd5b500290565b6000826102d7576102d7610271565b50049056fea2646970667358221220e02fa4b4713eb70db0480f7f24be5f28f38afe9aa5d9c1a1442dd2cfbb5e139d64736f6c634300080d0033",
    "sourcePath": "/home/secondport/Documents/SmartContracts/Funciones/returns.sol",
    "compiler": {
        "name": "solc",
        "version": "0.8.13+commit.abaa5c0e"
    },
    "functionHashes": {
        "division(uint256,uint256)": "e0068052",
        "multiplicacion(uint256,uint256)": "d17fb9ea",
        "numeros()": "703b3404",
        "par_impar(uint256)": "c19af07c",
        "saludos()": "4439c8c0",
        "todos_los_valores()": "e664737c",
        "ultimo_valor()": "1819f9c3"
    },
    "gasEstimates": {
        "creation": {
            "codeDepositCost": "157200",
            "executionCost": "202",
            "totalCost": "157402"
        },
        "external": {
            "division(uint256,uint256)": "infinite",
            "multiplicacion(uint256,uint256)": "419",
            "numeros()": "324",
            "par_impar(uint256)": "396",
            "saludos()": "infinite",
            "todos_los_valores()": "186",
            "ultimo_valor()": "171"
        }
    }
}