{
    "contractName": "ValoresDeRetorno",
    "abi": [
        {
            "inputs": [
                {
                    "internalType": "uint256",
                    "name": "_a",
                    "type": "uint256"
                },
                {
                    "internalType": "uint256",
                    "name": "_b",
                    "type": "uint256"
                }
            ],
            "name": "division",
            "outputs": [
                {
                    "internalType": "uint256",
                    "name": "",
                    "type": "uint256"
                },
                {
                    "internalType": "uint256",
                    "name": "",
                    "type": "uint256"
                },
                {
                    "internalType": "bool",
                    "name": "",
                    "type": "bool"
                }
            ],
            "stateMutability": "nonpayable",
            "type": "function"
        },
        {
            "inputs": [
                {
                    "internalType": "uint256",
                    "name": "_a",
                    "type": "uint256"
                },
                {
                    "internalType": "uint256",
                    "name": "_b",
                    "type": "uint256"
                }
            ],
            "name": "multiplicacion",
            "outputs": [
                {
                    "internalType": "uint256",
                    "name": "",
                    "type": "uint256"
                }
            ],
            "stateMutability": "nonpayable",
            "type": "function"
        },
        {
            "inputs": [
                {
                    "internalType": "uint256",
                    "name": "_a",
                    "type": "uint256"
                }
            ],
            "name": "par_impar",
            "outputs": [
                {
                    "internalType": "bool",
                    "name": "",
                    "type": "bool"
                }
            ],
            "stateMutability": "nonpayable",
            "type": "function"
        },
        {
            "inputs": [],
            "name": "saludos",
            "outputs": [
                {
                    "internalType": "string",
                    "name": "",
                    "type": "string"
                }
            ],
            "stateMutability": "nonpayable",
            "type": "function"
        }
    ],
    "bytecode": "608060405234801561001057600080fd5b506102ab806100206000396000f3fe608060405234801561001057600080fd5b506004361061004c5760003560e01c80634439c8c014610051578063c19af07c14610080578063d17fb9ea146100a3578063e0068052146100c4575b600080fd5b6040805180820182526004815263486f6c6160e01b60208201529051610077919061017a565b60405180910390f35b61009361008e3660046101cf565b6100f4565b6040519015158152602001610077565b6100b66100b13660046101e8565b61011b565b604051908152602001610077565b6100d76100d23660046101e8565b61012e565b604080519384526020840192909252151590820152606001610077565b600080610102600284610220565b60000361011157506001610115565b5060005b92915050565b60006101278284610234565b9392505050565b600080808061013d8587610261565b9050600061014b8688610220565b905060006101598789610220565b6000036101685750600161016c565b5060005b919450925090509250925092565b600060208083528351808285015260005b818110156101a75785810183015185820160400152820161018b565b818111156101b9576000604083870101525b50601f01601f1916929092016040019392505050565b6000602082840312156101e157600080fd5b5035919050565b600080604083850312156101fb57600080fd5b50508035926020909101359150565b634e487b7160e01b600052601260045260246000fd5b60008261022f5761022f61020a565b500690565b600081600019048311821515161561025c57634e487b7160e01b600052601160045260246000fd5b500290565b6000826102705761027061020a565b50049056fea2646970667358221220846c5d60a25031d7314df7237a97e602bdf2b19ad715c30176c13e3443f96dff64736f6c634300080d0033",
    "sourcePath": "/home/secondport/Documents/SmartContracts/Funciones/returns.sol",
    "compiler": {
        "name": "solc",
        "version": "0.8.13+commit.abaa5c0e"
    },
    "functionHashes": {
        "division(uint256,uint256)": "e0068052",
        "multiplicacion(uint256,uint256)": "d17fb9ea",
        "par_impar(uint256)": "c19af07c",
        "saludos()": "4439c8c0"
    },
    "gasEstimates": {
        "creation": {
            "codeDepositCost": "136600",
            "executionCost": "183",
            "totalCost": "136783"
        },
        "external": {
            "division(uint256,uint256)": "infinite",
            "multiplicacion(uint256,uint256)": "430",
            "par_impar(uint256)": "396",
            "saludos()": "infinite"
        }
    }
}