{
    "contractName": "ValoresDeRetorno",
    "abi": [
        {
            "inputs": [
                {
                    "internalType": "uint256",
                    "name": "_a",
                    "type": "uint256"
                },
                {
                    "internalType": "uint256",
                    "name": "_b",
                    "type": "uint256"
                }
            ],
            "name": "division",
            "outputs": [
                {
                    "internalType": "uint256",
                    "name": "",
                    "type": "uint256"
                },
                {
                    "internalType": "uint256",
                    "name": "",
                    "type": "uint256"
                },
                {
                    "internalType": "bool",
                    "name": "",
                    "type": "bool"
                }
            ],
            "stateMutability": "nonpayable",
            "type": "function"
        },
        {
            "inputs": [
                {
                    "internalType": "uint256",
                    "name": "_a",
                    "type": "uint256"
                },
                {
                    "internalType": "uint256",
                    "name": "_b",
                    "type": "uint256"
                }
            ],
            "name": "multiplicacion",
            "outputs": [
                {
                    "internalType": "uint256",
                    "name": "",
                    "type": "uint256"
                }
            ],
            "stateMutability": "nonpayable",
            "type": "function"
        },
        {
            "inputs": [],
            "name": "numeros",
            "outputs": [
                {
                    "internalType": "uint256",
                    "name": "",
                    "type": "uint256"
                },
                {
                    "internalType": "uint256",
                    "name": "",
                    "type": "uint256"
                },
                {
                    "internalType": "uint256",
                    "name": "",
                    "type": "uint256"
                },
                {
                    "internalType": "uint256",
                    "name": "",
                    "type": "uint256"
                },
                {
                    "internalType": "uint256",
                    "name": "",
                    "type": "uint256"
                },
                {
                    "internalType": "uint256",
                    "name": "",
                    "type": "uint256"
                }
            ],
            "stateMutability": "nonpayable",
            "type": "function"
        },
        {
            "inputs": [
                {
                    "internalType": "uint256",
                    "name": "_a",
                    "type": "uint256"
                }
            ],
            "name": "par_impar",
            "outputs": [
                {
                    "internalType": "bool",
                    "name": "",
                    "type": "bool"
                }
            ],
            "stateMutability": "nonpayable",
            "type": "function"
        },
        {
            "inputs": [],
            "name": "saludos",
            "outputs": [
                {
                    "internalType": "string",
                    "name": "",
                    "type": "string"
                }
            ],
            "stateMutability": "nonpayable",
            "type": "function"
        },
        {
            "inputs": [],
            "name": "todos_los_valores",
            "outputs": [],
            "stateMutability": "nonpayable",
            "type": "function"
        },
        {
            "inputs": [],
            "name": "ultimo_valor",
            "outputs": [],
            "stateMutability": "nonpayable",
            "type": "function"
        }
    ],
    "bytecode": "608060405234801561001057600080fd5b50610313806100206000396000f3fe608060405234801561001057600080fd5b506004361061007d5760003560e01c8063c19af07c1161005b578063c19af07c146100e8578063d17fb9ea1461010b578063e00680521461012c578063e664737c1461008257600080fd5b80631819f9c3146100825780634439c8c014610084578063703b3404146100b3575b600080fd5b005b6040805180820182526004815263486f6c6160e01b602082015290516100aa91906101e2565b60405180910390f35b6040805160018152600260208201526003918101919091526004606082015260056080820152600660a082015260c0016100aa565b6100fb6100f6366004610237565b61015c565b60405190151581526020016100aa565b61011e610119366004610250565b610183565b6040519081526020016100aa565b61013f61013a366004610250565b610196565b6040805193845260208401929092521515908201526060016100aa565b60008061016a600284610288565b6000036101795750600161017d565b5060005b92915050565b600061018f828461029c565b9392505050565b60008080806101a585876102c9565b905060006101b38688610288565b905060006101c18789610288565b6000036101d0575060016101d4565b5060005b919450925090509250925092565b600060208083528351808285015260005b8181101561020f578581018301518582016040015282016101f3565b81811115610221576000604083870101525b50601f01601f1916929092016040019392505050565b60006020828403121561024957600080fd5b5035919050565b6000806040838503121561026357600080fd5b50508035926020909101359150565b634e487b7160e01b600052601260045260246000fd5b60008261029757610297610272565b500690565b60008160001904831182151516156102c457634e487b7160e01b600052601160045260246000fd5b500290565b6000826102d8576102d8610272565b50049056fea2646970667358221220c0f517387745a160f0c73a941a72d072d641d012bf823fc20020b256ccf7430864736f6c634300080d0033",
    "sourcePath": "/home/secondport/Documents/SmartContracts/Funciones/returns.sol",
    "compiler": {
        "name": "solc",
        "version": "0.8.13+commit.abaa5c0e"
    },
    "functionHashes": {
        "division(uint256,uint256)": "e0068052",
        "multiplicacion(uint256,uint256)": "d17fb9ea",
        "numeros()": "703b3404",
        "par_impar(uint256)": "c19af07c",
        "saludos()": "4439c8c0",
        "todos_los_valores()": "e664737c",
        "ultimo_valor()": "1819f9c3"
    },
    "gasEstimates": {
        "creation": {
            "codeDepositCost": "157400",
            "executionCost": "202",
            "totalCost": "157602"
        },
        "external": {
            "division(uint256,uint256)": "infinite",
            "multiplicacion(uint256,uint256)": "430",
            "numeros()": "324",
            "par_impar(uint256)": "396",
            "saludos()": "infinite",
            "todos_los_valores()": "186",
            "ultimo_valor()": "121"
        }
    }
}