{
    "contractName": "view_pure_payable",
    "abi": [
        {
            "inputs": [
                {
                    "internalType": "string",
                    "name": "_nombre",
                    "type": "string"
                },
                {
                    "internalType": "uint256",
                    "name": "_cant",
                    "type": "uint256"
                }
            ],
            "name": "Pagar",
            "outputs": [],
            "stateMutability": "payable",
            "type": "function"
        },
        {
            "inputs": [
                {
                    "internalType": "uint256",
                    "name": "_a",
                    "type": "uint256"
                },
                {
                    "internalType": "uint256",
                    "name": "_b",
                    "type": "uint256"
                }
            ],
            "name": "exponenciacion",
            "outputs": [
                {
                    "internalType": "uint256",
                    "name": "",
                    "type": "uint256"
                }
            ],
            "stateMutability": "pure",
            "type": "function"
        },
        {
            "inputs": [
                {
                    "internalType": "string",
                    "name": "_nombre",
                    "type": "string"
                }
            ],
            "name": "nuevo_alumno",
            "outputs": [],
            "stateMutability": "nonpayable",
            "type": "function"
        },
        {
            "inputs": [
                {
                    "internalType": "uint256",
                    "name": "_x",
                    "type": "uint256"
                }
            ],
            "name": "sumarAx",
            "outputs": [
                {
                    "internalType": "uint256",
                    "name": "",
                    "type": "uint256"
                }
            ],
            "stateMutability": "view",
            "type": "function"
        },
        {
            "inputs": [],
            "name": "verSaldo",
            "outputs": [
                {
                    "components": [
                        {
                            "internalType": "string",
                            "name": "nombre",
                            "type": "string"
                        },
                        {
                            "internalType": "address",
                            "name": "propietario",
                            "type": "address"
                        },
                        {
                            "internalType": "uint256",
                            "name": "dinero",
                            "type": "uint256"
                        }
                    ],
                    "internalType": "struct view_pure_payable.Cartera",
                    "name": "",
                    "type": "tuple"
                }
            ],
            "stateMutability": "view",
            "type": "function"
        },
        {
            "inputs": [
                {
                    "internalType": "uint256",
                    "name": "_pos",
                    "type": "uint256"
                }
            ],
            "name": "ver_alumno",
            "outputs": [
                {
                    "internalType": "string",
                    "name": "",
                    "type": "string"
                }
            ],
            "stateMutability": "view",
            "type": "function"
        }
    ],
    "bytecode": "6080604052600a60015534801561001557600080fd5b5061082f806100256000396000f3fe6080604052600436106100555760003560e01c80632ed245841461005a5780638a1999e21461008557806391269246146100b3578063a8e12a66146100d3578063eea91dd4146100f5578063f2ef72dd14610122575b600080fd5b34801561006657600080fd5b5061006f610135565b60405161007c91906104d1565b60405180910390f35b34801561009157600080fd5b506100a56100a0366004610518565b610230565b60405190815260200161007c565b3480156100bf57600080fd5b506100a56100ce36600461053a565b610245565b3480156100df57600080fd5b506100f36100ee3660046105f6565b610255565b005b34801561010157600080fd5b5061011561011036600461053a565b610299565b60405161007c9190610633565b6100f3610130366004610646565b610348565b61016260405180606001604052806060815260200160006001600160a01b03168152602001600081525090565b336000908152600260205260409081902081516060810190925280548290829061018b9061068b565b80601f01602080910402602001604051908101604052809291908181526020018280546101b79061068b565b80156102045780601f106101d957610100808354040283529160200191610204565b820191906000526020600020905b8154815290600101906020018083116101e757829003601f168201915b505050918352505060018201546001600160a01b03166020820152600290910154604090910152919050565b600061023c82846107bf565b90505b92915050565b60006001548261023f91906107cb565b600080546001810182559080528151610295917f290decd9548b62a8d60345a988386fc84ba6bc95484008f6362f93160ef3e563019060208401906103eb565b5050565b6060600082815481106102ae576102ae6107e3565b9060005260206000200180546102c39061068b565b80601f01602080910402602001604051908101604052809291908181526020018280546102ef9061068b565b801561033c5780601f106103115761010080835404028352916020019161033c565b820191906000526020600020905b81548152906001019060200180831161031f57829003601f168201915b50505050509050919050565b61037560405180606001604052806060815260200160006001600160a01b03168152602001600081525090565b506040805160608101825283815233602080830182905282840185905260009182526002815292902081518051929384936103b392849201906103eb565b5060208201516001820180546001600160a01b0319166001600160a01b03909216919091179055604090910151600290910155505050565b8280546103f79061068b565b90600052602060002090601f016020900481019282610419576000855561045f565b82601f1061043257805160ff191683800117855561045f565b8280016001018555821561045f579182015b8281111561045f578251825591602001919060010190610444565b5061046b92915061046f565b5090565b5b8082111561046b5760008155600101610470565b6000815180845260005b818110156104aa5760208185018101518683018201520161048e565b818111156104bc576000602083870101525b50601f01601f19169290920160200192915050565b6020815260008251606060208401526104ed6080840182610484565b60208501516001600160a01b0316604085810191909152909401516060909301929092525090919050565b6000806040838503121561052b57600080fd5b50508035926020909101359150565b60006020828403121561054c57600080fd5b5035919050565b634e487b7160e01b600052604160045260246000fd5b600082601f83011261057a57600080fd5b813567ffffffffffffffff8082111561059557610595610553565b604051601f8301601f19908116603f011681019082821181831017156105bd576105bd610553565b816040528381528660208588010111156105d657600080fd5b836020870160208301376000602085830101528094505050505092915050565b60006020828403121561060857600080fd5b813567ffffffffffffffff81111561061f57600080fd5b61062b84828501610569565b949350505050565b60208152600061023c6020830184610484565b6000806040838503121561065957600080fd5b823567ffffffffffffffff81111561067057600080fd5b61067c85828601610569565b95602094909401359450505050565b600181811c9082168061069f57607f821691505b6020821081036106bf57634e487b7160e01b600052602260045260246000fd5b50919050565b634e487b7160e01b600052601160045260246000fd5b600181815b808511156107165781600019048211156106fc576106fc6106c5565b8085161561070957918102915b93841c93908002906106e0565b509250929050565b60008261072d5750600161023f565b8161073a5750600061023f565b8160018114610750576002811461075a57610776565b600191505061023f565b60ff84111561076b5761076b6106c5565b50506001821b61023f565b5060208310610133831016604e8410600b8410161715610799575081810a61023f565b6107a383836106db565b80600019048211156107b7576107b76106c5565b029392505050565b600061023c838361071e565b600082198211156107de576107de6106c5565b500190565b634e487b7160e01b600052603260045260246000fdfea264697066735822122051c54907a7390406ae7f1db81d1f46984884c8301b03340dbae9f8332238b85d64736f6c634300080d0033",
    "sourcePath": "/home/secondport/Documents/SmartContracts/Funciones/modificadores.sol",
    "compiler": {
        "name": "solc",
        "version": "0.8.13+commit.abaa5c0e"
    },
    "functionHashes": {
        "Pagar(string,uint256)": "f2ef72dd",
        "exponenciacion(uint256,uint256)": "8a1999e2",
        "nuevo_alumno(string)": "a8e12a66",
        "sumarAx(uint256)": "91269246",
        "verSaldo()": "2ed24584",
        "ver_alumno(uint256)": "eea91dd4"
    },
    "gasEstimates": {
        "creation": {
            "codeDepositCost": "419000",
            "executionCost": "22561",
            "totalCost": "441561"
        },
        "external": {
            "Pagar(string,uint256)": "infinite",
            "exponenciacion(uint256,uint256)": "infinite",
            "nuevo_alumno(string)": "infinite",
            "sumarAx(uint256)": "2489",
            "verSaldo()": "infinite",
            "ver_alumno(uint256)": "infinite"
        }
    }
}