{
    "contractName": "CentroSalud",
    "abi": [
        {
            "inputs": [
                {
                    "internalType": "address",
                    "name": "_direccion",
                    "type": "address"
                }
            ],
            "payable": false,
            "stateMutability": "nonpayable",
            "type": "constructor"
        },
        {
            "constant": true,
            "inputs": [],
            "name": "DireccionCetroSalud",
            "outputs": [
                {
                    "internalType": "address",
                    "name": "",
                    "type": "address"
                }
            ],
            "payable": false,
            "stateMutability": "view",
            "type": "function"
        },
        {
            "constant": true,
            "inputs": [],
            "name": "DireccionContrato",
            "outputs": [
                {
                    "internalType": "address",
                    "name": "",
                    "type": "address"
                }
            ],
            "payable": false,
            "stateMutability": "view",
            "type": "function"
        }
    ],
    "bytecode": "608060405234801561001057600080fd5b506040516101b13803806101b183398101604081905261002f9161006e565b600080546001600160a01b039092166001600160a01b031992831617905560018054909116301790556100bc565b8051610068816100a5565b92915050565b60006020828403121561008057600080fd5b600061008c848461005d565b949350505050565b60006001600160a01b038216610068565b6100ae81610094565b81146100b957600080fd5b50565b60e7806100ca6000396000f3fe6080604052348015600f57600080fd5b506004361060325760003560e01c8063630ea6e2146037578063edddfbea146051575b600080fd5b603d6057565b604051604891906082565b60405180910390f35b603d6066565b6001546001600160a01b031681565b6000546001600160a01b031681565b607c816094565b82525050565b60208101608e82846075565b92915050565b60006001600160a01b038216608e56fea365627a7a7231582087ebc271b302e86fd9eeb6a3f323f4d0f087879bca207a853d4db695d0daa0a46c6578706572696d656e74616cf564736f6c63430005100040",
    "sourcePath": "/home/secondport/Documents/SmartContracts/Proyectos/Sistema-Gestion-CM-COVID19/COVID19.sol",
    "compiler": {
        "name": "solc",
        "version": "0.5.16+commit.9c3226ce"
    },
    "functionHashes": {
        "DireccionCetroSalud()": "edddfbea",
        "DireccionContrato()": "630ea6e2"
    },
    "gasEstimates": {
        "creation": {
            "codeDepositCost": "46200",
            "executionCost": "infinite",
            "totalCost": "infinite"
        },
        "external": {
            "DireccionCetroSalud()": "infinite",
            "DireccionContrato()": "infinite"
        }
    }
}