{
    "contractName": "CentroSalud",
    "abi": [
        {
            "inputs": [
                {
                    "internalType": "address",
                    "name": "_direccion",
                    "type": "address"
                }
            ],
            "payable": false,
            "stateMutability": "nonpayable",
            "type": "constructor"
        },
        {
            "anonymous": false,
            "inputs": [
                {
                    "indexed": false,
                    "internalType": "string",
                    "name": "",
                    "type": "string"
                },
                {
                    "indexed": false,
                    "internalType": "bool",
                    "name": "",
                    "type": "bool"
                }
            ],
            "name": "NuevoResultado",
            "type": "event"
        },
        {
            "constant": true,
            "inputs": [],
            "name": "DireccionCetroSalud",
            "outputs": [
                {
                    "internalType": "address",
                    "name": "",
                    "type": "address"
                }
            ],
            "payable": false,
            "stateMutability": "view",
            "type": "function"
        },
        {
            "constant": true,
            "inputs": [],
            "name": "DireccionContrato",
            "outputs": [
                {
                    "internalType": "address",
                    "name": "",
                    "type": "address"
                }
            ],
            "payable": false,
            "stateMutability": "view",
            "type": "function"
        },
        {
            "constant": false,
            "inputs": [
                {
                    "internalType": "string",
                    "name": "_idPersona",
                    "type": "string"
                },
                {
                    "internalType": "bool",
                    "name": "_resultadoCOVID",
                    "type": "bool"
                },
                {
                    "internalType": "string",
                    "name": "_codigoIPFS",
                    "type": "string"
                }
            ],
            "name": "ResultadosPruebaCOVID",
            "outputs": [],
            "payable": false,
            "stateMutability": "nonpayable",
            "type": "function"
        }
    ],
    "bytecode": "608060405234801561001057600080fd5b506040516105e73803806105e783398101604081905261002f9161006e565b600080546001600160a01b039092166001600160a01b031992831617905560018054909116301790556100bc565b8051610068816100a5565b92915050565b60006020828403121561008057600080fd5b600061008c848461005d565b949350505050565b60006001600160a01b038216610068565b6100ae81610094565b81146100b957600080fd5b50565b61051c806100cb6000396000f3fe608060405234801561001057600080fd5b50600436106100415760003560e01c8063630ea6e2146100465780637551cd6914610064578063edddfbea14610079575b600080fd5b61004e610081565b60405161005b91906103c1565b60405180910390f35b610077610072366004610286565b610090565b005b61004e610177565b6001546001600160a01b031681565b60005433906001600160a01b031681146100c55760405162461bcd60e51b81526004016100bc906103ef565b60405180910390fd5b6000846040516020016100d891906103ae565b60408051808303601f19018152828252805160209182012083830183528715158452818401878152600082815260028452939093208451815460ff191690151517815592518051919550610133926001850192910190610186565b509050507f052f38216c5a2d10ccccca46b32cb5bf76545ea4905dec7d2faf9064de0a922f83856040516101689291906103cf565b60405180910390a15050505050565b6000546001600160a01b031681565b828054600181600116156101000203166002900490600052602060002090601f016020900481019282601f106101c757805160ff19168380011785556101f4565b828001600101855582156101f4579182015b828111156101f45782518255916020019190600101906101d9565b50610200929150610204565b5090565b61021e91905b80821115610200576000815560010161020a565b90565b803561022c816104c2565b92915050565b600082601f83011261024357600080fd5b813561025661025182610426565b6103ff565b9150808252602083016020830185838301111561027257600080fd5b61027d83828461047c565b50505092915050565b60008060006060848603121561029b57600080fd5b833567ffffffffffffffff8111156102b257600080fd5b6102be86828701610232565b93505060206102cf86828701610221565b925050604084013567ffffffffffffffff8111156102ec57600080fd5b6102f886828701610232565b9150509250925092565b61030b81610460565b82525050565b61030b8161046b565b60006103258261044e565b61032f8185610452565b935061033f818560208601610488565b610348816104b8565b9093019392505050565b600061035d8261044e565b610367818561045b565b9350610377818560208601610488565b9290920192915050565b600061038e601183610452565b704e6f207469656e6573207065726d69736f60781b815260200192915050565b60006103ba8284610352565b9392505050565b6020810161022c8284610302565b604080825281016103e0818561031a565b90506103ba6020830184610311565b6020808252810161022c81610381565b60405181810167ffffffffffffffff8111828210171561041e57600080fd5b604052919050565b600067ffffffffffffffff82111561043d57600080fd5b506020601f91909101601f19160190565b5190565b90815260200190565b919050565b600061022c82610470565b151590565b6001600160a01b031690565b82818337506000910152565b60005b838110156104a357818101518382015260200161048b565b838111156104b2576000848401525b50505050565b601f01601f191690565b6104cb8161046b565b81146104d657600080fd5b5056fea365627a7a72315820d0ca27b3ededae36a217f62e028a76adad77a4f144cf3283bfbc27cb9f421a326c6578706572696d656e74616cf564736f6c63430005100040",
    "sourcePath": "/home/secondport/Documents/SmartContracts/Proyectos/Sistema-Gestion-CM-COVID19/COVID19.sol",
    "compiler": {
        "name": "solc",
        "version": "0.5.16+commit.9c3226ce"
    },
    "functionHashes": {
        "DireccionCetroSalud()": "edddfbea",
        "DireccionContrato()": "630ea6e2",
        "ResultadosPruebaCOVID(string,bool,string)": "7551cd69"
    },
    "gasEstimates": {
        "creation": {
            "codeDepositCost": "261600",
            "executionCost": "infinite",
            "totalCost": "infinite"
        },
        "external": {
            "DireccionCetroSalud()": "infinite",
            "DireccionContrato()": "infinite",
            "ResultadosPruebaCOVID(string,bool,string)": "infinite"
        }
    }
}