{
    "contractName": "CentroSalud",
    "abi": [
        {
            "inputs": [
                {
                    "internalType": "address",
                    "name": "_direccion",
                    "type": "address"
                }
            ],
            "payable": false,
            "stateMutability": "nonpayable",
            "type": "constructor"
        },
        {
            "anonymous": false,
            "inputs": [
                {
                    "indexed": false,
                    "internalType": "string",
                    "name": "",
                    "type": "string"
                },
                {
                    "indexed": false,
                    "internalType": "bool",
                    "name": "",
                    "type": "bool"
                }
            ],
            "name": "NuevoResultado",
            "type": "event"
        },
        {
            "constant": true,
            "inputs": [],
            "name": "DireccionCetroSalud",
            "outputs": [
                {
                    "internalType": "address",
                    "name": "",
                    "type": "address"
                }
            ],
            "payable": false,
            "stateMutability": "view",
            "type": "function"
        },
        {
            "constant": true,
            "inputs": [],
            "name": "DireccionContrato",
            "outputs": [
                {
                    "internalType": "address",
                    "name": "",
                    "type": "address"
                }
            ],
            "payable": false,
            "stateMutability": "view",
            "type": "function"
        },
        {
            "constant": true,
            "inputs": [
                {
                    "internalType": "bytes32",
                    "name": "",
                    "type": "bytes32"
                }
            ],
            "name": "ResultadoCOVID",
            "outputs": [
                {
                    "internalType": "bool",
                    "name": "",
                    "type": "bool"
                }
            ],
            "payable": false,
            "stateMutability": "view",
            "type": "function"
        }
    ],
    "bytecode": "608060405234801561001057600080fd5b5060405161026e38038061026e83398101604081905261002f9161006e565b600080546001600160a01b039092166001600160a01b031992831617905560018054909116301790556100bc565b8051610068816100a5565b92915050565b60006020828403121561008057600080fd5b600061008c848461005d565b949350505050565b60006001600160a01b038216610068565b6100ae81610094565b81146100b957600080fd5b50565b6101a3806100cb6000396000f3fe608060405234801561001057600080fd5b50600436106100415760003560e01c8063630ea6e214610046578063e4f837d214610064578063edddfbea14610084575b600080fd5b61004e61008c565b60405161005b919061010e565b60405180910390f35b6100776100723660046100d0565b61009b565b60405161005b919061011c565b61004e6100b0565b6001546001600160a01b031681565b60026020526000908152604090205460ff1681565b6000546001600160a01b031681565b80356100ca81610149565b92915050565b6000602082840312156100e257600080fd5b60006100ee84846100bf565b949350505050565b6100ff8161012a565b82525050565b6100ff81610135565b602081016100ca82846100f6565b602081016100ca8284610105565b60006100ca8261013d565b151590565b90565b6001600160a01b031690565b6101528161013a565b811461015d57600080fd5b5056fea365627a7a72315820730418ab694cc42580b4db51a64628d128bc025323f70995d048312cc4289f216c6578706572696d656e74616cf564736f6c63430005100040",
    "sourcePath": "/home/secondport/Documents/SmartContracts/Proyectos/Sistema-Gestion-CM-COVID19/COVID19.sol",
    "compiler": {
        "name": "solc",
        "version": "0.5.16+commit.9c3226ce"
    },
    "functionHashes": {
        "DireccionCetroSalud()": "edddfbea",
        "DireccionContrato()": "630ea6e2",
        "ResultadoCOVID(bytes32)": "e4f837d2"
    },
    "gasEstimates": {
        "creation": {
            "codeDepositCost": "83800",
            "executionCost": "infinite",
            "totalCost": "infinite"
        },
        "external": {
            "DireccionCetroSalud()": "infinite",
            "DireccionContrato()": "infinite",
            "ResultadoCOVID(bytes32)": "infinite"
        }
    }
}