{
    "contractName": "OMS_COVID19",
    "abi": [
        {
            "inputs": [],
            "payable": false,
            "stateMutability": "nonpayable",
            "type": "constructor"
        },
        {
            "anonymous": false,
            "inputs": [
                {
                    "indexed": false,
                    "internalType": "address",
                    "name": "",
                    "type": "address"
                }
            ],
            "name": "NuevoCentroValidado",
            "type": "event"
        },
        {
            "anonymous": false,
            "inputs": [
                {
                    "indexed": false,
                    "internalType": "address",
                    "name": "",
                    "type": "address"
                },
                {
                    "indexed": false,
                    "internalType": "address",
                    "name": "",
                    "type": "address"
                }
            ],
            "name": "NuevoContrato",
            "type": "event"
        },
        {
            "anonymous": false,
            "inputs": [
                {
                    "indexed": false,
                    "internalType": "address",
                    "name": "",
                    "type": "address"
                }
            ],
            "name": "SolicitudAcceso",
            "type": "event"
        },
        {
            "constant": true,
            "inputs": [
                {
                    "internalType": "address",
                    "name": "",
                    "type": "address"
                }
            ],
            "name": "CentroSalud_Contrato",
            "outputs": [
                {
                    "internalType": "address",
                    "name": "",
                    "type": "address"
                }
            ],
            "payable": false,
            "stateMutability": "view",
            "type": "function"
        },
        {
            "constant": false,
            "inputs": [
                {
                    "internalType": "address",
                    "name": "_centroSalud",
                    "type": "address"
                }
            ],
            "name": "CentrosSalud",
            "outputs": [],
            "payable": false,
            "stateMutability": "nonpayable",
            "type": "function"
        },
        {
            "constant": false,
            "inputs": [],
            "name": "FactoryCentroSalud",
            "outputs": [],
            "payable": false,
            "stateMutability": "nonpayable",
            "type": "function"
        },
        {
            "constant": true,
            "inputs": [],
            "name": "OMS",
            "outputs": [
                {
                    "internalType": "address",
                    "name": "",
                    "type": "address"
                }
            ],
            "payable": false,
            "stateMutability": "view",
            "type": "function"
        },
        {
            "constant": true,
            "inputs": [
                {
                    "internalType": "uint256",
                    "name": "",
                    "type": "uint256"
                }
            ],
            "name": "Solicitudes",
            "outputs": [
                {
                    "internalType": "address",
                    "name": "",
                    "type": "address"
                }
            ],
            "payable": false,
            "stateMutability": "view",
            "type": "function"
        },
        {
            "constant": false,
            "inputs": [],
            "name": "SolictarAcceso",
            "outputs": [],
            "payable": false,
            "stateMutability": "nonpayable",
            "type": "function"
        },
        {
            "constant": true,
            "inputs": [
                {
                    "internalType": "address",
                    "name": "",
                    "type": "address"
                }
            ],
            "name": "Validacion_CentrosSalud",
            "outputs": [
                {
                    "internalType": "bool",
                    "name": "",
                    "type": "bool"
                }
            ],
            "payable": false,
            "stateMutability": "view",
            "type": "function"
        },
        {
            "constant": false,
            "inputs": [],
            "name": "VisualizarSocilicitude",
            "outputs": [
                {
                    "internalType": "address[]",
                    "name": "",
                    "type": "address[]"
                }
            ],
            "payable": false,
            "stateMutability": "nonpayable",
            "type": "function"
        },
        {
            "constant": true,
            "inputs": [
                {
                    "internalType": "uint256",
                    "name": "",
                    "type": "uint256"
                }
            ],
            "name": "direcciones_contratos_salud",
            "outputs": [
                {
                    "internalType": "address",
                    "name": "",
                    "type": "address"
                }
            ],
            "payable": false,
            "stateMutability": "view",
            "type": "function"
        }
    ],
    "bytecode": "608060405234801561001057600080fd5b50600080546001600160a01b03191633179055610c90806100326000396000f3fe608060405234801561001057600080fd5b50600436106100935760003560e01c80637b1e8faf116100665780637b1e8faf146100fc57806385e3e11414610111578063940c89fe146101245780639687a42c1461012e578063bacf5ac71461013657610093565b8063057dd608146100985780630c21f0df146100b6578063535b83e7146100c95780637610d05d146100e9575b600080fd5b6100a0610149565b6040516100ad9190610596565b60405180910390f35b6100a06100c4366004610497565b610158565b6100dc6100d7366004610497565b610173565b6040516100ad91906105e5565b6100a06100f73660046104bd565b610188565b6101046101af565b6040516100ad91906105d4565b6100a061011f3660046104bd565b610248565b61012c610255565b005b61012c6102d2565b61012c610144366004610497565b6103e1565b6000546001600160a01b031681565b6002602052600090815260409020546001600160a01b031681565b60016020526000908152604090205460ff1681565b6003818154811061019557fe5b6000918252602090912001546001600160a01b0316905081565b60005460609033906001600160a01b031681146101e75760405162461bcd60e51b81526004016101de906105f3565b60405180910390fd5b600480548060200260200160405190810160405280929190818152602001828054801561023d57602002820191906000526020600020905b81546001600160a01b0316815260019091019060200180831161021f575b505050505091505090565b6004818154811061019557fe5b600480546001810182556000919091527f8a35acfbc15ff81a39ae7d344fd709f28e8600b4aa8c65c6b64bfe7fe36bd19b0180546001600160a01b031916339081179091556040517feba56e5f1457ce7bc7b40b05ba0b52c95aa6e677bc7309c9cbfc24da26a58974916102c8916105a4565b60405180910390a1565b3360009081526001602081905260409091205460ff161515146103075760405162461bcd60e51b81526004016101de906105f3565b6000336040516103169061046e565b61032091906105a4565b604051809103906000f08015801561033c573d6000803e3d6000fd5b5060038054600181019091557fc2575a0e9e593c00f959f8c92f12db2869c3395a3b0502d05e2516446f71f85b0180546001600160a01b0383166001600160a01b031991821681179092553360008181526002602052604090819020805490931690931790915590519192507fe08a9f416b8c3655f59535f4609d69e3b126ca6c0591451ee1d49a6430ab39c6916103d6919084906105b2565b60405180910390a150565b60005433906001600160a01b0316811461040d5760405162461bcd60e51b81526004016101de906105f3565b6001600160a01b038216600090815260016020819052604091829020805460ff19169091179055517f49fbbe88355a886408e8788b96b735508be2a0bec15825ef8ffc24aa5c6cb82990610462908490610596565b60405180910390a15050565b6105e78061066783390190565b803561048681610646565b92915050565b80356104868161065d565b6000602082840312156104a957600080fd5b60006104b5848461047b565b949350505050565b6000602082840312156104cf57600080fd5b60006104b5848461048c565b60006104e783836104fe565b505060200190565b6104f881610635565b82525050565b6104f881610616565b600061051282610609565b61051c818561060d565b935061052783610603565b8060005b8381101561055557815161053f88826104db565b975061054a83610603565b92505060010161052b565b509495945050505050565b6104f881610621565b600061057660118361060d565b704e6f207469656e6573207065726d69736f60781b815260200192915050565b6020810161048682846104fe565b6020810161048682846104ef565b604081016105c082856104ef565b6105cd60208301846104fe565b9392505050565b602080825281016105cd8184610507565b602081016104868284610560565b6020808252810161048681610569565b60200190565b5190565b90815260200190565b600061048682610626565b151590565b6001600160a01b031690565b90565b600061048682600061048682610616565b61064f81610616565b811461065a57600080fd5b50565b61064f8161063256fe608060405234801561001057600080fd5b506040516105e73803806105e783398101604081905261002f9161006e565b600080546001600160a01b039092166001600160a01b031992831617905560018054909116301790556100bc565b8051610068816100a5565b92915050565b60006020828403121561008057600080fd5b600061008c848461005d565b949350505050565b60006001600160a01b038216610068565b6100ae81610094565b81146100b957600080fd5b50565b61051c806100cb6000396000f3fe608060405234801561001057600080fd5b50600436106100415760003560e01c8063630ea6e2146100465780637551cd6914610064578063edddfbea14610079575b600080fd5b61004e610081565b60405161005b91906103c1565b60405180910390f35b610077610072366004610286565b610090565b005b61004e610177565b6001546001600160a01b031681565b60005433906001600160a01b031681146100c55760405162461bcd60e51b81526004016100bc906103ef565b60405180910390fd5b6000846040516020016100d891906103ae565b60408051808303601f19018152828252805160209182012083830183528715158452818401878152600082815260028452939093208451815460ff191690151517815592518051919550610133926001850192910190610186565b509050507f052f38216c5a2d10ccccca46b32cb5bf76545ea4905dec7d2faf9064de0a922f83856040516101689291906103cf565b60405180910390a15050505050565b6000546001600160a01b031681565b828054600181600116156101000203166002900490600052602060002090601f016020900481019282601f106101c757805160ff19168380011785556101f4565b828001600101855582156101f4579182015b828111156101f45782518255916020019190600101906101d9565b50610200929150610204565b5090565b61021e91905b80821115610200576000815560010161020a565b90565b803561022c816104c2565b92915050565b600082601f83011261024357600080fd5b813561025661025182610426565b6103ff565b9150808252602083016020830185838301111561027257600080fd5b61027d83828461047c565b50505092915050565b60008060006060848603121561029b57600080fd5b833567ffffffffffffffff8111156102b257600080fd5b6102be86828701610232565b93505060206102cf86828701610221565b925050604084013567ffffffffffffffff8111156102ec57600080fd5b6102f886828701610232565b9150509250925092565b61030b81610460565b82525050565b61030b8161046b565b60006103258261044e565b61032f8185610452565b935061033f818560208601610488565b610348816104b8565b9093019392505050565b600061035d8261044e565b610367818561045b565b9350610377818560208601610488565b9290920192915050565b600061038e601183610452565b704e6f207469656e6573207065726d69736f60781b815260200192915050565b60006103ba8284610352565b9392505050565b6020810161022c8284610302565b604080825281016103e0818561031a565b90506103ba6020830184610311565b6020808252810161022c81610381565b60405181810167ffffffffffffffff8111828210171561041e57600080fd5b604052919050565b600067ffffffffffffffff82111561043d57600080fd5b506020601f91909101601f19160190565b5190565b90815260200190565b919050565b600061022c82610470565b151590565b6001600160a01b031690565b82818337506000910152565b60005b838110156104a357818101518382015260200161048b565b838111156104b2576000848401525b50505050565b601f01601f191690565b6104cb8161046b565b81146104d657600080fd5b5056fea365627a7a72315820d0ca27b3ededae36a217f62e028a76adad77a4f144cf3283bfbc27cb9f421a326c6578706572696d656e74616cf564736f6c63430005100040a365627a7a72315820866beecd4dc66ca318822c10d88dcacd74265270d4b0fa862b924c83fd603bd56c6578706572696d656e74616cf564736f6c63430005100040",
    "sourcePath": "/home/secondport/Documents/SmartContracts/Proyectos/Sistema-Gestion-CM-COVID19/COVID19.sol",
    "compiler": {
        "name": "solc",
        "version": "0.5.16+commit.9c3226ce"
    },
    "functionHashes": {
        "CentroSalud_Contrato(address)": "0c21f0df",
        "CentrosSalud(address)": "bacf5ac7",
        "FactoryCentroSalud()": "9687a42c",
        "OMS()": "057dd608",
        "Solicitudes(uint256)": "85e3e114",
        "SolictarAcceso()": "940c89fe",
        "Validacion_CentrosSalud(address)": "535b83e7",
        "VisualizarSocilicitude()": "7b1e8faf",
        "direcciones_contratos_salud(uint256)": "7610d05d"
    },
    "gasEstimates": {
        "creation": {
            "codeDepositCost": "643200",
            "executionCost": "21511",
            "totalCost": "664711"
        },
        "external": {
            "CentroSalud_Contrato(address)": "infinite",
            "CentrosSalud(address)": "infinite",
            "FactoryCentroSalud()": "infinite",
            "OMS()": "infinite",
            "Solicitudes(uint256)": "infinite",
            "SolictarAcceso()": "infinite",
            "Validacion_CentrosSalud(address)": "infinite",
            "VisualizarSocilicitude()": "infinite",
            "direcciones_contratos_salud(uint256)": "infinite"
        }
    }
}