{
    "contractName": "OMS_COVID19",
    "abi": [
        {
            "inputs": [],
            "payable": false,
            "stateMutability": "nonpayable",
            "type": "constructor"
        },
        {
            "anonymous": false,
            "inputs": [
                {
                    "indexed": false,
                    "internalType": "address",
                    "name": "",
                    "type": "address"
                }
            ],
            "name": "NuevoCentroValidado",
            "type": "event"
        },
        {
            "anonymous": false,
            "inputs": [
                {
                    "indexed": false,
                    "internalType": "address",
                    "name": "",
                    "type": "address"
                },
                {
                    "indexed": false,
                    "internalType": "address",
                    "name": "",
                    "type": "address"
                }
            ],
            "name": "NuevoContrato",
            "type": "event"
        },
        {
            "anonymous": false,
            "inputs": [
                {
                    "indexed": false,
                    "internalType": "address",
                    "name": "",
                    "type": "address"
                }
            ],
            "name": "SolicitudAcceso",
            "type": "event"
        },
        {
            "constant": true,
            "inputs": [
                {
                    "internalType": "address",
                    "name": "",
                    "type": "address"
                }
            ],
            "name": "CentroSalud_Contrato",
            "outputs": [
                {
                    "internalType": "address",
                    "name": "",
                    "type": "address"
                }
            ],
            "payable": false,
            "stateMutability": "view",
            "type": "function"
        },
        {
            "constant": false,
            "inputs": [
                {
                    "internalType": "address",
                    "name": "_centroSalud",
                    "type": "address"
                }
            ],
            "name": "CentrosSalud",
            "outputs": [],
            "payable": false,
            "stateMutability": "nonpayable",
            "type": "function"
        },
        {
            "constant": false,
            "inputs": [],
            "name": "FactoryCentroSalud",
            "outputs": [],
            "payable": false,
            "stateMutability": "nonpayable",
            "type": "function"
        },
        {
            "constant": true,
            "inputs": [],
            "name": "OMS",
            "outputs": [
                {
                    "internalType": "address",
                    "name": "",
                    "type": "address"
                }
            ],
            "payable": false,
            "stateMutability": "view",
            "type": "function"
        },
        {
            "constant": false,
            "inputs": [],
            "name": "SolictarAcceso",
            "outputs": [],
            "payable": false,
            "stateMutability": "nonpayable",
            "type": "function"
        },
        {
            "constant": true,
            "inputs": [
                {
                    "internalType": "address",
                    "name": "",
                    "type": "address"
                }
            ],
            "name": "Validacion_CentrosSalud",
            "outputs": [
                {
                    "internalType": "bool",
                    "name": "",
                    "type": "bool"
                }
            ],
            "payable": false,
            "stateMutability": "view",
            "type": "function"
        },
        {
            "constant": true,
            "inputs": [],
            "name": "VisualizarSocilicitudes",
            "outputs": [
                {
                    "internalType": "address[]",
                    "name": "",
                    "type": "address[]"
                }
            ],
            "payable": false,
            "stateMutability": "view",
            "type": "function"
        },
        {
            "constant": true,
            "inputs": [
                {
                    "internalType": "uint256",
                    "name": "",
                    "type": "uint256"
                }
            ],
            "name": "direcciones_contratos_salud",
            "outputs": [
                {
                    "internalType": "address",
                    "name": "",
                    "type": "address"
                }
            ],
            "payable": false,
            "stateMutability": "view",
            "type": "function"
        }
    ],
    "bytecode": "608060405234801561001057600080fd5b50600080546001600160a01b03191633179055610e6f806100326000396000f3fe608060405234801561001057600080fd5b50600436106100885760003560e01c80637610d05d1161005b5780637610d05d146100f3578063940c89fe146101065780639687a42c14610110578063bacf5ac71461011857610088565b8063057dd6081461008d5780630c21f0df146100ab578063444cd8b0146100be578063535b83e7146100d3575b600080fd5b61009561012b565b6040516100a29190610598565b60405180910390f35b6100956100b9366004610499565b61013a565b6100c6610155565b6040516100a291906105d6565b6100e66100e1366004610499565b6101ee565b6040516100a291906105e7565b6100956101013660046104bf565b610203565b61010e61022a565b005b61010e6102a7565b61010e610126366004610499565b6103b6565b6000546001600160a01b031681565b6002602052600090815260409020546001600160a01b031681565b60005460609033906001600160a01b0316811461018d5760405162461bcd60e51b8152600401610184906105f5565b60405180910390fd5b60048054806020026020016040519081016040528092919081815260200182805480156101e357602002820191906000526020600020905b81546001600160a01b031681526001909101906020018083116101c5575b505050505091505090565b60016020526000908152604090205460ff1681565b6003818154811061021057fe5b6000918252602090912001546001600160a01b0316905081565b600480546001810182556000919091527f8a35acfbc15ff81a39ae7d344fd709f28e8600b4aa8c65c6b64bfe7fe36bd19b0180546001600160a01b031916339081179091556040517feba56e5f1457ce7bc7b40b05ba0b52c95aa6e677bc7309c9cbfc24da26a589749161029d916105a6565b60405180910390a1565b3360009081526001602081905260409091205460ff161515146102dc5760405162461bcd60e51b8152600401610184906105f5565b6000336040516102eb90610470565b6102f591906105a6565b604051809103906000f080158015610311573d6000803e3d6000fd5b5060038054600181019091557fc2575a0e9e593c00f959f8c92f12db2869c3395a3b0502d05e2516446f71f85b0180546001600160a01b0383166001600160a01b031991821681179092553360008181526002602052604090819020805490931690931790915590519192507fe08a9f416b8c3655f59535f4609d69e3b126ca6c0591451ee1d49a6430ab39c6916103ab919084906105b4565b60405180910390a150565b60005433906001600160a01b031681146103e25760405162461bcd60e51b8152600401610184906105f5565b6001600160a01b038216600090815260016020819052604091829020805460ff19169091179055517f49fbbe88355a886408e8788b96b735508be2a0bec15825ef8ffc24aa5c6cb82990610437908490610598565b60405180910390a1600480548061044a57fe5b600082815260209020810160001990810180546001600160a01b03191690550190555050565b6107c48061066983390190565b803561048881610648565b92915050565b80356104888161065f565b6000602082840312156104ab57600080fd5b60006104b7848461047d565b949350505050565b6000602082840312156104d157600080fd5b60006104b7848461048e565b60006104e98383610500565b505060200190565b6104fa81610637565b82525050565b6104fa81610618565b60006105148261060b565b61051e818561060f565b935061052983610605565b8060005b8381101561055757815161054188826104dd565b975061054c83610605565b92505060010161052d565b509495945050505050565b6104fa81610623565b600061057860118361060f565b704e6f207469656e6573207065726d69736f60781b815260200192915050565b602081016104888284610500565b6020810161048882846104f1565b604081016105c282856104f1565b6105cf6020830184610500565b9392505050565b602080825281016105cf8184610509565b602081016104888284610562565b602080825281016104888161056b565b60200190565b5190565b90815260200190565b600061048882610628565b151590565b6001600160a01b031690565b90565b600061048882600061048882610618565b61065181610618565b811461065c57600080fd5b50565b6106518161063456fe608060405234801561001057600080fd5b506040516107c43803806107c483398101604081905261002f9161006e565b600080546001600160a01b039092166001600160a01b031992831617905560018054909116301790556100bc565b8051610068816100a5565b92915050565b60006020828403121561008057600080fd5b600061008c848461005d565b949350505050565b60006001600160a01b038216610068565b6100ae81610094565b81146100b957600080fd5b50565b6106f9806100cb6000396000f3fe608060405234801561001057600080fd5b506004361061004c5760003560e01c8063630ea6e2146100515780637551cd691461006f578063dad6ebeb14610084578063edddfbea146100a5575b600080fd5b6100596100ad565b6040516100669190610579565b60405180910390f35b61008261007d36600461043e565b6100bc565b005b610097610092366004610401565b6101a3565b6040516100669291906105a7565b6100596102f2565b6001546001600160a01b031681565b60005433906001600160a01b031681146100f15760405162461bcd60e51b81526004016100e8906105cc565b60405180910390fd5b6000846040516020016101049190610566565b60408051808303601f19018152828252805160209182012083830183528715158452818401878152600082815260028452939093208451815460ff19169015151781559251805191955061015f926001850192910190610301565b509050507f052f38216c5a2d10ccccca46b32cb5bf76545ea4905dec7d2faf9064de0a922f8385604051610194929190610587565b60405180910390a15050505050565b6060806000836040516020016101b99190610566565b60408051601f1981840301815291815281516020928301206000818152600290935291205490915060609060ff161515600114156102165750604080518082019091526008815267506f73697469766f60c01b6020820152610237565b506040805180820190915260088152674e6567617469766f60c01b60208201525b809350600260008381526020019081526020016000206001018054600181600116156101000203166002900480601f0160208091040260200160405190810160405280929190818152602001828054600181600116156101000203166002900480156102e45780601f106102b9576101008083540402835291602001916102e4565b820191906000526020600020905b8154815290600101906020018083116102c757829003601f168201915b505050505092505050915091565b6000546001600160a01b031681565b828054600181600116156101000203166002900490600052602060002090601f016020900481019282601f1061034257805160ff191683800117855561036f565b8280016001018555821561036f579182015b8281111561036f578251825591602001919060010190610354565b5061037b92915061037f565b5090565b61039991905b8082111561037b5760008155600101610385565b90565b80356103a78161069f565b92915050565b600082601f8301126103be57600080fd5b81356103d16103cc82610603565b6105dc565b915080825260208301602083018583830111156103ed57600080fd5b6103f8838284610659565b50505092915050565b60006020828403121561041357600080fd5b813567ffffffffffffffff81111561042a57600080fd5b610436848285016103ad565b949350505050565b60008060006060848603121561045357600080fd5b833567ffffffffffffffff81111561046a57600080fd5b610476868287016103ad565b93505060206104878682870161039c565b925050604084013567ffffffffffffffff8111156104a457600080fd5b6104b0868287016103ad565b9150509250925092565b6104c38161063d565b82525050565b6104c381610648565b60006104dd8261062b565b6104e7818561062f565b93506104f7818560208601610665565b61050081610695565b9093019392505050565b60006105158261062b565b61051f8185610638565b935061052f818560208601610665565b9290920192915050565b600061054660118361062f565b704e6f207469656e6573207065726d69736f60781b815260200192915050565b6000610572828461050a565b9392505050565b602081016103a782846104ba565b6040808252810161059881856104d2565b905061057260208301846104c9565b604080825281016105b881856104d2565b9050818103602083015261043681846104d2565b602080825281016103a781610539565b60405181810167ffffffffffffffff811182821017156105fb57600080fd5b604052919050565b600067ffffffffffffffff82111561061a57600080fd5b506020601f91909101601f19160190565b5190565b90815260200190565b919050565b60006103a78261064d565b151590565b6001600160a01b031690565b82818337506000910152565b60005b83811015610680578181015183820152602001610668565b8381111561068f576000848401525b50505050565b601f01601f191690565b6106a881610648565b81146106b357600080fd5b5056fea365627a7a723158204d7c521fae667a1a73ef6824b4c8e3d85de2fec0a16a08edd266056751dd0a0b6c6578706572696d656e74616cf564736f6c63430005100040a365627a7a72315820c668617a72ae8e32e8b8a7a726216cf49d0a5ab4836a19c961ea731e2b218e786c6578706572696d656e74616cf564736f6c63430005100040",
    "sourcePath": "/home/secondport/Documents/SmartContracts/Proyectos/Sistema-Gestion-CM-COVID19/COVID19.sol",
    "compiler": {
        "name": "solc",
        "version": "0.5.16+commit.9c3226ce"
    },
    "functionHashes": {
        "CentroSalud_Contrato(address)": "0c21f0df",
        "CentrosSalud(address)": "bacf5ac7",
        "FactoryCentroSalud()": "9687a42c",
        "OMS()": "057dd608",
        "SolictarAcceso()": "940c89fe",
        "Validacion_CentrosSalud(address)": "535b83e7",
        "VisualizarSocilicitudes()": "444cd8b0",
        "direcciones_contratos_salud(uint256)": "7610d05d"
    },
    "gasEstimates": {
        "creation": {
            "codeDepositCost": "739000",
            "executionCost": "21608",
            "totalCost": "760608"
        },
        "external": {
            "CentroSalud_Contrato(address)": "infinite",
            "CentrosSalud(address)": "infinite",
            "FactoryCentroSalud()": "infinite",
            "OMS()": "infinite",
            "SolictarAcceso()": "infinite",
            "Validacion_CentrosSalud(address)": "infinite",
            "VisualizarSocilicitudes()": "infinite",
            "direcciones_contratos_salud(uint256)": "infinite"
        }
    }
}