{
    "contractName": "InsuranceFactory",
    "abi": [
        {
            "inputs": [],
            "payable": false,
            "stateMutability": "nonpayable",
            "type": "constructor"
        },
        {
            "anonymous": false,
            "inputs": [
                {
                    "indexed": false,
                    "internalType": "address",
                    "name": "",
                    "type": "address"
                },
                {
                    "indexed": false,
                    "internalType": "address",
                    "name": "",
                    "type": "address"
                }
            ],
            "name": "AseguradoCreado",
            "type": "event"
        },
        {
            "anonymous": false,
            "inputs": [
                {
                    "indexed": false,
                    "internalType": "address",
                    "name": "",
                    "type": "address"
                }
            ],
            "name": "BajaAsegurado",
            "type": "event"
        },
        {
            "anonymous": false,
            "inputs": [
                {
                    "indexed": false,
                    "internalType": "string",
                    "name": "",
                    "type": "string"
                }
            ],
            "name": "BajaServicio",
            "type": "event"
        },
        {
            "anonymous": false,
            "inputs": [
                {
                    "indexed": false,
                    "internalType": "uint256",
                    "name": "",
                    "type": "uint256"
                }
            ],
            "name": "EventoComprado",
            "type": "event"
        },
        {
            "anonymous": false,
            "inputs": [
                {
                    "indexed": false,
                    "internalType": "address",
                    "name": "",
                    "type": "address"
                },
                {
                    "indexed": false,
                    "internalType": "string[]",
                    "name": "",
                    "type": "string[]"
                },
                {
                    "indexed": false,
                    "internalType": "uint256",
                    "name": "",
                    "type": "uint256"
                }
            ],
            "name": "EventoServicioProporcionado",
            "type": "event"
        },
        {
            "anonymous": false,
            "inputs": [
                {
                    "indexed": false,
                    "internalType": "address",
                    "name": "",
                    "type": "address"
                },
                {
                    "indexed": false,
                    "internalType": "address",
                    "name": "",
                    "type": "address"
                }
            ],
            "name": "LaboratorioCreado",
            "type": "event"
        },
        {
            "anonymous": false,
            "inputs": [
                {
                    "indexed": false,
                    "internalType": "string",
                    "name": "",
                    "type": "string"
                },
                {
                    "indexed": false,
                    "internalType": "uint256",
                    "name": "",
                    "type": "uint256"
                }
            ],
            "name": "ServicioCreado",
            "type": "event"
        },
        {
            "constant": true,
            "inputs": [],
            "name": "Aseguradora",
            "outputs": [
                {
                    "internalType": "address payable",
                    "name": "",
                    "type": "address"
                }
            ],
            "payable": false,
            "stateMutability": "view",
            "type": "function"
        },
        {
            "constant": true,
            "inputs": [],
            "name": "ConsultarServicioActivos",
            "outputs": [
                {
                    "internalType": "string[]",
                    "name": "",
                    "type": "string[]"
                }
            ],
            "payable": false,
            "stateMutability": "view",
            "type": "function"
        },
        {
            "constant": true,
            "inputs": [
                {
                    "internalType": "address",
                    "name": "_direccioAsegurado",
                    "type": "address"
                }
            ],
            "name": "FuncionUnicamenteAsegurados",
            "outputs": [],
            "payable": false,
            "stateMutability": "view",
            "type": "function"
        },
        {
            "constant": true,
            "inputs": [
                {
                    "internalType": "address",
                    "name": "",
                    "type": "address"
                }
            ],
            "name": "MappingClientes",
            "outputs": [
                {
                    "internalType": "address",
                    "name": "DireccionCliente",
                    "type": "address"
                },
                {
                    "internalType": "bool",
                    "name": "Autorizacion",
                    "type": "bool"
                },
                {
                    "internalType": "address",
                    "name": "DireccionContrato",
                    "type": "address"
                }
            ],
            "payable": false,
            "stateMutability": "view",
            "type": "function"
        },
        {
            "constant": true,
            "inputs": [
                {
                    "internalType": "address",
                    "name": "",
                    "type": "address"
                }
            ],
            "name": "MappingLabs",
            "outputs": [
                {
                    "internalType": "address",
                    "name": "direccionContratoLab",
                    "type": "address"
                },
                {
                    "internalType": "bool",
                    "name": "ValidacionLab",
                    "type": "bool"
                }
            ],
            "payable": false,
            "stateMutability": "view",
            "type": "function"
        },
        {
            "constant": true,
            "inputs": [
                {
                    "internalType": "string",
                    "name": "",
                    "type": "string"
                }
            ],
            "name": "MappingServicios",
            "outputs": [
                {
                    "internalType": "string",
                    "name": "nombreServicio",
                    "type": "string"
                },
                {
                    "internalType": "uint256",
                    "name": "precioTokens",
                    "type": "uint256"
                },
                {
                    "internalType": "bool",
                    "name": "EstadoServicio",
                    "type": "bool"
                }
            ],
            "payable": false,
            "stateMutability": "view",
            "type": "function"
        },
        {
            "constant": true,
            "inputs": [],
            "name": "balanceOf",
            "outputs": [
                {
                    "internalType": "uint256",
                    "name": "",
                    "type": "uint256"
                }
            ],
            "payable": false,
            "stateMutability": "view",
            "type": "function"
        },
        {
            "constant": false,
            "inputs": [
                {
                    "internalType": "address",
                    "name": "_asegurado",
                    "type": "address"
                },
                {
                    "internalType": "uint256",
                    "name": "_numTokens",
                    "type": "uint256"
                }
            ],
            "name": "compraTokens",
            "outputs": [],
            "payable": true,
            "stateMutability": "payable",
            "type": "function"
        },
        {
            "constant": true,
            "inputs": [
                {
                    "internalType": "address",
                    "name": "_direccionAsegurado",
                    "type": "address"
                },
                {
                    "internalType": "address",
                    "name": "_direccionConsultor",
                    "type": "address"
                }
            ],
            "name": "consultarHistorialAsegurado",
            "outputs": [
                {
                    "internalType": "string",
                    "name": "",
                    "type": "string"
                }
            ],
            "payable": false,
            "stateMutability": "view",
            "type": "function"
        },
        {
            "constant": false,
            "inputs": [],
            "name": "creacionContratoAsegurado",
            "outputs": [],
            "payable": false,
            "stateMutability": "nonpayable",
            "type": "function"
        },
        {
            "constant": false,
            "inputs": [],
            "name": "creacionLab",
            "outputs": [],
            "payable": false,
            "stateMutability": "nonpayable",
            "type": "function"
        },
        {
            "constant": false,
            "inputs": [
                {
                    "internalType": "address",
                    "name": "_direccionAsegurado",
                    "type": "address"
                }
            ],
            "name": "darBajaCliente",
            "outputs": [],
            "payable": false,
            "stateMutability": "nonpayable",
            "type": "function"
        },
        {
            "constant": false,
            "inputs": [
                {
                    "internalType": "string",
                    "name": "_nombreServicio",
                    "type": "string"
                }
            ],
            "name": "darBajaServicio",
            "outputs": [],
            "payable": false,
            "stateMutability": "nonpayable",
            "type": "function"
        },
        {
            "constant": false,
            "inputs": [
                {
                    "internalType": "uint256",
                    "name": "_numTokens",
                    "type": "uint256"
                }
            ],
            "name": "generarTokens",
            "outputs": [],
            "payable": false,
            "stateMutability": "nonpayable",
            "type": "function"
        },
        {
            "constant": true,
            "inputs": [],
            "name": "getBalance",
            "outputs": [
                {
                    "internalType": "uint256",
                    "name": "ethers",
                    "type": "uint256"
                }
            ],
            "payable": false,
            "stateMutability": "view",
            "type": "function"
        },
        {
            "constant": true,
            "inputs": [],
            "name": "getDireccionesClientes",
            "outputs": [
                {
                    "internalType": "address[]",
                    "name": "",
                    "type": "address[]"
                }
            ],
            "payable": false,
            "stateMutability": "view",
            "type": "function"
        },
        {
            "constant": true,
            "inputs": [],
            "name": "getDireccionesLabs",
            "outputs": [
                {
                    "internalType": "address[]",
                    "name": "",
                    "type": "address[]"
                }
            ],
            "payable": false,
            "stateMutability": "view",
            "type": "function"
        },
        {
            "constant": false,
            "inputs": [
                {
                    "internalType": "string",
                    "name": "_nombreServicio",
                    "type": "string"
                },
                {
                    "internalType": "uint256",
                    "name": "_precioServicio",
                    "type": "uint256"
                }
            ],
            "name": "nuevoServicio",
            "outputs": [],
            "payable": false,
            "stateMutability": "nonpayable",
            "type": "function"
        }
    ],
    "bytecode": "60806040523480156200001157600080fd5b506064604051620000229062000086565b6200002e9190620000a5565b604051809103906000f0801580156200004b573d6000803e3d6000fd5b50600080546001600160a01b03929092166001600160a01b0319928316179055600180548216301790556002805490911633179055620000cb565b6107fd80620029ff83390190565b6200009f81620000be565b82525050565b60208101620000b5828462000094565b92915050565b90565b6000620000b582620000bb565b61292480620000db6000396000f3fe608060405260043610620001225760003560e01c806386120ece11620000a3578063d07e44cb116200006d578063d07e44cb1462000306578063d89ac531146200033a578063da3460f4146200036f578063dfa80d971462000394578063f74ed9f314620003bb5762000122565b806386120ece1462000250578063990d400b1462000275578063a8930a0414620002ab578063ca48d36314620002d05762000122565b8063447a079311620000f1578063447a079314620001bd57806344a2901014620001e45780635685a07514620001fc578063722713f7146200021357806377571ad6146200022b5762000122565b80630fe8755e146200012757806312065fe014620001575780631a6f0d8c146200017e5780632d8679e414620001a5575b600080fd5b3480156200013457600080fd5b506200013f620003d3565b6040516200014e919062001c12565b60405180910390f35b3480156200016457600080fd5b506200016f62000472565b6040516200014e919062001d0f565b3480156200018b57600080fd5b506200019662000478565b6040516200014e919062001b3a565b348015620001b257600080fd5b506200013f62000487565b348015620001ca57600080fd5b50620001e2620001dc36600462001530565b6200051a565b005b348015620001f157600080fd5b50620001e262000608565b620001e26200020d366004620014da565b6200075f565b3480156200022057600080fd5b506200016f62000889565b3480156200023857600080fd5b50620001e26200024a36600462001569565b62000919565b3480156200025d57600080fd5b50620001e26200026f36600462001472565b62000a55565b3480156200028257600080fd5b506200029a6200029436600462001472565b62000a9f565b6040516200014e9392919062001be4565b348015620002b857600080fd5b50620001e2620002ca366004620015f0565b62000ad0565b348015620002dd57600080fd5b50620002f5620002ef36600462001530565b62000b69565b6040516200014e9392919062001c6f565b3480156200031357600080fd5b506200032b620003253660046200149b565b62000c2a565b6040516200014e919062001c38565b3480156200034757600080fd5b506200035f6200035936600462001472565b62000e83565b6040516200014e92919062001bc5565b3480156200037c57600080fd5b50620001e26200038e36600462001472565b62000eaa565b348015620003a157600080fd5b50620003ac62000f82565b6040516200014e919062001c25565b348015620003c857600080fd5b50620001e2620010e8565b60025460609033906001600160a01b031681146200040e5760405162461bcd60e51b8152600401620004059062001cd9565b60405180910390fd5b60088054806020026020016040519081016040528092919081815260200182805480156200046657602002820191906000526020600020905b81546001600160a01b0316815260019091019060200180831162000447575b505050505091505b5090565b30315b90565b6002546001600160a01b031681565b60025460609033906001600160a01b03168114620004b95760405162461bcd60e51b8152600401620004059062001cd9565b600680548060200260200160405190810160405280929190818152602001828054801562000466576020028201919060005260206000209081546001600160a01b031681526001909101906020018083116200044757505050505091505090565b60025433906001600160a01b03168114620005495760405162461bcd60e51b8152600401620004059062001cd9565b6004826040516200055b919062001ac4565b9081526040519081900360200190206002015460ff161515600114620005955760405162461bcd60e51b8152600401620004059062001cc7565b6000600483604051620005a9919062001ac4565b908152604051908190036020018120600201805492151560ff19909316929092179091557f3f5a4cdb31634ac69176f7ae2ba6bfef7b957f331479fd4c5d4b4b6e94a7c7d490620005fc90849062001c38565b60405180910390a15050565b600680546001818101835560009283527ff652222313e28459528d920b65115c16c04f3efc82aaedc97be59f3f377c0d3f90910180546001600160a01b031916339081179091558254915460025460405192936001600160a01b0390811693928116929116906200067990620012d5565b62000688949392919062001b69565b604051809103906000f080158015620006a5573d6000803e3d6000fd5b506040805160608101825233808252600160208084018281526001600160a01b0380881686880190815260008681526003909452928790209551865492511515600160a01b0260ff60a01b199183166001600160a01b03199485161791909116178655915194909201805494909116939091169290921790915590519192507f28d2277892f1c2b1d0ac2f5e187f9c932309e2acc60f8bb64a7da1acfee2822791620007549190849062001b4a565b60405180910390a150565b816200076b8162000a55565b60006200077762000889565b9050808311156200079c5760405162461bcd60e51b8152600401620004059062001cfd565b60008311620007bf5760405162461bcd60e51b8152600401620004059062001cb5565b60005460405163a9059cbb60e01b81526001600160a01b039091169063a9059cbb90620007f3903390879060040162001ba6565b602060405180830381600087803b1580156200080e57600080fd5b505af115801562000823573d6000803e3d6000fd5b505050506040513d601f19601f820116820180604052506200084991908101906200150f565b507f532ca96ddc2473533ac891db5695bda35855b96fd3a04e2fa692ea71479050b9836040516200087b919062001d0f565b60405180910390a150505050565b600080546001546040516370a0823160e01b81526001600160a01b03928316926370a0823192620008c09291169060040162001b3a565b60206040518083038186803b158015620008d957600080fd5b505afa158015620008ee573d6000803e3d6000fd5b505050506040513d601f19601f8201168201806040525062000914919081019062001611565b905090565b60025433906001600160a01b03168114620009485760405162461bcd60e51b8152600401620004059062001cd9565b604080516060810182528481526020810184905260018183015290516004906200097490869062001ac4565b90815260200160405180910390206000820151816000019080519060200190620009a0929190620012e3565b506020828101516001838101919091556040909301516002909201805460ff191692151592909217909155600780549283018082556000919091528551909262000a13927fa66cc928b5edb82af9bd49922954155ab7b0942694bea4ce44661d9a8736c6889091019190870190620012e3565b50507fa25228ac589f90664c832b7412961ec0f5247e073052a15270b92e6b3e415b5b838360405162000a4892919062001c4b565b60405180910390a1505050565b6001600160a01b038116600090815260036020526040902054600160a01b900460ff16151560011462000a9c5760405162461bcd60e51b8152600401620004059062001cd9565b50565b600360205260009081526040902080546001909101546001600160a01b0380831692600160a01b900460ff16911683565b60025433906001600160a01b0316811462000aff5760405162461bcd60e51b8152600401620004059062001cd9565b6000546040516303a8799360e31b81526001600160a01b0390911690631d43cc989062000b3190859060040162001d0f565b600060405180830381600087803b15801562000b4c57600080fd5b505af115801562000b61573d6000803e3d6000fd5b505050505050565b805160208183018101805160048252928201938201939093209190925280546040805160026001841615610100026000190190931692909204601f810185900485028301850190915280825291929091839183018282801562000c105780601f1062000be45761010080835404028352916020019162000c10565b820191906000526020600020905b81548152906001019060200180831162000bf257829003601f168201915b50505050600183015460029093015491929160ff16905083565b600254606090839083906001600160a01b0380841691161462000c615760405162461bcd60e51b8152600401620004059062001ceb565b62000c6c8162000a55565b604080516020808201835260008083526001600160a01b03808a16825260039092529283206001015491929116905b60075481101562000e755760046007828154811062000cb657fe5b9060005260206000200160405162000ccf919062001b2c565b9081526040519081900360200190206002015460ff16801562000d8c5750816001600160a01b03166332509ddd6007838154811062000d0a57fe5b906000526020600020016040518263ffffffff1660e01b815260040162000d32919062001ca2565b60206040518083038186803b15801562000d4b57600080fd5b505afa15801562000d60573d6000803e3d6000fd5b505050506040513d601f19601f8201168201806040525062000d8691908101906200150f565b15156001145b1562000e6c5760606000836001600160a01b031663b990b6b06007858154811062000db357fe5b906000526020600020016040518263ffffffff1660e01b815260040162000ddb919062001ca2565b60006040518083038186803b15801562000df457600080fd5b505afa15801562000e09573d6000803e3d6000fd5b505050506040513d6000823e601f3d908101601f1916820160405262000e339190810190620015a3565b91509150848262000e44836200120a565b60405160200162000e589392919062001ad2565b604051602081830303815290604052945050505b60010162000c9b565b50909350505b505092915050565b6005602052600090815260409020546001600160a01b03811690600160a01b900460ff1682565b60025433906001600160a01b0316811462000ed95760405162461bcd60e51b8152600401620004059062001cd9565b6001600160a01b03808316600090815260036020526040808220805460ff60a01b19168155600101548151631e1422f960e11b81529151931692633c2845f29260048084019391929182900301818387803b15801562000f3857600080fd5b505af115801562000f4d573d6000803e3d6000fd5b505050507f50680d24726cc3a014e282d4ce72707075d4dd658549da69c0c3835d50f93c6182604051620005fc919062001b3a565b60608060078054905060405190808252806020026020018201604052801562000fc057816020015b606081526020019060019003908162000faa5790505b50905060005b600754811015620010e25760046007828154811062000fe157fe5b9060005260206000200160405162000ffa919062001b2c565b9081526040519081900360200190206002015460ff16151560011415620010d957600781815481106200102957fe5b600091825260209182902001805460408051601f6002600019610100600187161502019094169390930492830185900485028101850190915281815292830182828015620010bb5780601f106200108f57610100808354040283529160200191620010bb565b820191906000526020600020905b8154815290600101906020018083116200109d57829003601f168201915b5050505050828281518110620010cd57fe5b60200260200101819052505b60010162000fc6565b50905090565b600880546001818101835560009283527ff3f7a9fe364faab93b216da50a3214154f22a0a2b415b23a84c8169e8b636ee390910180546001600160a01b0319163390811790915590546040516001600160a01b0391909116906200114c9062001364565b6200115992919062001b4a565b604051809103906000f08015801562001176573d6000803e3d6000fd5b506040805180820182526001600160a01b038381168252600160208084019182523360008181526005909252908590209351845492516001600160a01b031990931693169290921760ff60a01b1916600160a01b911515919091021790915590519192507ff23c7dd26c59354e7b18754d5ee20b25d2d0baa407f891bd09002b2b62fd096f91620007549190849062001b4a565b6060816200123157506040805180820190915260018152600360fc1b6020820152620012d0565b8160005b81156200124b57600101600a8204915062001235565b6060816040519080825280601f01601f19166020018201604052801562001279576020820181803883390190505b50905060001982015b8515620012ca57600a860660300160f81b82828060019003935081518110620012a757fe5b60200101906001600160f81b031916908160001a905350600a8604955062001282565b50925050505b919050565b6108ca8062001e3983390190565b828054600181600116156101000203166002900490600052602060002090601f016020900481019282601f106200132657805160ff191683800117855562001356565b8280016001018555821562001356579182015b828111156200135657825182559160200191906001019062001339565b506200046e92915062001372565b6101df806200270383390190565b6200047591905b808211156200046e576000815560010162001379565b80356200139c8162001e0b565b92915050565b80516200139c8162001e22565b600082601f830112620013c157600080fd5b8135620013d8620013d28262001d47565b62001d1f565b91508082526020830160208301858383011115620013f557600080fd5b6200140283828462001dc2565b50505092915050565b600082601f8301126200141d57600080fd5b81516200142e620013d28262001d47565b915080825260208301602083018583830111156200144b57600080fd5b6200140283828462001dce565b80356200139c8162001e2d565b80516200139c8162001e2d565b6000602082840312156200148557600080fd5b60006200149384846200138f565b949350505050565b60008060408385031215620014af57600080fd5b6000620014bd85856200138f565b9250506020620014d0858286016200138f565b9150509250929050565b60008060408385031215620014ee57600080fd5b6000620014fc85856200138f565b9250506020620014d08582860162001458565b6000602082840312156200152257600080fd5b6000620014938484620013a2565b6000602082840312156200154357600080fd5b813567ffffffffffffffff8111156200155b57600080fd5b6200149384828501620013af565b600080604083850312156200157d57600080fd5b823567ffffffffffffffff8111156200159557600080fd5b620014fc85828601620013af565b60008060408385031215620015b757600080fd5b825167ffffffffffffffff811115620015cf57600080fd5b620015dd858286016200140b565b9250506020620014d08582860162001465565b6000602082840312156200160357600080fd5b600062001493848462001458565b6000602082840312156200162457600080fd5b600062001493848462001465565b60006200164083836200166e565b505060200190565b60006200165683836200176e565b9392505050565b620016688162001dad565b82525050565b620016688162001d8f565b6000620016868262001d82565b62001692818562001d86565b93506200169f8362001d70565b8060005b83811015620016d3578151620016ba888262001632565b9750620016c78362001d70565b925050600101620016a3565b509495945050505050565b6000620016eb8262001d82565b620016f7818562001d86565b9350836020820285016200170b8562001d70565b8060005b858110156200174b57848403895281516200172b858262001648565b9450620017388362001d70565b60209a909a01999250506001016200170f565b5091979650505050505050565b620016688162001d9c565b620016688162001db5565b60006200177b8262001d82565b62001787818562001d86565b93506200179981856020860162001dce565b620017a48162001e01565b9093019392505050565b6000620017bb8262001d82565b620017c78185620012d0565b9350620017d981856020860162001dce565b9290920192915050565b6000815460018116600081146200180357600181146200182c5762000e7b565b607f600283041662001816818762001d86565b60ff198416815295505060208501925062000e7b565b600282046200183c818762001d86565b9550620018498562001d76565b60005b828110156200186a578154888201526001909101906020016200184c565b9096019695505050505050565b600081546001811660008114620018975760018114620018bd5762000e7b565b607f6002830416620018aa8187620012d0565b60ff198416815295508501925062000e7b565b60028204620018cd8187620012d0565b9550620018da8562001d76565b60005b82811015620018fb57815488820152600190910190602001620018dd565b5050909401949350505050565b60006200191760118362001d86565b70436f6d707261206d617320746f6b656e7360781b815260200192915050565b600062001946601a8362001d86565b7f456c20736572766963696f206e6f20657374612061637469766f000000000000815260200192915050565b600062001981600183620012d0565b600b60fa1b815260010192915050565b6000620019a0600183620012d0565b600560fb1b815260010192915050565b6000620019bf602f8362001d86565b7f4e6f2065737461206175746f72697a61646f2070617261207265616c697a617281526e1032b9ba309037b832b930b1b4b7b760891b602082015260400192915050565b600062001a12603d8362001d86565b7f4e6f2065737461206175746f72697a61646f2070617261207265616c697a617281527f2065737461206f7065726163696f6e20736f6c6f20636c69656e746573000000602082015260400192915050565b600062001a7360138362001d86565b72436f6d707261206d656e6f7320746f6b656e7360681b815260200192915050565b600062001aa4600683620012d0565b65292d2d2d2d2d60d01b815260060192915050565b620016688162000475565b6000620016568284620017ae565b600062001ae08286620017ae565b915062001aed8262001991565b915062001afb8285620017ae565b915062001b088262001972565b915062001b168284620017ae565b915062001b238262001a95565b95945050505050565b600062001656828462001877565b602081016200139c82846200166e565b6040810162001b5a82856200165d565b6200165660208301846200166e565b6080810162001b7982876200165d565b62001b88602083018662001763565b62001b9760408301856200166e565b62001b2360608301846200166e565b6040810162001bb682856200165d565b62001656602083018462001ab9565b6040810162001bd582856200166e565b62001656602083018462001758565b6060810162001bf482866200166e565b62001c03602083018562001758565b6200149360408301846200166e565b6020808252810162001656818462001679565b60208082528101620016568184620016de565b602080825281016200165681846200176e565b6040808252810162001c5e81856200176e565b905062001656602083018462001ab9565b6060808252810162001c8281866200176e565b905062001c93602083018562001ab9565b62001493604083018462001758565b60208082528101620016568184620017e3565b602080825281016200139c8162001908565b602080825281016200139c8162001937565b602080825281016200139c81620019b0565b602080825281016200139c8162001a03565b602080825281016200139c8162001a64565b602081016200139c828462001ab9565b60405181810167ffffffffffffffff8111828210171562001d3f57600080fd5b604052919050565b600067ffffffffffffffff82111562001d5f57600080fd5b506020601f91909101601f19160190565b60200190565b60009081526020902090565b5190565b90815260200190565b60006200139c8262001da1565b151590565b6001600160a01b031690565b60006200139c825b60006200139c8262001d8f565b82818337506000910152565b60005b8381101562001deb57818101518382015260200162001dd1565b8381111562001dfb576000848401525b50505050565b601f01601f191690565b62001e168162001d8f565b811462000a9c57600080fd5b62001e168162001d9c565b62001e16816200047556fe608060405234801561001057600080fd5b506040516108ca3803806108ca83398101604081905261002f916100b0565b600080546001600160a01b03199081166001600160a01b0396871617825560019190915560028054948616610100026001600160a81b031990951694909417909355600380549285169284169290921790915560048054919093169116179055610153565b805161009f81610133565b92915050565b805161009f8161014a565b600080600080608085870312156100c657600080fd5b60006100d28787610094565b94505060206100e3878288016100a5565b93505060406100f487828801610094565b925050606061010587828801610094565b91505092959194509250565b600061009f82610127565b600061009f82610111565b6001600160a01b031690565b61013c81610111565b811461014757600080fd5b50565b61013c8161011c565b610768806101626000396000f3fe608060405234801561001057600080fd5b50600436106100575760003560e01c806312065fe01461005c57806332509ddd1461007a5780633c2845f21461009a578063a1c9da55146100a4578063b990b6b0146100b9575b600080fd5b6100646100da565b604051610071919061063a565b60405180910390f35b61008d6100883660046103cb565b6100df565b60405161007191906105fc565b6100a261010e565b005b6100ac61017d565b60405161007191906105eb565b6100cc6100c73660046103cb565b61028e565b60405161007192919061060a565b303190565b60006005826040516100f191906105cb565b9081526040519081900360200190206002015460ff169050919050565b60005433906001600160a01b031681146101435760405162461bcd60e51b815260040161013a9061062a565b60405180910390fd5b7f34a5547a99247f2c59198cb5fccb26c5377c9c52d0815bcdbfb2936cbd03e3ff3360405161017291906105d7565b60405180910390a133ff5b60606006805480602002602001604051908101604052809291908181526020016000905b828210156102855760008481526020908190206040805160038602909201805460026001821615610100026000190190911604601f810185900490940283016080908101909252606083018481529293909284929091849184018282801561024a5780601f1061021f5761010080835404028352916020019161024a565b820191906000526020600020905b81548152906001019060200180831161022d57829003601f168201915b50505091835250506001828101546020808401919091526002909301546001600160a01b0316604090920191909152918352920191016101a1565b50505050905090565b606060006005836040516102a291906105cb565b908152604051908190036020018120906005906102c09086906105cb565b908152602001604051809103902060010154818054600181600116156101000203166002900480601f0160208091040260200160405190810160405280929190818152602001828054600181600116156101000203166002900480156103675780601f1061033c57610100808354040283529160200191610367565b820191906000526020600020905b81548152906001019060200180831161034a57829003601f168201915b5050505050915091509150915091565b600082601f83011261038857600080fd5b813561039b6103968261066f565b610648565b915080825260208301602083018583830111156103b757600080fd5b6103c28382846106df565b50505092915050565b6000602082840312156103dd57600080fd5b813567ffffffffffffffff8111156103f457600080fd5b61040084828501610377565b949350505050565b6000610414838361057a565b9392505050565b610424816106ce565b82525050565b610424816106af565b600061043e8261069d565b61044881856106a1565b93508360208202850161045a85610697565b8060005b8581101561049457848403895281516104778582610408565b945061048283610697565b60209a909a019992505060010161045e565b5091979650505050505050565b610424816106ba565b60006104b58261069d565b6104bf81856106a1565b93506104cf8185602086016106eb565b6104d88161071b565b9093019392505050565b60006104ed8261069d565b6104f781856106aa565b93506105078185602086016106eb565b9290920192915050565b600061051e6041836106a1565b7f4e6f2065737461206175746f72697a61646f2070617261207265616c697a617281527f2065737461206f7065726163696f6e2c20736f6c6f2061736567757261646f726020820152606160f81b604082015260600192915050565b805160608084526000919084019061059282826104aa565b91505060208301516105a760208601826105c2565b5060408301516105ba604086018261042a565b509392505050565b610424816106cb565b600061041482846104e2565b602081016105e5828461041b565b92915050565b602080825281016104148184610433565b602081016105e582846104a1565b6040808252810161061b81856104aa565b905061041460208301846105c2565b602080825281016105e581610511565b602081016105e582846105c2565b60405181810167ffffffffffffffff8111828210171561066757600080fd5b604052919050565b600067ffffffffffffffff82111561068657600080fd5b506020601f91909101601f19160190565b60200190565b5190565b90815260200190565b919050565b60006105e5826106bf565b151590565b6001600160a01b031690565b90565b60006105e58260006105e5826106af565b82818337506000910152565b60005b838110156107065781810151838201526020016106ee565b83811115610715576000848401525b50505050565b601f01601f19169056fea365627a7a723158209339d7dafff9b0790f439bae36e7b5b5560022bfae0c0428d1c9e3cb64b76ca96c6578706572696d656e74616cf564736f6c63430005100040608060405234801561001057600080fd5b506040516101df3803806101df83398101604081905261002f91610071565b600080546001600160a01b039384166001600160a01b031991821617909155600180549290931691161790556100d3565b805161006b816100bc565b92915050565b6000806040838503121561008457600080fd5b60006100908585610060565b92505060206100a185828601610060565b9150509250929050565b60006001600160a01b03821661006b565b6100c5816100ab565b81146100d057600080fd5b50565b60fe806100e16000396000f3fe6080604052348015600f57600080fd5b506004361060325760003560e01c806312065fe0146037578063df02634f146051575b600080fd5b603d6062565b60405160489190609c565b60405180910390f35b60576067565b60405160489190608a565b303190565b6000546001600160a01b031681565b607d8160a8565b82525050565b607d8160b8565b60208101609682846076565b92915050565b60208101609682846083565b60006001600160a01b0382166096565b9056fea365627a7a723158201696bdaa0c167f108f9138cb2329f4a65ba1b0257bd1a687887a9022a0403eb96c6578706572696d656e74616cf564736f6c63430005100040a365627a7a72315820b5ab025c32cfa5f06ca7e217b4d99f3706970d0c9cff25ad5fd294211084537d6c6578706572696d656e74616cf564736f6c63430005100040608060405234801561001057600080fd5b506040516107fd3803806107fd83398101604081905261002f9161005a565b60028190553360009081526020819052604090205561009a565b805161005481610083565b92915050565b60006020828403121561006c57600080fd5b60006100788484610049565b949350505050565b90565b61008c81610080565b811461009757600080fd5b50565b610754806100a96000396000f3fe608060405234801561001057600080fd5b506004361061009e5760003560e01c8063313ce56711610066578063313ce5671461011e57806370a082311461013357806395d89b4114610146578063a9059cbb1461014e578063dd62ed3e146101615761009e565b806306fdde03146100a3578063095ea7b3146100c157806318160ddd146100e15780631d43cc98146100f657806323b872dd1461010b575b600080fd5b6100ab610174565b6040516100b89190610658565b60405180910390f35b6100d46100cf3660046105a3565b61019a565b6040516100b8919061064a565b6100e9610205565b6040516100b89190610669565b6101096101043660046105d3565b61020b565b005b6100d4610119366004610556565b61022b565b61012661038b565b6040516100b89190610677565b6100e96101413660046104f6565b610390565b6100ab6103ab565b6100d461015c3660046105a3565b6103d0565b6100e961016f36600461051c565b61048d565b6040518060400160405280600a8152602001694552433230426173696360b01b81525081565b3360008181526001602090815260408083206001600160a01b038716808552925280832085905551919290917f8c5be1e5ebec7d5bd14f71427d1e84f3dd0314c0f7b2291e5b200ac8c7c3b925906101f3908690610669565b60405180910390a35060015b92915050565b60025490565b600280548201905533600090815260208190526040902080549091019055565b6001600160a01b03831660009081526020819052604081205482111561025057600080fd5b6001600160a01b038416600090815260016020908152604080832033845290915290205482111561028057600080fd5b6001600160a01b0384166000908152602081905260409020546102a9908363ffffffff6104b816565b6001600160a01b0385166000908152602081815260408083209390935560018152828220338352905220546102e4908363ffffffff6104b816565b6001600160a01b0380861660009081526001602090815260408083203384528252808320949094559186168152908190522054610327908363ffffffff6104ca16565b6001600160a01b0380851660008181526020819052604090819020939093559151908616907fddf252ad1be2c89b69c2b068fc378daa952ba7f163c4a11628f55a4df523b3ef90610379908690610669565b60405180910390a35060019392505050565b600281565b6001600160a01b031660009081526020819052604090205490565b6040518060400160405280600981526020016825212516aa27a5a2a760b91b81525081565b336000908152602081905260408120548211156103ec57600080fd5b3360009081526020819052604090205461040c908363ffffffff6104b816565b33600090815260208190526040808220929092556001600160a01b0385168152205461043e908363ffffffff6104ca16565b6001600160a01b0384166000818152602081905260409081902092909255905133907fddf252ad1be2c89b69c2b068fc378daa952ba7f163c4a11628f55a4df523b3ef906101f3908690610669565b6001600160a01b03918216600090815260016020908152604080832093909416825291909152205490565b6000828211156104c457fe5b50900390565b6000828201838110156104d957fe5b9392505050565b80356101ff816106f1565b80356101ff81610708565b60006020828403121561050857600080fd5b600061051484846104e0565b949350505050565b6000806040838503121561052f57600080fd5b600061053b85856104e0565b925050602061054c858286016104e0565b9150509250929050565b60008060006060848603121561056b57600080fd5b600061057786866104e0565b9350506020610588868287016104e0565b9250506040610599868287016104eb565b9150509250925092565b600080604083850312156105b657600080fd5b60006105c285856104e0565b925050602061054c858286016104eb565b6000602082840312156105e557600080fd5b600061051484846104eb565b6105fa8161069d565b82525050565b600061060b82610685565b6106158185610689565b93506106258185602086016106b7565b61062e816106e7565b9093019392505050565b6105fa816106ae565b6105fa816106b1565b602081016101ff82846105f1565b602080825281016104d98184610600565b602081016101ff8284610638565b602081016101ff8284610641565b5190565b90815260200190565b60006101ff826106a2565b151590565b6001600160a01b031690565b90565b60ff1690565b60005b838110156106d25781810151838201526020016106ba565b838111156106e1576000848401525b50505050565b601f01601f191690565b6106fa81610692565b811461070557600080fd5b50565b6106fa816106ae56fea365627a7a723158202183c2c6572bed973a39852d477b3b8bca292709bc4b38d305bc0c0bd8cc97446c6578706572696d656e74616cf564736f6c63430005100040",
    "sourcePath": "/home/secondport/Documents/SmartContracts/Trabajo-Final/Aseguradora.sol",
    "compiler": {
        "name": "solc",
        "version": "0.5.16+commit.9c3226ce"
    },
    "functionHashes": {
        "Aseguradora()": "1a6f0d8c",
        "ConsultarServicioActivos()": "dfa80d97",
        "FuncionUnicamenteAsegurados(address)": "86120ece",
        "MappingClientes(address)": "990d400b",
        "MappingLabs(address)": "d89ac531",
        "MappingServicios(string)": "ca48d363",
        "balanceOf()": "722713f7",
        "compraTokens(address,uint256)": "5685a075",
        "consultarHistorialAsegurado(address,address)": "d07e44cb",
        "creacionContratoAsegurado()": "44a29010",
        "creacionLab()": "f74ed9f3",
        "darBajaCliente(address)": "da3460f4",
        "darBajaServicio(string)": "447a0793",
        "generarTokens(uint256)": "a8930a04",
        "getBalance()": "12065fe0",
        "getDireccionesClientes()": "2d8679e4",
        "getDireccionesLabs()": "0fe8755e",
        "nuevoServicio(string,uint256)": "77571ad6"
    },
    "gasEstimates": {
        "creation": {
            "codeDepositCost": "2106400",
            "executionCost": "infinite",
            "totalCost": "infinite"
        },
        "external": {
            "Aseguradora()": "infinite",
            "ConsultarServicioActivos()": "infinite",
            "FuncionUnicamenteAsegurados(address)": "infinite",
            "MappingClientes(address)": "infinite",
            "MappingLabs(address)": "infinite",
            "MappingServicios(string)": "infinite",
            "balanceOf()": "infinite",
            "compraTokens(address,uint256)": "infinite",
            "consultarHistorialAsegurado(address,address)": "infinite",
            "creacionContratoAsegurado()": "infinite",
            "creacionLab()": "infinite",
            "darBajaCliente(address)": "infinite",
            "darBajaServicio(string)": "infinite",
            "generarTokens(uint256)": "infinite",
            "getBalance()": "infinite",
            "getDireccionesClientes()": "infinite",
            "getDireccionesLabs()": "infinite",
            "nuevoServicio(string,uint256)": "infinite"
        }
    }
}