{
    "contractName": "InsuranceFactory",
    "abi": [
        {
            "inputs": [],
            "payable": false,
            "stateMutability": "nonpayable",
            "type": "constructor"
        },
        {
            "anonymous": false,
            "inputs": [
                {
                    "indexed": false,
                    "internalType": "address",
                    "name": "",
                    "type": "address"
                },
                {
                    "indexed": false,
                    "internalType": "address",
                    "name": "",
                    "type": "address"
                }
            ],
            "name": "AseguradoCreado",
            "type": "event"
        },
        {
            "anonymous": false,
            "inputs": [
                {
                    "indexed": false,
                    "internalType": "address",
                    "name": "",
                    "type": "address"
                }
            ],
            "name": "BajaAsegurado",
            "type": "event"
        },
        {
            "anonymous": false,
            "inputs": [
                {
                    "indexed": false,
                    "internalType": "string",
                    "name": "",
                    "type": "string"
                }
            ],
            "name": "BajaServicio",
            "type": "event"
        },
        {
            "anonymous": false,
            "inputs": [
                {
                    "indexed": false,
                    "internalType": "uint256",
                    "name": "",
                    "type": "uint256"
                }
            ],
            "name": "EventoComprado",
            "type": "event"
        },
        {
            "anonymous": false,
            "inputs": [
                {
                    "indexed": false,
                    "internalType": "address",
                    "name": "",
                    "type": "address"
                },
                {
                    "indexed": false,
                    "internalType": "string[]",
                    "name": "",
                    "type": "string[]"
                },
                {
                    "indexed": false,
                    "internalType": "uint256",
                    "name": "",
                    "type": "uint256"
                }
            ],
            "name": "EventoServicioProporcionado",
            "type": "event"
        },
        {
            "anonymous": false,
            "inputs": [
                {
                    "indexed": false,
                    "internalType": "address",
                    "name": "",
                    "type": "address"
                },
                {
                    "indexed": false,
                    "internalType": "address",
                    "name": "",
                    "type": "address"
                }
            ],
            "name": "LaboratorioCreado",
            "type": "event"
        },
        {
            "anonymous": false,
            "inputs": [
                {
                    "indexed": false,
                    "internalType": "string",
                    "name": "",
                    "type": "string"
                },
                {
                    "indexed": false,
                    "internalType": "uint256",
                    "name": "",
                    "type": "uint256"
                }
            ],
            "name": "ServicioCreado",
            "type": "event"
        },
        {
            "constant": true,
            "inputs": [],
            "name": "Aseguradora",
            "outputs": [
                {
                    "internalType": "address payable",
                    "name": "",
                    "type": "address"
                }
            ],
            "payable": false,
            "stateMutability": "view",
            "type": "function"
        },
        {
            "constant": true,
            "inputs": [
                {
                    "internalType": "address",
                    "name": "_direccioAsegurado",
                    "type": "address"
                }
            ],
            "name": "FuncionUnicamenteAsegurados",
            "outputs": [],
            "payable": false,
            "stateMutability": "view",
            "type": "function"
        },
        {
            "constant": true,
            "inputs": [
                {
                    "internalType": "address",
                    "name": "",
                    "type": "address"
                }
            ],
            "name": "MappingClientes",
            "outputs": [
                {
                    "internalType": "address",
                    "name": "DireccionCliente",
                    "type": "address"
                },
                {
                    "internalType": "bool",
                    "name": "Autorizacion",
                    "type": "bool"
                },
                {
                    "internalType": "address",
                    "name": "DireccionContrato",
                    "type": "address"
                }
            ],
            "payable": false,
            "stateMutability": "view",
            "type": "function"
        },
        {
            "constant": true,
            "inputs": [
                {
                    "internalType": "address",
                    "name": "",
                    "type": "address"
                }
            ],
            "name": "MappingLabs",
            "outputs": [
                {
                    "internalType": "address",
                    "name": "direccionContratoLab",
                    "type": "address"
                },
                {
                    "internalType": "bool",
                    "name": "ValidacionLab",
                    "type": "bool"
                }
            ],
            "payable": false,
            "stateMutability": "view",
            "type": "function"
        },
        {
            "constant": true,
            "inputs": [
                {
                    "internalType": "string",
                    "name": "",
                    "type": "string"
                }
            ],
            "name": "MappingServicios",
            "outputs": [
                {
                    "internalType": "string",
                    "name": "nombreServicio",
                    "type": "string"
                },
                {
                    "internalType": "uint256",
                    "name": "precioTokens",
                    "type": "uint256"
                },
                {
                    "internalType": "bool",
                    "name": "EstadoServicio",
                    "type": "bool"
                }
            ],
            "payable": false,
            "stateMutability": "view",
            "type": "function"
        },
        {
            "constant": true,
            "inputs": [
                {
                    "internalType": "address",
                    "name": "_direccionAsegurado",
                    "type": "address"
                },
                {
                    "internalType": "address",
                    "name": "_direccionConsultor",
                    "type": "address"
                }
            ],
            "name": "consultarHistorialAsegurado",
            "outputs": [
                {
                    "internalType": "string",
                    "name": "",
                    "type": "string"
                }
            ],
            "payable": false,
            "stateMutability": "view",
            "type": "function"
        },
        {
            "constant": false,
            "inputs": [],
            "name": "creacionContratoAsegurado",
            "outputs": [],
            "payable": false,
            "stateMutability": "nonpayable",
            "type": "function"
        },
        {
            "constant": false,
            "inputs": [],
            "name": "creacionLab",
            "outputs": [],
            "payable": false,
            "stateMutability": "nonpayable",
            "type": "function"
        },
        {
            "constant": false,
            "inputs": [
                {
                    "internalType": "address",
                    "name": "_direccionAsegurado",
                    "type": "address"
                }
            ],
            "name": "darBajaCliente",
            "outputs": [],
            "payable": false,
            "stateMutability": "nonpayable",
            "type": "function"
        },
        {
            "constant": true,
            "inputs": [],
            "name": "getBalance",
            "outputs": [
                {
                    "internalType": "uint256",
                    "name": "ethers",
                    "type": "uint256"
                }
            ],
            "payable": false,
            "stateMutability": "view",
            "type": "function"
        },
        {
            "constant": true,
            "inputs": [],
            "name": "getDireccionesClientes",
            "outputs": [
                {
                    "internalType": "address[]",
                    "name": "",
                    "type": "address[]"
                }
            ],
            "payable": false,
            "stateMutability": "view",
            "type": "function"
        },
        {
            "constant": true,
            "inputs": [],
            "name": "getDireccionesLabs",
            "outputs": [
                {
                    "internalType": "address[]",
                    "name": "",
                    "type": "address[]"
                }
            ],
            "payable": false,
            "stateMutability": "view",
            "type": "function"
        }
    ],
    "bytecode": "60806040523480156200001157600080fd5b506064604051620000229062000086565b6200002e9190620000a5565b604051809103906000f0801580156200004b573d6000803e3d6000fd5b50600080546001600160a01b03929092166001600160a01b0319928316179055600180548216301790556002805490911633179055620000cb565b6107fd8062001fd083390190565b6200009f81620000be565b82525050565b60208101620000b5828462000094565b92915050565b90565b6000620000b582620000bb565b611ef580620000db6000396000f3fe60806040523480156200001157600080fd5b5060043610620000c45760003560e01c8063990d400b116200007b578063990d400b146200014a578063ca48d3631462000172578063d07e44cb146200019a578063d89ac53114620001c0578063da3460f414620001e7578063f74ed9f314620001fe57620000c4565b80630fe8755e14620000c957806312065fe014620000eb5780631a6f0d8c14620001045780632d8679e4146200011d57806344a29010146200012757806386120ece1462000133575b600080fd5b620000d362000208565b604051620000e291906200123b565b60405180910390f35b620000f5620002a6565b604051620000e29190620012dd565b6200010e620002ab565b604051620000e2919062001182565b620000d3620002ba565b620001316200034d565b005b620001316200014436600462000c23565b620004a4565b620001616200015b36600462000c23565b620004ee565b604051620000e2939291906200120d565b620001896200018336600462000cac565b6200051f565b604051620000e29392919062001261565b620001b1620001ab36600462000c4c565b620005e0565b604051620000e291906200124e565b620001d7620001d136600462000c23565b62000839565b604051620000e2929190620011ee565b62000131620001f836600462000c23565b62000860565b6200013162000944565b60025460609033906001600160a01b03168114620002435760405162461bcd60e51b81526004016200023a90620012b9565b60405180910390fd5b60088054806020026020016040519081016040528092919081815260200182805480156200029b57602002820191906000526020600020905b81546001600160a01b031681526001909101906020018083116200027c575b505050505091505090565b303190565b6002546001600160a01b031681565b60025460609033906001600160a01b03168114620002ec5760405162461bcd60e51b81526004016200023a90620012b9565b60068054806020026020016040519081016040528092919081815260200182805480156200029b576020028201919060005260206000209081546001600160a01b031681526001909101906020018083116200027c57505050505091505090565b600680546001818101835560009283527ff652222313e28459528d920b65115c16c04f3efc82aaedc97be59f3f377c0d3f90910180546001600160a01b031916339081179091558254915460025460405192936001600160a01b039081169392811692911690620003be9062000b31565b620003cd9493929190620011b1565b604051809103906000f080158015620003ea573d6000803e3d6000fd5b506040805160608101825233808252600160208084018281526001600160a01b0380881686880190815260008681526003909452928790209551865492511515600160a01b0260ff60a01b199183166001600160a01b03199485161791909116178655915194909201805494909116939091169290921790915590519192507f28d2277892f1c2b1d0ac2f5e187f9c932309e2acc60f8bb64a7da1acfee2822791620004999190849062001192565b60405180910390a150565b6001600160a01b038116600090815260036020526040902054600160a01b900460ff161515600114620004eb5760405162461bcd60e51b81526004016200023a90620012a7565b50565b600360205260009081526040902080546001909101546001600160a01b0380831692600160a01b900460ff16911683565b805160208183018101805160048252928201938201939093209190925280546040805160026001841615610100026000190190931692909204601f8101859004850283018501909152808252919290918391830182828015620005c65780601f106200059a57610100808354040283529160200191620005c6565b820191906000526020600020905b815481529060010190602001808311620005a857829003601f168201915b50505050600183015460029093015491929160ff16905083565b600254606090839083906001600160a01b03808416911614620006175760405162461bcd60e51b81526004016200023a90620012cb565b6200062281620004a4565b604080516020808201835260008083526001600160a01b03808a16825260039092529283206001015491929116905b6007548110156200082b576004600782815481106200066c57fe5b906000526020600020016040516200068591906200116d565b9081526040519081900360200190206002015460ff168015620007425750816001600160a01b03166332509ddd60078381548110620006c057fe5b906000526020600020016040518263ffffffff1660e01b8152600401620006e8919062001294565b60206040518083038186803b1580156200070157600080fd5b505afa15801562000716573d6000803e3d6000fd5b505050506040513d601f19601f820116820180604052506200073c919081019062000c8b565b15156001145b15620008225760606000836001600160a01b031663b990b6b0600785815481106200076957fe5b906000526020600020016040518263ffffffff1660e01b815260040162000791919062001294565b60006040518083038186803b158015620007aa57600080fd5b505afa158015620007bf573d6000803e3d6000fd5b505050506040513d6000823e601f3d908101601f19168201604052620007e9919081019062000ce5565b915091508482620007fa8362000a66565b6040516020016200080e9392919062001113565b604051602081830303815290604052945050505b60010162000651565b50909350505b505092915050565b6005602052600090815260409020546001600160a01b03811690600160a01b900460ff1682565b60025433906001600160a01b031681146200088f5760405162461bcd60e51b81526004016200023a90620012b9565b6001600160a01b03808316600090815260036020526040808220805460ff60a01b19168155600101548151631e1422f960e11b81529151931692633c2845f29260048084019391929182900301818387803b158015620008ee57600080fd5b505af115801562000903573d6000803e3d6000fd5b505050507f50680d24726cc3a014e282d4ce72707075d4dd658549da69c0c3835d50f93c618260405162000938919062001182565b60405180910390a15050565b600880546001818101835560009283527ff3f7a9fe364faab93b216da50a3214154f22a0a2b415b23a84c8169e8b636ee390910180546001600160a01b0319163390811790915590546040516001600160a01b039190911690620009a89062000b3f565b620009b592919062001192565b604051809103906000f080158015620009d2573d6000803e3d6000fd5b506040805180820182526001600160a01b038381168252600160208084019182523360008181526005909252908590209351845492516001600160a01b031990931693169290921760ff60a01b1916600160a01b911515919091021790915590519192507ff23c7dd26c59354e7b18754d5ee20b25d2d0baa407f891bd09002b2b62fd096f91620004999190849062001192565b60608162000a8d57506040805180820190915260018152600360fc1b602082015262000b2c565b8160005b811562000aa757600101600a8204915062000a91565b6060816040519080825280601f01601f19166020018201604052801562000ad5576020820181803883390190505b50905060001982015b851562000b2657600a860660300160f81b8282806001900393508151811062000b0357fe5b60200101906001600160f81b031916908160001a905350600a8604955062000ade565b50925050505b919050565b6108ca806200140a83390190565b6101df8062001cd483390190565b803562000b5a81620013dc565b92915050565b805162000b5a81620013f3565b600082601f83011262000b7f57600080fd5b813562000b9662000b908262001315565b620012ed565b9150808252602083016020830185838301111562000bb357600080fd5b62000bc083828462001393565b50505092915050565b600082601f83011262000bdb57600080fd5b815162000bec62000b908262001315565b9150808252602083016020830185838301111562000c0957600080fd5b62000bc08382846200139f565b805162000b5a81620013fe565b60006020828403121562000c3657600080fd5b600062000c44848462000b4d565b949350505050565b6000806040838503121562000c6057600080fd5b600062000c6e858562000b4d565b925050602062000c818582860162000b4d565b9150509250929050565b60006020828403121562000c9e57600080fd5b600062000c44848462000b60565b60006020828403121562000cbf57600080fd5b813567ffffffffffffffff81111562000cd757600080fd5b62000c448482850162000b6d565b6000806040838503121562000cf957600080fd5b825167ffffffffffffffff81111562000d1157600080fd5b62000d1f8582860162000bc9565b925050602062000c818582860162000c16565b600062000d40838362000d59565b505060200190565b62000d53816200137e565b82525050565b62000d53816200135d565b600062000d718262001350565b62000d7d818562001354565b935062000d8a836200133e565b8060005b8381101562000dbe57815162000da5888262000d32565b975062000db2836200133e565b92505060010162000d8e565b509495945050505050565b62000d53816200136a565b62000d538162001386565b600062000dec8262001350565b62000df8818562001354565b935062000e0a8185602086016200139f565b62000e1581620013d2565b9093019392505050565b600062000e2c8262001350565b62000e38818562000b2c565b935062000e4a8185602086016200139f565b9290920192915050565b60008154600181166000811462000e74576001811462000e9d5762000831565b607f600283041662000e87818762001354565b60ff198416815295505060208501925062000831565b6002820462000ead818762001354565b955062000eba8562001344565b60005b8281101562000edb5781548882015260019091019060200162000ebd565b9096019695505050505050565b60008154600181166000811462000f08576001811462000f2e5762000831565b607f600283041662000f1b818762000b2c565b60ff198416815295508501925062000831565b6002820462000f3e818762000b2c565b955062000f4b8562001344565b60005b8281101562000f6c5781548882015260019091019060200162000f4e565b5050909401949350505050565b600062000f8860018362000b2c565b600b60fa1b815260010192915050565b600062000fa760018362000b2c565b600560fb1b815260010192915050565b600062000fc6602f8362001354565b7f4e6f2065737461206175746f72697a61646f2070617261207265616c697a617281526e1032b9ba309037b832b930b1b4b7b760891b602082015260400192915050565b600062001019604f8362001354565b7f4e6f2065737461206175746f72697a61646f2070617261207265616c697a617281527f2065737461206f7065726163696f6e20736f6c6f20706572736f6e616c20646560208201526e206c612061736567757261646f726160881b604082015260600192915050565b600062001092603d8362001354565b7f4e6f2065737461206175746f72697a61646f2070617261207265616c697a617281527f2065737461206f7065726163696f6e20736f6c6f20636c69656e746573000000602082015260400192915050565b6000620010f360068362000b2c565b65292d2d2d2d2d60d01b815260060192915050565b62000d53816200137b565b600062001121828662000e1f565b91506200112e8262000f98565b91506200113c828562000e1f565b9150620011498262000f79565b915062001157828462000e1f565b91506200116482620010e4565b95945050505050565b60006200117b828462000ee8565b9392505050565b6020810162000b5a828462000d59565b60408101620011a2828562000d48565b6200117b602083018462000d59565b60808101620011c1828762000d48565b620011d0602083018662000dd4565b620011df604083018562000d59565b62001164606083018462000d59565b60408101620011fe828562000d59565b6200117b602083018462000dc9565b606081016200121d828662000d59565b6200122c602083018562000dc9565b62000c44604083018462000d59565b602080825281016200117b818462000d64565b602080825281016200117b818462000ddf565b6060808252810162001274818662000ddf565b905062001285602083018562001108565b62000c44604083018462000dc9565b602080825281016200117b818462000e54565b6020808252810162000b5a8162000fb7565b6020808252810162000b5a816200100a565b6020808252810162000b5a8162001083565b6020810162000b5a828462001108565b60405181810167ffffffffffffffff811182821017156200130d57600080fd5b604052919050565b600067ffffffffffffffff8211156200132d57600080fd5b506020601f91909101601f19160190565b60200190565b60009081526020902090565b5190565b90815260200190565b600062000b5a826200136f565b151590565b6001600160a01b031690565b90565b600062000b5a825b600062000b5a826200135d565b82818337506000910152565b60005b83811015620013bc578181015183820152602001620013a2565b83811115620013cc576000848401525b50505050565b601f01601f191690565b620013e7816200135d565b8114620004eb57600080fd5b620013e7816200136a565b620013e7816200137b56fe608060405234801561001057600080fd5b506040516108ca3803806108ca83398101604081905261002f916100b0565b600080546001600160a01b03199081166001600160a01b0396871617825560019190915560028054948616610100026001600160a81b031990951694909417909355600380549285169284169290921790915560048054919093169116179055610153565b805161009f81610133565b92915050565b805161009f8161014a565b600080600080608085870312156100c657600080fd5b60006100d28787610094565b94505060206100e3878288016100a5565b93505060406100f487828801610094565b925050606061010587828801610094565b91505092959194509250565b600061009f82610127565b600061009f82610111565b6001600160a01b031690565b61013c81610111565b811461014757600080fd5b50565b61013c8161011c565b610768806101626000396000f3fe608060405234801561001057600080fd5b50600436106100575760003560e01c806312065fe01461005c57806332509ddd1461007a5780633c2845f21461009a578063a1c9da55146100a4578063b990b6b0146100b9575b600080fd5b6100646100da565b604051610071919061063a565b60405180910390f35b61008d6100883660046103cb565b6100df565b60405161007191906105fc565b6100a261010e565b005b6100ac61017d565b60405161007191906105eb565b6100cc6100c73660046103cb565b61028e565b60405161007192919061060a565b303190565b60006005826040516100f191906105cb565b9081526040519081900360200190206002015460ff169050919050565b60005433906001600160a01b031681146101435760405162461bcd60e51b815260040161013a9061062a565b60405180910390fd5b7f34a5547a99247f2c59198cb5fccb26c5377c9c52d0815bcdbfb2936cbd03e3ff3360405161017291906105d7565b60405180910390a133ff5b60606006805480602002602001604051908101604052809291908181526020016000905b828210156102855760008481526020908190206040805160038602909201805460026001821615610100026000190190911604601f810185900490940283016080908101909252606083018481529293909284929091849184018282801561024a5780601f1061021f5761010080835404028352916020019161024a565b820191906000526020600020905b81548152906001019060200180831161022d57829003601f168201915b50505091835250506001828101546020808401919091526002909301546001600160a01b0316604090920191909152918352920191016101a1565b50505050905090565b606060006005836040516102a291906105cb565b908152604051908190036020018120906005906102c09086906105cb565b908152602001604051809103902060010154818054600181600116156101000203166002900480601f0160208091040260200160405190810160405280929190818152602001828054600181600116156101000203166002900480156103675780601f1061033c57610100808354040283529160200191610367565b820191906000526020600020905b81548152906001019060200180831161034a57829003601f168201915b5050505050915091509150915091565b600082601f83011261038857600080fd5b813561039b6103968261066f565b610648565b915080825260208301602083018583830111156103b757600080fd5b6103c28382846106df565b50505092915050565b6000602082840312156103dd57600080fd5b813567ffffffffffffffff8111156103f457600080fd5b61040084828501610377565b949350505050565b6000610414838361057a565b9392505050565b610424816106ce565b82525050565b610424816106af565b600061043e8261069d565b61044881856106a1565b93508360208202850161045a85610697565b8060005b8581101561049457848403895281516104778582610408565b945061048283610697565b60209a909a019992505060010161045e565b5091979650505050505050565b610424816106ba565b60006104b58261069d565b6104bf81856106a1565b93506104cf8185602086016106eb565b6104d88161071b565b9093019392505050565b60006104ed8261069d565b6104f781856106aa565b93506105078185602086016106eb565b9290920192915050565b600061051e6041836106a1565b7f4e6f2065737461206175746f72697a61646f2070617261207265616c697a617281527f2065737461206f7065726163696f6e2c20736f6c6f2061736567757261646f726020820152606160f81b604082015260600192915050565b805160608084526000919084019061059282826104aa565b91505060208301516105a760208601826105c2565b5060408301516105ba604086018261042a565b509392505050565b610424816106cb565b600061041482846104e2565b602081016105e5828461041b565b92915050565b602080825281016104148184610433565b602081016105e582846104a1565b6040808252810161061b81856104aa565b905061041460208301846105c2565b602080825281016105e581610511565b602081016105e582846105c2565b60405181810167ffffffffffffffff8111828210171561066757600080fd5b604052919050565b600067ffffffffffffffff82111561068657600080fd5b506020601f91909101601f19160190565b60200190565b5190565b90815260200190565b919050565b60006105e5826106bf565b151590565b6001600160a01b031690565b90565b60006105e58260006105e5826106af565b82818337506000910152565b60005b838110156107065781810151838201526020016106ee565b83811115610715576000848401525b50505050565b601f01601f19169056fea365627a7a7231582033cf940c6caae7b1cd4df5dd15eabd1346b80168aaf97351f9abcdfb18f35ca96c6578706572696d656e74616cf564736f6c63430005100040608060405234801561001057600080fd5b506040516101df3803806101df83398101604081905261002f91610071565b600080546001600160a01b039384166001600160a01b031991821617909155600180549290931691161790556100d3565b805161006b816100bc565b92915050565b6000806040838503121561008457600080fd5b60006100908585610060565b92505060206100a185828601610060565b9150509250929050565b60006001600160a01b03821661006b565b6100c5816100ab565b81146100d057600080fd5b50565b60fe806100e16000396000f3fe6080604052348015600f57600080fd5b506004361060325760003560e01c806312065fe0146037578063df02634f146051575b600080fd5b603d6062565b60405160489190609c565b60405180910390f35b60576067565b60405160489190608a565b303190565b6000546001600160a01b031681565b607d8160a8565b82525050565b607d8160b8565b60208101609682846076565b92915050565b60208101609682846083565b60006001600160a01b0382166096565b9056fea365627a7a72315820d50fce425dadc82560e6123371e7dc047e5a2af0eabaae06239880c0318ef7c26c6578706572696d656e74616cf564736f6c63430005100040a365627a7a72315820bca506230a3e21d3e624d557077f1fc23cf1052bca1c8831eb50c71cdfa316206c6578706572696d656e74616cf564736f6c63430005100040608060405234801561001057600080fd5b506040516107fd3803806107fd83398101604081905261002f9161005a565b60028190553360009081526020819052604090205561009a565b805161005481610083565b92915050565b60006020828403121561006c57600080fd5b60006100788484610049565b949350505050565b90565b61008c81610080565b811461009757600080fd5b50565b610754806100a96000396000f3fe608060405234801561001057600080fd5b506004361061009e5760003560e01c80634ee22adf116100665780634ee22adf1461011e57806370a082311461013357806395d89b4114610146578063a9059cbb1461014e578063dd62ed3e146101615761009e565b806306fdde03146100a3578063095ea7b3146100c157806318160ddd146100e157806323b872dd146100f6578063313ce56714610109575b600080fd5b6100ab610174565b6040516100b89190610658565b60405180910390f35b6100d46100cf3660046105a3565b61019a565b6040516100b8919061064a565b6100e9610205565b6040516100b89190610669565b6100d4610104366004610556565b61020b565b61011161036b565b6040516100b89190610677565b61013161012c3660046105d3565b610370565b005b6100e96101413660046104f6565b610390565b6100ab6103ab565b6100d461015c3660046105a3565b6103d0565b6100e961016f36600461051c565b61048d565b6040518060400160405280600a8152602001694552433230426173696360b01b81525081565b3360008181526001602090815260408083206001600160a01b038716808552925280832085905551919290917f8c5be1e5ebec7d5bd14f71427d1e84f3dd0314c0f7b2291e5b200ac8c7c3b925906101f3908690610669565b60405180910390a35060015b92915050565b60025490565b6001600160a01b03831660009081526020819052604081205482111561023057600080fd5b6001600160a01b038416600090815260016020908152604080832033845290915290205482111561026057600080fd5b6001600160a01b038416600090815260208190526040902054610289908363ffffffff6104b816565b6001600160a01b0385166000908152602081815260408083209390935560018152828220338352905220546102c4908363ffffffff6104b816565b6001600160a01b0380861660009081526001602090815260408083203384528252808320949094559186168152908190522054610307908363ffffffff6104ca16565b6001600160a01b0380851660008181526020819052604090819020939093559151908616907fddf252ad1be2c89b69c2b068fc378daa952ba7f163c4a11628f55a4df523b3ef90610359908690610669565b60405180910390a35060019392505050565b600281565b600280548201905533600090815260208190526040902080549091019055565b6001600160a01b031660009081526020819052604090205490565b6040518060400160405280600981526020016825212516aa27a5a2a760b91b81525081565b336000908152602081905260408120548211156103ec57600080fd5b3360009081526020819052604090205461040c908363ffffffff6104b816565b33600090815260208190526040808220929092556001600160a01b0385168152205461043e908363ffffffff6104ca16565b6001600160a01b0384166000818152602081905260409081902092909255905133907fddf252ad1be2c89b69c2b068fc378daa952ba7f163c4a11628f55a4df523b3ef906101f3908690610669565b6001600160a01b03918216600090815260016020908152604080832093909416825291909152205490565b6000828211156104c457fe5b50900390565b6000828201838110156104d957fe5b9392505050565b80356101ff816106f1565b80356101ff81610708565b60006020828403121561050857600080fd5b600061051484846104e0565b949350505050565b6000806040838503121561052f57600080fd5b600061053b85856104e0565b925050602061054c858286016104e0565b9150509250929050565b60008060006060848603121561056b57600080fd5b600061057786866104e0565b9350506020610588868287016104e0565b9250506040610599868287016104eb565b9150509250925092565b600080604083850312156105b657600080fd5b60006105c285856104e0565b925050602061054c858286016104eb565b6000602082840312156105e557600080fd5b600061051484846104eb565b6105fa8161069d565b82525050565b600061060b82610685565b6106158185610689565b93506106258185602086016106b7565b61062e816106e7565b9093019392505050565b6105fa816106ae565b6105fa816106b1565b602081016101ff82846105f1565b602080825281016104d98184610600565b602081016101ff8284610638565b602081016101ff8284610641565b5190565b90815260200190565b60006101ff826106a2565b151590565b6001600160a01b031690565b90565b60ff1690565b60005b838110156106d25781810151838201526020016106ba565b838111156106e1576000848401525b50505050565b601f01601f191690565b6106fa81610692565b811461070557600080fd5b50565b6106fa816106ae56fea365627a7a7231582066b80bb5a1f81df3c917eee2b9e09bd7edade8e7d505c333cd2050203580768d6c6578706572696d656e74616cf564736f6c63430005100040",
    "sourcePath": "/home/secondport/Documents/SmartContracts/Trabajo-Final/Aseguradora.sol",
    "compiler": {
        "name": "solc",
        "version": "0.5.16+commit.9c3226ce"
    },
    "functionHashes": {
        "Aseguradora()": "1a6f0d8c",
        "FuncionUnicamenteAsegurados(address)": "86120ece",
        "MappingClientes(address)": "990d400b",
        "MappingLabs(address)": "d89ac531",
        "MappingServicios(string)": "ca48d363",
        "consultarHistorialAsegurado(address,address)": "d07e44cb",
        "creacionContratoAsegurado()": "44a29010",
        "creacionLab()": "f74ed9f3",
        "darBajaCliente(address)": "da3460f4",
        "getBalance()": "12065fe0",
        "getDireccionesClientes()": "2d8679e4",
        "getDireccionesLabs()": "0fe8755e"
    },
    "gasEstimates": {
        "creation": {
            "codeDepositCost": "1585000",
            "executionCost": "infinite",
            "totalCost": "infinite"
        },
        "external": {
            "Aseguradora()": "infinite",
            "FuncionUnicamenteAsegurados(address)": "infinite",
            "MappingClientes(address)": "infinite",
            "MappingLabs(address)": "infinite",
            "MappingServicios(string)": "infinite",
            "consultarHistorialAsegurado(address,address)": "infinite",
            "creacionContratoAsegurado()": "infinite",
            "creacionLab()": "infinite",
            "darBajaCliente(address)": "infinite",
            "getBalance()": "1021",
            "getDireccionesClientes()": "infinite",
            "getDireccionesLabs()": "infinite"
        }
    }
}