{
    "contractName": "InsuranceHealthRecord",
    "abi": [
        {
            "inputs": [
                {
                    "internalType": "address",
                    "name": "_owner",
                    "type": "address"
                },
                {
                    "internalType": "contract ERC20Basic",
                    "name": "_token",
                    "type": "address"
                },
                {
                    "internalType": "address",
                    "name": "_insurance",
                    "type": "address"
                },
                {
                    "internalType": "address payable",
                    "name": "_aseguradora",
                    "type": "address"
                }
            ],
            "payable": false,
            "stateMutability": "nonpayable",
            "type": "constructor"
        },
        {
            "anonymous": false,
            "inputs": [
                {
                    "indexed": false,
                    "internalType": "address",
                    "name": "",
                    "type": "address"
                }
            ],
            "name": "EventoSelfDestruct",
            "type": "event"
        },
        {
            "constant": true,
            "inputs": [],
            "name": "HistorialAseguradoLaboratorio",
            "outputs": [
                {
                    "components": [
                        {
                            "internalType": "string",
                            "name": "nombreServicio",
                            "type": "string"
                        },
                        {
                            "internalType": "uint256",
                            "name": "precioServicio",
                            "type": "uint256"
                        },
                        {
                            "internalType": "address",
                            "name": "direccionLab",
                            "type": "address"
                        }
                    ],
                    "internalType": "struct InsuranceHealthRecord.ServiciosSolicitadosLab[]",
                    "name": "",
                    "type": "tuple[]"
                }
            ],
            "payable": false,
            "stateMutability": "view",
            "type": "function"
        },
        {
            "constant": true,
            "inputs": [
                {
                    "internalType": "string",
                    "name": "_servicio",
                    "type": "string"
                }
            ],
            "name": "HistorialCliente",
            "outputs": [
                {
                    "internalType": "string",
                    "name": "nombreServico",
                    "type": "string"
                },
                {
                    "internalType": "uint256",
                    "name": "precioServicio",
                    "type": "uint256"
                }
            ],
            "payable": false,
            "stateMutability": "view",
            "type": "function"
        },
        {
            "constant": true,
            "inputs": [
                {
                    "internalType": "string",
                    "name": "_servicio",
                    "type": "string"
                }
            ],
            "name": "ServicioEstadoAsegurado",
            "outputs": [
                {
                    "internalType": "bool",
                    "name": "",
                    "type": "bool"
                }
            ],
            "payable": false,
            "stateMutability": "view",
            "type": "function"
        },
        {
            "constant": false,
            "inputs": [],
            "name": "darBaja",
            "outputs": [],
            "payable": false,
            "stateMutability": "nonpayable",
            "type": "function"
        },
        {
            "constant": true,
            "inputs": [],
            "name": "getBalance",
            "outputs": [
                {
                    "internalType": "uint256",
                    "name": "ethers",
                    "type": "uint256"
                }
            ],
            "payable": false,
            "stateMutability": "view",
            "type": "function"
        }
    ],
    "bytecode": "608060405234801561001057600080fd5b506040516108ca3803806108ca83398101604081905261002f916100b0565b600080546001600160a01b03199081166001600160a01b0396871617825560019190915560028054948616610100026001600160a81b031990951694909417909355600380549285169284169290921790915560048054919093169116179055610153565b805161009f81610133565b92915050565b805161009f8161014a565b600080600080608085870312156100c657600080fd5b60006100d28787610094565b94505060206100e3878288016100a5565b93505060406100f487828801610094565b925050606061010587828801610094565b91505092959194509250565b600061009f82610127565b600061009f82610111565b6001600160a01b031690565b61013c81610111565b811461014757600080fd5b50565b61013c8161011c565b610768806101626000396000f3fe608060405234801561001057600080fd5b50600436106100575760003560e01c806312065fe01461005c57806332509ddd1461007a5780633c2845f21461009a578063a1c9da55146100a4578063b990b6b0146100b9575b600080fd5b6100646100da565b604051610071919061063a565b60405180910390f35b61008d6100883660046103cb565b6100df565b60405161007191906105fc565b6100a261010e565b005b6100ac61017d565b60405161007191906105eb565b6100cc6100c73660046103cb565b61028e565b60405161007192919061060a565b303190565b60006005826040516100f191906105cb565b9081526040519081900360200190206002015460ff169050919050565b60005433906001600160a01b031681146101435760405162461bcd60e51b815260040161013a9061062a565b60405180910390fd5b7f34a5547a99247f2c59198cb5fccb26c5377c9c52d0815bcdbfb2936cbd03e3ff3360405161017291906105d7565b60405180910390a133ff5b60606006805480602002602001604051908101604052809291908181526020016000905b828210156102855760008481526020908190206040805160038602909201805460026001821615610100026000190190911604601f810185900490940283016080908101909252606083018481529293909284929091849184018282801561024a5780601f1061021f5761010080835404028352916020019161024a565b820191906000526020600020905b81548152906001019060200180831161022d57829003601f168201915b50505091835250506001828101546020808401919091526002909301546001600160a01b0316604090920191909152918352920191016101a1565b50505050905090565b606060006005836040516102a291906105cb565b908152604051908190036020018120906005906102c09086906105cb565b908152602001604051809103902060010154818054600181600116156101000203166002900480601f0160208091040260200160405190810160405280929190818152602001828054600181600116156101000203166002900480156103675780601f1061033c57610100808354040283529160200191610367565b820191906000526020600020905b81548152906001019060200180831161034a57829003601f168201915b5050505050915091509150915091565b600082601f83011261038857600080fd5b813561039b6103968261066f565b610648565b915080825260208301602083018583830111156103b757600080fd5b6103c28382846106df565b50505092915050565b6000602082840312156103dd57600080fd5b813567ffffffffffffffff8111156103f457600080fd5b61040084828501610377565b949350505050565b6000610414838361057a565b9392505050565b610424816106ce565b82525050565b610424816106af565b600061043e8261069d565b61044881856106a1565b93508360208202850161045a85610697565b8060005b8581101561049457848403895281516104778582610408565b945061048283610697565b60209a909a019992505060010161045e565b5091979650505050505050565b610424816106ba565b60006104b58261069d565b6104bf81856106a1565b93506104cf8185602086016106eb565b6104d88161071b565b9093019392505050565b60006104ed8261069d565b6104f781856106aa565b93506105078185602086016106eb565b9290920192915050565b600061051e6041836106a1565b7f4e6f2065737461206175746f72697a61646f2070617261207265616c697a617281527f2065737461206f7065726163696f6e2c20736f6c6f2061736567757261646f726020820152606160f81b604082015260600192915050565b805160608084526000919084019061059282826104aa565b91505060208301516105a760208601826105c2565b5060408301516105ba604086018261042a565b509392505050565b610424816106cb565b600061041482846104e2565b602081016105e5828461041b565b92915050565b602080825281016104148184610433565b602081016105e582846104a1565b6040808252810161061b81856104aa565b905061041460208301846105c2565b602080825281016105e581610511565b602081016105e582846105c2565b60405181810167ffffffffffffffff8111828210171561066757600080fd5b604052919050565b600067ffffffffffffffff82111561068657600080fd5b506020601f91909101601f19160190565b60200190565b5190565b90815260200190565b919050565b60006105e5826106bf565b151590565b6001600160a01b031690565b90565b60006105e58260006105e5826106af565b82818337506000910152565b60005b838110156107065781810151838201526020016106ee565b83811115610715576000848401525b50505050565b601f01601f19169056fea365627a7a723158205d331e024411618e91fbca848344dffaa45792625baa9dad98f27b51782080a16c6578706572696d656e74616cf564736f6c63430005100040",
    "sourcePath": "/home/secondport/Documents/SmartContracts/Trabajo-Final/Aseguradora.sol",
    "compiler": {
        "name": "solc",
        "version": "0.5.16+commit.9c3226ce"
    },
    "functionHashes": {
        "HistorialAseguradoLaboratorio()": "a1c9da55",
        "HistorialCliente(string)": "b990b6b0",
        "ServicioEstadoAsegurado(string)": "32509ddd",
        "darBaja()": "3c2845f2",
        "getBalance()": "12065fe0"
    },
    "gasEstimates": {
        "creation": {
            "codeDepositCost": "379200",
            "executionCost": "infinite",
            "totalCost": "infinite"
        },
        "external": {
            "HistorialAseguradoLaboratorio()": "infinite",
            "HistorialCliente(string)": "infinite",
            "ServicioEstadoAsegurado(string)": "infinite",
            "darBaja()": "1262",
            "getBalance()": "976"
        }
    }
}