{
    "contractName": "InsuranceHealthRecord",
    "abi": [
        {
            "inputs": [
                {
                    "internalType": "address",
                    "name": "_owner",
                    "type": "address"
                },
                {
                    "internalType": "contract ERC20Basic",
                    "name": "_token",
                    "type": "address"
                },
                {
                    "internalType": "address",
                    "name": "_insurance",
                    "type": "address"
                },
                {
                    "internalType": "address payable",
                    "name": "_aseguradora",
                    "type": "address"
                }
            ],
            "stateMutability": "nonpayable",
            "type": "constructor"
        },
        {
            "anonymous": false,
            "inputs": [
                {
                    "indexed": false,
                    "internalType": "address",
                    "name": "",
                    "type": "address"
                },
                {
                    "indexed": false,
                    "internalType": "uint256",
                    "name": "",
                    "type": "uint256"
                }
            ],
            "name": "EventoDevolverTokens",
            "type": "event"
        },
        {
            "anonymous": false,
            "inputs": [
                {
                    "indexed": false,
                    "internalType": "address",
                    "name": "",
                    "type": "address"
                }
            ],
            "name": "EventoSelfDestruct",
            "type": "event"
        },
        {
            "anonymous": false,
            "inputs": [
                {
                    "indexed": false,
                    "internalType": "address",
                    "name": "",
                    "type": "address"
                },
                {
                    "indexed": false,
                    "internalType": "address",
                    "name": "",
                    "type": "address"
                },
                {
                    "indexed": false,
                    "internalType": "string",
                    "name": "",
                    "type": "string"
                }
            ],
            "name": "PeticionServicioLab",
            "type": "event"
        },
        {
            "anonymous": false,
            "inputs": [
                {
                    "indexed": false,
                    "internalType": "address",
                    "name": "",
                    "type": "address"
                },
                {
                    "indexed": false,
                    "internalType": "string",
                    "name": "",
                    "type": "string"
                },
                {
                    "indexed": false,
                    "internalType": "uint256",
                    "name": "",
                    "type": "uint256"
                }
            ],
            "name": "ServicioPagado",
            "type": "event"
        },
        {
            "inputs": [
                {
                    "internalType": "uint256",
                    "name": "_numTokens",
                    "type": "uint256"
                }
            ],
            "name": "CompraTokens",
            "outputs": [],
            "stateMutability": "payable",
            "type": "function"
        },
        {
            "inputs": [],
            "name": "HistorialAseguradoLaboratorio",
            "outputs": [
                {
                    "components": [
                        {
                            "internalType": "string",
                            "name": "nombreServicio",
                            "type": "string"
                        },
                        {
                            "internalType": "uint256",
                            "name": "precioServicio",
                            "type": "uint256"
                        },
                        {
                            "internalType": "address",
                            "name": "direccionLab",
                            "type": "address"
                        }
                    ],
                    "internalType": "struct InsuranceHealthRecord.ServiciosSolicitadosLab[]",
                    "name": "",
                    "type": "tuple[]"
                }
            ],
            "stateMutability": "view",
            "type": "function"
        },
        {
            "inputs": [
                {
                    "internalType": "string",
                    "name": "_servicio",
                    "type": "string"
                }
            ],
            "name": "HistorialCliente",
            "outputs": [
                {
                    "internalType": "string",
                    "name": "nombreServico",
                    "type": "string"
                },
                {
                    "internalType": "uint256",
                    "name": "precioServicio",
                    "type": "uint256"
                }
            ],
            "stateMutability": "view",
            "type": "function"
        },
        {
            "inputs": [
                {
                    "internalType": "string",
                    "name": "_servicio",
                    "type": "string"
                }
            ],
            "name": "ServicioEstadoAsegurado",
            "outputs": [
                {
                    "internalType": "bool",
                    "name": "",
                    "type": "bool"
                }
            ],
            "stateMutability": "view",
            "type": "function"
        },
        {
            "inputs": [],
            "name": "balanceOf",
            "outputs": [
                {
                    "internalType": "uint256",
                    "name": "_balance",
                    "type": "uint256"
                }
            ],
            "stateMutability": "view",
            "type": "function"
        },
        {
            "inputs": [],
            "name": "darBaja",
            "outputs": [],
            "stateMutability": "nonpayable",
            "type": "function"
        },
        {
            "inputs": [
                {
                    "internalType": "uint256",
                    "name": "_numTokens",
                    "type": "uint256"
                }
            ],
            "name": "devolverTokens",
            "outputs": [],
            "stateMutability": "payable",
            "type": "function"
        },
        {
            "inputs": [],
            "name": "getBalance",
            "outputs": [
                {
                    "internalType": "uint256",
                    "name": "ethers",
                    "type": "uint256"
                }
            ],
            "stateMutability": "view",
            "type": "function"
        },
        {
            "inputs": [
                {
                    "internalType": "string",
                    "name": "_servicio",
                    "type": "string"
                }
            ],
            "name": "peticionServicio",
            "outputs": [],
            "stateMutability": "nonpayable",
            "type": "function"
        },
        {
            "inputs": [
                {
                    "internalType": "address",
                    "name": "_direccionLab",
                    "type": "address"
                },
                {
                    "internalType": "string",
                    "name": "_servicio",
                    "type": "string"
                }
            ],
            "name": "peticionServicioLab",
            "outputs": [],
            "stateMutability": "payable",
            "type": "function"
        }
    ],
    "bytecode": "60806040523480156200001157600080fd5b50604051620016043803806200160483398101604081905262000034916200009a565b600080546001600160a01b03199081166001600160a01b0396871617825560019190915560028054948616610100026001600160a81b0319909516949094179093556003805492851692841692909217909155600480549190931691161790556200011a565b60008060008060808587031215620000b0578384fd5b8451620000bd8162000101565b6020860151909450620000d08162000101565b6040860151909350620000e38162000101565b6060860151909250620000f68162000101565b939692955090935050565b6001600160a01b03811681146200011757600080fd5b50565b6114da806200012a6000396000f3fe6080604052600436106100915760003560e01c8063722713f711610059578063722713f71461012b5780637f3a6b2114610140578063a1c9da5514610160578063b990b6b014610182578063f7774091146101b057610091565b806312065fe0146100965780632e95161c146100c157806332509ddd146100d65780633c2845f2146101035780636743c29314610118575b600080fd5b3480156100a257600080fd5b506100ab6101c3565b6040516100b89190611453565b60405180910390f35b6100d46100cf36600461107d565b6101c8565b005b3480156100e257600080fd5b506100f66100f1366004611042565b610345565b6040516100b89190611236565b34801561010f57600080fd5b506100d4610374565b6100d4610126366004610fd4565b6103da565b34801561013757600080fd5b506100ab6107a6565b34801561014c57600080fd5b506100d461015b366004611042565b61085e565b34801561016c57600080fd5b50610175610b1b565b6040516100b891906111af565b34801561018e57600080fd5b506101a261019d366004611042565b610c2c565b6040516100b8929190611254565b6100d46101be36600461107d565b610d15565b303190565b60005433906001600160a01b031681146101fd5760405162461bcd60e51b81526004016101f4906112b9565b60405180910390fd5b6000821161021d5760405162461bcd60e51b81526004016101f4906113ef565b6102256107a6565b8211156102445760405162461bcd60e51b81526004016101f490611276565b6002546004805460405163a9059cbb60e01b81526001600160a01b0361010090940484169363a9059cbb9361027f9390911691879101611161565b602060405180830381600087803b15801561029957600080fd5b505af11580156102ad573d6000803e3d6000fd5b505050506040513d601f19601f820116820180604052508101906102d19190611022565b50336108fc6102df84610e2b565b6040518115909202916000818181858888f19350505050158015610307573d6000803e3d6000fd5b507f38c9c5932b4a4adc31336a3d0f02e16d1b596a20fe930b3e340b387269d3a7a03383604051610339929190611161565b60405180910390a15050565b600060058260405161035791906110d9565b9081526040519081900360200190206002015460ff169050919050565b60005433906001600160a01b031681146103a05760405162461bcd60e51b81526004016101f4906112b9565b7f34a5547a99247f2c59198cb5fccb26c5377c9c52d0815bcdbfb2936cbd03e3ff336040516103cf91906110f5565b60405180910390a133ff5b60005433906001600160a01b031681146104065760405162461bcd60e51b81526004016101f4906112b9565b604051630c32ed4160e31b815283906001600160a01b038216906361976a0890610434908690600401611241565b60206040518083038186803b15801561044c57600080fd5b505afa158015610460573d6000803e3d6000fd5b505050506040513d601f19601f820116820180604052508101906104849190611095565b670de0b6b3a76400000234146104ac5760405162461bcd60e51b81526004016101f4906113c3565b604051632edaa54d60e21b81526001600160a01b0382169063bb6a9534906104da9033908790600401611109565b600060405180830381600087803b1580156104f457600080fd5b505af1158015610508573d6000803e3d6000fd5b50505050806001600160a01b031663df02634f6040518163ffffffff1660e01b815260040160206040518083038186803b15801561054557600080fd5b505afa158015610559573d6000803e3d6000fd5b505050506040513d601f19601f8201168201806040525081019061057d9190610fb8565b6001600160a01b03166108fc826001600160a01b03166361976a08866040518263ffffffff1660e01b81526004016105b59190611241565b60206040518083038186803b1580156105cd57600080fd5b505afa1580156105e1573d6000803e3d6000fd5b505050506040513d601f19601f820116820180604052508101906106059190611095565b670de0b6b3a7640000029081150290604051600060405180830381858888f1935050505015801561063a573d6000803e3d6000fd5b50610643610e86565b6040518060600160405280858152602001836001600160a01b03166361976a08876040518263ffffffff1660e01b81526004016106809190611241565b60206040518083038186803b15801561069857600080fd5b505afa1580156106ac573d6000803e3d6000fd5b505050506040513d601f19601f820116820180604052508101906106d09190611095565b81526001600160a01b0387166020918201526006805460018101825560009190915282518051939450849360039092027ff652222313e28459528d920b65115c16c04f3efc82aaedc97be59f3f377c0d3f019261073292849290910190610eb0565b5060208201516001820155604091820151600290910180546001600160a01b0319166001600160a01b03909216919091179055517fd7cf747143916ab5d493c4c23467b3de1ca532c1efb7b2537b121215d31fd2f3906107979087903390889061117a565b60405180910390a15050505050565b6000805433906001600160a01b031681146107d35760405162461bcd60e51b81526004016101f4906112b9565b6002546040516370a0823160e01b81526101009091046001600160a01b0316906370a08231906108079030906004016110f5565b60206040518083038186803b15801561081f57600080fd5b505afa158015610833573d6000803e3d6000fd5b505050506040513d601f19601f820116820180604052508101906108579190611095565b91505b5090565b60005433906001600160a01b0316811461088a5760405162461bcd60e51b81526004016101f4906112b9565b6003546040516324e330a560e01b81526001600160a01b03909116906324e330a5906108ba908590600401611241565b60206040518083038186803b1580156108d257600080fd5b505afa1580156108e6573d6000803e3d6000fd5b505050506040513d601f19601f8201168201806040525081019061090a9190611022565b151560011461092b5760405162461bcd60e51b81526004016101f49061134b565b600354604051631b71949560e31b81526000916001600160a01b03169063db8ca4a89061095c908690600401611241565b60206040518083038186803b15801561097457600080fd5b505afa158015610988573d6000803e3d6000fd5b505050506040513d601f19601f820116820180604052508101906109ac9190611095565b9050806109b76107a6565b10156109d55760405162461bcd60e51b81526004016101f49061141c565b6002546004805460405163a9059cbb60e01b81526001600160a01b0361010090940484169363a9059cbb93610a109390911691869101611161565b602060405180830381600087803b158015610a2a57600080fd5b505af1158015610a3e573d6000803e3d6000fd5b505050506040513d601f19601f82011682018060405250810190610a629190611022565b5060408051606081018252848152602081018390526001818301529051600590610a8d9086906110d9565b90815260200160405180910390206000820151816000019080519060200190610ab7929190610eb0565b50602082015160018201556040918201516002909101805460ff1916911515919091179055517f79f53c5723b32faf5c04b29395643882534ac37249ea3a264821b481cbad297690610b0e9033908690859061112d565b60405180910390a1505050565b60606006805480602002602001604051908101604052809291908181526020016000905b82821015610c235760008481526020908190206040805160038602909201805460026001821615610100026000190190911604601f8101859004909402830160809081019092526060830184815292939092849290918491840182828015610be85780601f10610bbd57610100808354040283529160200191610be8565b820191906000526020600020905b815481529060010190602001808311610bcb57829003601f168201915b50505091835250506001828101546020808401919091526002909301546001600160a01b031660409092019190915291835292019101610b3f565b50505050905090565b60606000600583604051610c4091906110d9565b90815260405190819003602001812090600590610c5e9086906110d9565b908152602001604051809103902060010154818054600181600116156101000203166002900480601f016020809104026020016040519081016040528092919081815260200182805460018160011615610100020316600290048015610d055780601f10610cda57610100808354040283529160200191610d05565b820191906000526020600020905b815481529060010190602001808311610ce857829003601f168201915b5050505050915091509150915091565b60005433906001600160a01b03168114610d415760405162461bcd60e51b81526004016101f4906112b9565b60008211610d615760405162461bcd60e51b81526004016101f490611320565b6000610d6c83610e2b565b905080341015610d8e5760405162461bcd60e51b81526004016101f49061141c565b6040513482900390339082156108fc029083906000818181858888f19350505050158015610dc0573d6000803e3d6000fd5b50600354604051635685a07560e01b81526001600160a01b0390911690635685a07590610df39033908890600401611161565b600060405180830381600087803b158015610e0d57600080fd5b505af1158015610e21573d6000803e3d6000fd5b5050505050505050565b6000610e3f82670de0b6b3a7640000610e45565b92915050565b600082610e5457506000610e3f565b82820282848281610e6157fe5b0414610e7f5760405162461bcd60e51b81526004016101f490611382565b9392505050565b6040518060600160405280606081526020016000815260200160006001600160a01b031681525090565b828054600181600116156101000203166002900490600052602060002090601f016020900481019282601f10610ef157805160ff1916838001178555610f1e565b82800160010185558215610f1e579182015b82811115610f1e578251825591602001919060010190610f03565b5061085a9291505b8082111561085a5760008155600101610f26565b600082601f830112610f4a578081fd5b813567ffffffffffffffff80821115610f61578283fd5b604051601f8301601f191681016020018281118282101715610f81578485fd5b604052828152925082848301602001861015610f9c57600080fd5b8260208601602083013760006020848301015250505092915050565b600060208284031215610fc9578081fd5b8151610e7f8161148c565b60008060408385031215610fe6578081fd5b8235610ff18161148c565b9150602083013567ffffffffffffffff81111561100c578182fd5b61101885828601610f3a565b9150509250929050565b600060208284031215611033578081fd5b81518015158114610e7f578182fd5b600060208284031215611053578081fd5b813567ffffffffffffffff811115611069578182fd5b61107584828501610f3a565b949350505050565b60006020828403121561108e578081fd5b5035919050565b6000602082840312156110a6578081fd5b5051919050565b600081518084526110c581602086016020860161145c565b601f01601f19169290920160200192915050565b600082516110eb81846020870161145c565b9190910192915050565b6001600160a01b0391909116815260200190565b6001600160a01b0383168152604060208201819052600090611075908301846110ad565b6001600160a01b0384168152606060208201819052600090611151908301856110ad565b9050826040830152949350505050565b6001600160a01b03929092168252602082015260400190565b6001600160a01b038481168252831660208201526060604082018190526000906111a6908301846110ad565b95945050505050565b60208082528251828201819052600091906040908185019080840286018301878501865b8381101561122857603f198984030185528151606081518186526111f9828701826110ad565b838b0151878c0152928901516001600160a01b03169589019590955250948701949250908601906001016111d3565b509098975050505050505050565b901515815260200190565b600060208252610e7f60208301846110ad565b60006040825261126760408301856110ad565b90508260208301529392505050565b60208082526023908201527f496e73756669696369656e74657320746f6b656e732070617261206465766f6c6040820152623b32b960e91b606082015260800190565b60208082526041908201527f4e6f2065737461206175746f72697a61646f2070617261207265616c697a617260408201527f2065737461206f7065726163696f6e2c20736f6c6f2061736567757261646f726060820152606160f81b608082015260a00190565b602080825260119082015270436f6d707261206d617320746f6b656e7360781b604082015260600190565b6020808252601a908201527f456c20736572766963696f206e6f20657374612061637469766f000000000000604082015260600190565b60208082526021908201527f536166654d6174683a206d756c7469706c69636174696f6e206f766572666c6f6040820152607760f81b606082015260800190565b6020808252601290820152714f7065726163696f6e20696e76616c69646160701b604082015260600190565b6020808252601390820152724465766f6c766572206d617320746f6b656e7360681b604082015260600190565b6020808252601b908201527f4e6f207469656e6520737566696369656e74657320746f6b656e730000000000604082015260600190565b90815260200190565b60005b8381101561147757818101518382015260200161145f565b83811115611486576000848401525b50505050565b6001600160a01b03811681146114a157600080fd5b5056fea264697066735822122074b2b2cf1fbf084f407a2c843cce2eaaa808f1ca29fc2f1194deee989356b34264736f6c634300060c0033",
    "sourcePath": "/home/secondport/Documents/SmartContracts/Trabajo-Final/Aseguradora.sol",
    "compiler": {
        "name": "solc",
        "version": "0.6.12+commit.27d51765"
    },
    "functionHashes": {
        "CompraTokens(uint256)": "f7774091",
        "HistorialAseguradoLaboratorio()": "a1c9da55",
        "HistorialCliente(string)": "b990b6b0",
        "ServicioEstadoAsegurado(string)": "32509ddd",
        "balanceOf()": "722713f7",
        "darBaja()": "3c2845f2",
        "devolverTokens(uint256)": "2e95161c",
        "getBalance()": "12065fe0",
        "peticionServicio(string)": "7f3a6b21",
        "peticionServicioLab(address,string)": "6743c293"
    },
    "gasEstimates": {
        "creation": {
            "codeDepositCost": "1067600",
            "executionCost": "infinite",
            "totalCost": "infinite"
        },
        "external": {
            "CompraTokens(uint256)": "infinite",
            "HistorialAseguradoLaboratorio()": "infinite",
            "HistorialCliente(string)": "infinite",
            "ServicioEstadoAsegurado(string)": "infinite",
            "balanceOf()": "infinite",
            "darBaja()": "32163",
            "devolverTokens(uint256)": "infinite",
            "getBalance()": "928",
            "peticionServicio(string)": "infinite",
            "peticionServicioLab(address,string)": "infinite"
        }
    }
}