{
    "contractName": "InsuranceFactory",
    "abi": [
        {
            "inputs": [],
            "stateMutability": "nonpayable",
            "type": "constructor"
        },
        {
            "anonymous": false,
            "inputs": [
                {
                    "indexed": false,
                    "internalType": "address",
                    "name": "",
                    "type": "address"
                },
                {
                    "indexed": false,
                    "internalType": "address",
                    "name": "",
                    "type": "address"
                }
            ],
            "name": "AseguradoCreado",
            "type": "event"
        },
        {
            "anonymous": false,
            "inputs": [
                {
                    "indexed": false,
                    "internalType": "address",
                    "name": "",
                    "type": "address"
                }
            ],
            "name": "BajaAsegurado",
            "type": "event"
        },
        {
            "anonymous": false,
            "inputs": [
                {
                    "indexed": false,
                    "internalType": "string",
                    "name": "",
                    "type": "string"
                }
            ],
            "name": "BajaServicio",
            "type": "event"
        },
        {
            "anonymous": false,
            "inputs": [
                {
                    "indexed": false,
                    "internalType": "uint256",
                    "name": "",
                    "type": "uint256"
                }
            ],
            "name": "EventoComprado",
            "type": "event"
        },
        {
            "anonymous": false,
            "inputs": [
                {
                    "indexed": false,
                    "internalType": "address",
                    "name": "",
                    "type": "address"
                },
                {
                    "indexed": false,
                    "internalType": "string[]",
                    "name": "",
                    "type": "string[]"
                },
                {
                    "indexed": false,
                    "internalType": "uint256",
                    "name": "",
                    "type": "uint256"
                }
            ],
            "name": "EventoServicioProporcionado",
            "type": "event"
        },
        {
            "anonymous": false,
            "inputs": [
                {
                    "indexed": false,
                    "internalType": "address",
                    "name": "",
                    "type": "address"
                },
                {
                    "indexed": false,
                    "internalType": "address",
                    "name": "",
                    "type": "address"
                }
            ],
            "name": "LaboratorioCreado",
            "type": "event"
        },
        {
            "anonymous": false,
            "inputs": [
                {
                    "indexed": false,
                    "internalType": "string",
                    "name": "",
                    "type": "string"
                },
                {
                    "indexed": false,
                    "internalType": "uint256",
                    "name": "",
                    "type": "uint256"
                }
            ],
            "name": "ServicioCreado",
            "type": "event"
        },
        {
            "inputs": [],
            "name": "Aseguradora",
            "outputs": [
                {
                    "internalType": "address payable",
                    "name": "",
                    "type": "address"
                }
            ],
            "stateMutability": "view",
            "type": "function"
        },
        {
            "inputs": [],
            "name": "ConsultarServicioActivos",
            "outputs": [
                {
                    "internalType": "string[]",
                    "name": "",
                    "type": "string[]"
                }
            ],
            "stateMutability": "view",
            "type": "function"
        },
        {
            "inputs": [
                {
                    "internalType": "address",
                    "name": "_direccioAsegurado",
                    "type": "address"
                }
            ],
            "name": "FuncionUnicamenteAsegurados",
            "outputs": [],
            "stateMutability": "view",
            "type": "function"
        },
        {
            "inputs": [
                {
                    "internalType": "address",
                    "name": "",
                    "type": "address"
                }
            ],
            "name": "MappingClientes",
            "outputs": [
                {
                    "internalType": "address",
                    "name": "DireccionCliente",
                    "type": "address"
                },
                {
                    "internalType": "bool",
                    "name": "Autorizacion",
                    "type": "bool"
                },
                {
                    "internalType": "address",
                    "name": "DireccionContrato",
                    "type": "address"
                }
            ],
            "stateMutability": "view",
            "type": "function"
        },
        {
            "inputs": [
                {
                    "internalType": "address",
                    "name": "",
                    "type": "address"
                }
            ],
            "name": "MappingLabs",
            "outputs": [
                {
                    "internalType": "address",
                    "name": "direccionContratoLab",
                    "type": "address"
                },
                {
                    "internalType": "bool",
                    "name": "ValidacionLab",
                    "type": "bool"
                }
            ],
            "stateMutability": "view",
            "type": "function"
        },
        {
            "inputs": [
                {
                    "internalType": "string",
                    "name": "",
                    "type": "string"
                }
            ],
            "name": "MappingServicios",
            "outputs": [
                {
                    "internalType": "string",
                    "name": "nombreServicio",
                    "type": "string"
                },
                {
                    "internalType": "uint256",
                    "name": "precioTokens",
                    "type": "uint256"
                },
                {
                    "internalType": "bool",
                    "name": "EstadoServicio",
                    "type": "bool"
                }
            ],
            "stateMutability": "view",
            "type": "function"
        },
        {
            "inputs": [
                {
                    "internalType": "string",
                    "name": "_nombreServicio",
                    "type": "string"
                }
            ],
            "name": "ServicioEstado",
            "outputs": [
                {
                    "internalType": "bool",
                    "name": "",
                    "type": "bool"
                }
            ],
            "stateMutability": "view",
            "type": "function"
        },
        {
            "inputs": [],
            "name": "balanceOf",
            "outputs": [
                {
                    "internalType": "uint256",
                    "name": "",
                    "type": "uint256"
                }
            ],
            "stateMutability": "view",
            "type": "function"
        },
        {
            "inputs": [
                {
                    "internalType": "address",
                    "name": "_asegurado",
                    "type": "address"
                },
                {
                    "internalType": "uint256",
                    "name": "_numTokens",
                    "type": "uint256"
                }
            ],
            "name": "compraTokens",
            "outputs": [],
            "stateMutability": "payable",
            "type": "function"
        },
        {
            "inputs": [
                {
                    "internalType": "address",
                    "name": "_direccionAsegurado",
                    "type": "address"
                },
                {
                    "internalType": "address",
                    "name": "_direccionConsultor",
                    "type": "address"
                }
            ],
            "name": "consultarHistorialAsegurado",
            "outputs": [
                {
                    "internalType": "string",
                    "name": "",
                    "type": "string"
                }
            ],
            "stateMutability": "view",
            "type": "function"
        },
        {
            "inputs": [],
            "name": "creacionContratoAsegurado",
            "outputs": [],
            "stateMutability": "nonpayable",
            "type": "function"
        },
        {
            "inputs": [],
            "name": "creacionLab",
            "outputs": [],
            "stateMutability": "nonpayable",
            "type": "function"
        },
        {
            "inputs": [
                {
                    "internalType": "address",
                    "name": "_direccionAsegurado",
                    "type": "address"
                }
            ],
            "name": "darBajaCliente",
            "outputs": [],
            "stateMutability": "nonpayable",
            "type": "function"
        },
        {
            "inputs": [
                {
                    "internalType": "string",
                    "name": "_nombreServicio",
                    "type": "string"
                }
            ],
            "name": "darBajaServicio",
            "outputs": [],
            "stateMutability": "nonpayable",
            "type": "function"
        },
        {
            "inputs": [
                {
                    "internalType": "uint256",
                    "name": "_numTokens",
                    "type": "uint256"
                }
            ],
            "name": "generarTokens",
            "outputs": [],
            "stateMutability": "nonpayable",
            "type": "function"
        },
        {
            "inputs": [],
            "name": "getBalance",
            "outputs": [
                {
                    "internalType": "uint256",
                    "name": "ethers",
                    "type": "uint256"
                }
            ],
            "stateMutability": "view",
            "type": "function"
        },
        {
            "inputs": [],
            "name": "getDireccionesClientes",
            "outputs": [
                {
                    "internalType": "address[]",
                    "name": "",
                    "type": "address[]"
                }
            ],
            "stateMutability": "view",
            "type": "function"
        },
        {
            "inputs": [],
            "name": "getDireccionesLabs",
            "outputs": [
                {
                    "internalType": "address[]",
                    "name": "",
                    "type": "address[]"
                }
            ],
            "stateMutability": "view",
            "type": "function"
        },
        {
            "inputs": [
                {
                    "internalType": "string",
                    "name": "_servicio",
                    "type": "string"
                }
            ],
            "name": "getPrecioServicio",
            "outputs": [
                {
                    "internalType": "uint256",
                    "name": "tokens",
                    "type": "uint256"
                }
            ],
            "stateMutability": "view",
            "type": "function"
        },
        {
            "inputs": [
                {
                    "internalType": "string",
                    "name": "_nombreServicio",
                    "type": "string"
                },
                {
                    "internalType": "uint256",
                    "name": "_precioServicio",
                    "type": "uint256"
                }
            ],
            "name": "nuevoServicio",
            "outputs": [],
            "stateMutability": "nonpayable",
            "type": "function"
        }
    ],
    "bytecode": "60806040523480156200001157600080fd5b506064604051620000229062000086565b6200002e919062000094565b604051809103906000f0801580156200004b573d6000803e3d6000fd5b50600080546001600160a01b03929092166001600160a01b03199283161790556001805482163017905560028054909116331790556200009d565b6106dd806200424883390190565b90815260200190565b61419b80620000ad6000396000f3fe6080604052600436106200013a5760003560e01c806386120ece11620000af578063d89ac531116200006d578063d89ac5311462000386578063da3460f414620003bb578063db8ca4a814620003e0578063dfa80d971462000405578063f74ed9f3146200042c576200013a565b806386120ece146200029c578063990d400b14620002c1578063a8930a0414620002f7578063ca48d363146200031c578063d07e44cb1462000352576200013a565b8063447a079311620000fd578063447a0793146200020957806344a2901014620002305780635685a0751462000248578063722713f7146200025f57806377571ad61462000277576200013a565b80630fe8755e146200013f57806312065fe0146200016f5780631a6f0d8c146200019657806324e330a514620001bd5780632d8679e414620001f1575b600080fd5b3480156200014c57600080fd5b506200015762000444565b60405162000166919062001911565b60405180910390f35b3480156200017c57600080fd5b5062000187620004e3565b60405162000166919062001c2c565b348015620001a357600080fd5b50620001ae620004e8565b60405162000166919062001861565b348015620001ca57600080fd5b50620001e2620001dc366004620015e9565b620004f7565b604051620001669190620019b8565b348015620001fe57600080fd5b506200015762000529565b3480156200021657600080fd5b506200022e62000228366004620015e9565b620005bc565b005b3480156200023d57600080fd5b506200022e620006aa565b6200022e620002593660046200159a565b62000801565b3480156200026c57600080fd5b50620001876200092b565b3480156200028457600080fd5b506200022e6200029636600462001628565b620009bb565b348015620002a957600080fd5b506200022e620002bb3660046200153c565b62000aed565b348015620002ce57600080fd5b50620002e6620002e03660046200153c565b62000b37565b6040516200016693929190620018ee565b3480156200030457600080fd5b506200022e62000316366004620016f5565b62000b68565b3480156200032957600080fd5b50620003416200033b366004620015e9565b62000c01565b6040516200016693929190620019fc565b3480156200035f57600080fd5b50620003776200037136600462001561565b62000cc2565b604051620001669190620019c3565b3480156200039357600080fd5b50620003ab620003a53660046200153c565b62000f19565b60405162000166929190620018d3565b348015620003c857600080fd5b506200022e620003da3660046200153c565b62000f40565b348015620003ed57600080fd5b5062000187620003ff366004620015e9565b62001018565b3480156200041257600080fd5b506200041d62001091565b60405162000166919062001954565b3480156200043957600080fd5b506200022e6200120e565b60025460609033906001600160a01b031681146200047f5760405162461bcd60e51b8152600401620004769062001b53565b60405180910390fd5b6008805480602002602001604051908101604052809291908181526020018280548015620004d757602002820191906000526020600020905b81546001600160a01b03168152600190910190602001808311620004b8575b505050505091505b5090565b303190565b6002546001600160a01b031681565b60006004826040516200050b919062001755565b9081526040519081900360200190206002015460ff1690505b919050565b60025460609033906001600160a01b031681146200055b5760405162461bcd60e51b8152600401620004769062001b53565b6006805480602002602001604051908101604052809291908181526020018280548015620004d7576020028201919060005260206000209081546001600160a01b03168152600190910190602001808311620004b857505050505091505090565b60025433906001600160a01b03168114620005eb5760405162461bcd60e51b8152600401620004769062001b53565b600482604051620005fd919062001755565b9081526040519081900360200190206002015460ff161515600114620006375760405162461bcd60e51b8152600401620004769062001b1c565b60006004836040516200064b919062001755565b908152604051908190036020018120600201805492151560ff19909316929092179091557f3f5a4cdb31634ac69176f7ae2ba6bfef7b957f331479fd4c5d4b4b6e94a7c7d4906200069e908490620019c3565b60405180910390a15050565b600680546001818101835560009283527ff652222313e28459528d920b65115c16c04f3efc82aaedc97be59f3f377c0d3f90910180546001600160a01b031916339081179091558254915460025460405192936001600160a01b0390811693928116929116906200071b9062001411565b6200072a94939291906200188f565b604051809103906000f08015801562000747573d6000803e3d6000fd5b506040805160608101825233808252600160208084018281526001600160a01b0380881686880190815260008681526003909452928790209551865492511515600160a01b0260ff60a01b199183166001600160a01b03199485161791909116178655915194909201805494909116939091169290921790915590519192507f28d2277892f1c2b1d0ac2f5e187f9c932309e2acc60f8bb64a7da1acfee2822791620007f69190849062001875565b60405180910390a150565b816200080d8162000aed565b6000620008196200092b565b9050808311156200083e5760405162461bcd60e51b8152600401620004769062001bff565b60008311620008615760405162461bcd60e51b8152600401620004769062001aba565b60005460405163a9059cbb60e01b81526001600160a01b039091169063a9059cbb90620008959033908790600401620018ba565b602060405180830381600087803b158015620008b057600080fd5b505af1158015620008c5573d6000803e3d6000fd5b505050506040513d601f19601f82011682018060405250810190620008eb9190620015c7565b507f532ca96ddc2473533ac891db5695bda35855b96fd3a04e2fa692ea71479050b9836040516200091d919062001c2c565b60405180910390a150505050565b600080546001546040516370a0823160e01b81526001600160a01b03928316926370a0823192620009629291169060040162001861565b60206040518083038186803b1580156200097b57600080fd5b505afa15801562000990573d6000803e3d6000fd5b505050506040513d601f19601f82011682018060405250810190620009b691906200170e565b905090565b60025433906001600160a01b03168114620009ea5760405162461bcd60e51b8152600401620004769062001b53565b6040805160608101825284815260208101849052600181830152905160049062000a1690869062001755565b9081526020016040518091039020600082015181600001908051906020019062000a429291906200141f565b506020828101516001838101919091556040909301516002909201805460ff191692151592909217909155600780549283018155600052845162000aac927fa66cc928b5edb82af9bd49922954155ab7b0942694bea4ce44661d9a8736c68801918601906200141f565b507fa25228ac589f90664c832b7412961ec0f5247e073052a15270b92e6b3e415b5b838360405162000ae0929190620019d8565b60405180910390a1505050565b6001600160a01b038116600090815260036020526040902054600160a01b900460ff16151560011462000b345760405162461bcd60e51b8152600401620004769062001b53565b50565b600360205260009081526040902080546001909101546001600160a01b0380831692600160a01b900460ff16911683565b60025433906001600160a01b0316811462000b975760405162461bcd60e51b8152600401620004769062001b53565b6000546040516303a8799360e31b81526001600160a01b0390911690631d43cc989062000bc990859060040162001c2c565b600060405180830381600087803b15801562000be457600080fd5b505af115801562000bf9573d6000803e3d6000fd5b505050505050565b805160208183018101805160048252928201938201939093209190925280546040805160026001841615610100026000190190931692909204601f810185900485028301850190915280825291929091839183018282801562000ca85780601f1062000c7c5761010080835404028352916020019162000ca8565b820191906000526020600020905b81548152906001019060200180831162000c8a57829003601f168201915b50505050600183015460029093015491929160ff16905083565b600254606090839083906001600160a01b0380841691161462000cf95760405162461bcd60e51b8152600401620004769062001ba2565b62000d048162000aed565b604080516020808201835260008083526001600160a01b03808a16825260039092529283206001015491929116905b60075481101562000f0d5760046007828154811062000d4e57fe5b9060005260206000200160405162000d679190620017eb565b9081526040519081900360200190206002015460ff16801562000e245750816001600160a01b03166332509ddd6007838154811062000da257fe5b906000526020600020016040518263ffffffff1660e01b815260040162000dca919062001a28565b60206040518083038186803b15801562000de357600080fd5b505afa15801562000df8573d6000803e3d6000fd5b505050506040513d601f19601f8201168201806040525081019062000e1e9190620015c7565b15156001145b1562000f045760606000836001600160a01b031663b990b6b06007858154811062000e4b57fe5b906000526020600020016040518263ffffffff1660e01b815260040162000e73919062001a28565b60006040518083038186803b15801562000e8c57600080fd5b505afa15801562000ea1573d6000803e3d6000fd5b505050506040513d6000823e601f3d908101601f1916820160405262000ecb91908101906200166f565b91509150848262000edc8362001330565b60405160200162000ef09392919062001773565b604051602081830303815290604052945050505b60010162000d33565b50909695505050505050565b6005602052600090815260409020546001600160a01b03811690600160a01b900460ff1682565b60025433906001600160a01b0316811462000f6f5760405162461bcd60e51b8152600401620004769062001b53565b6001600160a01b03808316600090815260036020526040808220805460ff60a01b19168155600101548151631e1422f960e11b81529151931692633c2845f29260048084019391929182900301818387803b15801562000fce57600080fd5b505af115801562000fe3573d6000803e3d6000fd5b505050507f50680d24726cc3a014e282d4ce72707075d4dd658549da69c0c3835d50f93c61826040516200069e919062001861565b60006004826040516200102c919062001755565b9081526040519081900360200190206002015460ff161515600114620010665760405162461bcd60e51b8152600401620004769062001ae5565b60048260405162001078919062001755565b9081526020016040518091039020600101549050919050565b600754606090819067ffffffffffffffff81118015620010b057600080fd5b50604051908082528060200260200182016040528015620010e657816020015b6060815260200190600190039081620010d05790505b50905060005b60075481101562001208576004600782815481106200110757fe5b90600052602060002001604051620011209190620017eb565b9081526040519081900360200190206002015460ff16151560011415620011ff57600781815481106200114f57fe5b600091825260209182902001805460408051601f6002600019610100600187161502019094169390930492830185900485028101850190915281815292830182828015620011e15780601f10620011b557610100808354040283529160200191620011e1565b820191906000526020600020905b815481529060010190602001808311620011c357829003601f168201915b5050505050828281518110620011f357fe5b60200260200101819052505b600101620010ec565b50905090565b600880546001818101835560009283527ff3f7a9fe364faab93b216da50a3214154f22a0a2b415b23a84c8169e8b636ee390910180546001600160a01b0319163390811790915590546040516001600160a01b0391909116906200127290620014a0565b6200127f92919062001875565b604051809103906000f0801580156200129c573d6000803e3d6000fd5b506040805180820182526001600160a01b038381168252600160208084019182523360008181526005909252908590209351845492516001600160a01b031990931693169290921760ff60a01b1916600160a01b911515919091021790915590519192507ff23c7dd26c59354e7b18754d5ee20b25d2d0baa407f891bd09002b2b62fd096f91620007f69190849062001875565b6060816200135757506040805180820190915260018152600360fc1b602082015262000524565b8160005b81156200137157600101600a820491506200135b565b60608167ffffffffffffffff811180156200138b57600080fd5b506040519080825280601f01601f191660200182016040528015620013b7576020820181803683370190505b50905060001982015b85156200140857600a860660300160f81b82828060019003935081518110620013e557fe5b60200101906001600160f81b031916908160001a905350600a86049550620013c0565b50949350505050565b6116048062001cc283390190565b828054600181600116156101000203166002900490600052602060002090601f016020900481019282601f106200146257805160ff191683800117855562001492565b8280016001018555821562001492579182015b828111156200149257825182559160200191906001019062001475565b50620004df929150620014ae565b610ea080620032c683390190565b5b80821115620004df5760008155600101620014af565b80356001600160a01b0381168114620014dd57600080fd5b92915050565b600082601f830112620014f4578081fd5b81356200150b620015058262001c5d565b62001c35565b91508082528360208285010111156200152357600080fd5b8060208401602084013760009082016020015292915050565b6000602082840312156200154e578081fd5b6200155a8383620014c5565b9392505050565b6000806040838503121562001574578081fd5b620015808484620014c5565b9150620015918460208501620014c5565b90509250929050565b60008060408385031215620015ad578182fd5b620015b98484620014c5565b946020939093013593505050565b600060208284031215620015d9578081fd5b815180151581146200155a578182fd5b600060208284031215620015fb578081fd5b813567ffffffffffffffff81111562001612578182fd5b6200162084828501620014e3565b949350505050565b600080604083850312156200163b578182fd5b823567ffffffffffffffff81111562001652578283fd5b6200166085828601620014e3565b95602094909401359450505050565b6000806040838503121562001682578182fd5b825167ffffffffffffffff81111562001699578283fd5b8301601f81018513620016aa578283fd5b8051620016bb620015058262001c5d565b818152866020838501011115620016d0578485fd5b620016e382602083016020860162001c8e565b60209590950151949694955050505050565b60006020828403121562001707578081fd5b5035919050565b60006020828403121562001720578081fd5b5051919050565b600081518084526200174181602086016020860162001c8e565b601f01601f19169290920160200192915050565b600082516200176981846020870162001c8e565b9190910192915050565b600084516200178781846020890162001c8e565b600560fb1b9083019081528451620017a781600184016020890162001c8e565b600b60fa1b600192909101918201528351620017cb81600284016020880162001c8e565b65292d2d2d2d2d60d01b6002929091019182015260080195945050505050565b60008083546001808216600081146200180d5760018114620018255762001856565b60ff198316865260028304607f168601935062001856565b600283048786526020808720875b838110156200184e5781548a82015290850190820162001833565b505050860193505b509195945050505050565b6001600160a01b0391909116815260200190565b6001600160a01b0392831681529116602082015260400190565b6001600160a01b03948516815292841660208401529083166040830152909116606082015260800190565b6001600160a01b03929092168252602082015260400190565b6001600160a01b039290921682521515602082015260400190565b6001600160a01b0393841681529115156020830152909116604082015260600190565b6020808252825182820181905260009190848201906040850190845b8181101562000f0d5783516001600160a01b0316835292840192918401916001016200192d565b6000602080830181845280855180835260408601915060408482028701019250838701855b82811015620019ab57603f198886030184526200199885835162001727565b9450928501929085019060010162001979565b5092979650505050505050565b901515815260200190565b6000602082526200155a602083018462001727565b600060408252620019ed604083018562001727565b90508260208301529392505050565b60006060825262001a11606083018662001727565b602083019490945250901515604090910152919050565b6000602080830181845282855460018082166000811462001a52576001811462001a715762001aad565b60028304607f16855260ff198316604089015260608801935062001aad565b6002830480865262001a838a62001c82565b885b8281101562001aa35781548b82016040015290840190880162001a85565b8a01604001955050505b5091979650505050505050565b602080825260119082015270436f6d707261206d617320746f6b656e7360781b604082015260600190565b6020808252601e908201527f456c20736572766963696f206e6f206573746120646973706f6e69626c650000604082015260600190565b6020808252601a908201527f456c20736572766963696f206e6f20657374612061637469766f000000000000604082015260600190565b6020808252602f908201527f4e6f2065737461206175746f72697a61646f2070617261207265616c697a617260408201526e1032b9ba309037b832b930b1b4b7b760891b606082015260800190565b6020808252603d908201527f4e6f2065737461206175746f72697a61646f2070617261207265616c697a617260408201527f2065737461206f7065726163696f6e20736f6c6f20636c69656e746573000000606082015260800190565b602080825260139082015272436f6d707261206d656e6f7320746f6b656e7360681b604082015260600190565b90815260200190565b60405181810167ffffffffffffffff8111828210171562001c5557600080fd5b604052919050565b600067ffffffffffffffff82111562001c74578081fd5b50601f01601f191660200190565b60009081526020902090565b60005b8381101562001cab57818101518382015260200162001c91565b8381111562001cbb576000848401525b5050505056fe60806040523480156200001157600080fd5b50604051620016043803806200160483398101604081905262000034916200009a565b600080546001600160a01b03199081166001600160a01b0396871617825560019190915560028054948616610100026001600160a81b0319909516949094179093556003805492851692841692909217909155600480549190931691161790556200011a565b60008060008060808587031215620000b0578384fd5b8451620000bd8162000101565b6020860151909450620000d08162000101565b6040860151909350620000e38162000101565b6060860151909250620000f68162000101565b939692955090935050565b6001600160a01b03811681146200011757600080fd5b50565b6114da806200012a6000396000f3fe6080604052600436106100915760003560e01c8063722713f711610059578063722713f71461012b5780637f3a6b2114610140578063a1c9da5514610160578063b990b6b014610182578063f7774091146101b057610091565b806312065fe0146100965780632e95161c146100c157806332509ddd146100d65780633c2845f2146101035780636743c29314610118575b600080fd5b3480156100a257600080fd5b506100ab6101c3565b6040516100b89190611453565b60405180910390f35b6100d46100cf36600461107d565b6101c8565b005b3480156100e257600080fd5b506100f66100f1366004611042565b610345565b6040516100b89190611236565b34801561010f57600080fd5b506100d4610374565b6100d4610126366004610fd4565b6103da565b34801561013757600080fd5b506100ab6107a6565b34801561014c57600080fd5b506100d461015b366004611042565b61085e565b34801561016c57600080fd5b50610175610b1b565b6040516100b891906111af565b34801561018e57600080fd5b506101a261019d366004611042565b610c2c565b6040516100b8929190611254565b6100d46101be36600461107d565b610d15565b303190565b60005433906001600160a01b031681146101fd5760405162461bcd60e51b81526004016101f4906112b9565b60405180910390fd5b6000821161021d5760405162461bcd60e51b81526004016101f4906113ef565b6102256107a6565b8211156102445760405162461bcd60e51b81526004016101f490611276565b6002546004805460405163a9059cbb60e01b81526001600160a01b0361010090940484169363a9059cbb9361027f9390911691879101611161565b602060405180830381600087803b15801561029957600080fd5b505af11580156102ad573d6000803e3d6000fd5b505050506040513d601f19601f820116820180604052508101906102d19190611022565b50336108fc6102df84610e2b565b6040518115909202916000818181858888f19350505050158015610307573d6000803e3d6000fd5b507f38c9c5932b4a4adc31336a3d0f02e16d1b596a20fe930b3e340b387269d3a7a03383604051610339929190611161565b60405180910390a15050565b600060058260405161035791906110d9565b9081526040519081900360200190206002015460ff169050919050565b60005433906001600160a01b031681146103a05760405162461bcd60e51b81526004016101f4906112b9565b7f34a5547a99247f2c59198cb5fccb26c5377c9c52d0815bcdbfb2936cbd03e3ff336040516103cf91906110f5565b60405180910390a133ff5b60005433906001600160a01b031681146104065760405162461bcd60e51b81526004016101f4906112b9565b604051630c32ed4160e31b815283906001600160a01b038216906361976a0890610434908690600401611241565b60206040518083038186803b15801561044c57600080fd5b505afa158015610460573d6000803e3d6000fd5b505050506040513d601f19601f820116820180604052508101906104849190611095565b670de0b6b3a76400000234146104ac5760405162461bcd60e51b81526004016101f4906113c3565b604051632edaa54d60e21b81526001600160a01b0382169063bb6a9534906104da9033908790600401611109565b600060405180830381600087803b1580156104f457600080fd5b505af1158015610508573d6000803e3d6000fd5b50505050806001600160a01b031663df02634f6040518163ffffffff1660e01b815260040160206040518083038186803b15801561054557600080fd5b505afa158015610559573d6000803e3d6000fd5b505050506040513d601f19601f8201168201806040525081019061057d9190610fb8565b6001600160a01b03166108fc826001600160a01b03166361976a08866040518263ffffffff1660e01b81526004016105b59190611241565b60206040518083038186803b1580156105cd57600080fd5b505afa1580156105e1573d6000803e3d6000fd5b505050506040513d601f19601f820116820180604052508101906106059190611095565b670de0b6b3a7640000029081150290604051600060405180830381858888f1935050505015801561063a573d6000803e3d6000fd5b50610643610e86565b6040518060600160405280858152602001836001600160a01b03166361976a08876040518263ffffffff1660e01b81526004016106809190611241565b60206040518083038186803b15801561069857600080fd5b505afa1580156106ac573d6000803e3d6000fd5b505050506040513d601f19601f820116820180604052508101906106d09190611095565b81526001600160a01b0387166020918201526006805460018101825560009190915282518051939450849360039092027ff652222313e28459528d920b65115c16c04f3efc82aaedc97be59f3f377c0d3f019261073292849290910190610eb0565b5060208201516001820155604091820151600290910180546001600160a01b0319166001600160a01b03909216919091179055517fd7cf747143916ab5d493c4c23467b3de1ca532c1efb7b2537b121215d31fd2f3906107979087903390889061117a565b60405180910390a15050505050565b6000805433906001600160a01b031681146107d35760405162461bcd60e51b81526004016101f4906112b9565b6002546040516370a0823160e01b81526101009091046001600160a01b0316906370a08231906108079030906004016110f5565b60206040518083038186803b15801561081f57600080fd5b505afa158015610833573d6000803e3d6000fd5b505050506040513d601f19601f820116820180604052508101906108579190611095565b91505b5090565b60005433906001600160a01b0316811461088a5760405162461bcd60e51b81526004016101f4906112b9565b6003546040516324e330a560e01b81526001600160a01b03909116906324e330a5906108ba908590600401611241565b60206040518083038186803b1580156108d257600080fd5b505afa1580156108e6573d6000803e3d6000fd5b505050506040513d601f19601f8201168201806040525081019061090a9190611022565b151560011461092b5760405162461bcd60e51b81526004016101f49061134b565b600354604051631b71949560e31b81526000916001600160a01b03169063db8ca4a89061095c908690600401611241565b60206040518083038186803b15801561097457600080fd5b505afa158015610988573d6000803e3d6000fd5b505050506040513d601f19601f820116820180604052508101906109ac9190611095565b9050806109b76107a6565b10156109d55760405162461bcd60e51b81526004016101f49061141c565b6002546004805460405163a9059cbb60e01b81526001600160a01b0361010090940484169363a9059cbb93610a109390911691869101611161565b602060405180830381600087803b158015610a2a57600080fd5b505af1158015610a3e573d6000803e3d6000fd5b505050506040513d601f19601f82011682018060405250810190610a629190611022565b5060408051606081018252848152602081018390526001818301529051600590610a8d9086906110d9565b90815260200160405180910390206000820151816000019080519060200190610ab7929190610eb0565b50602082015160018201556040918201516002909101805460ff1916911515919091179055517f79f53c5723b32faf5c04b29395643882534ac37249ea3a264821b481cbad297690610b0e9033908690859061112d565b60405180910390a1505050565b60606006805480602002602001604051908101604052809291908181526020016000905b82821015610c235760008481526020908190206040805160038602909201805460026001821615610100026000190190911604601f8101859004909402830160809081019092526060830184815292939092849290918491840182828015610be85780601f10610bbd57610100808354040283529160200191610be8565b820191906000526020600020905b815481529060010190602001808311610bcb57829003601f168201915b50505091835250506001828101546020808401919091526002909301546001600160a01b031660409092019190915291835292019101610b3f565b50505050905090565b60606000600583604051610c4091906110d9565b90815260405190819003602001812090600590610c5e9086906110d9565b908152602001604051809103902060010154818054600181600116156101000203166002900480601f016020809104026020016040519081016040528092919081815260200182805460018160011615610100020316600290048015610d055780601f10610cda57610100808354040283529160200191610d05565b820191906000526020600020905b815481529060010190602001808311610ce857829003601f168201915b5050505050915091509150915091565b60005433906001600160a01b03168114610d415760405162461bcd60e51b81526004016101f4906112b9565b60008211610d615760405162461bcd60e51b81526004016101f490611320565b6000610d6c83610e2b565b905080341015610d8e5760405162461bcd60e51b81526004016101f49061141c565b6040513482900390339082156108fc029083906000818181858888f19350505050158015610dc0573d6000803e3d6000fd5b50600354604051635685a07560e01b81526001600160a01b0390911690635685a07590610df39033908890600401611161565b600060405180830381600087803b158015610e0d57600080fd5b505af1158015610e21573d6000803e3d6000fd5b5050505050505050565b6000610e3f82670de0b6b3a7640000610e45565b92915050565b600082610e5457506000610e3f565b82820282848281610e6157fe5b0414610e7f5760405162461bcd60e51b81526004016101f490611382565b9392505050565b6040518060600160405280606081526020016000815260200160006001600160a01b031681525090565b828054600181600116156101000203166002900490600052602060002090601f016020900481019282601f10610ef157805160ff1916838001178555610f1e565b82800160010185558215610f1e579182015b82811115610f1e578251825591602001919060010190610f03565b5061085a9291505b8082111561085a5760008155600101610f26565b600082601f830112610f4a578081fd5b813567ffffffffffffffff80821115610f61578283fd5b604051601f8301601f191681016020018281118282101715610f81578485fd5b604052828152925082848301602001861015610f9c57600080fd5b8260208601602083013760006020848301015250505092915050565b600060208284031215610fc9578081fd5b8151610e7f8161148c565b60008060408385031215610fe6578081fd5b8235610ff18161148c565b9150602083013567ffffffffffffffff81111561100c578182fd5b61101885828601610f3a565b9150509250929050565b600060208284031215611033578081fd5b81518015158114610e7f578182fd5b600060208284031215611053578081fd5b813567ffffffffffffffff811115611069578182fd5b61107584828501610f3a565b949350505050565b60006020828403121561108e578081fd5b5035919050565b6000602082840312156110a6578081fd5b5051919050565b600081518084526110c581602086016020860161145c565b601f01601f19169290920160200192915050565b600082516110eb81846020870161145c565b9190910192915050565b6001600160a01b0391909116815260200190565b6001600160a01b0383168152604060208201819052600090611075908301846110ad565b6001600160a01b0384168152606060208201819052600090611151908301856110ad565b9050826040830152949350505050565b6001600160a01b03929092168252602082015260400190565b6001600160a01b038481168252831660208201526060604082018190526000906111a6908301846110ad565b95945050505050565b60208082528251828201819052600091906040908185019080840286018301878501865b8381101561122857603f198984030185528151606081518186526111f9828701826110ad565b838b0151878c0152928901516001600160a01b03169589019590955250948701949250908601906001016111d3565b509098975050505050505050565b901515815260200190565b600060208252610e7f60208301846110ad565b60006040825261126760408301856110ad565b90508260208301529392505050565b60208082526023908201527f496e73756669696369656e74657320746f6b656e732070617261206465766f6c6040820152623b32b960e91b606082015260800190565b60208082526041908201527f4e6f2065737461206175746f72697a61646f2070617261207265616c697a617260408201527f2065737461206f7065726163696f6e2c20736f6c6f2061736567757261646f726060820152606160f81b608082015260a00190565b602080825260119082015270436f6d707261206d617320746f6b656e7360781b604082015260600190565b6020808252601a908201527f456c20736572766963696f206e6f20657374612061637469766f000000000000604082015260600190565b60208082526021908201527f536166654d6174683a206d756c7469706c69636174696f6e206f766572666c6f6040820152607760f81b606082015260800190565b6020808252601290820152714f7065726163696f6e20696e76616c69646160701b604082015260600190565b6020808252601390820152724465766f6c766572206d617320746f6b656e7360681b604082015260600190565b6020808252601b908201527f4e6f207469656e6520737566696369656e74657320746f6b656e730000000000604082015260600190565b90815260200190565b60005b8381101561147757818101518382015260200161145f565b83811115611486576000848401525b50505050565b6001600160a01b03811681146114a157600080fd5b5056fea264697066735822122074b2b2cf1fbf084f407a2c843cce2eaaa808f1ca29fc2f1194deee989356b34264736f6c634300060c0033608060405234801561001057600080fd5b50604051610ea0380380610ea083398101604081905261002f91610060565b600080546001600160a01b039384166001600160a01b031991821617909155600180549290931691161790556100b1565b60008060408385031215610072578182fd5b825161007d81610099565b602084015190925061008e81610099565b809150509250929050565b6001600160a01b03811681146100ae57600080fd5b50565b610de0806100c06000396000f3fe608060405234801561001057600080fd5b50600436106100a95760003560e01c8063964f63e111610071578063964f63e114610136578063a832698614610157578063b0659cbf1461016c578063bb6a95341461017f578063dda475f914610192578063df02634f146101b2576100a9565b806312065fe0146100ae57806320ef9445146100cc5780633d404459146100e1578063469ccf591461010157806361976a0814610123575b600080fd5b6100b66101ba565b6040516100c39190610d71565b60405180910390f35b6100d46101bf565b6040516100c39190610bfe565b6100f46100ef3660046109fb565b610297565b6040516100c39190610c5e565b61011461010f366004610ae8565b610330565b6040516100c393929190610cc1565b6100b6610131366004610ae8565b6103ed565b6101496101443660046109fb565b610418565b6040516100c3929190610c71565b61016a610165366004610b23565b610589565b005b61016a61017a366004610a76565b6106b9565b61016a61018d366004610a1d565b610747565b6101a56101a0366004610b66565b610897565b6040516100c39190610bc6565b6101a56108be565b303190565b60606005805480602002602001604051908101604052809291908181526020016000905b8282101561028e5760008481526020908190208301805460408051601f600260001961010060018716150201909416939093049283018590048502810185019091528181529283018282801561027a5780601f1061024f5761010080835404028352916020019161027a565b820191906000526020600020905b81548152906001019060200180831161025d57829003601f168201915b5050505050815260200190600101906101e3565b50505050905090565b600260208181526000928352604092839020805484516001821615610100026000190190911693909304601f81018390048302840183019094528383529192908301828280156103285780601f106102fd57610100808354040283529160200191610328565b820191906000526020600020905b81548152906001019060200180831161030b57829003601f168201915b505050505081565b805160208183018101805160048252928201938201939093209190925280546040805160026001841615610100026000190190931692909204601f81018590048502830185019091528082529192909183918301828280156103d35780601f106103a8576101008083540402835291602001916103d3565b820191906000526020600020905b8154815290600101906020018083116103b657829003601f168201915b50505050600183015460029093015491929160ff16905083565b60006004826040516103ff9190610baa565b9081526020016040518091039020600101549050919050565b6001600160a01b0381166000908152600360209081526040918290208054835160026001831615610100026000190190921691909104601f810184900484028201840190945283815260609384939192918301828280156104ba5780601f1061048f576101008083540402835291602001916104ba565b820191906000526020600020905b81548152906001019060200180831161049d57829003601f168201915b5050505050915060036000846001600160a01b03166001600160a01b031681526020019081526020016000206001018054600181600116156101000203166002900480601f01602080910402602001604051908101604052809291908181526020018280546001816001161561010002031660029004801561057d5780601f106105525761010080835404028352916020019161057d565b820191906000526020600020905b81548152906001019060200180831161056057829003601f168201915b50505050509050915091565b60005433906001600160a01b031681146105be5760405162461bcd60e51b81526004016105b590610d22565b60405180910390fd5b604080516060810182528481526020810184905260018183015290516004906105e8908690610baa565b908152602001604051809103902060008201518160000190805190602001906106129291906108cd565b506020828101516001838101919091556040909301516002909201805460ff191692151592909217909155600580549283018155600052845161067a927f036b6384b5eca791c62761152d0c79bb0604c104a5fb6f4eb0703f3154bb3db001918601906108cd565b507f0242fc9a7ab429e889a4e6bafa795ac5805f23389c59f25e4e9a5577b40f114583836040516106ac929190610c9f565b60405180910390a1505050565b60005433906001600160a01b031681146106e55760405162461bcd60e51b81526004016105b590610d22565b60408051808201825284815260208082018590526001600160a01b03871660009081526003825292909220815180519293919261072592849201906108cd565b50602082810151805161073e92600185019201906108cd565b50505050505050565b600154604051634309076760e11b81526001600160a01b039091169081906386120ece90610779908690600401610bc6565b60006040518083038186803b15801561079157600080fd5b505afa1580156107a5573d6000803e3d6000fd5b505050506004826040516107b99190610baa565b9081526040519081900360200190206002015460ff1615156001146107f05760405162461bcd60e51b81526004016105b590610ceb565b6001600160a01b03831660009081526002602090815260409091208351610819928501906108cd565b50600680546001810182556000919091527ff652222313e28459528d920b65115c16c04f3efc82aaedc97be59f3f377c0d3f0180546001600160a01b0319166001600160a01b0385161790556040517ffe7476dd412166b4675c0d5ec4ae79d357c139292d44a9377cd94ac81d3faa1a906106ac9085908590610bda565b600681815481106108a457fe5b6000918252602090912001546001600160a01b0316905081565b6000546001600160a01b031681565b828054600181600116156101000203166002900490600052602060002090601f016020900481019282601f1061090e57805160ff191683800117855561093b565b8280016001018555821561093b579182015b8281111561093b578251825591602001919060010190610920565b5061094792915061094b565b5090565b5b80821115610947576000815560010161094c565b80356001600160a01b038116811461097757600080fd5b92915050565b600082601f83011261098d578081fd5b813567ffffffffffffffff808211156109a4578283fd5b604051601f8301601f1916810160200182811182821017156109c4578485fd5b6040528281529250828483016020018610156109df57600080fd5b8260208601602083013760006020848301015250505092915050565b600060208284031215610a0c578081fd5b610a168383610960565b9392505050565b60008060408385031215610a2f578081fd5b82356001600160a01b0381168114610a45578182fd5b9150602083013567ffffffffffffffff811115610a60578182fd5b610a6c8582860161097d565b9150509250929050565b600080600060608486031215610a8a578081fd5b610a948585610960565b9250602084013567ffffffffffffffff80821115610ab0578283fd5b610abc8783880161097d565b93506040860135915080821115610ad1578283fd5b50610ade8682870161097d565b9150509250925092565b600060208284031215610af9578081fd5b813567ffffffffffffffff811115610b0f578182fd5b610b1b8482850161097d565b949350505050565b60008060408385031215610b35578182fd5b823567ffffffffffffffff811115610b4b578283fd5b610b578582860161097d565b95602094909401359450505050565b600060208284031215610b77578081fd5b5035919050565b60008151808452610b96816020860160208601610d7a565b601f01601f19169290920160200192915050565b60008251610bbc818460208701610d7a565b9190910192915050565b6001600160a01b0391909116815260200190565b6001600160a01b0383168152604060208201819052600090610b1b90830184610b7e565b6000602080830181845280855180835260408601915060408482028701019250838701855b82811015610c5157603f19888603018452610c3f858351610b7e565b94509285019290850190600101610c23565b5092979650505050505050565b600060208252610a166020830184610b7e565b600060408252610c846040830185610b7e565b8281036020840152610c968185610b7e565b95945050505050565b600060408252610cb26040830185610b7e565b90508260208301529392505050565b600060608252610cd46060830186610b7e565b602083019490945250901515604090910152919050565b6020808252601a908201527f456c20736572766963696f206e6f20657374612061637469766f000000000000604082015260600190565b6020808252602f908201527f4e6f2065737461206175746f72697a61646f2070617261207265616c697a617260408201526e1032b9ba309037b832b930b1b4b7b760891b606082015260800190565b90815260200190565b60005b83811015610d95578181015183820152602001610d7d565b83811115610da4576000848401525b5050505056fea2646970667358221220253f197a0d300ff83a29c0c67aa62d53b3310c59e8b2b3efb69dcc57f428c92664736f6c634300060c0033a26469706673582212203d25f1a27f3af23fff63ede4d2a7983c7283e34a7cd1774b724272908b8f133e64736f6c634300060c0033608060405234801561001057600080fd5b506040516106dd3803806106dd83398101604081905261002f91610049565b600281905533600090815260208190526040902055610061565b60006020828403121561005a578081fd5b5051919050565b61066d806100706000396000f3fe608060405234801561001057600080fd5b506004361061009e5760003560e01c8063313ce56711610066578063313ce5671461011e57806370a082311461013357806395d89b4114610146578063a9059cbb1461014e578063dd62ed3e146101615761009e565b806306fdde03146100a3578063095ea7b3146100c157806318160ddd146100e15780631d43cc98146100f657806323b872dd1461010b575b600080fd5b6100ab610174565b6040516100b891906105b5565b60405180910390f35b6100d46100cf366004610568565b61019a565b6040516100b891906105aa565b6100e9610205565b6040516100b89190610608565b610109610104366004610592565b61020b565b005b6100d4610119366004610528565b61022b565b610126610379565b6040516100b89190610611565b6100e96101413660046104d9565b61037e565b6100ab610399565b6100d461015c366004610568565b6103be565b6100e961016f3660046104f4565b61046f565b6040518060400160405280600a8152602001694552433230426173696360b01b81525081565b3360008181526001602090815260408083206001600160a01b038716808552925280832085905551919290917f8c5be1e5ebec7d5bd14f71427d1e84f3dd0314c0f7b2291e5b200ac8c7c3b925906101f3908690610608565b60405180910390a35060015b92915050565b60025490565b600280548201905533600090815260208190526040902080549091019055565b6001600160a01b03831660009081526020819052604081205482111561025057600080fd5b6001600160a01b038416600090815260016020908152604080832033845290915290205482111561028057600080fd5b6001600160a01b0384166000908152602081905260409020546102a3908361049a565b6001600160a01b0385166000908152602081815260408083209390935560018152828220338352905220546102d8908361049a565b6001600160a01b038086166000908152600160209081526040808320338452825280832094909455918616815290819052205461031590836104ac565b6001600160a01b0380851660008181526020819052604090819020939093559151908616907fddf252ad1be2c89b69c2b068fc378daa952ba7f163c4a11628f55a4df523b3ef90610367908690610608565b60405180910390a35060019392505050565b600281565b6001600160a01b031660009081526020819052604090205490565b6040518060400160405280600981526020016825212516aa27a5a2a760b91b81525081565b336000908152602081905260408120548211156103da57600080fd5b336000908152602081905260409020546103f4908361049a565b33600090815260208190526040808220929092556001600160a01b0385168152205461042090836104ac565b6001600160a01b0384166000818152602081905260409081902092909255905133907fddf252ad1be2c89b69c2b068fc378daa952ba7f163c4a11628f55a4df523b3ef906101f3908690610608565b6001600160a01b03918216600090815260016020908152604080832093909416825291909152205490565b6000828211156104a657fe5b50900390565b6000828201838110156104bb57fe5b9392505050565b80356001600160a01b03811681146101ff57600080fd5b6000602082840312156104ea578081fd5b6104bb83836104c2565b60008060408385031215610506578081fd5b61051084846104c2565b915061051f84602085016104c2565b90509250929050565b60008060006060848603121561053c578081fd5b83356105478161061f565b925060208401356105578161061f565b929592945050506040919091013590565b6000806040838503121561057a578182fd5b61058484846104c2565b946020939093013593505050565b6000602082840312156105a3578081fd5b5035919050565b901515815260200190565b6000602080835283518082850152825b818110156105e1578581018301518582016040015282016105c5565b818111156105f25783604083870101525b50601f01601f1916929092016040019392505050565b90815260200190565b60ff91909116815260200190565b6001600160a01b038116811461063457600080fd5b5056fea26469706673582212201046f73c32266940ce0f2df9089785cd76fffac0531557ebc2bdf744ac82845164736f6c634300060c0033",
    "sourcePath": "/home/secondport/Documents/SmartContracts/Trabajo-Final/Aseguradora.sol",
    "compiler": {
        "name": "solc",
        "version": "0.6.12+commit.27d51765"
    },
    "functionHashes": {
        "Aseguradora()": "1a6f0d8c",
        "ConsultarServicioActivos()": "dfa80d97",
        "FuncionUnicamenteAsegurados(address)": "86120ece",
        "MappingClientes(address)": "990d400b",
        "MappingLabs(address)": "d89ac531",
        "MappingServicios(string)": "ca48d363",
        "ServicioEstado(string)": "24e330a5",
        "balanceOf()": "722713f7",
        "compraTokens(address,uint256)": "5685a075",
        "consultarHistorialAsegurado(address,address)": "d07e44cb",
        "creacionContratoAsegurado()": "44a29010",
        "creacionLab()": "f74ed9f3",
        "darBajaCliente(address)": "da3460f4",
        "darBajaServicio(string)": "447a0793",
        "generarTokens(uint256)": "a8930a04",
        "getBalance()": "12065fe0",
        "getDireccionesClientes()": "2d8679e4",
        "getDireccionesLabs()": "0fe8755e",
        "getPrecioServicio(string)": "db8ca4a8",
        "nuevoServicio(string,uint256)": "77571ad6"
    },
    "gasEstimates": {
        "creation": {
            "codeDepositCost": "3359000",
            "executionCost": "infinite",
            "totalCost": "infinite"
        },
        "external": {
            "Aseguradora()": "1138",
            "ConsultarServicioActivos()": "infinite",
            "FuncionUnicamenteAsegurados(address)": "1421",
            "MappingClientes(address)": "2248",
            "MappingLabs(address)": "1374",
            "MappingServicios(string)": "infinite",
            "ServicioEstado(string)": "infinite",
            "balanceOf()": "infinite",
            "compraTokens(address,uint256)": "infinite",
            "consultarHistorialAsegurado(address,address)": "infinite",
            "creacionContratoAsegurado()": "infinite",
            "creacionLab()": "infinite",
            "darBajaCliente(address)": "infinite",
            "darBajaServicio(string)": "infinite",
            "generarTokens(uint256)": "infinite",
            "getBalance()": "973",
            "getDireccionesClientes()": "infinite",
            "getDireccionesLabs()": "infinite",
            "getPrecioServicio(string)": "infinite",
            "nuevoServicio(string,uint256)": "infinite"
        }
    }
}