{
    "contractName": "InsuranceFactory",
    "abi": [
        {
            "inputs": [],
            "payable": false,
            "stateMutability": "nonpayable",
            "type": "constructor"
        },
        {
            "anonymous": false,
            "inputs": [
                {
                    "indexed": false,
                    "internalType": "address",
                    "name": "",
                    "type": "address"
                },
                {
                    "indexed": false,
                    "internalType": "address",
                    "name": "",
                    "type": "address"
                }
            ],
            "name": "AseguradoCreado",
            "type": "event"
        },
        {
            "anonymous": false,
            "inputs": [
                {
                    "indexed": false,
                    "internalType": "address",
                    "name": "",
                    "type": "address"
                }
            ],
            "name": "BajaAsegurado",
            "type": "event"
        },
        {
            "anonymous": false,
            "inputs": [
                {
                    "indexed": false,
                    "internalType": "string",
                    "name": "",
                    "type": "string"
                }
            ],
            "name": "BajaServicio",
            "type": "event"
        },
        {
            "anonymous": false,
            "inputs": [
                {
                    "indexed": false,
                    "internalType": "uint256",
                    "name": "",
                    "type": "uint256"
                }
            ],
            "name": "EventoComprado",
            "type": "event"
        },
        {
            "anonymous": false,
            "inputs": [
                {
                    "indexed": false,
                    "internalType": "address",
                    "name": "",
                    "type": "address"
                },
                {
                    "indexed": false,
                    "internalType": "string[]",
                    "name": "",
                    "type": "string[]"
                },
                {
                    "indexed": false,
                    "internalType": "uint256",
                    "name": "",
                    "type": "uint256"
                }
            ],
            "name": "EventoServicioProporcionado",
            "type": "event"
        },
        {
            "anonymous": false,
            "inputs": [
                {
                    "indexed": false,
                    "internalType": "address",
                    "name": "",
                    "type": "address"
                },
                {
                    "indexed": false,
                    "internalType": "address",
                    "name": "",
                    "type": "address"
                }
            ],
            "name": "LaboratorioCreado",
            "type": "event"
        },
        {
            "anonymous": false,
            "inputs": [
                {
                    "indexed": false,
                    "internalType": "string",
                    "name": "",
                    "type": "string"
                },
                {
                    "indexed": false,
                    "internalType": "uint256",
                    "name": "",
                    "type": "uint256"
                }
            ],
            "name": "ServicioCreado",
            "type": "event"
        },
        {
            "constant": true,
            "inputs": [],
            "name": "Aseguradora",
            "outputs": [
                {
                    "internalType": "address payable",
                    "name": "",
                    "type": "address"
                }
            ],
            "payable": false,
            "stateMutability": "view",
            "type": "function"
        },
        {
            "constant": true,
            "inputs": [
                {
                    "internalType": "address",
                    "name": "_direccioAsegurado",
                    "type": "address"
                }
            ],
            "name": "FuncionUnicamenteAsegurados",
            "outputs": [],
            "payable": false,
            "stateMutability": "view",
            "type": "function"
        },
        {
            "constant": true,
            "inputs": [
                {
                    "internalType": "address",
                    "name": "",
                    "type": "address"
                }
            ],
            "name": "MappingClientes",
            "outputs": [
                {
                    "internalType": "address",
                    "name": "DireccionCliente",
                    "type": "address"
                },
                {
                    "internalType": "bool",
                    "name": "Autorizacion",
                    "type": "bool"
                },
                {
                    "internalType": "address",
                    "name": "DireccionContrato",
                    "type": "address"
                }
            ],
            "payable": false,
            "stateMutability": "view",
            "type": "function"
        },
        {
            "constant": true,
            "inputs": [
                {
                    "internalType": "address",
                    "name": "",
                    "type": "address"
                }
            ],
            "name": "MappingLabs",
            "outputs": [
                {
                    "internalType": "address",
                    "name": "direccionContratoLab",
                    "type": "address"
                },
                {
                    "internalType": "bool",
                    "name": "ValidacionLab",
                    "type": "bool"
                }
            ],
            "payable": false,
            "stateMutability": "view",
            "type": "function"
        },
        {
            "constant": true,
            "inputs": [
                {
                    "internalType": "string",
                    "name": "",
                    "type": "string"
                }
            ],
            "name": "MappingServicios",
            "outputs": [
                {
                    "internalType": "string",
                    "name": "nombreServicio",
                    "type": "string"
                },
                {
                    "internalType": "uint256",
                    "name": "precioTokens",
                    "type": "uint256"
                },
                {
                    "internalType": "bool",
                    "name": "EstadoServicio",
                    "type": "bool"
                }
            ],
            "payable": false,
            "stateMutability": "view",
            "type": "function"
        },
        {
            "constant": true,
            "inputs": [
                {
                    "internalType": "address",
                    "name": "_direccionAsegurado",
                    "type": "address"
                },
                {
                    "internalType": "address",
                    "name": "_direccionConsultor",
                    "type": "address"
                }
            ],
            "name": "consultarHistorialAsegurado",
            "outputs": [
                {
                    "internalType": "string",
                    "name": "",
                    "type": "string"
                }
            ],
            "payable": false,
            "stateMutability": "view",
            "type": "function"
        },
        {
            "constant": false,
            "inputs": [],
            "name": "creacionContratoAsegurado",
            "outputs": [],
            "payable": false,
            "stateMutability": "nonpayable",
            "type": "function"
        },
        {
            "constant": false,
            "inputs": [],
            "name": "creacionLab",
            "outputs": [],
            "payable": false,
            "stateMutability": "nonpayable",
            "type": "function"
        },
        {
            "constant": true,
            "inputs": [],
            "name": "getBalance",
            "outputs": [
                {
                    "internalType": "uint256",
                    "name": "ethers",
                    "type": "uint256"
                }
            ],
            "payable": false,
            "stateMutability": "view",
            "type": "function"
        },
        {
            "constant": true,
            "inputs": [],
            "name": "getDireccionesClientes",
            "outputs": [
                {
                    "internalType": "address[]",
                    "name": "",
                    "type": "address[]"
                }
            ],
            "payable": false,
            "stateMutability": "view",
            "type": "function"
        },
        {
            "constant": true,
            "inputs": [],
            "name": "getDireccionesLabs",
            "outputs": [
                {
                    "internalType": "address[]",
                    "name": "",
                    "type": "address[]"
                }
            ],
            "payable": false,
            "stateMutability": "view",
            "type": "function"
        }
    ],
    "bytecode": "60806040523480156200001157600080fd5b506064604051620000229062000086565b6200002e9190620000a5565b604051809103906000f0801580156200004b573d6000803e3d6000fd5b50600080546001600160a01b03929092166001600160a01b0319928316179055600180548216301790556002805490911633179055620000cb565b6107fd8062001da483390190565b6200009f81620000be565b82525050565b60208101620000b5828462000094565b92915050565b90565b6000620000b582620000bb565b611cc980620000db6000396000f3fe60806040523480156200001157600080fd5b5060043610620000b85760003560e01c806386120ece116200007b57806386120ece1462000127578063990d400b146200013e578063ca48d3631462000166578063d07e44cb146200018e578063d89ac53114620001b4578063f74ed9f314620001db57620000b8565b80630fe8755e14620000bd57806312065fe014620000df5780631a6f0d8c14620000f85780632d8679e4146200011157806344a29010146200011b575b600080fd5b620000c7620001e5565b604051620000d6919062001134565b60405180910390f35b620000e962000283565b604051620000d69190620011d6565b6200010262000288565b604051620000d691906200107b565b620000c762000297565b620001256200032a565b005b620001256200013836600462000b1c565b62000481565b620001556200014f36600462000b1c565b620004cb565b604051620000d69392919062001106565b6200017d6200017736600462000ba5565b620004fc565b604051620000d6939291906200115a565b620001a56200019f36600462000b45565b620005bd565b604051620000d6919062001147565b620001cb620001c536600462000b1c565b62000816565b604051620000d6929190620010e7565b620001256200083d565b60025460609033906001600160a01b03168114620002205760405162461bcd60e51b81526004016200021790620011b2565b60405180910390fd5b60088054806020026020016040519081016040528092919081815260200182805480156200027857602002820191906000526020600020905b81546001600160a01b0316815260019091019060200180831162000259575b505050505091505090565b303190565b6002546001600160a01b031681565b60025460609033906001600160a01b03168114620002c95760405162461bcd60e51b81526004016200021790620011b2565b600680548060200260200160405190810160405280929190818152602001828054801562000278576020028201919060005260206000209081546001600160a01b031681526001909101906020018083116200025957505050505091505090565b600680546001818101835560009283527ff652222313e28459528d920b65115c16c04f3efc82aaedc97be59f3f377c0d3f90910180546001600160a01b031916339081179091558254915460025460405192936001600160a01b0390811693928116929116906200039b9062000a2a565b620003aa9493929190620010aa565b604051809103906000f080158015620003c7573d6000803e3d6000fd5b506040805160608101825233808252600160208084018281526001600160a01b0380881686880190815260008681526003909452928790209551865492511515600160a01b0260ff60a01b199183166001600160a01b03199485161791909116178655915194909201805494909116939091169290921790915590519192507f28d2277892f1c2b1d0ac2f5e187f9c932309e2acc60f8bb64a7da1acfee282279162000476919084906200108b565b60405180910390a150565b6001600160a01b038116600090815260036020526040902054600160a01b900460ff161515600114620004c85760405162461bcd60e51b81526004016200021790620011a0565b50565b600360205260009081526040902080546001909101546001600160a01b0380831692600160a01b900460ff16911683565b805160208183018101805160048252928201938201939093209190925280546040805160026001841615610100026000190190931692909204601f8101859004850283018501909152808252919290918391830182828015620005a35780601f106200057757610100808354040283529160200191620005a3565b820191906000526020600020905b8154815290600101906020018083116200058557829003601f168201915b50505050600183015460029093015491929160ff16905083565b600254606090839083906001600160a01b03808416911614620005f45760405162461bcd60e51b81526004016200021790620011c4565b620005ff8162000481565b604080516020808201835260008083526001600160a01b03808a16825260039092529283206001015491929116905b60075481101562000808576004600782815481106200064957fe5b9060005260206000200160405162000662919062001066565b9081526040519081900360200190206002015460ff1680156200071f5750816001600160a01b03166332509ddd600783815481106200069d57fe5b906000526020600020016040518263ffffffff1660e01b8152600401620006c591906200118d565b60206040518083038186803b158015620006de57600080fd5b505afa158015620006f3573d6000803e3d6000fd5b505050506040513d601f19601f8201168201806040525062000719919081019062000b84565b15156001145b15620007ff5760606000836001600160a01b031663b990b6b0600785815481106200074657fe5b906000526020600020016040518263ffffffff1660e01b81526004016200076e91906200118d565b60006040518083038186803b1580156200078757600080fd5b505afa1580156200079c573d6000803e3d6000fd5b505050506040513d6000823e601f3d908101601f19168201604052620007c6919081019062000bde565b915091508482620007d7836200095f565b604051602001620007eb939291906200100c565b604051602081830303815290604052945050505b6001016200062e565b50909350505b505092915050565b6005602052600090815260409020546001600160a01b03811690600160a01b900460ff1682565b600880546001818101835560009283527ff3f7a9fe364faab93b216da50a3214154f22a0a2b415b23a84c8169e8b636ee390910180546001600160a01b0319163390811790915590546040516001600160a01b039190911690620008a19062000a38565b620008ae9291906200108b565b604051809103906000f080158015620008cb573d6000803e3d6000fd5b506040805180820182526001600160a01b038381168252600160208084019182523360008181526005909252908590209351845492516001600160a01b031990931693169290921760ff60a01b1916600160a01b911515919091021790915590519192507ff23c7dd26c59354e7b18754d5ee20b25d2d0baa407f891bd09002b2b62fd096f9162000476919084906200108b565b6060816200098657506040805180820190915260018152600360fc1b602082015262000a25565b8160005b8115620009a057600101600a820491506200098a565b6060816040519080825280601f01601f191660200182016040528015620009ce576020820181803883390190505b50905060001982015b851562000a1f57600a860660300160f81b82828060019003935081518110620009fc57fe5b60200101906001600160f81b031916908160001a905350600a86049550620009d7565b50925050505b919050565b6107a5806200130383390190565b6101df8062001aa883390190565b803562000a5381620012d5565b92915050565b805162000a5381620012ec565b600082601f83011262000a7857600080fd5b813562000a8f62000a89826200120e565b620011e6565b9150808252602083016020830185838301111562000aac57600080fd5b62000ab98382846200128c565b50505092915050565b600082601f83011262000ad457600080fd5b815162000ae562000a89826200120e565b9150808252602083016020830185838301111562000b0257600080fd5b62000ab983828462001298565b805162000a5381620012f7565b60006020828403121562000b2f57600080fd5b600062000b3d848462000a46565b949350505050565b6000806040838503121562000b5957600080fd5b600062000b67858562000a46565b925050602062000b7a8582860162000a46565b9150509250929050565b60006020828403121562000b9757600080fd5b600062000b3d848462000a59565b60006020828403121562000bb857600080fd5b813567ffffffffffffffff81111562000bd057600080fd5b62000b3d8482850162000a66565b6000806040838503121562000bf257600080fd5b825167ffffffffffffffff81111562000c0a57600080fd5b62000c188582860162000ac2565b925050602062000b7a8582860162000b0f565b600062000c39838362000c52565b505060200190565b62000c4c8162001277565b82525050565b62000c4c8162001256565b600062000c6a8262001249565b62000c7681856200124d565b935062000c838362001237565b8060005b8381101562000cb757815162000c9e888262000c2b565b975062000cab8362001237565b92505060010162000c87565b509495945050505050565b62000c4c8162001263565b62000c4c816200127f565b600062000ce58262001249565b62000cf181856200124d565b935062000d0381856020860162001298565b62000d0e81620012cb565b9093019392505050565b600062000d258262001249565b62000d31818562000a25565b935062000d4381856020860162001298565b9290920192915050565b60008154600181166000811462000d6d576001811462000d96576200080e565b607f600283041662000d8081876200124d565b60ff19841681529550506020850192506200080e565b6002820462000da681876200124d565b955062000db3856200123d565b60005b8281101562000dd45781548882015260019091019060200162000db6565b9096019695505050505050565b60008154600181166000811462000e01576001811462000e27576200080e565b607f600283041662000e14818762000a25565b60ff19841681529550850192506200080e565b6002820462000e37818762000a25565b955062000e44856200123d565b60005b8281101562000e655781548882015260019091019060200162000e47565b5050909401949350505050565b600062000e8160018362000a25565b600b60fa1b815260010192915050565b600062000ea060018362000a25565b600560fb1b815260010192915050565b600062000ebf602f836200124d565b7f4e6f2065737461206175746f72697a61646f2070617261207265616c697a617281526e1032b9ba309037b832b930b1b4b7b760891b602082015260400192915050565b600062000f12604f836200124d565b7f4e6f2065737461206175746f72697a61646f2070617261207265616c697a617281527f2065737461206f7065726163696f6e20736f6c6f20706572736f6e616c20646560208201526e206c612061736567757261646f726160881b604082015260600192915050565b600062000f8b603d836200124d565b7f4e6f2065737461206175746f72697a61646f2070617261207265616c697a617281527f2065737461206f7065726163696f6e20736f6c6f20636c69656e746573000000602082015260400192915050565b600062000fec60068362000a25565b65292d2d2d2d2d60d01b815260060192915050565b62000c4c8162001274565b60006200101a828662000d18565b9150620010278262000e91565b915062001035828562000d18565b9150620010428262000e72565b915062001050828462000d18565b91506200105d8262000fdd565b95945050505050565b600062001074828462000de1565b9392505050565b6020810162000a53828462000c52565b604081016200109b828562000c41565b62001074602083018462000c52565b60808101620010ba828762000c41565b620010c9602083018662000ccd565b620010d8604083018562000c52565b6200105d606083018462000c52565b60408101620010f7828562000c52565b62001074602083018462000cc2565b6060810162001116828662000c52565b62001125602083018562000cc2565b62000b3d604083018462000c52565b6020808252810162001074818462000c5d565b6020808252810162001074818462000cd8565b606080825281016200116d818662000cd8565b90506200117e602083018562001001565b62000b3d604083018462000cc2565b6020808252810162001074818462000d4d565b6020808252810162000a538162000eb0565b6020808252810162000a538162000f03565b6020808252810162000a538162000f7c565b6020810162000a53828462001001565b60405181810167ffffffffffffffff811182821017156200120657600080fd5b604052919050565b600067ffffffffffffffff8211156200122657600080fd5b506020601f91909101601f19160190565b60200190565b60009081526020902090565b5190565b90815260200190565b600062000a538262001268565b151590565b6001600160a01b031690565b90565b600062000a53825b600062000a538262001256565b82818337506000910152565b60005b83811015620012b55781810151838201526020016200129b565b83811115620012c5576000848401525b50505050565b601f01601f191690565b620012e08162001256565b8114620004c857600080fd5b620012e08162001263565b620012e0816200127456fe608060405234801561001057600080fd5b506040516107a53803806107a583398101604081905261002f916100b0565b600080546001600160a01b03199081166001600160a01b0396871617825560019190915560028054948616610100026001600160a81b031990951694909417909355600380549285169284169290921790915560048054919093169116179055610153565b805161009f81610133565b92915050565b805161009f8161014a565b600080600080608085870312156100c657600080fd5b60006100d28787610094565b94505060206100e3878288016100a5565b93505060406100f487828801610094565b925050606061010587828801610094565b91505092959194509250565b600061009f82610127565b600061009f82610111565b6001600160a01b031690565b61013c81610111565b811461014757600080fd5b50565b61013c8161011c565b610643806101626000396000f3fe608060405234801561001057600080fd5b506004361061004c5760003560e01c806312065fe01461005157806332509ddd1461006f578063a1c9da551461008f578063b990b6b0146100a4575b600080fd5b6100596100c5565b6040516100669190610526565b60405180910390f35b61008261007d366004610347565b6100ca565b60405161006691906104f2565b6100976100f9565b60405161006691906104e1565b6100b76100b2366004610347565b61020a565b604051610066929190610506565b303190565b60006005826040516100dc91906104d5565b9081526040519081900360200190206002015460ff169050919050565b60606006805480602002602001604051908101604052809291908181526020016000905b828210156102015760008481526020908190206040805160038602909201805460026001821615610100026000190190911604601f81018590049094028301608090810190925260608301848152929390928492909184918401828280156101c65780601f1061019b576101008083540402835291602001916101c6565b820191906000526020600020905b8154815290600101906020018083116101a957829003601f168201915b50505091835250506001828101546020808401919091526002909301546001600160a01b03166040909201919091529183529201910161011d565b50505050905090565b6060600060058360405161021e91906104d5565b9081526040519081900360200181209060059061023c9086906104d5565b908152602001604051809103902060010154818054600181600116156101000203166002900480601f0160208091040260200160405190810160405280929190818152602001828054600181600116156101000203166002900480156102e35780601f106102b8576101008083540402835291602001916102e3565b820191906000526020600020905b8154815290600101906020018083116102c657829003601f168201915b5050505050915091509150915091565b600082601f83011261030457600080fd5b81356103176103128261055b565b610534565b9150808252602083016020830185838301111561033357600080fd5b61033e8382846105ba565b50505092915050565b60006020828403121561035957600080fd5b813567ffffffffffffffff81111561037057600080fd5b61037c848285016102f3565b949350505050565b60006103908383610484565b9392505050565b6103a08161059b565b82525050565b60006103b182610589565b6103bb818561058d565b9350836020820285016103cd85610583565b8060005b8581101561040757848403895281516103ea8582610384565b94506103f583610583565b60209a909a01999250506001016103d1565b5091979650505050505050565b6103a0816105a6565b600061042882610589565b610432818561058d565b93506104428185602086016105c6565b61044b816105f6565b9093019392505050565b600061046082610589565b61046a8185610596565b935061047a8185602086016105c6565b9290920192915050565b805160608084526000919084019061049c828261041d565b91505060208301516104b160208601826104cc565b5060408301516104c46040860182610397565b509392505050565b6103a0816105b7565b60006103908284610455565b6020808252810161039081846103a6565b602081016105008284610414565b92915050565b60408082528101610517818561041d565b905061039060208301846104cc565b6020810161050082846104cc565b60405181810167ffffffffffffffff8111828210171561055357600080fd5b604052919050565b600067ffffffffffffffff82111561057257600080fd5b506020601f91909101601f19160190565b60200190565b5190565b90815260200190565b919050565b6000610500826105ab565b151590565b6001600160a01b031690565b90565b82818337506000910152565b60005b838110156105e15781810151838201526020016105c9565b838111156105f0576000848401525b50505050565b601f01601f19169056fea365627a7a72315820d388e20ec7618f7c51d41af6e897fcc01c98ffee432a81973b639b4e260a3eb56c6578706572696d656e74616cf564736f6c63430005100040608060405234801561001057600080fd5b506040516101df3803806101df83398101604081905261002f91610071565b600080546001600160a01b039384166001600160a01b031991821617909155600180549290931691161790556100d3565b805161006b816100bc565b92915050565b6000806040838503121561008457600080fd5b60006100908585610060565b92505060206100a185828601610060565b9150509250929050565b60006001600160a01b03821661006b565b6100c5816100ab565b81146100d057600080fd5b50565b60fe806100e16000396000f3fe6080604052348015600f57600080fd5b506004361060325760003560e01c806312065fe0146037578063df02634f146051575b600080fd5b603d6062565b60405160489190609c565b60405180910390f35b60576067565b60405160489190608a565b303190565b6000546001600160a01b031681565b607d8160a8565b82525050565b607d8160b8565b60208101609682846076565b92915050565b60208101609682846083565b60006001600160a01b0382166096565b9056fea365627a7a72315820ea93173a604c67ba2114314c9e47b7fda01d6948455ddcf1998bc51a4c10dde16c6578706572696d656e74616cf564736f6c63430005100040a365627a7a72315820cdd76e8d76ceb8f60a0841b19acc66ee9333ed9731ddfa52ce64cea5b9a3df786c6578706572696d656e74616cf564736f6c63430005100040608060405234801561001057600080fd5b506040516107fd3803806107fd83398101604081905261002f9161005a565b60028190553360009081526020819052604090205561009a565b805161005481610083565b92915050565b60006020828403121561006c57600080fd5b60006100788484610049565b949350505050565b90565b61008c81610080565b811461009757600080fd5b50565b610754806100a96000396000f3fe608060405234801561001057600080fd5b506004361061009e5760003560e01c80634ee22adf116100665780634ee22adf1461011e57806370a082311461013357806395d89b4114610146578063a9059cbb1461014e578063dd62ed3e146101615761009e565b806306fdde03146100a3578063095ea7b3146100c157806318160ddd146100e157806323b872dd146100f6578063313ce56714610109575b600080fd5b6100ab610174565b6040516100b89190610658565b60405180910390f35b6100d46100cf3660046105a3565b61019a565b6040516100b8919061064a565b6100e9610205565b6040516100b89190610669565b6100d4610104366004610556565b61020b565b61011161036b565b6040516100b89190610677565b61013161012c3660046105d3565b610370565b005b6100e96101413660046104f6565b610390565b6100ab6103ab565b6100d461015c3660046105a3565b6103d0565b6100e961016f36600461051c565b61048d565b6040518060400160405280600a8152602001694552433230426173696360b01b81525081565b3360008181526001602090815260408083206001600160a01b038716808552925280832085905551919290917f8c5be1e5ebec7d5bd14f71427d1e84f3dd0314c0f7b2291e5b200ac8c7c3b925906101f3908690610669565b60405180910390a35060015b92915050565b60025490565b6001600160a01b03831660009081526020819052604081205482111561023057600080fd5b6001600160a01b038416600090815260016020908152604080832033845290915290205482111561026057600080fd5b6001600160a01b038416600090815260208190526040902054610289908363ffffffff6104b816565b6001600160a01b0385166000908152602081815260408083209390935560018152828220338352905220546102c4908363ffffffff6104b816565b6001600160a01b0380861660009081526001602090815260408083203384528252808320949094559186168152908190522054610307908363ffffffff6104ca16565b6001600160a01b0380851660008181526020819052604090819020939093559151908616907fddf252ad1be2c89b69c2b068fc378daa952ba7f163c4a11628f55a4df523b3ef90610359908690610669565b60405180910390a35060019392505050565b600281565b600280548201905533600090815260208190526040902080549091019055565b6001600160a01b031660009081526020819052604090205490565b6040518060400160405280600981526020016825212516aa27a5a2a760b91b81525081565b336000908152602081905260408120548211156103ec57600080fd5b3360009081526020819052604090205461040c908363ffffffff6104b816565b33600090815260208190526040808220929092556001600160a01b0385168152205461043e908363ffffffff6104ca16565b6001600160a01b0384166000818152602081905260409081902092909255905133907fddf252ad1be2c89b69c2b068fc378daa952ba7f163c4a11628f55a4df523b3ef906101f3908690610669565b6001600160a01b03918216600090815260016020908152604080832093909416825291909152205490565b6000828211156104c457fe5b50900390565b6000828201838110156104d957fe5b9392505050565b80356101ff816106f1565b80356101ff81610708565b60006020828403121561050857600080fd5b600061051484846104e0565b949350505050565b6000806040838503121561052f57600080fd5b600061053b85856104e0565b925050602061054c858286016104e0565b9150509250929050565b60008060006060848603121561056b57600080fd5b600061057786866104e0565b9350506020610588868287016104e0565b9250506040610599868287016104eb565b9150509250925092565b600080604083850312156105b657600080fd5b60006105c285856104e0565b925050602061054c858286016104eb565b6000602082840312156105e557600080fd5b600061051484846104eb565b6105fa8161069d565b82525050565b600061060b82610685565b6106158185610689565b93506106258185602086016106b7565b61062e816106e7565b9093019392505050565b6105fa816106ae565b6105fa816106b1565b602081016101ff82846105f1565b602080825281016104d98184610600565b602081016101ff8284610638565b602081016101ff8284610641565b5190565b90815260200190565b60006101ff826106a2565b151590565b6001600160a01b031690565b90565b60ff1690565b60005b838110156106d25781810151838201526020016106ba565b838111156106e1576000848401525b50505050565b601f01601f191690565b6106fa81610692565b811461070557600080fd5b50565b6106fa816106ae56fea365627a7a7231582066b80bb5a1f81df3c917eee2b9e09bd7edade8e7d505c333cd2050203580768d6c6578706572696d656e74616cf564736f6c63430005100040",
    "sourcePath": "/home/secondport/Documents/SmartContracts/Trabajo-Final/Aseguradora.sol",
    "compiler": {
        "name": "solc",
        "version": "0.5.16+commit.9c3226ce"
    },
    "functionHashes": {
        "Aseguradora()": "1a6f0d8c",
        "FuncionUnicamenteAsegurados(address)": "86120ece",
        "MappingClientes(address)": "990d400b",
        "MappingLabs(address)": "d89ac531",
        "MappingServicios(string)": "ca48d363",
        "consultarHistorialAsegurado(address,address)": "d07e44cb",
        "creacionContratoAsegurado()": "44a29010",
        "creacionLab()": "f74ed9f3",
        "getBalance()": "12065fe0",
        "getDireccionesClientes()": "2d8679e4",
        "getDireccionesLabs()": "0fe8755e"
    },
    "gasEstimates": {
        "creation": {
            "codeDepositCost": "1473800",
            "executionCost": "infinite",
            "totalCost": "infinite"
        },
        "external": {
            "Aseguradora()": "infinite",
            "FuncionUnicamenteAsegurados(address)": "infinite",
            "MappingClientes(address)": "infinite",
            "MappingLabs(address)": "infinite",
            "MappingServicios(string)": "infinite",
            "consultarHistorialAsegurado(address,address)": "infinite",
            "creacionContratoAsegurado()": "infinite",
            "creacionLab()": "infinite",
            "getBalance()": "1021",
            "getDireccionesClientes()": "infinite",
            "getDireccionesLabs()": "infinite"
        }
    }
}