{
    "contractName": "InsuranceHealthRecord",
    "abi": [
        {
            "inputs": [
                {
                    "internalType": "address",
                    "name": "_owner",
                    "type": "address"
                },
                {
                    "internalType": "contract IERC20",
                    "name": "_token",
                    "type": "address"
                },
                {
                    "internalType": "address",
                    "name": "_insurance",
                    "type": "address"
                },
                {
                    "internalType": "address payable",
                    "name": "_aseguradora",
                    "type": "address"
                }
            ],
            "stateMutability": "nonpayable",
            "type": "constructor"
        },
        {
            "anonymous": false,
            "inputs": [
                {
                    "indexed": false,
                    "internalType": "address",
                    "name": "",
                    "type": "address"
                },
                {
                    "indexed": false,
                    "internalType": "uint256",
                    "name": "",
                    "type": "uint256"
                }
            ],
            "name": "EventoDevolverTokens",
            "type": "event"
        },
        {
            "anonymous": false,
            "inputs": [
                {
                    "indexed": false,
                    "internalType": "address",
                    "name": "",
                    "type": "address"
                },
                {
                    "indexed": false,
                    "internalType": "address",
                    "name": "",
                    "type": "address"
                },
                {
                    "indexed": false,
                    "internalType": "string",
                    "name": "",
                    "type": "string"
                }
            ],
            "name": "EventoPeticionServicioLab",
            "type": "event"
        },
        {
            "anonymous": false,
            "inputs": [
                {
                    "indexed": false,
                    "internalType": "address",
                    "name": "",
                    "type": "address"
                }
            ],
            "name": "EventoSelfDestruct",
            "type": "event"
        },
        {
            "anonymous": false,
            "inputs": [
                {
                    "indexed": false,
                    "internalType": "address",
                    "name": "",
                    "type": "address"
                },
                {
                    "indexed": false,
                    "internalType": "string",
                    "name": "",
                    "type": "string"
                },
                {
                    "indexed": false,
                    "internalType": "uint256",
                    "name": "",
                    "type": "uint256"
                }
            ],
            "name": "servicioPagado",
            "type": "event"
        },
        {
            "inputs": [
                {
                    "internalType": "uint256",
                    "name": "_numTokens",
                    "type": "uint256"
                }
            ],
            "name": "CompraTokens",
            "outputs": [],
            "stateMutability": "payable",
            "type": "function"
        },
        {
            "inputs": [
                {
                    "internalType": "string",
                    "name": "_servicio",
                    "type": "string"
                }
            ],
            "name": "HistorialAsegurado",
            "outputs": [
                {
                    "internalType": "string",
                    "name": "nombreServicio",
                    "type": "string"
                },
                {
                    "internalType": "uint256",
                    "name": "precioServicio",
                    "type": "uint256"
                }
            ],
            "stateMutability": "view",
            "type": "function"
        },
        {
            "inputs": [],
            "name": "HistorialAseguradoLaboratorio",
            "outputs": [
                {
                    "components": [
                        {
                            "internalType": "string",
                            "name": "nombreServicio",
                            "type": "string"
                        },
                        {
                            "internalType": "uint256",
                            "name": "precioServicio",
                            "type": "uint256"
                        },
                        {
                            "internalType": "address",
                            "name": "direccionLab",
                            "type": "address"
                        }
                    ],
                    "internalType": "struct InsuranceHealthRecord.ServicioSolicitadoLab[]",
                    "name": "",
                    "type": "tuple[]"
                }
            ],
            "stateMutability": "view",
            "type": "function"
        },
        {
            "inputs": [],
            "name": "HistorialAseguradora",
            "outputs": [
                {
                    "internalType": "string",
                    "name": "",
                    "type": "string"
                }
            ],
            "stateMutability": "view",
            "type": "function"
        },
        {
            "inputs": [
                {
                    "internalType": "string",
                    "name": "_nombreServicio",
                    "type": "string"
                }
            ],
            "name": "ServicioEstadoAsegurado",
            "outputs": [
                {
                    "internalType": "bool",
                    "name": "",
                    "type": "bool"
                }
            ],
            "stateMutability": "view",
            "type": "function"
        },
        {
            "inputs": [],
            "name": "balanceOf",
            "outputs": [
                {
                    "internalType": "uint256",
                    "name": "_balance",
                    "type": "uint256"
                }
            ],
            "stateMutability": "view",
            "type": "function"
        },
        {
            "inputs": [],
            "name": "darBaja",
            "outputs": [],
            "stateMutability": "nonpayable",
            "type": "function"
        },
        {
            "inputs": [
                {
                    "internalType": "uint256",
                    "name": "_numTokens",
                    "type": "uint256"
                }
            ],
            "name": "devolverTokens",
            "outputs": [],
            "stateMutability": "payable",
            "type": "function"
        },
        {
            "inputs": [],
            "name": "getBalance",
            "outputs": [
                {
                    "internalType": "uint256",
                    "name": "ethers",
                    "type": "uint256"
                }
            ],
            "stateMutability": "view",
            "type": "function"
        },
        {
            "inputs": [
                {
                    "internalType": "string",
                    "name": "_servicio",
                    "type": "string"
                }
            ],
            "name": "peticionServicio",
            "outputs": [],
            "stateMutability": "nonpayable",
            "type": "function"
        },
        {
            "inputs": [
                {
                    "internalType": "address",
                    "name": "_direccionLab",
                    "type": "address"
                },
                {
                    "internalType": "string",
                    "name": "_servicio",
                    "type": "string"
                }
            ],
            "name": "peticionServicioLab",
            "outputs": [],
            "stateMutability": "payable",
            "type": "function"
        }
    ],
    "bytecode": "60806040523480156200001157600080fd5b50604051620018133803806200181383398101604081905262000034916200009a565b600280546001600160a01b03199081166001600160a01b0396871617909155600060035560048054948616610100026001600160a81b0319909516949094179093556005805492851692841692909217909155600680549190931691161790556200011a565b60008060008060808587031215620000b0578384fd5b8451620000bd8162000101565b6020860151909450620000d08162000101565b6040860151909350620000e38162000101565b6060860151909250620000f68162000101565b939692955090935050565b6001600160a01b03811681146200011757600080fd5b50565b6116e9806200012a6000396000f3fe60806040526004361061009c5760003560e01c80636743c293116100645780636743c29314610151578063722713f7146101645780637f3a6b2114610179578063900db08014610199578063a1c9da55146101bb578063f7774091146101dd5761009c565b806312065fe0146100a15780631760688e146100cc5780632e95161c146100fa57806332509ddd1461010f5780633c2845f21461013c575b600080fd5b3480156100ad57600080fd5b506100b66101f0565b6040516100c39190611617565b60405180910390f35b3480156100d857600080fd5b506100ec6100e73660046110f3565b6101f5565b6040516100c3929190611389565b61010d6101083660046111a1565b6102dd565b005b34801561011b57600080fd5b5061012f61012a3660046110f3565b610458565b6040516100c3919061136b565b34801561014857600080fd5b5061010d610486565b61010d61015f366004611085565b6104ec565b34801561017057600080fd5b506100b66108b7565b34801561018557600080fd5b5061010d6101943660046110f3565b610970565b3480156101a557600080fd5b506101ae610c2b565b6040516100c39190611376565b3480156101c757600080fd5b506101d0610ce0565b6040516100c391906112e4565b61010d6101eb3660046111a1565b610df1565b303190565b60606000808360405161020891906111fd565b908152604051908190036020018120906000906102269086906111fd565b908152602001604051809103902060010154818054600181600116156101000203166002900480601f0160208091040260200160405190810160405280929190818152602001828054600181600116156101000203166002900480156102cd5780601f106102a2576101008083540402835291602001916102cd565b820191906000526020600020905b8154815290600101906020018083116102b057829003601f168201915b5050505050915091509150915091565b60025433906001600160a01b031681146103125760405162461bcd60e51b815260040161030990611473565b60405180910390fd5b600082116103325760405162461bcd60e51b8152600401610309906113ab565b61033a6108b7565b8211156103595760405162461bcd60e51b81526004016103099061142b565b6004805460065460405163a9059cbb60e01b81526001600160a01b0361010090930483169363a9059cbb9361039293169187910161129f565b602060405180830381600087803b1580156103ac57600080fd5b505af11580156103c0573d6000803e3d6000fd5b505050506040513d601f19601f820116820180604052508101906103e491906110d3565b50336108fc6103f284610f07565b6040518115909202916000818181858888f1935050505015801561041a573d6000803e3d6000fd5b507f38c9c5932b4a4adc31336a3d0f02e16d1b596a20fe930b3e340b387269d3a7a0338360405161044c92919061129f565b60405180910390a15050565b6000808260405161046991906111fd565b9081526040519081900360200190206002015460ff169050919050565b60025433906001600160a01b031681146104b25760405162461bcd60e51b815260040161030990611473565b7f34a5547a99247f2c59198cb5fccb26c5377c9c52d0815bcdbfb2936cbd03e3ff336040516104e19190611219565b60405180910390a133ff5b60025433906001600160a01b031681146105185760405162461bcd60e51b815260040161030990611473565b604051630c32ed4160e31b815283906001600160a01b038216906361976a0890610546908690600401611376565b60206040518083038186803b15801561055e57600080fd5b505afa158015610572573d6000803e3d6000fd5b505050506040513d601f19601f8201168201806040525081019061059691906111b9565b670de0b6b3a76400000234146105be5760405162461bcd60e51b8152600401610309906113fb565b604051632edaa54d60e21b81526001600160a01b0382169063bb6a9534906105ec9033908790600401611247565b600060405180830381600087803b15801561060657600080fd5b505af115801561061a573d6000803e3d6000fd5b50505050806001600160a01b031663df02634f6040518163ffffffff1660e01b815260040160206040518083038186803b15801561065757600080fd5b505afa15801561066b573d6000803e3d6000fd5b505050506040513d601f19601f8201168201806040525081019061068f9190611069565b6001600160a01b03166108fc826001600160a01b03166361976a08866040518263ffffffff1660e01b81526004016106c79190611376565b60206040518083038186803b1580156106df57600080fd5b505afa1580156106f3573d6000803e3d6000fd5b505050506040513d601f19601f8201168201806040525081019061071791906111b9565b670de0b6b3a7640000029081150290604051600060405180830381858888f1935050505015801561074c573d6000803e3d6000fd5b50610755610f62565b6040518060600160405280858152602001836001600160a01b03166361976a08876040518263ffffffff1660e01b81526004016107929190611376565b60206040518083038186803b1580156107aa57600080fd5b505afa1580156107be573d6000803e3d6000fd5b505050506040513d601f19601f820116820180604052508101906107e291906111b9565b81526001600160a01b03871660209182015260018054808201825560009190915282518051939450849360039092027fb10e2d527612073b26eecdfd717e6a320cf44b4afac2b0732d9fcbe2b7fa0cf6019261084392849290910190610f8c565b5060208201516001820155604091820151600290910180546001600160a01b0319166001600160a01b03909216919091179055517f2172fa70ae6eb089283e2d44403c2258f07df181e661731f8e720dc13b77c89a906108a8908790339088906112b8565b60405180910390a15050505050565b60025460009033906001600160a01b031681146108e65760405162461bcd60e51b815260040161030990611473565b600480546040516370a0823160e01b81526101009091046001600160a01b0316916370a082319161091991309101611219565b60206040518083038186803b15801561093157600080fd5b505afa158015610945573d6000803e3d6000fd5b505050506040513d601f19601f8201168201806040525081019061096991906111b9565b91505b5090565b60025433906001600160a01b0316811461099c5760405162461bcd60e51b815260040161030990611473565b6005546040516324e330a560e01b81526001600160a01b03909116906324e330a5906109cc908590600401611376565b60206040518083038186803b1580156109e457600080fd5b505afa1580156109f8573d6000803e3d6000fd5b505050506040513d601f19601f82011682018060405250810190610a1c91906110d3565b1515600114610a3d5760405162461bcd60e51b8152600401610309906114e3565b600554604051631b71949560e31b81526000916001600160a01b03169063db8ca4a890610a6e908690600401611376565b60206040518083038186803b158015610a8657600080fd5b505afa158015610a9a573d6000803e3d6000fd5b505050506040513d601f19601f82011682018060405250810190610abe91906111b9565b9050610ac86108b7565b811115610ae75760405162461bcd60e51b8152600401610309906115ba565b6004805460065460405163a9059cbb60e01b81526001600160a01b0361010090930483169363a9059cbb93610b2093169186910161129f565b602060405180830381600087803b158015610b3a57600080fd5b505af1158015610b4e573d6000803e3d6000fd5b505050506040513d601f19601f82011682018060405250810190610b7291906110d3565b5060408051606081018252848152602081018390526001818301529051600090610b9d9086906111fd565b90815260200160405180910390206000820151816000019080519060200190610bc7929190610f8c565b50602082015160018201556040918201516002909101805460ff1916911515919091179055517fa51fa0e3228fd7de9c1b28cc7fb957315dc5bf1a2ee220727f729c2469178f2090610c1e9033908690859061126b565b60405180910390a1505050565b60025460609033906001600160a01b03168114610c5a5760405162461bcd60e51b815260040161030990611473565b60055460405163d07e44cb60e01b81526001600160a01b039091169063d07e44cb90610c8c903390819060040161122d565b60006040518083038186803b158015610ca457600080fd5b505afa158015610cb8573d6000803e3d6000fd5b505050506040513d6000823e601f3d908101601f19168201604052610969919081019061112e565b60606001805480602002602001604051908101604052809291908181526020016000905b82821015610de85760008481526020908190206040805160038602909201805460026001821615610100026000190190911604601f8101859004909402830160809081019092526060830184815292939092849290918491840182828015610dad5780601f10610d8257610100808354040283529160200191610dad565b820191906000526020600020905b815481529060010190602001808311610d9057829003601f168201915b50505091835250506001828101546020808401919091526002909301546001600160a01b031660409092019190915291835292019101610d04565b50505050905090565b60025433906001600160a01b03168114610e1d5760405162461bcd60e51b815260040161030990611473565b60008211610e3d5760405162461bcd60e51b81526004016103099061156b565b6000610e4883610f07565b905080341015610e6a5760405162461bcd60e51b815260040161030990611525565b6040513482900390339082156108fc029083906000818181858888f19350505050158015610e9c573d6000803e3d6000fd5b50600554604051635685a07560e01b81526001600160a01b0390911690635685a07590610ecf903390889060040161129f565b600060405180830381600087803b158015610ee957600080fd5b505af1158015610efd573d6000803e3d6000fd5b5050505050505050565b6000610f1b82670de0b6b3a7640000610f21565b92915050565b600082610f3057506000610f1b565b82820282848281610f3d57fe5b0414610f5b5760405162461bcd60e51b8152600401610309906114a2565b9392505050565b6040518060600160405280606081526020016000815260200160006001600160a01b031681525090565b828054600181600116156101000203166002900490600052602060002090601f016020900481019282601f10610fcd57805160ff1916838001178555610ffa565b82800160010185558215610ffa579182015b82811115610ffa578251825591602001919060010190610fdf565b5061096c9291505b8082111561096c5760008155600101611002565b600082601f830112611026578081fd5b813561103961103482611647565b611620565b915080825283602082850101111561105057600080fd5b8060208401602084013760009082016020015292915050565b60006020828403121561107a578081fd5b8151610f5b8161169b565b60008060408385031215611097578081fd5b82356110a28161169b565b9150602083013567ffffffffffffffff8111156110bd578182fd5b6110c985828601611016565b9150509250929050565b6000602082840312156110e4578081fd5b81518015158114610f5b578182fd5b600060208284031215611104578081fd5b813567ffffffffffffffff81111561111a578182fd5b61112684828501611016565b949350505050565b60006020828403121561113f578081fd5b815167ffffffffffffffff811115611155578182fd5b8201601f81018413611165578182fd5b805161117361103482611647565b818152856020838501011115611187578384fd5b61119882602083016020860161166b565b95945050505050565b6000602082840312156111b2578081fd5b5035919050565b6000602082840312156111ca578081fd5b5051919050565b600081518084526111e981602086016020860161166b565b601f01601f19169290920160200192915050565b6000825161120f81846020870161166b565b9190910192915050565b6001600160a01b0391909116815260200190565b6001600160a01b0392831681529116602082015260400190565b6001600160a01b0383168152604060208201819052600090611126908301846111d1565b6001600160a01b038416815260606020820181905260009061128f908301856111d1565b9050826040830152949350505050565b6001600160a01b03929092168252602082015260400190565b6001600160a01b03848116825283166020820152606060408201819052600090611198908301846111d1565b60208082528251828201819052600091906040908185019080840286018301878501865b8381101561135d57603f1989840301855281516060815181865261132e828701826111d1565b838b0151878c0152928901516001600160a01b0316958901959095525094870194925090860190600101611308565b509098975050505050505050565b901515815260200190565b600060208252610f5b60208301846111d1565b60006040825261139c60408301856111d1565b90508260208301529392505050565b60208082526030908201527f4e6563657369746173206465766f6c76657220756e206e756d65726f20706f7360408201526f34ba34bb37903232903a37b5b2b7399760811b606082015260800190565b60208082526016908201527527b832b930b1b4e1d9b7103737903b61d0b634b2309760511b604082015260600190565b60208082526028908201527f4e6f207469656e6573206c6f7320746f6b656e7320717565206465736561206460408201526732bb37b63b32b91760c11b606082015260800190565b60208082526015908201527427379032b932b9903ab71030b9b2b3bab930b2379760591b604082015260600190565b60208082526021908201527f536166654d6174683a206d756c7469706c69636174696f6e206f766572666c6f6040820152607760f81b606082015260800190565b60208082526022908201527f456c20736572766963696f206e6f207365206861206461646f20646520616c74604082015261309760f11b606082015260800190565b60208082526026908201527f436f6d707261206d656e6f7320746f6b656e73206f20706f6e206dc3a17320656040820152653a3432b9399760d11b606082015260800190565b6020808252602f908201527f4e656365736974617320636f6d7072617220756e206e756d65726f206465207460408201526e37b5b2b739903837b9b4ba34bb379760891b606082015260800190565b60208082526038908201527f4e656365736974617320636f6d70726172206dc3a17320746f6b656e7320706160408201527f7261206f6274656e6572206573746520736572766963696f0000000000000000606082015260800190565b90815260200190565b60405181810167ffffffffffffffff8111828210171561163f57600080fd5b604052919050565b600067ffffffffffffffff82111561165d578081fd5b50601f01601f191660200190565b60005b8381101561168657818101518382015260200161166e565b83811115611695576000848401525b50505050565b6001600160a01b03811681146116b057600080fd5b5056fea2646970667358221220706e5e2c2f96067353b115b3dcfa6c88eb25d3ceb8b60b85be8d7f5243cec2d664736f6c634300060c0033",
    "sourcePath": "/home/secondport/Documents/SmartContracts/Trabajo-Final/Aseguradora.sol",
    "compiler": {
        "name": "solc",
        "version": "0.6.12+commit.27d51765"
    },
    "functionHashes": {
        "CompraTokens(uint256)": "f7774091",
        "HistorialAsegurado(string)": "1760688e",
        "HistorialAseguradoLaboratorio()": "a1c9da55",
        "HistorialAseguradora()": "900db080",
        "ServicioEstadoAsegurado(string)": "32509ddd",
        "balanceOf()": "722713f7",
        "darBaja()": "3c2845f2",
        "devolverTokens(uint256)": "2e95161c",
        "getBalance()": "12065fe0",
        "peticionServicio(string)": "7f3a6b21",
        "peticionServicioLab(address,string)": "6743c293"
    },
    "gasEstimates": {
        "creation": {
            "codeDepositCost": "1173000",
            "executionCost": "infinite",
            "totalCost": "infinite"
        },
        "external": {
            "CompraTokens(uint256)": "infinite",
            "HistorialAsegurado(string)": "infinite",
            "HistorialAseguradoLaboratorio()": "infinite",
            "HistorialAseguradora()": "infinite",
            "ServicioEstadoAsegurado(string)": "infinite",
            "balanceOf()": "infinite",
            "darBaja()": "32185",
            "devolverTokens(uint256)": "infinite",
            "getBalance()": "928",
            "peticionServicio(string)": "infinite",
            "peticionServicioLab(address,string)": "infinite"
        }
    }
}