{
    "contractName": "InsuranceFactory",
    "abi": [
        {
            "inputs": [],
            "payable": false,
            "stateMutability": "nonpayable",
            "type": "constructor"
        },
        {
            "anonymous": false,
            "inputs": [
                {
                    "indexed": false,
                    "internalType": "address",
                    "name": "",
                    "type": "address"
                },
                {
                    "indexed": false,
                    "internalType": "address",
                    "name": "",
                    "type": "address"
                }
            ],
            "name": "AseguradoCreado",
            "type": "event"
        },
        {
            "anonymous": false,
            "inputs": [
                {
                    "indexed": false,
                    "internalType": "address",
                    "name": "",
                    "type": "address"
                }
            ],
            "name": "BajaAsegurado",
            "type": "event"
        },
        {
            "anonymous": false,
            "inputs": [
                {
                    "indexed": false,
                    "internalType": "string",
                    "name": "",
                    "type": "string"
                }
            ],
            "name": "BajaServicio",
            "type": "event"
        },
        {
            "anonymous": false,
            "inputs": [
                {
                    "indexed": false,
                    "internalType": "uint256",
                    "name": "",
                    "type": "uint256"
                }
            ],
            "name": "EventoComprado",
            "type": "event"
        },
        {
            "anonymous": false,
            "inputs": [
                {
                    "indexed": false,
                    "internalType": "address",
                    "name": "",
                    "type": "address"
                },
                {
                    "indexed": false,
                    "internalType": "string[]",
                    "name": "",
                    "type": "string[]"
                },
                {
                    "indexed": false,
                    "internalType": "uint256",
                    "name": "",
                    "type": "uint256"
                }
            ],
            "name": "EventoServicioProporcionado",
            "type": "event"
        },
        {
            "anonymous": false,
            "inputs": [
                {
                    "indexed": false,
                    "internalType": "address",
                    "name": "",
                    "type": "address"
                },
                {
                    "indexed": false,
                    "internalType": "address",
                    "name": "",
                    "type": "address"
                }
            ],
            "name": "LaboratorioCreado",
            "type": "event"
        },
        {
            "anonymous": false,
            "inputs": [
                {
                    "indexed": false,
                    "internalType": "string",
                    "name": "",
                    "type": "string"
                },
                {
                    "indexed": false,
                    "internalType": "uint256",
                    "name": "",
                    "type": "uint256"
                }
            ],
            "name": "ServicioCreado",
            "type": "event"
        },
        {
            "constant": true,
            "inputs": [],
            "name": "Aseguradora",
            "outputs": [
                {
                    "internalType": "address payable",
                    "name": "",
                    "type": "address"
                }
            ],
            "payable": false,
            "stateMutability": "view",
            "type": "function"
        },
        {
            "constant": true,
            "inputs": [
                {
                    "internalType": "address",
                    "name": "_direccioAsegurado",
                    "type": "address"
                }
            ],
            "name": "FuncionUnicamenteAsegurados",
            "outputs": [],
            "payable": false,
            "stateMutability": "view",
            "type": "function"
        },
        {
            "constant": true,
            "inputs": [
                {
                    "internalType": "address",
                    "name": "",
                    "type": "address"
                }
            ],
            "name": "MappingClientes",
            "outputs": [
                {
                    "internalType": "address",
                    "name": "DireccionCliente",
                    "type": "address"
                },
                {
                    "internalType": "bool",
                    "name": "Autorizacion",
                    "type": "bool"
                },
                {
                    "internalType": "address",
                    "name": "DireccionContrato",
                    "type": "address"
                }
            ],
            "payable": false,
            "stateMutability": "view",
            "type": "function"
        },
        {
            "constant": true,
            "inputs": [
                {
                    "internalType": "address",
                    "name": "",
                    "type": "address"
                }
            ],
            "name": "MappingLabs",
            "outputs": [
                {
                    "internalType": "address",
                    "name": "direccionContratoLab",
                    "type": "address"
                },
                {
                    "internalType": "bool",
                    "name": "ValidacionLab",
                    "type": "bool"
                }
            ],
            "payable": false,
            "stateMutability": "view",
            "type": "function"
        },
        {
            "constant": true,
            "inputs": [
                {
                    "internalType": "string",
                    "name": "",
                    "type": "string"
                }
            ],
            "name": "MappingServicios",
            "outputs": [
                {
                    "internalType": "string",
                    "name": "nombreServicio",
                    "type": "string"
                },
                {
                    "internalType": "uint256",
                    "name": "precioTokens",
                    "type": "uint256"
                },
                {
                    "internalType": "bool",
                    "name": "EstadoServicio",
                    "type": "bool"
                }
            ],
            "payable": false,
            "stateMutability": "view",
            "type": "function"
        },
        {
            "constant": true,
            "inputs": [
                {
                    "internalType": "address",
                    "name": "_direccionAsegurado",
                    "type": "address"
                },
                {
                    "internalType": "address",
                    "name": "_direccionConsultor",
                    "type": "address"
                }
            ],
            "name": "consultarHistorialAsegurado",
            "outputs": [
                {
                    "internalType": "string",
                    "name": "",
                    "type": "string"
                }
            ],
            "payable": false,
            "stateMutability": "view",
            "type": "function"
        },
        {
            "constant": false,
            "inputs": [],
            "name": "creacionContratoAsegurado",
            "outputs": [],
            "payable": false,
            "stateMutability": "nonpayable",
            "type": "function"
        },
        {
            "constant": false,
            "inputs": [],
            "name": "creacionLab",
            "outputs": [],
            "payable": false,
            "stateMutability": "nonpayable",
            "type": "function"
        },
        {
            "constant": false,
            "inputs": [
                {
                    "internalType": "address",
                    "name": "_direccionAsegurado",
                    "type": "address"
                }
            ],
            "name": "darBajaCliente",
            "outputs": [],
            "payable": false,
            "stateMutability": "nonpayable",
            "type": "function"
        },
        {
            "constant": false,
            "inputs": [
                {
                    "internalType": "string",
                    "name": "_nombreServicio",
                    "type": "string"
                }
            ],
            "name": "darBajaServicio",
            "outputs": [],
            "payable": false,
            "stateMutability": "nonpayable",
            "type": "function"
        },
        {
            "constant": true,
            "inputs": [],
            "name": "getBalance",
            "outputs": [
                {
                    "internalType": "uint256",
                    "name": "ethers",
                    "type": "uint256"
                }
            ],
            "payable": false,
            "stateMutability": "view",
            "type": "function"
        },
        {
            "constant": true,
            "inputs": [],
            "name": "getDireccionesClientes",
            "outputs": [
                {
                    "internalType": "address[]",
                    "name": "",
                    "type": "address[]"
                }
            ],
            "payable": false,
            "stateMutability": "view",
            "type": "function"
        },
        {
            "constant": true,
            "inputs": [],
            "name": "getDireccionesLabs",
            "outputs": [
                {
                    "internalType": "address[]",
                    "name": "",
                    "type": "address[]"
                }
            ],
            "payable": false,
            "stateMutability": "view",
            "type": "function"
        },
        {
            "constant": false,
            "inputs": [
                {
                    "internalType": "string",
                    "name": "_nombreServicio",
                    "type": "string"
                },
                {
                    "internalType": "uint256",
                    "name": "_precioServicio",
                    "type": "uint256"
                }
            ],
            "name": "nuevoServicio",
            "outputs": [],
            "payable": false,
            "stateMutability": "nonpayable",
            "type": "function"
        }
    ],
    "bytecode": "60806040523480156200001157600080fd5b506064604051620000229062000086565b6200002e9190620000a5565b604051809103906000f0801580156200004b573d6000803e3d6000fd5b50600080546001600160a01b03929092166001600160a01b0319928316179055600180548216301790556002805490911633179055620000cb565b6107fd80620023ce83390190565b6200009f81620000be565b82525050565b60208101620000b5828462000094565b92915050565b90565b6000620000b582620000bb565b6122f380620000db6000396000f3fe60806040523480156200001157600080fd5b5060043610620001005760003560e01c806386120ece1162000099578063d07e44cb116200006f578063d07e44cb1462000204578063d89ac531146200022a578063da3460f41462000251578063f74ed9f314620002685762000100565b806386120ece146200019d578063990d400b14620001b4578063ca48d36314620001dc5762000100565b80632d8679e411620000db5780632d8679e41462000159578063447a0793146200016357806344a29010146200017c57806377571ad614620001865762000100565b80630fe8755e146200010557806312065fe014620001275780631a6f0d8c1462000140575b600080fd5b6200010f62000272565b6040516200011e919062001606565b60405180910390f35b6200013162000311565b6040516200011e9190620016de565b6200014a62000317565b6040516200011e91906200154d565b6200010f62000326565b6200017a6200017436600462000fe1565b620003b9565b005b6200017a620004a7565b6200017a620001973660046200101a565b620005fe565b6200017a620001ae36600462000f58565b6200073a565b620001cb620001c536600462000f58565b62000784565b6040516200011e93929190620015d8565b620001f3620001ed36600462000fe1565b620007b5565b6040516200011e9392919062001650565b6200021b6200021536600462000f81565b62000876565b6040516200011e919062001619565b620002416200023b36600462000f58565b62000acf565b6040516200011e929190620015b9565b6200017a6200026236600462000f58565b62000af6565b6200017a62000bce565b60025460609033906001600160a01b03168114620002ad5760405162461bcd60e51b8152600401620002a490620016ba565b60405180910390fd5b60088054806020026020016040519081016040528092919081815260200182805480156200030557602002820191906000526020600020905b81546001600160a01b03168152600190910190602001808311620002e6575b505050505091505b5090565b30315b90565b6002546001600160a01b031681565b60025460609033906001600160a01b03168114620003585760405162461bcd60e51b8152600401620002a490620016ba565b600680548060200260200160405190810160405280929190818152602001828054801562000305576020028201919060005260206000209081546001600160a01b03168152600190910190602001808311620002e657505050505091505090565b60025433906001600160a01b03168114620003e85760405162461bcd60e51b8152600401620002a490620016ba565b600482604051620003fa9190620014d0565b9081526040519081900360200190206002015460ff161515600114620004345760405162461bcd60e51b8152600401620002a49062001696565b6000600483604051620004489190620014d0565b908152604051908190036020018120600201805492151560ff19909316929092179091557f3f5a4cdb31634ac69176f7ae2ba6bfef7b957f331479fd4c5d4b4b6e94a7c7d4906200049b90849062001619565b60405180910390a15050565b600680546001818101835560009283527ff652222313e28459528d920b65115c16c04f3efc82aaedc97be59f3f377c0d3f90910180546001600160a01b031916339081179091558254915460025460405192936001600160a01b039081169392811692911690620005189062000dbb565b6200052794939291906200157c565b604051809103906000f08015801562000544573d6000803e3d6000fd5b506040805160608101825233808252600160208084018281526001600160a01b0380881686880190815260008681526003909452928790209551865492511515600160a01b0260ff60a01b199183166001600160a01b03199485161791909116178655915194909201805494909116939091169290921790915590519192507f28d2277892f1c2b1d0ac2f5e187f9c932309e2acc60f8bb64a7da1acfee2822791620005f3919084906200155d565b60405180910390a150565b60025433906001600160a01b031681146200062d5760405162461bcd60e51b8152600401620002a490620016ba565b6040805160608101825284815260208101849052600181830152905160049062000659908690620014d0565b908152602001604051809103902060008201518160000190805190602001906200068592919062000dc9565b506020828101516001838101919091556040909301516002909201805460ff1916921515929092179091556007805492830180825560009190915285519092620006f8927fa66cc928b5edb82af9bd49922954155ab7b0942694bea4ce44661d9a8736c688909101919087019062000dc9565b50507fa25228ac589f90664c832b7412961ec0f5247e073052a15270b92e6b3e415b5b83836040516200072d9291906200162c565b60405180910390a1505050565b6001600160a01b038116600090815260036020526040902054600160a01b900460ff161515600114620007815760405162461bcd60e51b8152600401620002a490620016a8565b50565b600360205260009081526040902080546001909101546001600160a01b0380831692600160a01b900460ff16911683565b805160208183018101805160048252928201938201939093209190925280546040805160026001841615610100026000190190931692909204601f81018590048502830185019091528082529192909183918301828280156200085c5780601f1062000830576101008083540402835291602001916200085c565b820191906000526020600020905b8154815290600101906020018083116200083e57829003601f168201915b50505050600183015460029093015491929160ff16905083565b600254606090839083906001600160a01b03808416911614620008ad5760405162461bcd60e51b8152600401620002a490620016cc565b620008b8816200073a565b604080516020808201835260008083526001600160a01b03808a16825260039092529283206001015491929116905b60075481101562000ac1576004600782815481106200090257fe5b906000526020600020016040516200091b91906200153f565b9081526040519081900360200190206002015460ff168015620009d85750816001600160a01b03166332509ddd600783815481106200095657fe5b906000526020600020016040518263ffffffff1660e01b81526004016200097e919062001683565b60206040518083038186803b1580156200099757600080fd5b505afa158015620009ac573d6000803e3d6000fd5b505050506040513d601f19601f82011682018060405250620009d2919081019062000fc0565b15156001145b1562000ab85760606000836001600160a01b031663b990b6b060078581548110620009ff57fe5b906000526020600020016040518263ffffffff1660e01b815260040162000a27919062001683565b60006040518083038186803b15801562000a4057600080fd5b505afa15801562000a55573d6000803e3d6000fd5b505050506040513d6000823e601f3d908101601f1916820160405262000a7f919081019062001067565b91509150848262000a908362000cf0565b60405160200162000aa493929190620014e5565b604051602081830303815290604052945050505b600101620008e7565b50909350505b505092915050565b6005602052600090815260409020546001600160a01b03811690600160a01b900460ff1682565b60025433906001600160a01b0316811462000b255760405162461bcd60e51b8152600401620002a490620016ba565b6001600160a01b03808316600090815260036020526040808220805460ff60a01b19168155600101548151631e1422f960e11b81529151931692633c2845f29260048084019391929182900301818387803b15801562000b8457600080fd5b505af115801562000b99573d6000803e3d6000fd5b505050507f50680d24726cc3a014e282d4ce72707075d4dd658549da69c0c3835d50f93c61826040516200049b91906200154d565b600880546001818101835560009283527ff3f7a9fe364faab93b216da50a3214154f22a0a2b415b23a84c8169e8b636ee390910180546001600160a01b0319163390811790915590546040516001600160a01b03919091169062000c329062000e4a565b62000c3f9291906200155d565b604051809103906000f08015801562000c5c573d6000803e3d6000fd5b506040805180820182526001600160a01b038381168252600160208084019182523360008181526005909252908590209351845492516001600160a01b031990931693169290921760ff60a01b1916600160a01b911515919091021790915590519192507ff23c7dd26c59354e7b18754d5ee20b25d2d0baa407f891bd09002b2b62fd096f91620005f3919084906200155d565b60608162000d1757506040805180820190915260018152600360fc1b602082015262000db6565b8160005b811562000d3157600101600a8204915062000d1b565b6060816040519080825280601f01601f19166020018201604052801562000d5f576020820181803883390190505b50905060001982015b851562000db057600a860660300160f81b8282806001900393508151811062000d8d57fe5b60200101906001600160f81b031916908160001a905350600a8604955062000d68565b50925050505b919050565b6108ca806200180883390190565b828054600181600116156101000203166002900490600052602060002090601f016020900481019282601f1062000e0c57805160ff191683800117855562000e3c565b8280016001018555821562000e3c579182015b8281111562000e3c57825182559160200191906001019062000e1f565b506200030d92915062000e58565b6101df80620020d283390190565b6200031491905b808211156200030d576000815560010162000e5f565b803562000e8281620017da565b92915050565b805162000e8281620017f1565b600082601f83011262000ea757600080fd5b813562000ebe62000eb88262001716565b620016ee565b9150808252602083016020830185838301111562000edb57600080fd5b62000ee883828462001791565b50505092915050565b600082601f83011262000f0357600080fd5b815162000f1462000eb88262001716565b9150808252602083016020830185838301111562000f3157600080fd5b62000ee88382846200179d565b803562000e8281620017fc565b805162000e8281620017fc565b60006020828403121562000f6b57600080fd5b600062000f79848462000e75565b949350505050565b6000806040838503121562000f9557600080fd5b600062000fa3858562000e75565b925050602062000fb68582860162000e75565b9150509250929050565b60006020828403121562000fd357600080fd5b600062000f79848462000e88565b60006020828403121562000ff457600080fd5b813567ffffffffffffffff8111156200100c57600080fd5b62000f798482850162000e95565b600080604083850312156200102e57600080fd5b823567ffffffffffffffff8111156200104657600080fd5b620010548582860162000e95565b925050602062000fb68582860162000f3e565b600080604083850312156200107b57600080fd5b825167ffffffffffffffff8111156200109357600080fd5b620010a18582860162000ef1565b925050602062000fb68582860162000f4b565b6000620010c28383620010db565b505060200190565b620010d5816200177c565b82525050565b620010d5816200175e565b6000620010f38262001751565b620010ff818562001755565b93506200110c836200173f565b8060005b8381101562001140578151620011278882620010b4565b975062001134836200173f565b92505060010162001110565b509495945050505050565b620010d5816200176b565b620010d58162001784565b60006200116e8262001751565b6200117a818562001755565b93506200118c8185602086016200179d565b6200119781620017d0565b9093019392505050565b6000620011ae8262001751565b620011ba818562000db6565b9350620011cc8185602086016200179d565b9290920192915050565b600081546001811660008114620011f657600181146200121f5762000ac7565b607f600283041662001209818762001755565b60ff198416815295505060208501925062000ac7565b600282046200122f818762001755565b95506200123c8562001745565b60005b828110156200125d578154888201526001909101906020016200123f565b9096019695505050505050565b6000815460018116600081146200128a5760018114620012b05762000ac7565b607f60028304166200129d818762000db6565b60ff198416815295508501925062000ac7565b60028204620012c0818762000db6565b9550620012cd8562001745565b60005b82811015620012ee57815488820152600190910190602001620012d0565b5050909401949350505050565b60006200130a601a8362001755565b7f456c20736572766963696f206e6f20657374612061637469766f000000000000815260200192915050565b60006200134560018362000db6565b600b60fa1b815260010192915050565b60006200136460018362000db6565b600560fb1b815260010192915050565b600062001383602f8362001755565b7f4e6f2065737461206175746f72697a61646f2070617261207265616c697a617281526e1032b9ba309037b832b930b1b4b7b760891b602082015260400192915050565b6000620013d6604f8362001755565b7f4e6f2065737461206175746f72697a61646f2070617261207265616c697a617281527f2065737461206f7065726163696f6e20736f6c6f20706572736f6e616c20646560208201526e206c612061736567757261646f726160881b604082015260600192915050565b60006200144f603d8362001755565b7f4e6f2065737461206175746f72697a61646f2070617261207265616c697a617281527f2065737461206f7065726163696f6e20736f6c6f20636c69656e746573000000602082015260400192915050565b6000620014b060068362000db6565b65292d2d2d2d2d60d01b815260060192915050565b620010d58162000314565b6000620014de8284620011a1565b9392505050565b6000620014f38286620011a1565b9150620015008262001355565b91506200150e8285620011a1565b91506200151b8262001336565b9150620015298284620011a1565b91506200153682620014a1565b95945050505050565b6000620014de82846200126a565b6020810162000e828284620010db565b604081016200156d8285620010ca565b620014de6020830184620010db565b608081016200158c8287620010ca565b6200159b602083018662001156565b620015aa6040830185620010db565b620015366060830184620010db565b60408101620015c98285620010db565b620014de60208301846200114b565b60608101620015e88286620010db565b620015f760208301856200114b565b62000f796040830184620010db565b60208082528101620014de8184620010e6565b60208082528101620014de818462001161565b604080825281016200163f818562001161565b9050620014de6020830184620014c5565b6060808252810162001663818662001161565b9050620016746020830185620014c5565b62000f7960408301846200114b565b60208082528101620014de8184620011d6565b6020808252810162000e8281620012fb565b6020808252810162000e828162001374565b6020808252810162000e8281620013c7565b6020808252810162000e828162001440565b6020810162000e828284620014c5565b60405181810167ffffffffffffffff811182821017156200170e57600080fd5b604052919050565b600067ffffffffffffffff8211156200172e57600080fd5b506020601f91909101601f19160190565b60200190565b60009081526020902090565b5190565b90815260200190565b600062000e828262001770565b151590565b6001600160a01b031690565b600062000e82825b600062000e82826200175e565b82818337506000910152565b60005b83811015620017ba578181015183820152602001620017a0565b83811115620017ca576000848401525b50505050565b601f01601f191690565b620017e5816200175e565b81146200078157600080fd5b620017e5816200176b565b620017e5816200031456fe608060405234801561001057600080fd5b506040516108ca3803806108ca83398101604081905261002f916100b0565b600080546001600160a01b03199081166001600160a01b0396871617825560019190915560028054948616610100026001600160a81b031990951694909417909355600380549285169284169290921790915560048054919093169116179055610153565b805161009f81610133565b92915050565b805161009f8161014a565b600080600080608085870312156100c657600080fd5b60006100d28787610094565b94505060206100e3878288016100a5565b93505060406100f487828801610094565b925050606061010587828801610094565b91505092959194509250565b600061009f82610127565b600061009f82610111565b6001600160a01b031690565b61013c81610111565b811461014757600080fd5b50565b61013c8161011c565b610768806101626000396000f3fe608060405234801561001057600080fd5b50600436106100575760003560e01c806312065fe01461005c57806332509ddd1461007a5780633c2845f21461009a578063a1c9da55146100a4578063b990b6b0146100b9575b600080fd5b6100646100da565b604051610071919061063a565b60405180910390f35b61008d6100883660046103cb565b6100df565b60405161007191906105fc565b6100a261010e565b005b6100ac61017d565b60405161007191906105eb565b6100cc6100c73660046103cb565b61028e565b60405161007192919061060a565b303190565b60006005826040516100f191906105cb565b9081526040519081900360200190206002015460ff169050919050565b60005433906001600160a01b031681146101435760405162461bcd60e51b815260040161013a9061062a565b60405180910390fd5b7f34a5547a99247f2c59198cb5fccb26c5377c9c52d0815bcdbfb2936cbd03e3ff3360405161017291906105d7565b60405180910390a133ff5b60606006805480602002602001604051908101604052809291908181526020016000905b828210156102855760008481526020908190206040805160038602909201805460026001821615610100026000190190911604601f810185900490940283016080908101909252606083018481529293909284929091849184018282801561024a5780601f1061021f5761010080835404028352916020019161024a565b820191906000526020600020905b81548152906001019060200180831161022d57829003601f168201915b50505091835250506001828101546020808401919091526002909301546001600160a01b0316604090920191909152918352920191016101a1565b50505050905090565b606060006005836040516102a291906105cb565b908152604051908190036020018120906005906102c09086906105cb565b908152602001604051809103902060010154818054600181600116156101000203166002900480601f0160208091040260200160405190810160405280929190818152602001828054600181600116156101000203166002900480156103675780601f1061033c57610100808354040283529160200191610367565b820191906000526020600020905b81548152906001019060200180831161034a57829003601f168201915b5050505050915091509150915091565b600082601f83011261038857600080fd5b813561039b6103968261066f565b610648565b915080825260208301602083018583830111156103b757600080fd5b6103c28382846106df565b50505092915050565b6000602082840312156103dd57600080fd5b813567ffffffffffffffff8111156103f457600080fd5b61040084828501610377565b949350505050565b6000610414838361057a565b9392505050565b610424816106ce565b82525050565b610424816106af565b600061043e8261069d565b61044881856106a1565b93508360208202850161045a85610697565b8060005b8581101561049457848403895281516104778582610408565b945061048283610697565b60209a909a019992505060010161045e565b5091979650505050505050565b610424816106ba565b60006104b58261069d565b6104bf81856106a1565b93506104cf8185602086016106eb565b6104d88161071b565b9093019392505050565b60006104ed8261069d565b6104f781856106aa565b93506105078185602086016106eb565b9290920192915050565b600061051e6041836106a1565b7f4e6f2065737461206175746f72697a61646f2070617261207265616c697a617281527f2065737461206f7065726163696f6e2c20736f6c6f2061736567757261646f726020820152606160f81b604082015260600192915050565b805160608084526000919084019061059282826104aa565b91505060208301516105a760208601826105c2565b5060408301516105ba604086018261042a565b509392505050565b610424816106cb565b600061041482846104e2565b602081016105e5828461041b565b92915050565b602080825281016104148184610433565b602081016105e582846104a1565b6040808252810161061b81856104aa565b905061041460208301846105c2565b602080825281016105e581610511565b602081016105e582846105c2565b60405181810167ffffffffffffffff8111828210171561066757600080fd5b604052919050565b600067ffffffffffffffff82111561068657600080fd5b506020601f91909101601f19160190565b60200190565b5190565b90815260200190565b919050565b60006105e5826106bf565b151590565b6001600160a01b031690565b90565b60006105e58260006105e5826106af565b82818337506000910152565b60005b838110156107065781810151838201526020016106ee565b83811115610715576000848401525b50505050565b601f01601f19169056fea365627a7a72315820029667c4209d0f4e8754f92951d524ed6d2dd7dde955f3e990b06d6357d5978a6c6578706572696d656e74616cf564736f6c63430005100040608060405234801561001057600080fd5b506040516101df3803806101df83398101604081905261002f91610071565b600080546001600160a01b039384166001600160a01b031991821617909155600180549290931691161790556100d3565b805161006b816100bc565b92915050565b6000806040838503121561008457600080fd5b60006100908585610060565b92505060206100a185828601610060565b9150509250929050565b60006001600160a01b03821661006b565b6100c5816100ab565b81146100d057600080fd5b50565b60fe806100e16000396000f3fe6080604052348015600f57600080fd5b506004361060325760003560e01c806312065fe0146037578063df02634f146051575b600080fd5b603d6062565b60405160489190609c565b60405180910390f35b60576067565b60405160489190608a565b303190565b6000546001600160a01b031681565b607d8160a8565b82525050565b607d8160b8565b60208101609682846076565b92915050565b60208101609682846083565b60006001600160a01b0382166096565b9056fea365627a7a72315820eab706e97116232606df06c2040161b514ee352c91584f1f1535ec37923246416c6578706572696d656e74616cf564736f6c63430005100040a365627a7a723158209e2b42c74302919f4f2d95d43ee6e4a5619881ad93c13ec254cf94482a409c7f6c6578706572696d656e74616cf564736f6c63430005100040608060405234801561001057600080fd5b506040516107fd3803806107fd83398101604081905261002f9161005a565b60028190553360009081526020819052604090205561009a565b805161005481610083565b92915050565b60006020828403121561006c57600080fd5b60006100788484610049565b949350505050565b90565b61008c81610080565b811461009757600080fd5b50565b610754806100a96000396000f3fe608060405234801561001057600080fd5b506004361061009e5760003560e01c80634ee22adf116100665780634ee22adf1461011e57806370a082311461013357806395d89b4114610146578063a9059cbb1461014e578063dd62ed3e146101615761009e565b806306fdde03146100a3578063095ea7b3146100c157806318160ddd146100e157806323b872dd146100f6578063313ce56714610109575b600080fd5b6100ab610174565b6040516100b89190610658565b60405180910390f35b6100d46100cf3660046105a3565b61019a565b6040516100b8919061064a565b6100e9610205565b6040516100b89190610669565b6100d4610104366004610556565b61020b565b61011161036b565b6040516100b89190610677565b61013161012c3660046105d3565b610370565b005b6100e96101413660046104f6565b610390565b6100ab6103ab565b6100d461015c3660046105a3565b6103d0565b6100e961016f36600461051c565b61048d565b6040518060400160405280600a8152602001694552433230426173696360b01b81525081565b3360008181526001602090815260408083206001600160a01b038716808552925280832085905551919290917f8c5be1e5ebec7d5bd14f71427d1e84f3dd0314c0f7b2291e5b200ac8c7c3b925906101f3908690610669565b60405180910390a35060015b92915050565b60025490565b6001600160a01b03831660009081526020819052604081205482111561023057600080fd5b6001600160a01b038416600090815260016020908152604080832033845290915290205482111561026057600080fd5b6001600160a01b038416600090815260208190526040902054610289908363ffffffff6104b816565b6001600160a01b0385166000908152602081815260408083209390935560018152828220338352905220546102c4908363ffffffff6104b816565b6001600160a01b0380861660009081526001602090815260408083203384528252808320949094559186168152908190522054610307908363ffffffff6104ca16565b6001600160a01b0380851660008181526020819052604090819020939093559151908616907fddf252ad1be2c89b69c2b068fc378daa952ba7f163c4a11628f55a4df523b3ef90610359908690610669565b60405180910390a35060019392505050565b600281565b600280548201905533600090815260208190526040902080549091019055565b6001600160a01b031660009081526020819052604090205490565b6040518060400160405280600981526020016825212516aa27a5a2a760b91b81525081565b336000908152602081905260408120548211156103ec57600080fd5b3360009081526020819052604090205461040c908363ffffffff6104b816565b33600090815260208190526040808220929092556001600160a01b0385168152205461043e908363ffffffff6104ca16565b6001600160a01b0384166000818152602081905260409081902092909255905133907fddf252ad1be2c89b69c2b068fc378daa952ba7f163c4a11628f55a4df523b3ef906101f3908690610669565b6001600160a01b03918216600090815260016020908152604080832093909416825291909152205490565b6000828211156104c457fe5b50900390565b6000828201838110156104d957fe5b9392505050565b80356101ff816106f1565b80356101ff81610708565b60006020828403121561050857600080fd5b600061051484846104e0565b949350505050565b6000806040838503121561052f57600080fd5b600061053b85856104e0565b925050602061054c858286016104e0565b9150509250929050565b60008060006060848603121561056b57600080fd5b600061057786866104e0565b9350506020610588868287016104e0565b9250506040610599868287016104eb565b9150509250925092565b600080604083850312156105b657600080fd5b60006105c285856104e0565b925050602061054c858286016104eb565b6000602082840312156105e557600080fd5b600061051484846104eb565b6105fa8161069d565b82525050565b600061060b82610685565b6106158185610689565b93506106258185602086016106b7565b61062e816106e7565b9093019392505050565b6105fa816106ae565b6105fa816106b1565b602081016101ff82846105f1565b602080825281016104d98184610600565b602081016101ff8284610638565b602081016101ff8284610641565b5190565b90815260200190565b60006101ff826106a2565b151590565b6001600160a01b031690565b90565b60ff1690565b60005b838110156106d25781810151838201526020016106ba565b838111156106e1576000848401525b50505050565b601f01601f191690565b6106fa81610692565b811461070557600080fd5b50565b6106fa816106ae56fea365627a7a7231582066b80bb5a1f81df3c917eee2b9e09bd7edade8e7d505c333cd2050203580768d6c6578706572696d656e74616cf564736f6c63430005100040",
    "sourcePath": "/home/secondport/Documents/SmartContracts/Trabajo-Final/Aseguradora.sol",
    "compiler": {
        "name": "solc",
        "version": "0.5.16+commit.9c3226ce"
    },
    "functionHashes": {
        "Aseguradora()": "1a6f0d8c",
        "FuncionUnicamenteAsegurados(address)": "86120ece",
        "MappingClientes(address)": "990d400b",
        "MappingLabs(address)": "d89ac531",
        "MappingServicios(string)": "ca48d363",
        "consultarHistorialAsegurado(address,address)": "d07e44cb",
        "creacionContratoAsegurado()": "44a29010",
        "creacionLab()": "f74ed9f3",
        "darBajaCliente(address)": "da3460f4",
        "darBajaServicio(string)": "447a0793",
        "getBalance()": "12065fe0",
        "getDireccionesClientes()": "2d8679e4",
        "getDireccionesLabs()": "0fe8755e",
        "nuevoServicio(string,uint256)": "77571ad6"
    },
    "gasEstimates": {
        "creation": {
            "codeDepositCost": "1789400",
            "executionCost": "infinite",
            "totalCost": "infinite"
        },
        "external": {
            "Aseguradora()": "infinite",
            "FuncionUnicamenteAsegurados(address)": "infinite",
            "MappingClientes(address)": "infinite",
            "MappingLabs(address)": "infinite",
            "MappingServicios(string)": "infinite",
            "consultarHistorialAsegurado(address,address)": "infinite",
            "creacionContratoAsegurado()": "infinite",
            "creacionLab()": "infinite",
            "darBajaCliente(address)": "infinite",
            "darBajaServicio(string)": "infinite",
            "getBalance()": "infinite",
            "getDireccionesClientes()": "infinite",
            "getDireccionesLabs()": "infinite",
            "nuevoServicio(string,uint256)": "infinite"
        }
    }
}