{
    "contractName": "InsuranceFactory",
    "abi": [
        {
            "inputs": [],
            "payable": false,
            "stateMutability": "nonpayable",
            "type": "constructor"
        },
        {
            "anonymous": false,
            "inputs": [
                {
                    "indexed": false,
                    "internalType": "address",
                    "name": "",
                    "type": "address"
                },
                {
                    "indexed": false,
                    "internalType": "address",
                    "name": "",
                    "type": "address"
                }
            ],
            "name": "AseguradoCreado",
            "type": "event"
        },
        {
            "anonymous": false,
            "inputs": [
                {
                    "indexed": false,
                    "internalType": "address",
                    "name": "",
                    "type": "address"
                }
            ],
            "name": "BajaAsegurado",
            "type": "event"
        },
        {
            "anonymous": false,
            "inputs": [
                {
                    "indexed": false,
                    "internalType": "string",
                    "name": "",
                    "type": "string"
                }
            ],
            "name": "BajaServicio",
            "type": "event"
        },
        {
            "anonymous": false,
            "inputs": [
                {
                    "indexed": false,
                    "internalType": "uint256",
                    "name": "",
                    "type": "uint256"
                }
            ],
            "name": "EventoComprado",
            "type": "event"
        },
        {
            "anonymous": false,
            "inputs": [
                {
                    "indexed": false,
                    "internalType": "address",
                    "name": "",
                    "type": "address"
                },
                {
                    "indexed": false,
                    "internalType": "string[]",
                    "name": "",
                    "type": "string[]"
                },
                {
                    "indexed": false,
                    "internalType": "uint256",
                    "name": "",
                    "type": "uint256"
                }
            ],
            "name": "EventoServicioProporcionado",
            "type": "event"
        },
        {
            "anonymous": false,
            "inputs": [
                {
                    "indexed": false,
                    "internalType": "address",
                    "name": "",
                    "type": "address"
                },
                {
                    "indexed": false,
                    "internalType": "address",
                    "name": "",
                    "type": "address"
                }
            ],
            "name": "LaboratorioCreado",
            "type": "event"
        },
        {
            "anonymous": false,
            "inputs": [
                {
                    "indexed": false,
                    "internalType": "string",
                    "name": "",
                    "type": "string"
                },
                {
                    "indexed": false,
                    "internalType": "uint256",
                    "name": "",
                    "type": "uint256"
                }
            ],
            "name": "ServicioCreado",
            "type": "event"
        },
        {
            "constant": true,
            "inputs": [],
            "name": "Aseguradora",
            "outputs": [
                {
                    "internalType": "address payable",
                    "name": "",
                    "type": "address"
                }
            ],
            "payable": false,
            "stateMutability": "view",
            "type": "function"
        },
        {
            "constant": true,
            "inputs": [],
            "name": "ConsultarServicioActivos",
            "outputs": [
                {
                    "internalType": "string[]",
                    "name": "",
                    "type": "string[]"
                }
            ],
            "payable": false,
            "stateMutability": "view",
            "type": "function"
        },
        {
            "constant": true,
            "inputs": [
                {
                    "internalType": "address",
                    "name": "_direccioAsegurado",
                    "type": "address"
                }
            ],
            "name": "FuncionUnicamenteAsegurados",
            "outputs": [],
            "payable": false,
            "stateMutability": "view",
            "type": "function"
        },
        {
            "constant": true,
            "inputs": [
                {
                    "internalType": "address",
                    "name": "",
                    "type": "address"
                }
            ],
            "name": "MappingClientes",
            "outputs": [
                {
                    "internalType": "address",
                    "name": "DireccionCliente",
                    "type": "address"
                },
                {
                    "internalType": "bool",
                    "name": "Autorizacion",
                    "type": "bool"
                },
                {
                    "internalType": "address",
                    "name": "DireccionContrato",
                    "type": "address"
                }
            ],
            "payable": false,
            "stateMutability": "view",
            "type": "function"
        },
        {
            "constant": true,
            "inputs": [
                {
                    "internalType": "address",
                    "name": "",
                    "type": "address"
                }
            ],
            "name": "MappingLabs",
            "outputs": [
                {
                    "internalType": "address",
                    "name": "direccionContratoLab",
                    "type": "address"
                },
                {
                    "internalType": "bool",
                    "name": "ValidacionLab",
                    "type": "bool"
                }
            ],
            "payable": false,
            "stateMutability": "view",
            "type": "function"
        },
        {
            "constant": true,
            "inputs": [
                {
                    "internalType": "string",
                    "name": "",
                    "type": "string"
                }
            ],
            "name": "MappingServicios",
            "outputs": [
                {
                    "internalType": "string",
                    "name": "nombreServicio",
                    "type": "string"
                },
                {
                    "internalType": "uint256",
                    "name": "precioTokens",
                    "type": "uint256"
                },
                {
                    "internalType": "bool",
                    "name": "EstadoServicio",
                    "type": "bool"
                }
            ],
            "payable": false,
            "stateMutability": "view",
            "type": "function"
        },
        {
            "constant": true,
            "inputs": [
                {
                    "internalType": "address",
                    "name": "_direccionAsegurado",
                    "type": "address"
                },
                {
                    "internalType": "address",
                    "name": "_direccionConsultor",
                    "type": "address"
                }
            ],
            "name": "consultarHistorialAsegurado",
            "outputs": [
                {
                    "internalType": "string",
                    "name": "",
                    "type": "string"
                }
            ],
            "payable": false,
            "stateMutability": "view",
            "type": "function"
        },
        {
            "constant": false,
            "inputs": [],
            "name": "creacionContratoAsegurado",
            "outputs": [],
            "payable": false,
            "stateMutability": "nonpayable",
            "type": "function"
        },
        {
            "constant": false,
            "inputs": [],
            "name": "creacionLab",
            "outputs": [],
            "payable": false,
            "stateMutability": "nonpayable",
            "type": "function"
        },
        {
            "constant": false,
            "inputs": [
                {
                    "internalType": "address",
                    "name": "_direccionAsegurado",
                    "type": "address"
                }
            ],
            "name": "darBajaCliente",
            "outputs": [],
            "payable": false,
            "stateMutability": "nonpayable",
            "type": "function"
        },
        {
            "constant": false,
            "inputs": [
                {
                    "internalType": "string",
                    "name": "_nombreServicio",
                    "type": "string"
                }
            ],
            "name": "darBajaServicio",
            "outputs": [],
            "payable": false,
            "stateMutability": "nonpayable",
            "type": "function"
        },
        {
            "constant": true,
            "inputs": [],
            "name": "getBalance",
            "outputs": [
                {
                    "internalType": "uint256",
                    "name": "ethers",
                    "type": "uint256"
                }
            ],
            "payable": false,
            "stateMutability": "view",
            "type": "function"
        },
        {
            "constant": true,
            "inputs": [],
            "name": "getDireccionesClientes",
            "outputs": [
                {
                    "internalType": "address[]",
                    "name": "",
                    "type": "address[]"
                }
            ],
            "payable": false,
            "stateMutability": "view",
            "type": "function"
        },
        {
            "constant": true,
            "inputs": [],
            "name": "getDireccionesLabs",
            "outputs": [
                {
                    "internalType": "address[]",
                    "name": "",
                    "type": "address[]"
                }
            ],
            "payable": false,
            "stateMutability": "view",
            "type": "function"
        },
        {
            "constant": false,
            "inputs": [
                {
                    "internalType": "string",
                    "name": "_nombreServicio",
                    "type": "string"
                },
                {
                    "internalType": "uint256",
                    "name": "_precioServicio",
                    "type": "uint256"
                }
            ],
            "name": "nuevoServicio",
            "outputs": [],
            "payable": false,
            "stateMutability": "nonpayable",
            "type": "function"
        }
    ],
    "bytecode": "60806040523480156200001157600080fd5b506064604051620000229062000086565b6200002e9190620000a5565b604051809103906000f0801580156200004b573d6000803e3d6000fd5b50600080546001600160a01b03929092166001600160a01b0319928316179055600180548216301790556002805490911633179055620000cb565b6107fd806200256983390190565b6200009f81620000be565b82525050565b60208101620000b5828462000094565b92915050565b90565b6000620000b582620000bb565b61248e80620000db6000396000f3fe60806040523480156200001157600080fd5b50600436106200010c5760003560e01c806386120ece11620000a5578063d89ac531116200006f578063d89ac5311462000236578063da3460f4146200025d578063dfa80d971462000274578063f74ed9f3146200028d576200010c565b806386120ece14620001a9578063990d400b14620001c0578063ca48d36314620001e8578063d07e44cb1462000210576200010c565b80632d8679e411620000e75780632d8679e41462000165578063447a0793146200016f57806344a29010146200018857806377571ad61462000192576200010c565b80630fe8755e146200011157806312065fe014620001335780631a6f0d8c146200014c575b600080fd5b6200011b62000297565b6040516200012a9190620017a0565b60405180910390f35b6200013d62000336565b6040516200012a919062001879565b620001566200033c565b6040516200012a9190620016e7565b6200011b6200034b565b62000186620001803660046200116c565b620003de565b005b62000186620004cc565b62000186620001a3366004620011a5565b62000623565b62000186620001ba366004620010e3565b6200075f565b620001d7620001d1366004620010e3565b620007a9565b6040516200012a9392919062001772565b620001ff620001f93660046200116c565b620007da565b6040516200012a93929190620017fd565b62000227620002213660046200110c565b6200089b565b6040516200012a9190620017c6565b6200024d62000247366004620010e3565b62000af4565b6040516200012a92919062001753565b620001866200026e366004620010e3565b62000b1b565b6200027e62000bf3565b6040516200012a9190620017b3565b6200018662000d59565b60025460609033906001600160a01b03168114620002d25760405162461bcd60e51b8152600401620002c99062001855565b60405180910390fd5b60088054806020026020016040519081016040528092919081815260200182805480156200032a57602002820191906000526020600020905b81546001600160a01b031681526001909101906020018083116200030b575b505050505091505b5090565b30315b90565b6002546001600160a01b031681565b60025460609033906001600160a01b031681146200037d5760405162461bcd60e51b8152600401620002c99062001855565b60068054806020026020016040519081016040528092919081815260200182805480156200032a576020028201919060005260206000209081546001600160a01b031681526001909101906020018083116200030b57505050505091505090565b60025433906001600160a01b031681146200040d5760405162461bcd60e51b8152600401620002c99062001855565b6004826040516200041f919062001671565b9081526040519081900360200190206002015460ff161515600114620004595760405162461bcd60e51b8152600401620002c99062001843565b60006004836040516200046d919062001671565b908152604051908190036020018120600201805492151560ff19909316929092179091557f3f5a4cdb31634ac69176f7ae2ba6bfef7b957f331479fd4c5d4b4b6e94a7c7d490620004c0908490620017c6565b60405180910390a15050565b600680546001818101835560009283527ff652222313e28459528d920b65115c16c04f3efc82aaedc97be59f3f377c0d3f90910180546001600160a01b031916339081179091558254915460025460405192936001600160a01b0390811693928116929116906200053d9062000f46565b6200054c949392919062001716565b604051809103906000f08015801562000569573d6000803e3d6000fd5b506040805160608101825233808252600160208084018281526001600160a01b0380881686880190815260008681526003909452928790209551865492511515600160a01b0260ff60a01b199183166001600160a01b03199485161791909116178655915194909201805494909116939091169290921790915590519192507f28d2277892f1c2b1d0ac2f5e187f9c932309e2acc60f8bb64a7da1acfee28227916200061891908490620016f7565b60405180910390a150565b60025433906001600160a01b03168114620006525760405162461bcd60e51b8152600401620002c99062001855565b604080516060810182528481526020810184905260018183015290516004906200067e90869062001671565b90815260200160405180910390206000820151816000019080519060200190620006aa92919062000f54565b506020828101516001838101919091556040909301516002909201805460ff19169215159290921790915560078054928301808255600091909152855190926200071d927fa66cc928b5edb82af9bd49922954155ab7b0942694bea4ce44661d9a8736c688909101919087019062000f54565b50507fa25228ac589f90664c832b7412961ec0f5247e073052a15270b92e6b3e415b5b838360405162000752929190620017d9565b60405180910390a1505050565b6001600160a01b038116600090815260036020526040902054600160a01b900460ff161515600114620007a65760405162461bcd60e51b8152600401620002c99062001855565b50565b600360205260009081526040902080546001909101546001600160a01b0380831692600160a01b900460ff16911683565b805160208183018101805160048252928201938201939093209190925280546040805160026001841615610100026000190190931692909204601f8101859004850283018501909152808252919290918391830182828015620008815780601f10620008555761010080835404028352916020019162000881565b820191906000526020600020905b8154815290600101906020018083116200086357829003601f168201915b50505050600183015460029093015491929160ff16905083565b600254606090839083906001600160a01b03808416911614620008d25760405162461bcd60e51b8152600401620002c99062001867565b620008dd816200075f565b604080516020808201835260008083526001600160a01b03808a16825260039092529283206001015491929116905b60075481101562000ae6576004600782815481106200092757fe5b90600052602060002001604051620009409190620016d9565b9081526040519081900360200190206002015460ff168015620009fd5750816001600160a01b03166332509ddd600783815481106200097b57fe5b906000526020600020016040518263ffffffff1660e01b8152600401620009a3919062001830565b60206040518083038186803b158015620009bc57600080fd5b505afa158015620009d1573d6000803e3d6000fd5b505050506040513d601f19601f82011682018060405250620009f791908101906200114b565b15156001145b1562000add5760606000836001600160a01b031663b990b6b06007858154811062000a2457fe5b906000526020600020016040518263ffffffff1660e01b815260040162000a4c919062001830565b60006040518083038186803b15801562000a6557600080fd5b505afa15801562000a7a573d6000803e3d6000fd5b505050506040513d6000823e601f3d908101601f1916820160405262000aa49190810190620011f2565b91509150848262000ab58362000e7b565b60405160200162000ac9939291906200167f565b604051602081830303815290604052945050505b6001016200090c565b50909350505b505092915050565b6005602052600090815260409020546001600160a01b03811690600160a01b900460ff1682565b60025433906001600160a01b0316811462000b4a5760405162461bcd60e51b8152600401620002c99062001855565b6001600160a01b03808316600090815260036020526040808220805460ff60a01b19168155600101548151631e1422f960e11b81529151931692633c2845f29260048084019391929182900301818387803b15801562000ba957600080fd5b505af115801562000bbe573d6000803e3d6000fd5b505050507f50680d24726cc3a014e282d4ce72707075d4dd658549da69c0c3835d50f93c6182604051620004c09190620016e7565b60608060078054905060405190808252806020026020018201604052801562000c3157816020015b606081526020019060019003908162000c1b5790505b50905060005b60075481101562000d535760046007828154811062000c5257fe5b9060005260206000200160405162000c6b9190620016d9565b9081526040519081900360200190206002015460ff1615156001141562000d4a576007818154811062000c9a57fe5b600091825260209182902001805460408051601f600260001961010060018716150201909416939093049283018590048502810185019091528181529283018282801562000d2c5780601f1062000d005761010080835404028352916020019162000d2c565b820191906000526020600020905b81548152906001019060200180831162000d0e57829003601f168201915b505050505082828151811062000d3e57fe5b60200260200101819052505b60010162000c37565b50905090565b600880546001818101835560009283527ff3f7a9fe364faab93b216da50a3214154f22a0a2b415b23a84c8169e8b636ee390910180546001600160a01b0319163390811790915590546040516001600160a01b03919091169062000dbd9062000fd5565b62000dca929190620016f7565b604051809103906000f08015801562000de7573d6000803e3d6000fd5b506040805180820182526001600160a01b038381168252600160208084019182523360008181526005909252908590209351845492516001600160a01b031990931693169290921760ff60a01b1916600160a01b911515919091021790915590519192507ff23c7dd26c59354e7b18754d5ee20b25d2d0baa407f891bd09002b2b62fd096f916200061891908490620016f7565b60608162000ea257506040805180820190915260018152600360fc1b602082015262000f41565b8160005b811562000ebc57600101600a8204915062000ea6565b6060816040519080825280601f01601f19166020018201604052801562000eea576020820181803883390190505b50905060001982015b851562000f3b57600a860660300160f81b8282806001900393508151811062000f1857fe5b60200101906001600160f81b031916908160001a905350600a8604955062000ef3565b50925050505b919050565b6108ca80620019a383390190565b828054600181600116156101000203166002900490600052602060002090601f016020900481019282601f1062000f9757805160ff191683800117855562000fc7565b8280016001018555821562000fc7579182015b8281111562000fc757825182559160200191906001019062000faa565b506200033292915062000fe3565b6101df806200226d83390190565b6200033991905b8082111562000332576000815560010162000fea565b80356200100d8162001975565b92915050565b80516200100d816200198c565b600082601f8301126200103257600080fd5b8135620010496200104382620018b1565b62001889565b915080825260208301602083018583830111156200106657600080fd5b620010738382846200192c565b50505092915050565b600082601f8301126200108e57600080fd5b81516200109f6200104382620018b1565b91508082526020830160208301858383011115620010bc57600080fd5b6200107383828462001938565b80356200100d8162001997565b80516200100d8162001997565b600060208284031215620010f657600080fd5b600062001104848462001000565b949350505050565b600080604083850312156200112057600080fd5b60006200112e858562001000565b9250506020620011418582860162001000565b9150509250929050565b6000602082840312156200115e57600080fd5b600062001104848462001013565b6000602082840312156200117f57600080fd5b813567ffffffffffffffff8111156200119757600080fd5b620011048482850162001020565b60008060408385031215620011b957600080fd5b823567ffffffffffffffff811115620011d157600080fd5b620011df8582860162001020565b92505060206200114185828601620010c9565b600080604083850312156200120657600080fd5b825167ffffffffffffffff8111156200121e57600080fd5b6200122c858286016200107c565b92505060206200114185828601620010d6565b60006200124d83836200127b565b505060200190565b60006200126383836200137b565b9392505050565b620012758162001917565b82525050565b6200127581620018f9565b60006200129382620018ec565b6200129f8185620018f0565b9350620012ac83620018da565b8060005b83811015620012e0578151620012c788826200123f565b9750620012d483620018da565b925050600101620012b0565b509495945050505050565b6000620012f882620018ec565b620013048185620018f0565b9350836020820285016200131885620018da565b8060005b8581101562001358578484038952815162001338858262001255565b94506200134583620018da565b60209a909a01999250506001016200131c565b5091979650505050505050565b620012758162001906565b62001275816200191f565b60006200138882620018ec565b620013948185620018f0565b9350620013a681856020860162001938565b620013b1816200196b565b9093019392505050565b6000620013c882620018ec565b620013d4818562000f41565b9350620013e681856020860162001938565b9290920192915050565b600081546001811660008114620014105760018114620014395762000aec565b607f6002830416620014238187620018f0565b60ff198416815295505060208501925062000aec565b60028204620014498187620018f0565b95506200145685620018e0565b60005b82811015620014775781548882015260019091019060200162001459565b9096019695505050505050565b600081546001811660008114620014a45760018114620014ca5762000aec565b607f6002830416620014b7818762000f41565b60ff198416815295508501925062000aec565b60028204620014da818762000f41565b9550620014e785620018e0565b60005b828110156200150857815488820152600190910190602001620014ea565b5050909401949350505050565b600062001524601a83620018f0565b7f456c20736572766963696f206e6f20657374612061637469766f000000000000815260200192915050565b60006200155f60018362000f41565b600b60fa1b815260010192915050565b60006200157e60018362000f41565b600560fb1b815260010192915050565b60006200159d602f83620018f0565b7f4e6f2065737461206175746f72697a61646f2070617261207265616c697a617281526e1032b9ba309037b832b930b1b4b7b760891b602082015260400192915050565b6000620015f0603d83620018f0565b7f4e6f2065737461206175746f72697a61646f2070617261207265616c697a617281527f2065737461206f7065726163696f6e20736f6c6f20636c69656e746573000000602082015260400192915050565b60006200165160068362000f41565b65292d2d2d2d2d60d01b815260060192915050565b620012758162000339565b6000620012638284620013bb565b60006200168d8286620013bb565b91506200169a826200156f565b9150620016a88285620013bb565b9150620016b58262001550565b9150620016c38284620013bb565b9150620016d08262001642565b95945050505050565b600062001263828462001484565b602081016200100d82846200127b565b604081016200170782856200126a565b6200126360208301846200127b565b608081016200172682876200126a565b62001735602083018662001370565b6200174460408301856200127b565b620016d060608301846200127b565b604081016200176382856200127b565b62001263602083018462001365565b606081016200178282866200127b565b62001791602083018562001365565b6200110460408301846200127b565b6020808252810162001263818462001286565b60208082528101620012638184620012eb565b602080825281016200126381846200137b565b60408082528101620017ec81856200137b565b905062001263602083018462001666565b606080825281016200181081866200137b565b905062001821602083018562001666565b62001104604083018462001365565b60208082528101620012638184620013f0565b602080825281016200100d8162001515565b602080825281016200100d816200158e565b602080825281016200100d81620015e1565b602081016200100d828462001666565b60405181810167ffffffffffffffff81118282101715620018a957600080fd5b604052919050565b600067ffffffffffffffff821115620018c957600080fd5b506020601f91909101601f19160190565b60200190565b60009081526020902090565b5190565b90815260200190565b60006200100d826200190b565b151590565b6001600160a01b031690565b60006200100d825b60006200100d82620018f9565b82818337506000910152565b60005b83811015620019555781810151838201526020016200193b565b8381111562001965576000848401525b50505050565b601f01601f191690565b6200198081620018f9565b8114620007a657600080fd5b620019808162001906565b62001980816200033956fe608060405234801561001057600080fd5b506040516108ca3803806108ca83398101604081905261002f916100b0565b600080546001600160a01b03199081166001600160a01b0396871617825560019190915560028054948616610100026001600160a81b031990951694909417909355600380549285169284169290921790915560048054919093169116179055610153565b805161009f81610133565b92915050565b805161009f8161014a565b600080600080608085870312156100c657600080fd5b60006100d28787610094565b94505060206100e3878288016100a5565b93505060406100f487828801610094565b925050606061010587828801610094565b91505092959194509250565b600061009f82610127565b600061009f82610111565b6001600160a01b031690565b61013c81610111565b811461014757600080fd5b50565b61013c8161011c565b610768806101626000396000f3fe608060405234801561001057600080fd5b50600436106100575760003560e01c806312065fe01461005c57806332509ddd1461007a5780633c2845f21461009a578063a1c9da55146100a4578063b990b6b0146100b9575b600080fd5b6100646100da565b604051610071919061063a565b60405180910390f35b61008d6100883660046103cb565b6100df565b60405161007191906105fc565b6100a261010e565b005b6100ac61017d565b60405161007191906105eb565b6100cc6100c73660046103cb565b61028e565b60405161007192919061060a565b303190565b60006005826040516100f191906105cb565b9081526040519081900360200190206002015460ff169050919050565b60005433906001600160a01b031681146101435760405162461bcd60e51b815260040161013a9061062a565b60405180910390fd5b7f34a5547a99247f2c59198cb5fccb26c5377c9c52d0815bcdbfb2936cbd03e3ff3360405161017291906105d7565b60405180910390a133ff5b60606006805480602002602001604051908101604052809291908181526020016000905b828210156102855760008481526020908190206040805160038602909201805460026001821615610100026000190190911604601f810185900490940283016080908101909252606083018481529293909284929091849184018282801561024a5780601f1061021f5761010080835404028352916020019161024a565b820191906000526020600020905b81548152906001019060200180831161022d57829003601f168201915b50505091835250506001828101546020808401919091526002909301546001600160a01b0316604090920191909152918352920191016101a1565b50505050905090565b606060006005836040516102a291906105cb565b908152604051908190036020018120906005906102c09086906105cb565b908152602001604051809103902060010154818054600181600116156101000203166002900480601f0160208091040260200160405190810160405280929190818152602001828054600181600116156101000203166002900480156103675780601f1061033c57610100808354040283529160200191610367565b820191906000526020600020905b81548152906001019060200180831161034a57829003601f168201915b5050505050915091509150915091565b600082601f83011261038857600080fd5b813561039b6103968261066f565b610648565b915080825260208301602083018583830111156103b757600080fd5b6103c28382846106df565b50505092915050565b6000602082840312156103dd57600080fd5b813567ffffffffffffffff8111156103f457600080fd5b61040084828501610377565b949350505050565b6000610414838361057a565b9392505050565b610424816106ce565b82525050565b610424816106af565b600061043e8261069d565b61044881856106a1565b93508360208202850161045a85610697565b8060005b8581101561049457848403895281516104778582610408565b945061048283610697565b60209a909a019992505060010161045e565b5091979650505050505050565b610424816106ba565b60006104b58261069d565b6104bf81856106a1565b93506104cf8185602086016106eb565b6104d88161071b565b9093019392505050565b60006104ed8261069d565b6104f781856106aa565b93506105078185602086016106eb565b9290920192915050565b600061051e6041836106a1565b7f4e6f2065737461206175746f72697a61646f2070617261207265616c697a617281527f2065737461206f7065726163696f6e2c20736f6c6f2061736567757261646f726020820152606160f81b604082015260600192915050565b805160608084526000919084019061059282826104aa565b91505060208301516105a760208601826105c2565b5060408301516105ba604086018261042a565b509392505050565b610424816106cb565b600061041482846104e2565b602081016105e5828461041b565b92915050565b602080825281016104148184610433565b602081016105e582846104a1565b6040808252810161061b81856104aa565b905061041460208301846105c2565b602080825281016105e581610511565b602081016105e582846105c2565b60405181810167ffffffffffffffff8111828210171561066757600080fd5b604052919050565b600067ffffffffffffffff82111561068657600080fd5b506020601f91909101601f19160190565b60200190565b5190565b90815260200190565b919050565b60006105e5826106bf565b151590565b6001600160a01b031690565b90565b60006105e58260006105e5826106af565b82818337506000910152565b60005b838110156107065781810151838201526020016106ee565b83811115610715576000848401525b50505050565b601f01601f19169056fea365627a7a723158206ba14016e0fe9fabf20363d198e4d3c9128adec04d2bd1ac7f4fc43bf1eed0e46c6578706572696d656e74616cf564736f6c63430005100040608060405234801561001057600080fd5b506040516101df3803806101df83398101604081905261002f91610071565b600080546001600160a01b039384166001600160a01b031991821617909155600180549290931691161790556100d3565b805161006b816100bc565b92915050565b6000806040838503121561008457600080fd5b60006100908585610060565b92505060206100a185828601610060565b9150509250929050565b60006001600160a01b03821661006b565b6100c5816100ab565b81146100d057600080fd5b50565b60fe806100e16000396000f3fe6080604052348015600f57600080fd5b506004361060325760003560e01c806312065fe0146037578063df02634f146051575b600080fd5b603d6062565b60405160489190609c565b60405180910390f35b60576067565b60405160489190608a565b303190565b6000546001600160a01b031681565b607d8160a8565b82525050565b607d8160b8565b60208101609682846076565b92915050565b60208101609682846083565b60006001600160a01b0382166096565b9056fea365627a7a723158204170bb74d6dfcb93d15de0cccc677c491d0593f5a44ec10055a4266f4f54043f6c6578706572696d656e74616cf564736f6c63430005100040a365627a7a72315820ed51746df811ea6743f46dab72938c02026714a80d8e72f947d9d9d0691797846c6578706572696d656e74616cf564736f6c63430005100040608060405234801561001057600080fd5b506040516107fd3803806107fd83398101604081905261002f9161005a565b60028190553360009081526020819052604090205561009a565b805161005481610083565b92915050565b60006020828403121561006c57600080fd5b60006100788484610049565b949350505050565b90565b61008c81610080565b811461009757600080fd5b50565b610754806100a96000396000f3fe608060405234801561001057600080fd5b506004361061009e5760003560e01c80634ee22adf116100665780634ee22adf1461011e57806370a082311461013357806395d89b4114610146578063a9059cbb1461014e578063dd62ed3e146101615761009e565b806306fdde03146100a3578063095ea7b3146100c157806318160ddd146100e157806323b872dd146100f6578063313ce56714610109575b600080fd5b6100ab610174565b6040516100b89190610658565b60405180910390f35b6100d46100cf3660046105a3565b61019a565b6040516100b8919061064a565b6100e9610205565b6040516100b89190610669565b6100d4610104366004610556565b61020b565b61011161036b565b6040516100b89190610677565b61013161012c3660046105d3565b610370565b005b6100e96101413660046104f6565b610390565b6100ab6103ab565b6100d461015c3660046105a3565b6103d0565b6100e961016f36600461051c565b61048d565b6040518060400160405280600a8152602001694552433230426173696360b01b81525081565b3360008181526001602090815260408083206001600160a01b038716808552925280832085905551919290917f8c5be1e5ebec7d5bd14f71427d1e84f3dd0314c0f7b2291e5b200ac8c7c3b925906101f3908690610669565b60405180910390a35060015b92915050565b60025490565b6001600160a01b03831660009081526020819052604081205482111561023057600080fd5b6001600160a01b038416600090815260016020908152604080832033845290915290205482111561026057600080fd5b6001600160a01b038416600090815260208190526040902054610289908363ffffffff6104b816565b6001600160a01b0385166000908152602081815260408083209390935560018152828220338352905220546102c4908363ffffffff6104b816565b6001600160a01b0380861660009081526001602090815260408083203384528252808320949094559186168152908190522054610307908363ffffffff6104ca16565b6001600160a01b0380851660008181526020819052604090819020939093559151908616907fddf252ad1be2c89b69c2b068fc378daa952ba7f163c4a11628f55a4df523b3ef90610359908690610669565b60405180910390a35060019392505050565b600281565b600280548201905533600090815260208190526040902080549091019055565b6001600160a01b031660009081526020819052604090205490565b6040518060400160405280600981526020016825212516aa27a5a2a760b91b81525081565b336000908152602081905260408120548211156103ec57600080fd5b3360009081526020819052604090205461040c908363ffffffff6104b816565b33600090815260208190526040808220929092556001600160a01b0385168152205461043e908363ffffffff6104ca16565b6001600160a01b0384166000818152602081905260409081902092909255905133907fddf252ad1be2c89b69c2b068fc378daa952ba7f163c4a11628f55a4df523b3ef906101f3908690610669565b6001600160a01b03918216600090815260016020908152604080832093909416825291909152205490565b6000828211156104c457fe5b50900390565b6000828201838110156104d957fe5b9392505050565b80356101ff816106f1565b80356101ff81610708565b60006020828403121561050857600080fd5b600061051484846104e0565b949350505050565b6000806040838503121561052f57600080fd5b600061053b85856104e0565b925050602061054c858286016104e0565b9150509250929050565b60008060006060848603121561056b57600080fd5b600061057786866104e0565b9350506020610588868287016104e0565b9250506040610599868287016104eb565b9150509250925092565b600080604083850312156105b657600080fd5b60006105c285856104e0565b925050602061054c858286016104eb565b6000602082840312156105e557600080fd5b600061051484846104eb565b6105fa8161069d565b82525050565b600061060b82610685565b6106158185610689565b93506106258185602086016106b7565b61062e816106e7565b9093019392505050565b6105fa816106ae565b6105fa816106b1565b602081016101ff82846105f1565b602080825281016104d98184610600565b602081016101ff8284610638565b602081016101ff8284610641565b5190565b90815260200190565b60006101ff826106a2565b151590565b6001600160a01b031690565b90565b60ff1690565b60005b838110156106d25781810151838201526020016106ba565b838111156106e1576000848401525b50505050565b601f01601f191690565b6106fa81610692565b811461070557600080fd5b50565b6106fa816106ae56fea365627a7a7231582066b80bb5a1f81df3c917eee2b9e09bd7edade8e7d505c333cd2050203580768d6c6578706572696d656e74616cf564736f6c63430005100040",
    "sourcePath": "/home/secondport/Documents/SmartContracts/Trabajo-Final/Aseguradora.sol",
    "compiler": {
        "name": "solc",
        "version": "0.5.16+commit.9c3226ce"
    },
    "functionHashes": {
        "Aseguradora()": "1a6f0d8c",
        "ConsultarServicioActivos()": "dfa80d97",
        "FuncionUnicamenteAsegurados(address)": "86120ece",
        "MappingClientes(address)": "990d400b",
        "MappingLabs(address)": "d89ac531",
        "MappingServicios(string)": "ca48d363",
        "consultarHistorialAsegurado(address,address)": "d07e44cb",
        "creacionContratoAsegurado()": "44a29010",
        "creacionLab()": "f74ed9f3",
        "darBajaCliente(address)": "da3460f4",
        "darBajaServicio(string)": "447a0793",
        "getBalance()": "12065fe0",
        "getDireccionesClientes()": "2d8679e4",
        "getDireccionesLabs()": "0fe8755e",
        "nuevoServicio(string,uint256)": "77571ad6"
    },
    "gasEstimates": {
        "creation": {
            "codeDepositCost": "1871600",
            "executionCost": "infinite",
            "totalCost": "infinite"
        },
        "external": {
            "Aseguradora()": "infinite",
            "ConsultarServicioActivos()": "infinite",
            "FuncionUnicamenteAsegurados(address)": "infinite",
            "MappingClientes(address)": "infinite",
            "MappingLabs(address)": "infinite",
            "MappingServicios(string)": "infinite",
            "consultarHistorialAsegurado(address,address)": "infinite",
            "creacionContratoAsegurado()": "infinite",
            "creacionLab()": "infinite",
            "darBajaCliente(address)": "infinite",
            "darBajaServicio(string)": "infinite",
            "getBalance()": "infinite",
            "getDireccionesClientes()": "infinite",
            "getDireccionesLabs()": "infinite",
            "nuevoServicio(string,uint256)": "infinite"
        }
    }
}