{
    "contractName": "InsuranceFactory",
    "abi": [
        {
            "inputs": [],
            "payable": false,
            "stateMutability": "nonpayable",
            "type": "constructor"
        },
        {
            "anonymous": false,
            "inputs": [
                {
                    "indexed": false,
                    "internalType": "address",
                    "name": "",
                    "type": "address"
                },
                {
                    "indexed": false,
                    "internalType": "address",
                    "name": "",
                    "type": "address"
                }
            ],
            "name": "AseguradoCreado",
            "type": "event"
        },
        {
            "anonymous": false,
            "inputs": [
                {
                    "indexed": false,
                    "internalType": "address",
                    "name": "",
                    "type": "address"
                }
            ],
            "name": "BajaCliente",
            "type": "event"
        },
        {
            "anonymous": false,
            "inputs": [
                {
                    "indexed": false,
                    "internalType": "string",
                    "name": "",
                    "type": "string"
                }
            ],
            "name": "BajaServicio",
            "type": "event"
        },
        {
            "anonymous": false,
            "inputs": [
                {
                    "indexed": false,
                    "internalType": "uint256",
                    "name": "",
                    "type": "uint256"
                }
            ],
            "name": "EventoComprado",
            "type": "event"
        },
        {
            "anonymous": false,
            "inputs": [
                {
                    "indexed": false,
                    "internalType": "address",
                    "name": "",
                    "type": "address"
                },
                {
                    "indexed": false,
                    "internalType": "string[]",
                    "name": "",
                    "type": "string[]"
                },
                {
                    "indexed": false,
                    "internalType": "uint256",
                    "name": "",
                    "type": "uint256"
                }
            ],
            "name": "EventoServicioProporcionado",
            "type": "event"
        },
        {
            "anonymous": false,
            "inputs": [
                {
                    "indexed": false,
                    "internalType": "address",
                    "name": "",
                    "type": "address"
                },
                {
                    "indexed": false,
                    "internalType": "address",
                    "name": "",
                    "type": "address"
                }
            ],
            "name": "LaboratorioCreado",
            "type": "event"
        },
        {
            "anonymous": false,
            "inputs": [
                {
                    "indexed": false,
                    "internalType": "string",
                    "name": "",
                    "type": "string"
                },
                {
                    "indexed": false,
                    "internalType": "uint256",
                    "name": "",
                    "type": "uint256"
                }
            ],
            "name": "ServicioCreado",
            "type": "event"
        },
        {
            "constant": true,
            "inputs": [],
            "name": "Aseguradora",
            "outputs": [
                {
                    "internalType": "address payable",
                    "name": "",
                    "type": "address"
                }
            ],
            "payable": false,
            "stateMutability": "view",
            "type": "function"
        },
        {
            "constant": true,
            "inputs": [
                {
                    "internalType": "address",
                    "name": "_direccioAsegurado",
                    "type": "address"
                }
            ],
            "name": "FuncionUnicamenteAsegurados",
            "outputs": [],
            "payable": false,
            "stateMutability": "view",
            "type": "function"
        },
        {
            "constant": true,
            "inputs": [
                {
                    "internalType": "address",
                    "name": "",
                    "type": "address"
                }
            ],
            "name": "MappingClientes",
            "outputs": [
                {
                    "internalType": "address",
                    "name": "DireccionCliente",
                    "type": "address"
                },
                {
                    "internalType": "bool",
                    "name": "Autorizacion",
                    "type": "bool"
                },
                {
                    "internalType": "address",
                    "name": "DireccionContrato",
                    "type": "address"
                }
            ],
            "payable": false,
            "stateMutability": "view",
            "type": "function"
        },
        {
            "constant": true,
            "inputs": [
                {
                    "internalType": "address",
                    "name": "",
                    "type": "address"
                }
            ],
            "name": "MappingLabs",
            "outputs": [
                {
                    "internalType": "address",
                    "name": "direccionContratoLab",
                    "type": "address"
                },
                {
                    "internalType": "bool",
                    "name": "ValidacionLab",
                    "type": "bool"
                }
            ],
            "payable": false,
            "stateMutability": "view",
            "type": "function"
        },
        {
            "constant": true,
            "inputs": [
                {
                    "internalType": "string",
                    "name": "",
                    "type": "string"
                }
            ],
            "name": "MappingServicios",
            "outputs": [
                {
                    "internalType": "string",
                    "name": "nombreServicio",
                    "type": "string"
                },
                {
                    "internalType": "uint256",
                    "name": "precioTokens",
                    "type": "uint256"
                },
                {
                    "internalType": "bool",
                    "name": "EstadoServicio",
                    "type": "bool"
                }
            ],
            "payable": false,
            "stateMutability": "view",
            "type": "function"
        },
        {
            "constant": true,
            "inputs": [],
            "name": "getBalance",
            "outputs": [
                {
                    "internalType": "uint256",
                    "name": "ethers",
                    "type": "uint256"
                }
            ],
            "payable": false,
            "stateMutability": "view",
            "type": "function"
        }
    ],
    "bytecode": "608060405234801561001057600080fd5b50606460405161001f9061007f565b610029919061009b565b604051809103906000f080158015610045573d6000803e3d6000fd5b50600080546001600160a01b03929092166001600160a01b03199283161790556001805482163017905560028054909116331790556100bd565b6107fd8061067e83390190565b610095816100b2565b82525050565b602081016100a9828461008c565b92915050565b90565b60006100a9826100af565b6105b2806100cc6000396000f3fe608060405234801561001057600080fd5b50600436106100625760003560e01c806312065fe0146100675780631a6f0d8c1461008557806386120ece1461009a578063990d400b146100af578063ca48d363146100d1578063d89ac531146100f3575b600080fd5b61006f610114565b60405161007c919061048c565b60405180910390f35b61008d610119565b60405161007c91906103f7565b6100ad6100a83660046102f2565b610128565b005b6100c26100bd3660046102f2565b610178565b60405161007c93929190610427565b6100e46100df366004610318565b6101a9565b60405161007c9392919061044f565b6101066101013660046102f2565b610266565b60405161007c929190610405565b303190565b6002546001600160a01b031681565b6001600160a01b038116600090815260036020526040902054600160a01b900460ff1615156001146101755760405162461bcd60e51b815260040161016c9061047c565b60405180910390fd5b50565b600360205260009081526040902080546001909101546001600160a01b0380831692600160a01b900460ff16911683565b805160208183018101805160048252928201938201939093209190925280546040805160026001841615610100026000190190931692909204601f810185900485028301850190915280825291929091839183018282801561024c5780601f106102215761010080835404028352916020019161024c565b820191906000526020600020905b81548152906001019060200180831161022f57829003601f168201915b50505050600183015460029093015491929160ff16905083565b6005602052600090815260409020546001600160a01b03811690600160a01b900460ff1682565b80356102988161055b565b92915050565b600082601f8301126102af57600080fd5b81356102c26102bd826104c1565b61049a565b915080825260208301602083018583830111156102de57600080fd5b6102e9838284610515565b50505092915050565b60006020828403121561030457600080fd5b6000610310848461028d565b949350505050565b60006020828403121561032a57600080fd5b813567ffffffffffffffff81111561034157600080fd5b6103108482850161029e565b610356816104f6565b82525050565b61035681610501565b6000610370826104e9565b61037a81856104ed565b935061038a818560208601610521565b61039381610551565b9093019392505050565b60006103aa602f836104ed565b7f4e6f2065737461206175746f72697a61646f2070617261207265616c697a617281526e1032b9ba309037b832b930b1b4b7b760891b602082015260400192915050565b61035681610512565b60208101610298828461034d565b60408101610413828561034d565b610420602083018461035c565b9392505050565b60608101610435828661034d565b610442602083018561035c565b610310604083018461034d565b606080825281016104608186610365565b905061046f60208301856103ee565b610310604083018461035c565b602080825281016102988161039d565b6020810161029882846103ee565b60405181810167ffffffffffffffff811182821017156104b957600080fd5b604052919050565b600067ffffffffffffffff8211156104d857600080fd5b506020601f91909101601f19160190565b5190565b90815260200190565b600061029882610506565b151590565b6001600160a01b031690565b90565b82818337506000910152565b60005b8381101561053c578181015183820152602001610524565b8381111561054b576000848401525b50505050565b601f01601f191690565b610564816104f6565b811461017557600080fdfea365627a7a72315820f8fb37ba19a395de5ec5da316eac26a06acaec83a8514f96da9eeba3ea060f666c6578706572696d656e74616cf564736f6c63430005100040608060405234801561001057600080fd5b506040516107fd3803806107fd83398101604081905261002f9161005a565b60028190553360009081526020819052604090205561009a565b805161005481610083565b92915050565b60006020828403121561006c57600080fd5b60006100788484610049565b949350505050565b90565b61008c81610080565b811461009757600080fd5b50565b610754806100a96000396000f3fe608060405234801561001057600080fd5b506004361061009e5760003560e01c80634ee22adf116100665780634ee22adf1461011e57806370a082311461013357806395d89b4114610146578063a9059cbb1461014e578063dd62ed3e146101615761009e565b806306fdde03146100a3578063095ea7b3146100c157806318160ddd146100e157806323b872dd146100f6578063313ce56714610109575b600080fd5b6100ab610174565b6040516100b89190610658565b60405180910390f35b6100d46100cf3660046105a3565b61019a565b6040516100b8919061064a565b6100e9610205565b6040516100b89190610669565b6100d4610104366004610556565b61020b565b61011161036b565b6040516100b89190610677565b61013161012c3660046105d3565b610370565b005b6100e96101413660046104f6565b610390565b6100ab6103ab565b6100d461015c3660046105a3565b6103d0565b6100e961016f36600461051c565b61048d565b6040518060400160405280600a8152602001694552433230426173696360b01b81525081565b3360008181526001602090815260408083206001600160a01b038716808552925280832085905551919290917f8c5be1e5ebec7d5bd14f71427d1e84f3dd0314c0f7b2291e5b200ac8c7c3b925906101f3908690610669565b60405180910390a35060015b92915050565b60025490565b6001600160a01b03831660009081526020819052604081205482111561023057600080fd5b6001600160a01b038416600090815260016020908152604080832033845290915290205482111561026057600080fd5b6001600160a01b038416600090815260208190526040902054610289908363ffffffff6104b816565b6001600160a01b0385166000908152602081815260408083209390935560018152828220338352905220546102c4908363ffffffff6104b816565b6001600160a01b0380861660009081526001602090815260408083203384528252808320949094559186168152908190522054610307908363ffffffff6104ca16565b6001600160a01b0380851660008181526020819052604090819020939093559151908616907fddf252ad1be2c89b69c2b068fc378daa952ba7f163c4a11628f55a4df523b3ef90610359908690610669565b60405180910390a35060019392505050565b600281565b600280548201905533600090815260208190526040902080549091019055565b6001600160a01b031660009081526020819052604090205490565b6040518060400160405280600981526020016825212516aa27a5a2a760b91b81525081565b336000908152602081905260408120548211156103ec57600080fd5b3360009081526020819052604090205461040c908363ffffffff6104b816565b33600090815260208190526040808220929092556001600160a01b0385168152205461043e908363ffffffff6104ca16565b6001600160a01b0384166000818152602081905260409081902092909255905133907fddf252ad1be2c89b69c2b068fc378daa952ba7f163c4a11628f55a4df523b3ef906101f3908690610669565b6001600160a01b03918216600090815260016020908152604080832093909416825291909152205490565b6000828211156104c457fe5b50900390565b6000828201838110156104d957fe5b9392505050565b80356101ff816106f1565b80356101ff81610708565b60006020828403121561050857600080fd5b600061051484846104e0565b949350505050565b6000806040838503121561052f57600080fd5b600061053b85856104e0565b925050602061054c858286016104e0565b9150509250929050565b60008060006060848603121561056b57600080fd5b600061057786866104e0565b9350506020610588868287016104e0565b9250506040610599868287016104eb565b9150509250925092565b600080604083850312156105b657600080fd5b60006105c285856104e0565b925050602061054c858286016104eb565b6000602082840312156105e557600080fd5b600061051484846104eb565b6105fa8161069d565b82525050565b600061060b82610685565b6106158185610689565b93506106258185602086016106b7565b61062e816106e7565b9093019392505050565b6105fa816106ae565b6105fa816106b1565b602081016101ff82846105f1565b602080825281016104d98184610600565b602081016101ff8284610638565b602081016101ff8284610641565b5190565b90815260200190565b60006101ff826106a2565b151590565b6001600160a01b031690565b90565b60ff1690565b60005b838110156106d25781810151838201526020016106ba565b838111156106e1576000848401525b50505050565b601f01601f191690565b6106fa81610692565b811461070557600080fd5b50565b6106fa816106ae56fea365627a7a7231582066b80bb5a1f81df3c917eee2b9e09bd7edade8e7d505c333cd2050203580768d6c6578706572696d656e74616cf564736f6c63430005100040",
    "sourcePath": "/home/secondport/Documents/SmartContracts/Trabajo-Final/Aseguradora.sol",
    "compiler": {
        "name": "solc",
        "version": "0.5.16+commit.9c3226ce"
    },
    "functionHashes": {
        "Aseguradora()": "1a6f0d8c",
        "FuncionUnicamenteAsegurados(address)": "86120ece",
        "MappingClientes(address)": "990d400b",
        "MappingLabs(address)": "d89ac531",
        "MappingServicios(string)": "ca48d363",
        "getBalance()": "12065fe0"
    },
    "gasEstimates": {
        "creation": {
            "codeDepositCost": "291600",
            "executionCost": "infinite",
            "totalCost": "infinite"
        },
        "external": {
            "Aseguradora()": "infinite",
            "FuncionUnicamenteAsegurados(address)": "infinite",
            "MappingClientes(address)": "infinite",
            "MappingLabs(address)": "infinite",
            "MappingServicios(string)": "infinite",
            "getBalance()": "976"
        }
    }
}