{
    "contractName": "InsuranceHealthRecord",
    "abi": [
        {
            "inputs": [
                {
                    "internalType": "address",
                    "name": "_owner",
                    "type": "address"
                },
                {
                    "internalType": "contract ERC20Basic",
                    "name": "_token",
                    "type": "address"
                },
                {
                    "internalType": "address",
                    "name": "_insurance",
                    "type": "address"
                },
                {
                    "internalType": "address payable",
                    "name": "_aseguradora",
                    "type": "address"
                }
            ],
            "payable": false,
            "stateMutability": "nonpayable",
            "type": "constructor"
        },
        {
            "anonymous": false,
            "inputs": [
                {
                    "indexed": false,
                    "internalType": "address",
                    "name": "",
                    "type": "address"
                },
                {
                    "indexed": false,
                    "internalType": "uint256",
                    "name": "",
                    "type": "uint256"
                }
            ],
            "name": "EventoDevolverTokens",
            "type": "event"
        },
        {
            "anonymous": false,
            "inputs": [
                {
                    "indexed": false,
                    "internalType": "address",
                    "name": "",
                    "type": "address"
                }
            ],
            "name": "EventoSelfDestruct",
            "type": "event"
        },
        {
            "constant": false,
            "inputs": [
                {
                    "internalType": "uint256",
                    "name": "_numTokens",
                    "type": "uint256"
                }
            ],
            "name": "CompraTokens",
            "outputs": [],
            "payable": true,
            "stateMutability": "payable",
            "type": "function"
        },
        {
            "constant": true,
            "inputs": [],
            "name": "HistorialAseguradoLaboratorio",
            "outputs": [
                {
                    "components": [
                        {
                            "internalType": "string",
                            "name": "nombreServicio",
                            "type": "string"
                        },
                        {
                            "internalType": "uint256",
                            "name": "precioServicio",
                            "type": "uint256"
                        },
                        {
                            "internalType": "address",
                            "name": "direccionLab",
                            "type": "address"
                        }
                    ],
                    "internalType": "struct InsuranceHealthRecord.ServiciosSolicitadosLab[]",
                    "name": "",
                    "type": "tuple[]"
                }
            ],
            "payable": false,
            "stateMutability": "view",
            "type": "function"
        },
        {
            "constant": true,
            "inputs": [
                {
                    "internalType": "string",
                    "name": "_servicio",
                    "type": "string"
                }
            ],
            "name": "HistorialCliente",
            "outputs": [
                {
                    "internalType": "string",
                    "name": "nombreServico",
                    "type": "string"
                },
                {
                    "internalType": "uint256",
                    "name": "precioServicio",
                    "type": "uint256"
                }
            ],
            "payable": false,
            "stateMutability": "view",
            "type": "function"
        },
        {
            "constant": true,
            "inputs": [
                {
                    "internalType": "string",
                    "name": "_servicio",
                    "type": "string"
                }
            ],
            "name": "ServicioEstadoAsegurado",
            "outputs": [
                {
                    "internalType": "bool",
                    "name": "",
                    "type": "bool"
                }
            ],
            "payable": false,
            "stateMutability": "view",
            "type": "function"
        },
        {
            "constant": true,
            "inputs": [],
            "name": "balanceOf",
            "outputs": [
                {
                    "internalType": "uint256",
                    "name": "_balance",
                    "type": "uint256"
                }
            ],
            "payable": false,
            "stateMutability": "view",
            "type": "function"
        },
        {
            "constant": false,
            "inputs": [],
            "name": "darBaja",
            "outputs": [],
            "payable": false,
            "stateMutability": "nonpayable",
            "type": "function"
        },
        {
            "constant": false,
            "inputs": [
                {
                    "internalType": "uint256",
                    "name": "_numTokens",
                    "type": "uint256"
                }
            ],
            "name": "devolverTokens",
            "outputs": [],
            "payable": true,
            "stateMutability": "payable",
            "type": "function"
        },
        {
            "constant": true,
            "inputs": [],
            "name": "getBalance",
            "outputs": [
                {
                    "internalType": "uint256",
                    "name": "ethers",
                    "type": "uint256"
                }
            ],
            "payable": false,
            "stateMutability": "view",
            "type": "function"
        }
    ],
    "bytecode": "60806040523480156200001157600080fd5b5060405162000f4d38038062000f4d8339810160408190526200003491620000ba565b600080546001600160a01b03199081166001600160a01b0396871617825560019190915560028054948616610100026001600160a81b0319909516949094179093556003805492851692841692909217909155600480549190931691161790556200016f565b8051620000a7816200014a565b92915050565b8051620000a78162000164565b60008060008060808587031215620000d157600080fd5b6000620000df87876200009a565b9450506020620000f287828801620000ad565b935050604062000105878288016200009a565b925050606062000118878288016200009a565b91505092959194509250565b6000620000a7826200013e565b6000620000a78262000124565b6001600160a01b031690565b620001558162000124565b81146200016157600080fd5b50565b620001558162000131565b610dce806200017f6000396000f3fe60806040526004361061007b5760003560e01c8063722713f71161004e578063722713f714610102578063a1c9da5514610117578063b990b6b014610139578063f7774091146101675761007b565b806312065fe0146100805780632e95161c146100ab57806332509ddd146100c05780633c2845f2146100ed575b600080fd5b34801561008c57600080fd5b5061009561017a565b6040516100a29190610c80565b60405180910390f35b6100be6100b9366004610889565b61017f565b005b3480156100cc57600080fd5b506100e06100db366004610854565b6102fc565b6040516100a29190610bf2565b3480156100f957600080fd5b506100be61032b565b34801561010e57600080fd5b50610095610391565b34801561012357600080fd5b5061012c610448565b6040516100a29190610be1565b34801561014557600080fd5b50610159610154366004610854565b610559565b6040516100a2929190610c00565b6100be610175366004610889565b610642565b303190565b60005433906001600160a01b031681146101b45760405162461bcd60e51b81526004016101ab90610c30565b60405180910390fd5b600082116101d45760405162461bcd60e51b81526004016101ab90610c60565b6101dc610391565b8211156101fb5760405162461bcd60e51b81526004016101ab90610c20565b6002546004805460405163a9059cbb60e01b81526001600160a01b0361010090940484169363a9059cbb936102369390911691879101610bc6565b602060405180830381600087803b15801561025057600080fd5b505af1158015610264573d6000803e3d6000fd5b505050506040513d601f19601f82011682018060405250610288919081019061082e565b50336108fc61029684610758565b6040518115909202916000818181858888f193505050501580156102be573d6000803e3d6000fd5b507f38c9c5932b4a4adc31336a3d0f02e16d1b596a20fe930b3e340b387269d3a7a033836040516102f0929190610bc6565b60405180910390a15050565b600060058260405161030e9190610b9e565b9081526040519081900360200190206002015460ff169050919050565b60005433906001600160a01b031681146103575760405162461bcd60e51b81526004016101ab90610c30565b7f34a5547a99247f2c59198cb5fccb26c5377c9c52d0815bcdbfb2936cbd03e3ff336040516103869190610bb8565b60405180910390a133ff5b6000805433906001600160a01b031681146103be5760405162461bcd60e51b81526004016101ab90610c30565b6002546040516370a0823160e01b81526101009091046001600160a01b0316906370a08231906103f2903090600401610baa565b60206040518083038186803b15801561040a57600080fd5b505afa15801561041e573d6000803e3d6000fd5b505050506040513d601f19601f8201168201806040525061044291908101906108a7565b91505090565b60606006805480602002602001604051908101604052809291908181526020016000905b828210156105505760008481526020908190206040805160038602909201805460026001821615610100026000190190911604601f81018590049094028301608090810190925260608301848152929390928492909184918401828280156105155780601f106104ea57610100808354040283529160200191610515565b820191906000526020600020905b8154815290600101906020018083116104f857829003601f168201915b50505091835250506001828101546020808401919091526002909301546001600160a01b03166040909201919091529183529201910161046c565b50505050905090565b6060600060058360405161056d9190610b9e565b9081526040519081900360200181209060059061058b908690610b9e565b908152602001604051809103902060010154818054600181600116156101000203166002900480601f0160208091040260200160405190810160405280929190818152602001828054600181600116156101000203166002900480156106325780601f1061060757610100808354040283529160200191610632565b820191906000526020600020905b81548152906001019060200180831161061557829003601f168201915b5050505050915091509150915091565b60005433906001600160a01b0316811461066e5760405162461bcd60e51b81526004016101ab90610c30565b6000821161068e5760405162461bcd60e51b81526004016101ab90610c40565b600061069983610758565b9050803410156106bb5760405162461bcd60e51b81526004016101ab90610c70565b6040513482900390339082156108fc029083906000818181858888f193505050501580156106ed573d6000803e3d6000fd5b50600354604051635685a07560e01b81526001600160a01b0390911690635685a075906107209033908890600401610bc6565b600060405180830381600087803b15801561073a57600080fd5b505af115801561074e573d6000803e3d6000fd5b5050505050505050565b600061077282670de0b6b3a764000063ffffffff61077816565b92915050565b60008261078757506000610772565b8282028284828161079457fe5b04146107b25760405162461bcd60e51b81526004016101ab90610c50565b9392505050565b805161077281610d6b565b600082601f8301126107d557600080fd5b81356107e86107e382610cb5565b610c8e565b9150808252602083016020830185838301111561080457600080fd5b61080f838284610d25565b50505092915050565b803561077281610d82565b805161077281610d82565b60006020828403121561084057600080fd5b600061084c84846107b9565b949350505050565b60006020828403121561086657600080fd5b813567ffffffffffffffff81111561087d57600080fd5b61084c848285016107c4565b60006020828403121561089b57600080fd5b600061084c8484610818565b6000602082840312156108b957600080fd5b600061084c8484610823565b60006107b28383610b4d565b6108da81610d14565b82525050565b6108da81610cf5565b60006108f482610ce3565b6108fe8185610ce7565b93508360208202850161091085610cdd565b8060005b8581101561094a578484038952815161092d85826108c5565b945061093883610cdd565b60209a909a0199925050600101610914565b5091979650505050505050565b6108da81610d00565b600061096b82610ce3565b6109758185610ce7565b9350610985818560208601610d31565b61098e81610d61565b9093019392505050565b60006109a382610ce3565b6109ad8185610cf0565b93506109bd818560208601610d31565b9290920192915050565b60006109d4602383610ce7565b7f496e73756669696369656e74657320746f6b656e732070617261206465766f6c8152623b32b960e91b602082015260400192915050565b6000610a19604183610ce7565b7f4e6f2065737461206175746f72697a61646f2070617261207265616c697a617281527f2065737461206f7065726163696f6e2c20736f6c6f2061736567757261646f726020820152606160f81b604082015260600192915050565b6000610a82601183610ce7565b70436f6d707261206d617320746f6b656e7360781b815260200192915050565b6000610aaf602183610ce7565b7f536166654d6174683a206d756c7469706c69636174696f6e206f766572666c6f8152607760f81b602082015260400192915050565b6000610af2601383610ce7565b724465766f6c766572206d617320746f6b656e7360681b815260200192915050565b6000610b21601b83610ce7565b7f4e6f207469656e6520737566696369656e74657320746f6b656e730000000000815260200192915050565b8051606080845260009190840190610b658282610960565b9150506020830151610b7a6020860182610b95565b506040830151610b8d60408601826108e0565b509392505050565b6108da81610d11565b60006107b28284610998565b6020810161077282846108e0565b6020810161077282846108d1565b60408101610bd482856108d1565b6107b26020830184610b95565b602080825281016107b281846108e9565b602081016107728284610957565b60408082528101610c118185610960565b90506107b26020830184610b95565b60208082528101610772816109c7565b6020808252810161077281610a0c565b6020808252810161077281610a75565b6020808252810161077281610aa2565b6020808252810161077281610ae5565b6020808252810161077281610b14565b602081016107728284610b95565b60405181810167ffffffffffffffff81118282101715610cad57600080fd5b604052919050565b600067ffffffffffffffff821115610ccc57600080fd5b506020601f91909101601f19160190565b60200190565b5190565b90815260200190565b919050565b600061077282610d05565b151590565b6001600160a01b031690565b90565b600061077282600061077282610cf5565b82818337506000910152565b60005b83811015610d4c578181015183820152602001610d34565b83811115610d5b576000848401525b50505050565b601f01601f191690565b610d7481610d00565b8114610d7f57600080fd5b50565b610d7481610d1156fea365627a7a7231582026bbb7f92ba16b1ff18a6eb7c65cd206edf8cdca1756225c711333a9d21445b36c6578706572696d656e74616cf564736f6c63430005100040",
    "sourcePath": "/home/secondport/Documents/SmartContracts/Trabajo-Final/Aseguradora.sol",
    "compiler": {
        "name": "solc",
        "version": "0.5.16+commit.9c3226ce"
    },
    "functionHashes": {
        "CompraTokens(uint256)": "f7774091",
        "HistorialAseguradoLaboratorio()": "a1c9da55",
        "HistorialCliente(string)": "b990b6b0",
        "ServicioEstadoAsegurado(string)": "32509ddd",
        "balanceOf()": "722713f7",
        "darBaja()": "3c2845f2",
        "devolverTokens(uint256)": "2e95161c",
        "getBalance()": "12065fe0"
    },
    "gasEstimates": {
        "creation": {
            "codeDepositCost": "706800",
            "executionCost": "infinite",
            "totalCost": "infinite"
        },
        "external": {
            "CompraTokens(uint256)": "infinite",
            "HistorialAseguradoLaboratorio()": "infinite",
            "HistorialCliente(string)": "infinite",
            "ServicioEstadoAsegurado(string)": "infinite",
            "balanceOf()": "infinite",
            "darBaja()": "1307",
            "devolverTokens(uint256)": "infinite",
            "getBalance()": "999"
        }
    }
}