{
    "contractName": "InsuranceFactory",
    "abi": [
        {
            "inputs": [],
            "payable": false,
            "stateMutability": "nonpayable",
            "type": "constructor"
        },
        {
            "anonymous": false,
            "inputs": [
                {
                    "indexed": false,
                    "internalType": "address",
                    "name": "",
                    "type": "address"
                },
                {
                    "indexed": false,
                    "internalType": "address",
                    "name": "",
                    "type": "address"
                }
            ],
            "name": "AseguradoCreado",
            "type": "event"
        },
        {
            "anonymous": false,
            "inputs": [
                {
                    "indexed": false,
                    "internalType": "address",
                    "name": "",
                    "type": "address"
                }
            ],
            "name": "BajaAsegurado",
            "type": "event"
        },
        {
            "anonymous": false,
            "inputs": [
                {
                    "indexed": false,
                    "internalType": "string",
                    "name": "",
                    "type": "string"
                }
            ],
            "name": "BajaServicio",
            "type": "event"
        },
        {
            "anonymous": false,
            "inputs": [
                {
                    "indexed": false,
                    "internalType": "uint256",
                    "name": "",
                    "type": "uint256"
                }
            ],
            "name": "EventoComprado",
            "type": "event"
        },
        {
            "anonymous": false,
            "inputs": [
                {
                    "indexed": false,
                    "internalType": "address",
                    "name": "",
                    "type": "address"
                },
                {
                    "indexed": false,
                    "internalType": "string[]",
                    "name": "",
                    "type": "string[]"
                },
                {
                    "indexed": false,
                    "internalType": "uint256",
                    "name": "",
                    "type": "uint256"
                }
            ],
            "name": "EventoServicioProporcionado",
            "type": "event"
        },
        {
            "anonymous": false,
            "inputs": [
                {
                    "indexed": false,
                    "internalType": "address",
                    "name": "",
                    "type": "address"
                },
                {
                    "indexed": false,
                    "internalType": "address",
                    "name": "",
                    "type": "address"
                }
            ],
            "name": "LaboratorioCreado",
            "type": "event"
        },
        {
            "anonymous": false,
            "inputs": [
                {
                    "indexed": false,
                    "internalType": "string",
                    "name": "",
                    "type": "string"
                },
                {
                    "indexed": false,
                    "internalType": "uint256",
                    "name": "",
                    "type": "uint256"
                }
            ],
            "name": "ServicioCreado",
            "type": "event"
        },
        {
            "constant": true,
            "inputs": [],
            "name": "Aseguradora",
            "outputs": [
                {
                    "internalType": "address payable",
                    "name": "",
                    "type": "address"
                }
            ],
            "payable": false,
            "stateMutability": "view",
            "type": "function"
        },
        {
            "constant": true,
            "inputs": [
                {
                    "internalType": "address",
                    "name": "_direccioAsegurado",
                    "type": "address"
                }
            ],
            "name": "FuncionUnicamenteAsegurados",
            "outputs": [],
            "payable": false,
            "stateMutability": "view",
            "type": "function"
        },
        {
            "constant": true,
            "inputs": [
                {
                    "internalType": "address",
                    "name": "",
                    "type": "address"
                }
            ],
            "name": "MappingClientes",
            "outputs": [
                {
                    "internalType": "address",
                    "name": "DireccionCliente",
                    "type": "address"
                },
                {
                    "internalType": "bool",
                    "name": "Autorizacion",
                    "type": "bool"
                },
                {
                    "internalType": "address",
                    "name": "DireccionContrato",
                    "type": "address"
                }
            ],
            "payable": false,
            "stateMutability": "view",
            "type": "function"
        },
        {
            "constant": true,
            "inputs": [
                {
                    "internalType": "address",
                    "name": "",
                    "type": "address"
                }
            ],
            "name": "MappingLabs",
            "outputs": [
                {
                    "internalType": "address",
                    "name": "direccionContratoLab",
                    "type": "address"
                },
                {
                    "internalType": "bool",
                    "name": "ValidacionLab",
                    "type": "bool"
                }
            ],
            "payable": false,
            "stateMutability": "view",
            "type": "function"
        },
        {
            "constant": true,
            "inputs": [
                {
                    "internalType": "string",
                    "name": "",
                    "type": "string"
                }
            ],
            "name": "MappingServicios",
            "outputs": [
                {
                    "internalType": "string",
                    "name": "nombreServicio",
                    "type": "string"
                },
                {
                    "internalType": "uint256",
                    "name": "precioTokens",
                    "type": "uint256"
                },
                {
                    "internalType": "bool",
                    "name": "EstadoServicio",
                    "type": "bool"
                }
            ],
            "payable": false,
            "stateMutability": "view",
            "type": "function"
        },
        {
            "constant": false,
            "inputs": [],
            "name": "creacionContratoAsegurado",
            "outputs": [],
            "payable": false,
            "stateMutability": "nonpayable",
            "type": "function"
        },
        {
            "constant": false,
            "inputs": [],
            "name": "creacionLab",
            "outputs": [],
            "payable": false,
            "stateMutability": "nonpayable",
            "type": "function"
        },
        {
            "constant": true,
            "inputs": [],
            "name": "getBalance",
            "outputs": [
                {
                    "internalType": "uint256",
                    "name": "ethers",
                    "type": "uint256"
                }
            ],
            "payable": false,
            "stateMutability": "view",
            "type": "function"
        },
        {
            "constant": true,
            "inputs": [],
            "name": "getDireccionesClientes",
            "outputs": [
                {
                    "internalType": "address[]",
                    "name": "",
                    "type": "address[]"
                }
            ],
            "payable": false,
            "stateMutability": "view",
            "type": "function"
        },
        {
            "constant": true,
            "inputs": [],
            "name": "getDireccionesLabs",
            "outputs": [
                {
                    "internalType": "address[]",
                    "name": "",
                    "type": "address[]"
                }
            ],
            "payable": false,
            "stateMutability": "view",
            "type": "function"
        }
    ],
    "bytecode": "608060405234801561001057600080fd5b50606460405161001f9061007f565b610029919061009b565b604051809103906000f080158015610045573d6000803e3d6000fd5b50600080546001600160a01b03929092166001600160a01b03199283161790556001805482163017905560028054909116331790556100bd565b6107fd8061137883390190565b610095816100b2565b82525050565b602081016100a9828461008c565b92915050565b90565b60006100a9826100af565b6112ac806100cc6000396000f3fe60806040523480156200001157600080fd5b5060043610620000ac5760003560e01c806386120ece116200006f57806386120ece146200011b578063990d400b1462000132578063ca48d363146200015a578063d89ac5311462000182578063f74ed9f314620001a957620000ac565b80630fe8755e14620000b157806312065fe014620000d35780631a6f0d8c14620000ec5780632d8679e4146200010557806344a29010146200010f575b600080fd5b620000bb620001b3565b604051620000ca919062000a4e565b60405180910390f35b620000dd62000251565b604051620000ca919062000ab8565b620000f662000256565b604051620000ca919062000985565b620000bb62000265565b62000119620002f8565b005b620001196200012c3660046200075f565b6200044f565b62000149620001433660046200075f565b62000499565b604051620000ca9392919062000a20565b620001716200016b36600462000788565b620004ca565b604051620000ca9392919062000a61565b62000199620001933660046200075f565b6200058b565b604051620000ca92919062000a01565b62000119620005b2565b60025460609033906001600160a01b03168114620001ee5760405162461bcd60e51b8152600401620001e59062000aa6565b60405180910390fd5b60088054806020026020016040519081016040528092919081815260200182805480156200024657602002820191906000526020600020905b81546001600160a01b0316815260019091019060200180831162000227575b505050505091505090565b303190565b6002546001600160a01b031681565b60025460609033906001600160a01b03168114620002975760405162461bcd60e51b8152600401620001e59062000aa6565b600680548060200260200160405190810160405280929190818152602001828054801562000246576020028201919060005260206000209081546001600160a01b031681526001909101906020018083116200022757505050505091505090565b600680546001818101835560009283527ff652222313e28459528d920b65115c16c04f3efc82aaedc97be59f3f377c0d3f90910180546001600160a01b031916339081179091558254915460025460405192936001600160a01b0390811693928116929116906200036990620006d4565b620003789493929190620009bb565b604051809103906000f08015801562000395573d6000803e3d6000fd5b506040805160608101825233808252600160208084018281526001600160a01b0380881686880190815260008681526003909452928790209551865492511515600160a01b0260ff60a01b199183166001600160a01b03199485161791909116178655915194909201805494909116939091169290921790915590519192507f28d2277892f1c2b1d0ac2f5e187f9c932309e2acc60f8bb64a7da1acfee2822791620004449190849062000995565b60405180910390a150565b6001600160a01b038116600090815260036020526040902054600160a01b900460ff161515600114620004965760405162461bcd60e51b8152600401620001e59062000a94565b50565b600360205260009081526040902080546001909101546001600160a01b0380831692600160a01b900460ff16911683565b805160208183018101805160048252928201938201939093209190925280546040805160026001841615610100026000190190931692909204601f8101859004850283018501909152808252919290918391830182828015620005715780601f10620005455761010080835404028352916020019162000571565b820191906000526020600020905b8154815290600101906020018083116200055357829003601f168201915b50505050600183015460029093015491929160ff16905083565b6005602052600090815260409020546001600160a01b03811690600160a01b900460ff1682565b600880546001818101835560009283527ff3f7a9fe364faab93b216da50a3214154f22a0a2b415b23a84c8169e8b636ee390910180546001600160a01b0319163390811790915590546040516001600160a01b0391909116906200061690620006e2565b6200062392919062000995565b604051809103906000f08015801562000640573d6000803e3d6000fd5b506040805180820182526001600160a01b038381168252600160208084019182523360008181526005909252908590209351845492516001600160a01b031990931693169290921760ff60a01b1916600160a01b911515919091021790915590519192507ff23c7dd26c59354e7b18754d5ee20b25d2d0baa407f891bd09002b2b62fd096f91620004449190849062000995565b6104c88062000bc383390190565b6101df806200108b83390190565b8035620006fd8162000bab565b92915050565b600082601f8301126200071557600080fd5b81356200072c620007268262000af0565b62000ac8565b915080825260208301602083018583830111156200074957600080fd5b6200075683828462000b62565b50505092915050565b6000602082840312156200077257600080fd5b6000620007808484620006f0565b949350505050565b6000602082840312156200079b57600080fd5b813567ffffffffffffffff811115620007b357600080fd5b620007808482850162000703565b6000620007cf8383620007e8565b505060200190565b620007e28162000b4d565b82525050565b620007e28162000b2c565b6000620008008262000b1f565b6200080c818562000b23565b9350620008198362000b19565b8060005b838110156200084d578151620008348882620007c1565b9750620008418362000b19565b9250506001016200081d565b509495945050505050565b620007e28162000b39565b620007e28162000b55565b60006200087b8262000b1f565b62000887818562000b23565b93506200089981856020860162000b6e565b620008a48162000ba1565b9093019392505050565b6000620008bd602f8362000b23565b7f4e6f2065737461206175746f72697a61646f2070617261207265616c697a617281526e1032b9ba309037b832b930b1b4b7b760891b602082015260400192915050565b600062000910604f8362000b23565b7f4e6f2065737461206175746f72697a61646f2070617261207265616c697a617281527f2065737461206f7065726163696f6e20736f6c6f20706572736f6e616c20646560208201526e206c612061736567757261646f726160881b604082015260600192915050565b620007e28162000b4a565b60208101620006fd8284620007e8565b60408101620009a58285620007d7565b620009b46020830184620007e8565b9392505050565b60808101620009cb8287620007d7565b620009da602083018662000863565b620009e96040830185620007e8565b620009f86060830184620007e8565b95945050505050565b6040810162000a118285620007e8565b620009b4602083018462000858565b6060810162000a308286620007e8565b62000a3f602083018562000858565b620007806040830184620007e8565b60208082528101620009b48184620007f3565b6060808252810162000a7481866200086e565b905062000a8560208301856200097a565b62000780604083018462000858565b60208082528101620006fd81620008ae565b60208082528101620006fd8162000901565b60208101620006fd82846200097a565b60405181810167ffffffffffffffff8111828210171562000ae857600080fd5b604052919050565b600067ffffffffffffffff82111562000b0857600080fd5b506020601f91909101601f19160190565b60200190565b5190565b90815260200190565b6000620006fd8262000b3e565b151590565b6001600160a01b031690565b90565b6000620006fd825b6000620006fd8262000b2c565b82818337506000910152565b60005b8381101562000b8b57818101518382015260200162000b71565b8381111562000b9b576000848401525b50505050565b601f01601f191690565b62000bb68162000b2c565b81146200049657600080fdfe608060405234801561001057600080fd5b506040516104c83803806104c883398101604081905261002f916100b0565b600080546001600160a01b03199081166001600160a01b0396871617825560019190915560028054948616610100026001600160a81b031990951694909417909355600380549285169284169290921790915560048054919093169116179055610153565b805161009f81610133565b92915050565b805161009f8161014a565b600080600080608085870312156100c657600080fd5b60006100d28787610094565b94505060206100e3878288016100a5565b93505060406100f487828801610094565b925050606061010587828801610094565b91505092959194509250565b600061009f82610127565b600061009f82610111565b6001600160a01b031690565b61013c81610111565b811461014757600080fd5b50565b61013c8161011c565b610366806101626000396000f3fe608060405234801561001057600080fd5b50600436106100365760003560e01c806312065fe01461003b578063a1c9da5514610059575b600080fd5b61004361006e565b60405161005091906102ae565b60405180910390f35b610061610073565b604051610050919061029d565b303190565b60606006805480602002602001604051908101604052809291908181526020016000905b8282101561017b5760008481526020908190206040805160038602909201805460026001821615610100026000190190911604601f81018590049094028301608090810190925260608301848152929390928492909184918401828280156101405780601f1061011557610100808354040283529160200191610140565b820191906000526020600020905b81548152906001019060200180831161012357829003601f168201915b50505091835250506001828101546020808401919091526002909301546001600160a01b031660409092019190915291835292019101610097565b50505050905090565b6000610190838361024c565b9392505050565b6101a0816102d5565b82525050565b60006101b1826102c8565b6101bb81856102cc565b9350836020820285016101cd856102c2565b8060005b8581101561020757848403895281516101ea8582610184565b94506101f5836102c2565b60209a909a01999250506001016101d1565b5091979650505050505050565b600061021f826102c8565b61022981856102cc565b93506102398185602086016102e9565b61024281610319565b9093019392505050565b80516060808452600091908401906102648282610214565b91505060208301516102796020860182610294565b50604083015161028c6040860182610197565b509392505050565b6101a0816102e6565b6020808252810161019081846101a6565b602081016102bc8284610294565b92915050565b60200190565b5190565b90815260200190565b60006001600160a01b0382166102bc565b90565b60005b838110156103045781810151838201526020016102ec565b83811115610313576000848401525b50505050565b601f01601f19169056fea365627a7a72315820a2987b62910dcb36d7288ffec208fd7b40e33460975b9f4c33185922e545f18e6c6578706572696d656e74616cf564736f6c63430005100040608060405234801561001057600080fd5b506040516101df3803806101df83398101604081905261002f91610071565b600080546001600160a01b039384166001600160a01b031991821617909155600180549290931691161790556100d3565b805161006b816100bc565b92915050565b6000806040838503121561008457600080fd5b60006100908585610060565b92505060206100a185828601610060565b9150509250929050565b60006001600160a01b03821661006b565b6100c5816100ab565b81146100d057600080fd5b50565b60fe806100e16000396000f3fe6080604052348015600f57600080fd5b506004361060325760003560e01c806312065fe0146037578063df02634f146051575b600080fd5b603d6062565b60405160489190609c565b60405180910390f35b60576067565b60405160489190608a565b303190565b6000546001600160a01b031681565b607d8160a8565b82525050565b607d8160b8565b60208101609682846076565b92915050565b60208101609682846083565b60006001600160a01b0382166096565b9056fea365627a7a723158205b9e8e85e57b331d3e69fb1cedf1f7605b773b4adc08cbf3a42d9362ab80b03a6c6578706572696d656e74616cf564736f6c63430005100040a365627a7a7231582085a0163fc2a5d77e30cee9fdf7314da001030349ca9ad9f7eaf350969b3b69596c6578706572696d656e74616cf564736f6c63430005100040608060405234801561001057600080fd5b506040516107fd3803806107fd83398101604081905261002f9161005a565b60028190553360009081526020819052604090205561009a565b805161005481610083565b92915050565b60006020828403121561006c57600080fd5b60006100788484610049565b949350505050565b90565b61008c81610080565b811461009757600080fd5b50565b610754806100a96000396000f3fe608060405234801561001057600080fd5b506004361061009e5760003560e01c80634ee22adf116100665780634ee22adf1461011e57806370a082311461013357806395d89b4114610146578063a9059cbb1461014e578063dd62ed3e146101615761009e565b806306fdde03146100a3578063095ea7b3146100c157806318160ddd146100e157806323b872dd146100f6578063313ce56714610109575b600080fd5b6100ab610174565b6040516100b89190610658565b60405180910390f35b6100d46100cf3660046105a3565b61019a565b6040516100b8919061064a565b6100e9610205565b6040516100b89190610669565b6100d4610104366004610556565b61020b565b61011161036b565b6040516100b89190610677565b61013161012c3660046105d3565b610370565b005b6100e96101413660046104f6565b610390565b6100ab6103ab565b6100d461015c3660046105a3565b6103d0565b6100e961016f36600461051c565b61048d565b6040518060400160405280600a8152602001694552433230426173696360b01b81525081565b3360008181526001602090815260408083206001600160a01b038716808552925280832085905551919290917f8c5be1e5ebec7d5bd14f71427d1e84f3dd0314c0f7b2291e5b200ac8c7c3b925906101f3908690610669565b60405180910390a35060015b92915050565b60025490565b6001600160a01b03831660009081526020819052604081205482111561023057600080fd5b6001600160a01b038416600090815260016020908152604080832033845290915290205482111561026057600080fd5b6001600160a01b038416600090815260208190526040902054610289908363ffffffff6104b816565b6001600160a01b0385166000908152602081815260408083209390935560018152828220338352905220546102c4908363ffffffff6104b816565b6001600160a01b0380861660009081526001602090815260408083203384528252808320949094559186168152908190522054610307908363ffffffff6104ca16565b6001600160a01b0380851660008181526020819052604090819020939093559151908616907fddf252ad1be2c89b69c2b068fc378daa952ba7f163c4a11628f55a4df523b3ef90610359908690610669565b60405180910390a35060019392505050565b600281565b600280548201905533600090815260208190526040902080549091019055565b6001600160a01b031660009081526020819052604090205490565b6040518060400160405280600981526020016825212516aa27a5a2a760b91b81525081565b336000908152602081905260408120548211156103ec57600080fd5b3360009081526020819052604090205461040c908363ffffffff6104b816565b33600090815260208190526040808220929092556001600160a01b0385168152205461043e908363ffffffff6104ca16565b6001600160a01b0384166000818152602081905260409081902092909255905133907fddf252ad1be2c89b69c2b068fc378daa952ba7f163c4a11628f55a4df523b3ef906101f3908690610669565b6001600160a01b03918216600090815260016020908152604080832093909416825291909152205490565b6000828211156104c457fe5b50900390565b6000828201838110156104d957fe5b9392505050565b80356101ff816106f1565b80356101ff81610708565b60006020828403121561050857600080fd5b600061051484846104e0565b949350505050565b6000806040838503121561052f57600080fd5b600061053b85856104e0565b925050602061054c858286016104e0565b9150509250929050565b60008060006060848603121561056b57600080fd5b600061057786866104e0565b9350506020610588868287016104e0565b9250506040610599868287016104eb565b9150509250925092565b600080604083850312156105b657600080fd5b60006105c285856104e0565b925050602061054c858286016104eb565b6000602082840312156105e557600080fd5b600061051484846104eb565b6105fa8161069d565b82525050565b600061060b82610685565b6106158185610689565b93506106258185602086016106b7565b61062e816106e7565b9093019392505050565b6105fa816106ae565b6105fa816106b1565b602081016101ff82846105f1565b602080825281016104d98184610600565b602081016101ff8284610638565b602081016101ff8284610641565b5190565b90815260200190565b60006101ff826106a2565b151590565b6001600160a01b031690565b90565b60ff1690565b60005b838110156106d25781810151838201526020016106ba565b838111156106e1576000848401525b50505050565b601f01601f191690565b6106fa81610692565b811461070557600080fd5b50565b6106fa816106ae56fea365627a7a7231582066b80bb5a1f81df3c917eee2b9e09bd7edade8e7d505c333cd2050203580768d6c6578706572696d656e74616cf564736f6c63430005100040",
    "sourcePath": "/home/secondport/Documents/SmartContracts/Trabajo-Final/Aseguradora.sol",
    "compiler": {
        "name": "solc",
        "version": "0.5.16+commit.9c3226ce"
    },
    "functionHashes": {
        "Aseguradora()": "1a6f0d8c",
        "FuncionUnicamenteAsegurados(address)": "86120ece",
        "MappingClientes(address)": "990d400b",
        "MappingLabs(address)": "d89ac531",
        "MappingServicios(string)": "ca48d363",
        "creacionContratoAsegurado()": "44a29010",
        "creacionLab()": "f74ed9f3",
        "getBalance()": "12065fe0",
        "getDireccionesClientes()": "2d8679e4",
        "getDireccionesLabs()": "0fe8755e"
    },
    "gasEstimates": {
        "creation": {
            "codeDepositCost": "956000",
            "executionCost": "infinite",
            "totalCost": "infinite"
        },
        "external": {
            "Aseguradora()": "infinite",
            "FuncionUnicamenteAsegurados(address)": "infinite",
            "MappingClientes(address)": "infinite",
            "MappingLabs(address)": "infinite",
            "MappingServicios(string)": "infinite",
            "creacionContratoAsegurado()": "infinite",
            "creacionLab()": "infinite",
            "getBalance()": "1021",
            "getDireccionesClientes()": "infinite",
            "getDireccionesLabs()": "infinite"
        }
    }
}