{
    "contractName": "InsuranceHealthRecord",
    "abi": [
        {
            "inputs": [
                {
                    "internalType": "address",
                    "name": "_owner",
                    "type": "address"
                },
                {
                    "internalType": "contract ERC20Basic",
                    "name": "_token",
                    "type": "address"
                },
                {
                    "internalType": "address",
                    "name": "_insurance",
                    "type": "address"
                },
                {
                    "internalType": "address payable",
                    "name": "_aseguradora",
                    "type": "address"
                }
            ],
            "payable": false,
            "stateMutability": "nonpayable",
            "type": "constructor"
        },
        {
            "constant": true,
            "inputs": [],
            "name": "HistorialAseguradoLaboratorio",
            "outputs": [
                {
                    "components": [
                        {
                            "internalType": "string",
                            "name": "nombreServicio",
                            "type": "string"
                        },
                        {
                            "internalType": "uint256",
                            "name": "precioServicio",
                            "type": "uint256"
                        },
                        {
                            "internalType": "address",
                            "name": "direccionLab",
                            "type": "address"
                        }
                    ],
                    "internalType": "struct InsuranceHealthRecord.ServiciosSolicitadosLab[]",
                    "name": "",
                    "type": "tuple[]"
                }
            ],
            "payable": false,
            "stateMutability": "view",
            "type": "function"
        },
        {
            "constant": true,
            "inputs": [],
            "name": "getBalance",
            "outputs": [
                {
                    "internalType": "uint256",
                    "name": "ethers",
                    "type": "uint256"
                }
            ],
            "payable": false,
            "stateMutability": "view",
            "type": "function"
        }
    ],
    "bytecode": "608060405234801561001057600080fd5b506040516104c83803806104c883398101604081905261002f916100b0565b600080546001600160a01b03199081166001600160a01b0396871617825560019190915560028054948616610100026001600160a81b031990951694909417909355600380549285169284169290921790915560048054919093169116179055610153565b805161009f81610133565b92915050565b805161009f8161014a565b600080600080608085870312156100c657600080fd5b60006100d28787610094565b94505060206100e3878288016100a5565b93505060406100f487828801610094565b925050606061010587828801610094565b91505092959194509250565b600061009f82610127565b600061009f82610111565b6001600160a01b031690565b61013c81610111565b811461014757600080fd5b50565b61013c8161011c565b610366806101626000396000f3fe608060405234801561001057600080fd5b50600436106100365760003560e01c806312065fe01461003b578063a1c9da5514610059575b600080fd5b61004361006e565b60405161005091906102ae565b60405180910390f35b610061610073565b604051610050919061029d565b303190565b60606006805480602002602001604051908101604052809291908181526020016000905b8282101561017b5760008481526020908190206040805160038602909201805460026001821615610100026000190190911604601f81018590049094028301608090810190925260608301848152929390928492909184918401828280156101405780601f1061011557610100808354040283529160200191610140565b820191906000526020600020905b81548152906001019060200180831161012357829003601f168201915b50505091835250506001828101546020808401919091526002909301546001600160a01b031660409092019190915291835292019101610097565b50505050905090565b6000610190838361024c565b9392505050565b6101a0816102d5565b82525050565b60006101b1826102c8565b6101bb81856102cc565b9350836020820285016101cd856102c2565b8060005b8581101561020757848403895281516101ea8582610184565b94506101f5836102c2565b60209a909a01999250506001016101d1565b5091979650505050505050565b600061021f826102c8565b61022981856102cc565b93506102398185602086016102e9565b61024281610319565b9093019392505050565b80516060808452600091908401906102648282610214565b91505060208301516102796020860182610294565b50604083015161028c6040860182610197565b509392505050565b6101a0816102e6565b6020808252810161019081846101a6565b602081016102bc8284610294565b92915050565b60200190565b5190565b90815260200190565b60006001600160a01b0382166102bc565b90565b60005b838110156103045781810151838201526020016102ec565b83811115610313576000848401525b50505050565b601f01601f19169056fea365627a7a72315820a2987b62910dcb36d7288ffec208fd7b40e33460975b9f4c33185922e545f18e6c6578706572696d656e74616cf564736f6c63430005100040",
    "sourcePath": "/home/secondport/Documents/SmartContracts/Trabajo-Final/Aseguradora.sol",
    "compiler": {
        "name": "solc",
        "version": "0.5.16+commit.9c3226ce"
    },
    "functionHashes": {
        "HistorialAseguradoLaboratorio()": "a1c9da55",
        "getBalance()": "12065fe0"
    },
    "gasEstimates": {
        "creation": {
            "codeDepositCost": "174000",
            "executionCost": "infinite",
            "totalCost": "infinite"
        },
        "external": {
            "HistorialAseguradoLaboratorio()": "infinite",
            "getBalance()": "976"
        }
    }
}