{
    "contractName": "Laboratorio",
    "abi": [
        {
            "inputs": [
                {
                    "internalType": "address",
                    "name": "_owner",
                    "type": "address"
                },
                {
                    "internalType": "address",
                    "name": "_direccionContratosAseguradora",
                    "type": "address"
                }
            ],
            "payable": false,
            "stateMutability": "nonpayable",
            "type": "constructor"
        },
        {
            "constant": true,
            "inputs": [],
            "name": "DireccionLab",
            "outputs": [
                {
                    "internalType": "address",
                    "name": "",
                    "type": "address"
                }
            ],
            "payable": false,
            "stateMutability": "view",
            "type": "function"
        },
        {
            "constant": true,
            "inputs": [],
            "name": "getBalance",
            "outputs": [
                {
                    "internalType": "uint256",
                    "name": "ethers",
                    "type": "uint256"
                }
            ],
            "payable": false,
            "stateMutability": "view",
            "type": "function"
        }
    ],
    "bytecode": "608060405234801561001057600080fd5b506040516101df3803806101df83398101604081905261002f91610071565b600080546001600160a01b039384166001600160a01b031991821617909155600180549290931691161790556100d3565b805161006b816100bc565b92915050565b6000806040838503121561008457600080fd5b60006100908585610060565b92505060206100a185828601610060565b9150509250929050565b60006001600160a01b03821661006b565b6100c5816100ab565b81146100d057600080fd5b50565b60fe806100e16000396000f3fe6080604052348015600f57600080fd5b506004361060325760003560e01c806312065fe0146037578063df02634f146051575b600080fd5b603d6062565b60405160489190609c565b60405180910390f35b60576067565b60405160489190608a565b303190565b6000546001600160a01b031681565b607d8160a8565b82525050565b607d8160b8565b60208101609682846076565b92915050565b60208101609682846083565b60006001600160a01b0382166096565b9056fea365627a7a723158204170bb74d6dfcb93d15de0cccc677c491d0593f5a44ec10055a4266f4f54043f6c6578706572696d656e74616cf564736f6c63430005100040",
    "sourcePath": "/home/secondport/Documents/SmartContracts/Trabajo-Final/Aseguradora.sol",
    "compiler": {
        "name": "solc",
        "version": "0.5.16+commit.9c3226ce"
    },
    "functionHashes": {
        "DireccionLab()": "df02634f",
        "getBalance()": "12065fe0"
    },
    "gasEstimates": {
        "creation": {
            "codeDepositCost": "50800",
            "executionCost": "infinite",
            "totalCost": "infinite"
        },
        "external": {
            "DireccionLab()": "infinite",
            "getBalance()": "976"
        }
    }
}