{
    "contractName": "Laboratorio",
    "abi": [
        {
            "inputs": [
                {
                    "internalType": "address",
                    "name": "_owner",
                    "type": "address"
                },
                {
                    "internalType": "address",
                    "name": "_direccionContratosAseguradora",
                    "type": "address"
                }
            ],
            "stateMutability": "nonpayable",
            "type": "constructor"
        },
        {
            "anonymous": false,
            "inputs": [
                {
                    "indexed": false,
                    "internalType": "address",
                    "name": "",
                    "type": "address"
                },
                {
                    "indexed": false,
                    "internalType": "string",
                    "name": "",
                    "type": "string"
                }
            ],
            "name": "EventoDarServicio",
            "type": "event"
        },
        {
            "anonymous": false,
            "inputs": [
                {
                    "indexed": false,
                    "internalType": "string",
                    "name": "",
                    "type": "string"
                },
                {
                    "indexed": false,
                    "internalType": "uint256",
                    "name": "",
                    "type": "uint256"
                }
            ],
            "name": "EventoServicioFuncionando",
            "type": "event"
        },
        {
            "inputs": [
                {
                    "internalType": "string",
                    "name": "_servicio",
                    "type": "string"
                }
            ],
            "name": "ConsultarPrecioServicios",
            "outputs": [
                {
                    "internalType": "uint256",
                    "name": "",
                    "type": "uint256"
                }
            ],
            "stateMutability": "view",
            "type": "function"
        },
        {
            "inputs": [],
            "name": "ConsultarServicios",
            "outputs": [
                {
                    "internalType": "string[]",
                    "name": "",
                    "type": "string[]"
                }
            ],
            "stateMutability": "view",
            "type": "function"
        },
        {
            "inputs": [
                {
                    "internalType": "address",
                    "name": "_direccionAsegurado",
                    "type": "address"
                },
                {
                    "internalType": "string",
                    "name": "_servicio",
                    "type": "string"
                }
            ],
            "name": "DarServicio",
            "outputs": [],
            "stateMutability": "nonpayable",
            "type": "function"
        },
        {
            "inputs": [],
            "name": "DireccionLab",
            "outputs": [
                {
                    "internalType": "address",
                    "name": "",
                    "type": "address"
                }
            ],
            "stateMutability": "view",
            "type": "function"
        },
        {
            "inputs": [
                {
                    "internalType": "string",
                    "name": "_servicio",
                    "type": "string"
                },
                {
                    "internalType": "uint256",
                    "name": "_precio",
                    "type": "uint256"
                }
            ],
            "name": "NuevoServicioLab",
            "outputs": [],
            "stateMutability": "nonpayable",
            "type": "function"
        },
        {
            "inputs": [
                {
                    "internalType": "uint256",
                    "name": "",
                    "type": "uint256"
                }
            ],
            "name": "PetecionesServicios",
            "outputs": [
                {
                    "internalType": "address",
                    "name": "",
                    "type": "address"
                }
            ],
            "stateMutability": "view",
            "type": "function"
        },
        {
            "inputs": [
                {
                    "internalType": "address",
                    "name": "",
                    "type": "address"
                }
            ],
            "name": "ServicioSolicitado",
            "outputs": [
                {
                    "internalType": "string",
                    "name": "",
                    "type": "string"
                }
            ],
            "stateMutability": "view",
            "type": "function"
        },
        {
            "inputs": [],
            "name": "getBalance",
            "outputs": [
                {
                    "internalType": "uint256",
                    "name": "ethers",
                    "type": "uint256"
                }
            ],
            "stateMutability": "view",
            "type": "function"
        },
        {
            "inputs": [
                {
                    "internalType": "string",
                    "name": "",
                    "type": "string"
                }
            ],
            "name": "serviciosLab",
            "outputs": [
                {
                    "internalType": "string",
                    "name": "nombreServicio",
                    "type": "string"
                },
                {
                    "internalType": "uint256",
                    "name": "precioServicio",
                    "type": "uint256"
                },
                {
                    "internalType": "bool",
                    "name": "enFuncionamiento",
                    "type": "bool"
                }
            ],
            "stateMutability": "view",
            "type": "function"
        }
    ],
    "bytecode": "608060405234801561001057600080fd5b50604051610ba6380380610ba683398101604081905261002f91610060565b600080546001600160a01b039384166001600160a01b031991821617909155600180549290931691161790556100b1565b60008060408385031215610072578182fd5b825161007d81610099565b602084015190925061008e81610099565b809150509250929050565b6001600160a01b03811681146100ae57600080fd5b50565b610ae6806100c06000396000f3fe608060405234801561001057600080fd5b50600436106100935760003560e01c806361976a081161006657806361976a081461010d578063a832698614610120578063bb6a953414610135578063dda475f914610148578063df02634f1461016857610093565b806312065fe01461009857806320ef9445146100b65780633d404459146100cb578063469ccf59146100eb575b600080fd5b6100a0610170565b6040516100ad9190610a77565b60405180910390f35b6100be610175565b6040516100ad9190610932565b6100de6100d9366004610795565b61024d565b6040516100ad9190610992565b6100fe6100f936600461081c565b6102e6565b6040516100ad939291906109c7565b6100a061011b36600461081c565b6103a3565b61013361012e366004610857565b6103ce565b005b6101336101433660046107c3565b6104fe565b61015b61015636600461089a565b61064e565b6040516100ad91906108fa565b61015b610675565b303190565b60606005805480602002602001604051908101604052809291908181526020016000905b828210156102445760008481526020908190208301805460408051601f60026000196101006001871615020190941693909304928301859004850281018501909152818152928301828280156102305780601f1061020557610100808354040283529160200191610230565b820191906000526020600020905b81548152906001019060200180831161021357829003601f168201915b505050505081526020019060010190610199565b50505050905090565b600260208181526000928352604092839020805484516001821615610100026000190190911693909304601f81018390048302840183019094528383529192908301828280156102de5780601f106102b3576101008083540402835291602001916102de565b820191906000526020600020905b8154815290600101906020018083116102c157829003601f168201915b505050505081565b805160208183018101805160048252928201938201939093209190925280546040805160026001841615610100026000190190931692909204601f81018590048502830185019091528082529192909183918301828280156103895780601f1061035e57610100808354040283529160200191610389565b820191906000526020600020905b81548152906001019060200180831161036c57829003601f168201915b50505050600183015460029093015491929160ff16905083565b60006004826040516103b591906108de565b9081526020016040518091039020600101549050919050565b60005433906001600160a01b031681146104035760405162461bcd60e51b81526004016103fa90610a28565b60405180910390fd5b6040805160608101825284815260208101849052600181830152905160049061042d9086906108de565b90815260200160405180910390206000820151816000019080519060200190610457929190610684565b506020828101516001838101919091556040909301516002909201805460ff19169215159290921790915560058054928301815560005284516104bf927f036b6384b5eca791c62761152d0c79bb0604c104a5fb6f4eb0703f3154bb3db00191860190610684565b507f0242fc9a7ab429e889a4e6bafa795ac5805f23389c59f25e4e9a5577b40f114583836040516104f19291906109a5565b60405180910390a1505050565b600154604051634309076760e11b81526001600160a01b039091169081906386120ece906105309086906004016108fa565b60006040518083038186803b15801561054857600080fd5b505afa15801561055c573d6000803e3d6000fd5b5050505060048260405161057091906108de565b9081526040519081900360200190206002015460ff1615156001146105a75760405162461bcd60e51b81526004016103fa906109f1565b6001600160a01b038316600090815260026020908152604090912083516105d092850190610684565b50600680546001810182556000919091527ff652222313e28459528d920b65115c16c04f3efc82aaedc97be59f3f377c0d3f0180546001600160a01b0319166001600160a01b0385161790556040517ffe7476dd412166b4675c0d5ec4ae79d357c139292d44a9377cd94ac81d3faa1a906104f1908590859061090e565b6006818154811061065b57fe5b6000918252602090912001546001600160a01b0316905081565b6000546001600160a01b031681565b828054600181600116156101000203166002900490600052602060002090601f016020900481019282601f106106c557805160ff19168380011785556106f2565b828001600101855582156106f2579182015b828111156106f25782518255916020019190600101906106d7565b506106fe929150610702565b5090565b5b808211156106fe5760008155600101610703565b600082601f830112610727578081fd5b813567ffffffffffffffff8082111561073e578283fd5b604051601f8301601f19168101602001828111828210171561075e578485fd5b60405282815292508284830160200186101561077957600080fd5b8260208601602083013760006020848301015250505092915050565b6000602082840312156107a6578081fd5b81356001600160a01b03811681146107bc578182fd5b9392505050565b600080604083850312156107d5578081fd5b82356001600160a01b03811681146107eb578182fd5b9150602083013567ffffffffffffffff811115610806578182fd5b61081285828601610717565b9150509250929050565b60006020828403121561082d578081fd5b813567ffffffffffffffff811115610843578182fd5b61084f84828501610717565b949350505050565b60008060408385031215610869578182fd5b823567ffffffffffffffff81111561087f578283fd5b61088b85828601610717565b95602094909401359450505050565b6000602082840312156108ab578081fd5b5035919050565b600081518084526108ca816020860160208601610a80565b601f01601f19169290920160200192915050565b600082516108f0818460208701610a80565b9190910192915050565b6001600160a01b0391909116815260200190565b6001600160a01b038316815260406020820181905260009061084f908301846108b2565b6000602080830181845280855180835260408601915060408482028701019250838701855b8281101561098557603f198886030184526109738583516108b2565b94509285019290850190600101610957565b5092979650505050505050565b6000602082526107bc60208301846108b2565b6000604082526109b860408301856108b2565b90508260208301529392505050565b6000606082526109da60608301866108b2565b602083019490945250901515604090910152919050565b6020808252601a908201527f456c20736572766963696f206e6f20657374612061637469766f000000000000604082015260600190565b6020808252602f908201527f4e6f2065737461206175746f72697a61646f2070617261207265616c697a617260408201526e1032b9ba309037b832b930b1b4b7b760891b606082015260800190565b90815260200190565b60005b83811015610a9b578181015183820152602001610a83565b83811115610aaa576000848401525b5050505056fea264697066735822122011e59519a9056f7dd19274ff3dc53203c4c7142e97facaac792e97d9f0d8f95264736f6c634300060c0033",
    "sourcePath": "/home/secondport/Documents/SmartContracts/Trabajo-Final/Aseguradora.sol",
    "compiler": {
        "name": "solc",
        "version": "0.6.12+commit.27d51765"
    },
    "functionHashes": {
        "ConsultarPrecioServicios(string)": "61976a08",
        "ConsultarServicios()": "20ef9445",
        "DarServicio(address,string)": "bb6a9534",
        "DireccionLab()": "df02634f",
        "NuevoServicioLab(string,uint256)": "a8326986",
        "PetecionesServicios(uint256)": "dda475f9",
        "ServicioSolicitado(address)": "3d404459",
        "getBalance()": "12065fe0",
        "serviciosLab(string)": "469ccf59"
    },
    "gasEstimates": {
        "creation": {
            "codeDepositCost": "558000",
            "executionCost": "infinite",
            "totalCost": "infinite"
        },
        "external": {
            "ConsultarPrecioServicios(string)": "infinite",
            "ConsultarServicios()": "infinite",
            "DarServicio(address,string)": "infinite",
            "DireccionLab()": "1158",
            "NuevoServicioLab(string,uint256)": "infinite",
            "PetecionesServicios(uint256)": "2104",
            "ServicioSolicitado(address)": "infinite",
            "getBalance()": "928",
            "serviciosLab(string)": "infinite"
        }
    }
}