{
    "contractName": "Laboratorio",
    "abi": [
        {
            "inputs": [
                {
                    "internalType": "address",
                    "name": "_owner",
                    "type": "address"
                },
                {
                    "internalType": "address",
                    "name": "_direccionContratosAseguradora",
                    "type": "address"
                }
            ],
            "stateMutability": "nonpayable",
            "type": "constructor"
        },
        {
            "inputs": [
                {
                    "internalType": "string",
                    "name": "_servicio",
                    "type": "string"
                }
            ],
            "name": "ConsultarPrecioServicios",
            "outputs": [
                {
                    "internalType": "uint256",
                    "name": "",
                    "type": "uint256"
                }
            ],
            "stateMutability": "view",
            "type": "function"
        },
        {
            "inputs": [
                {
                    "internalType": "address",
                    "name": "_direccionAsegurado",
                    "type": "address"
                },
                {
                    "internalType": "string",
                    "name": "_servicio",
                    "type": "string"
                }
            ],
            "name": "DarServicio",
            "outputs": [],
            "stateMutability": "nonpayable",
            "type": "function"
        },
        {
            "inputs": [],
            "name": "DireccionLab",
            "outputs": [
                {
                    "internalType": "address",
                    "name": "",
                    "type": "address"
                }
            ],
            "stateMutability": "view",
            "type": "function"
        },
        {
            "inputs": [],
            "name": "getBalance",
            "outputs": [
                {
                    "internalType": "uint256",
                    "name": "ethers",
                    "type": "uint256"
                }
            ],
            "stateMutability": "view",
            "type": "function"
        }
    ],
    "bytecode": "608060405234801561001057600080fd5b506040516102ef3803806102ef83398101604081905261002f91610060565b600080546001600160a01b039384166001600160a01b031991821617909155600180549290931691161790556100b1565b60008060408385031215610072578182fd5b825161007d81610099565b602084015190925061008e81610099565b809150509250929050565b6001600160a01b03811681146100ae57600080fd5b50565b61022f806100c06000396000f3fe608060405234801561001057600080fd5b506004361061004c5760003560e01c806312065fe01461005157806361976a081461006f578063bb6a953414610082578063df02634f14610097575b600080fd5b6100596100ac565b60405161006691906101f0565b60405180910390f35b61005961007d3660046101a1565b6100b1565b610095610090366004610148565b6100b7565b005b61009f6100bb565b60405161006691906101dc565b303190565b50600090565b5050565b6000546001600160a01b031681565b600082601f8301126100da578081fd5b813567ffffffffffffffff808211156100f1578283fd5b604051601f8301601f191681016020018281118282101715610111578485fd5b60405282815292508284830160200186101561012c57600080fd5b8260208601602083013760006020848301015250505092915050565b6000806040838503121561015a578182fd5b82356001600160a01b0381168114610170578283fd5b9150602083013567ffffffffffffffff81111561018b578182fd5b610197858286016100ca565b9150509250929050565b6000602082840312156101b2578081fd5b813567ffffffffffffffff8111156101c8578182fd5b6101d4848285016100ca565b949350505050565b6001600160a01b0391909116815260200190565b9081526020019056fea26469706673582212209c4d74a229b843d70b747010d40ba0e07c68c505c32ab10e9076b3f5070c2bf564736f6c634300060c0033",
    "sourcePath": "/home/secondport/Documents/SmartContracts/Trabajo-Final/Aseguradora.sol",
    "compiler": {
        "name": "solc",
        "version": "0.6.12+commit.27d51765"
    },
    "functionHashes": {
        "ConsultarPrecioServicios(string)": "61976a08",
        "DarServicio(address,string)": "bb6a9534",
        "DireccionLab()": "df02634f",
        "getBalance()": "12065fe0"
    },
    "gasEstimates": {
        "creation": {
            "codeDepositCost": "111800",
            "executionCost": "infinite",
            "totalCost": "infinite"
        },
        "external": {
            "ConsultarPrecioServicios(string)": "infinite",
            "DarServicio(address,string)": "infinite",
            "DireccionLab()": "1114",
            "getBalance()": "905"
        }
    }
}