{
    "contractName": "Laboratorio",
    "abi": [
        {
            "inputs": [
                {
                    "internalType": "address",
                    "name": "_account",
                    "type": "address"
                },
                {
                    "internalType": "address",
                    "name": "_direccionContratoAseguradora",
                    "type": "address"
                }
            ],
            "stateMutability": "nonpayable",
            "type": "constructor"
        },
        {
            "anonymous": false,
            "inputs": [
                {
                    "indexed": false,
                    "internalType": "address",
                    "name": "",
                    "type": "address"
                },
                {
                    "indexed": false,
                    "internalType": "string",
                    "name": "",
                    "type": "string"
                }
            ],
            "name": "Evento_DarServicio",
            "type": "event"
        },
        {
            "anonymous": false,
            "inputs": [
                {
                    "indexed": false,
                    "internalType": "string",
                    "name": "",
                    "type": "string"
                },
                {
                    "indexed": false,
                    "internalType": "uint256",
                    "name": "",
                    "type": "uint256"
                }
            ],
            "name": "Evento_ServicioFuncionando",
            "type": "event"
        },
        {
            "inputs": [
                {
                    "internalType": "string",
                    "name": "_nombreServicio",
                    "type": "string"
                }
            ],
            "name": "ConsultarPrecioServicios",
            "outputs": [
                {
                    "internalType": "uint256",
                    "name": "",
                    "type": "uint256"
                }
            ],
            "stateMutability": "view",
            "type": "function"
        },
        {
            "inputs": [],
            "name": "ConsultarServicios",
            "outputs": [
                {
                    "internalType": "string[]",
                    "name": "",
                    "type": "string[]"
                }
            ],
            "stateMutability": "view",
            "type": "function"
        },
        {
            "inputs": [
                {
                    "internalType": "address",
                    "name": "_direccionAsegurado",
                    "type": "address"
                },
                {
                    "internalType": "string",
                    "name": "_diagnostico",
                    "type": "string"
                },
                {
                    "internalType": "string",
                    "name": "_codigoIPFS",
                    "type": "string"
                }
            ],
            "name": "DarResultados",
            "outputs": [],
            "stateMutability": "nonpayable",
            "type": "function"
        },
        {
            "inputs": [
                {
                    "internalType": "address",
                    "name": "_direccionAsegurado",
                    "type": "address"
                },
                {
                    "internalType": "string",
                    "name": "_servicio",
                    "type": "string"
                }
            ],
            "name": "DarServicio",
            "outputs": [],
            "stateMutability": "nonpayable",
            "type": "function"
        },
        {
            "inputs": [],
            "name": "DireccionLab",
            "outputs": [
                {
                    "internalType": "address",
                    "name": "",
                    "type": "address"
                }
            ],
            "stateMutability": "view",
            "type": "function"
        },
        {
            "inputs": [
                {
                    "internalType": "string",
                    "name": "_servicio",
                    "type": "string"
                },
                {
                    "internalType": "uint256",
                    "name": "_precio",
                    "type": "uint256"
                }
            ],
            "name": "NuevoServicioLab",
            "outputs": [],
            "stateMutability": "nonpayable",
            "type": "function"
        },
        {
            "inputs": [
                {
                    "internalType": "uint256",
                    "name": "",
                    "type": "uint256"
                }
            ],
            "name": "PeticionesServicios",
            "outputs": [
                {
                    "internalType": "address",
                    "name": "",
                    "type": "address"
                }
            ],
            "stateMutability": "view",
            "type": "function"
        },
        {
            "inputs": [
                {
                    "internalType": "address",
                    "name": "",
                    "type": "address"
                }
            ],
            "name": "ServicioSolicitado",
            "outputs": [
                {
                    "internalType": "string",
                    "name": "",
                    "type": "string"
                }
            ],
            "stateMutability": "view",
            "type": "function"
        },
        {
            "inputs": [
                {
                    "internalType": "address",
                    "name": "_direccionAsegurado",
                    "type": "address"
                }
            ],
            "name": "VisualizarResultados",
            "outputs": [
                {
                    "internalType": "string",
                    "name": "_diagnostico",
                    "type": "string"
                },
                {
                    "internalType": "string",
                    "name": "_codigoIPFS",
                    "type": "string"
                }
            ],
            "stateMutability": "view",
            "type": "function"
        },
        {
            "inputs": [],
            "name": "getBalance",
            "outputs": [
                {
                    "internalType": "uint256",
                    "name": "ethers",
                    "type": "uint256"
                }
            ],
            "stateMutability": "view",
            "type": "function"
        },
        {
            "inputs": [
                {
                    "internalType": "string",
                    "name": "",
                    "type": "string"
                }
            ],
            "name": "serviciosLab",
            "outputs": [
                {
                    "internalType": "string",
                    "name": "nombreServicio",
                    "type": "string"
                },
                {
                    "internalType": "uint256",
                    "name": "precio",
                    "type": "uint256"
                },
                {
                    "internalType": "bool",
                    "name": "enFuncionamiento",
                    "type": "bool"
                }
            ],
            "stateMutability": "view",
            "type": "function"
        }
    ],
    "bytecode": "608060405234801561001057600080fd5b50604051610ea0380380610ea083398101604081905261002f91610060565b600080546001600160a01b039384166001600160a01b031991821617909155600180549290931691161790556100b1565b60008060408385031215610072578182fd5b825161007d81610099565b602084015190925061008e81610099565b809150509250929050565b6001600160a01b03811681146100ae57600080fd5b50565b610de0806100c06000396000f3fe608060405234801561001057600080fd5b50600436106100a95760003560e01c806361976a081161007157806361976a0814610143578063964f63e114610156578063a832698614610177578063b0659cbf1461018c578063bb6a95341461019f578063df02634f146101b2576100a9565b806312065fe0146100ae57806320ef9445146100cc5780632d7462af146100e15780633d40445914610101578063469ccf5914610121575b600080fd5b6100b66101ba565b6040516100c39190610d71565b60405180910390f35b6100d46101bf565b6040516100c39190610bfe565b6100f46100ef366004610b66565b610297565b6040516100c39190610bc6565b61011461010f3660046109fb565b6102be565b6040516100c39190610c5e565b61013461012f366004610ae8565b610357565b6040516100c393929190610cc1565b6100b6610151366004610ae8565b610414565b6101696101643660046109fb565b61043f565b6040516100c3929190610c71565b61018a610185366004610b23565b6105b0565b005b61018a61019a366004610a76565b6106e0565b61018a6101ad366004610a1d565b61076e565b6100f46108be565b303190565b60606005805480602002602001604051908101604052809291908181526020016000905b8282101561028e5760008481526020908190208301805460408051601f600260001961010060018716150201909416939093049283018590048502810185019091528181529283018282801561027a5780601f1061024f5761010080835404028352916020019161027a565b820191906000526020600020905b81548152906001019060200180831161025d57829003601f168201915b5050505050815260200190600101906101e3565b50505050905090565b600381815481106102a457fe5b6000918252602090912001546001600160a01b0316905081565b600260208181526000928352604092839020805484516001821615610100026000190190911693909304601f810183900483028401830190945283835291929083018282801561034f5780601f106103245761010080835404028352916020019161034f565b820191906000526020600020905b81548152906001019060200180831161033257829003601f168201915b505050505081565b805160208183018101805160068252928201938201939093209190925280546040805160026001841615610100026000190190931692909204601f81018590048502830185019091528082529192909183918301828280156103fa5780601f106103cf576101008083540402835291602001916103fa565b820191906000526020600020905b8154815290600101906020018083116103dd57829003601f168201915b50505050600183015460029093015491929160ff16905083565b60006006826040516104269190610baa565b9081526020016040518091039020600101549050919050565b6001600160a01b0381166000908152600460209081526040918290208054835160026001831615610100026000190190921691909104601f810184900484028201840190945283815260609384939192918301828280156104e15780601f106104b6576101008083540402835291602001916104e1565b820191906000526020600020905b8154815290600101906020018083116104c457829003601f168201915b5050505050915060046000846001600160a01b03166001600160a01b031681526020019081526020016000206001018054600181600116156101000203166002900480601f0160208091040260200160405190810160405280929190818152602001828054600181600116156101000203166002900480156105a45780601f10610579576101008083540402835291602001916105a4565b820191906000526020600020905b81548152906001019060200180831161058757829003601f168201915b50505050509050915091565b60005433906001600160a01b031681146105e55760405162461bcd60e51b81526004016105dc90610ceb565b60405180910390fd5b6040805160608101825284815260208101849052600181830152905160069061060f908690610baa565b908152602001604051809103902060008201518160000190805190602001906106399291906108cd565b506020828101516001838101919091556040909301516002909201805460ff19169215159290921790915560058054928301815560005284516106a1927f036b6384b5eca791c62761152d0c79bb0604c104a5fb6f4eb0703f3154bb3db001918601906108cd565b507f70a3645123ea7e4aa22d96020d2e5d08090e6daf4cdc71859ebad132a0318a3d83836040516106d3929190610c9f565b60405180910390a1505050565b60005433906001600160a01b0316811461070c5760405162461bcd60e51b81526004016105dc90610ceb565b60408051808201825284815260208082018590526001600160a01b03871660009081526004825292909220815180519293919261074c92849201906108cd565b50602082810151805161076592600185019201906108cd565b50505050505050565b600154604051630157f73f60e71b81526001600160a01b0390911690819063abfb9f80906107a0908690600401610bc6565b60006040518083038186803b1580156107b857600080fd5b505afa1580156107cc573d6000803e3d6000fd5b505050506006826040516107e09190610baa565b9081526040519081900360200190206002015460ff1615156001146108175760405162461bcd60e51b81526004016105dc90610d3a565b6001600160a01b03831660009081526002602090815260409091208351610840928501906108cd565b50600380546001810182556000919091527fc2575a0e9e593c00f959f8c92f12db2869c3395a3b0502d05e2516446f71f85b0180546001600160a01b0319166001600160a01b0385161790556040517fc0d216d002035bc7701a43172599da8ba742d356aee21415979f77e094cf1e35906106d39085908590610bda565b6000546001600160a01b031681565b828054600181600116156101000203166002900490600052602060002090601f016020900481019282601f1061090e57805160ff191683800117855561093b565b8280016001018555821561093b579182015b8281111561093b578251825591602001919060010190610920565b5061094792915061094b565b5090565b5b80821115610947576000815560010161094c565b80356001600160a01b038116811461097757600080fd5b92915050565b600082601f83011261098d578081fd5b813567ffffffffffffffff808211156109a4578283fd5b604051601f8301601f1916810160200182811182821017156109c4578485fd5b6040528281529250828483016020018610156109df57600080fd5b8260208601602083013760006020848301015250505092915050565b600060208284031215610a0c578081fd5b610a168383610960565b9392505050565b60008060408385031215610a2f578081fd5b82356001600160a01b0381168114610a45578182fd5b9150602083013567ffffffffffffffff811115610a60578182fd5b610a6c8582860161097d565b9150509250929050565b600080600060608486031215610a8a578081fd5b610a948585610960565b9250602084013567ffffffffffffffff80821115610ab0578283fd5b610abc8783880161097d565b93506040860135915080821115610ad1578283fd5b50610ade8682870161097d565b9150509250925092565b600060208284031215610af9578081fd5b813567ffffffffffffffff811115610b0f578182fd5b610b1b8482850161097d565b949350505050565b60008060408385031215610b35578182fd5b823567ffffffffffffffff811115610b4b578283fd5b610b578582860161097d565b95602094909401359450505050565b600060208284031215610b77578081fd5b5035919050565b60008151808452610b96816020860160208601610d7a565b601f01601f19169290920160200192915050565b60008251610bbc818460208701610d7a565b9190910192915050565b6001600160a01b0391909116815260200190565b6001600160a01b0383168152604060208201819052600090610b1b90830184610b7e565b6000602080830181845280855180835260408601915060408482028701019250838701855b82811015610c5157603f19888603018452610c3f858351610b7e565b94509285019290850190600101610c23565b5092979650505050505050565b600060208252610a166020830184610b7e565b600060408252610c846040830185610b7e565b8281036020840152610c968185610b7e565b95945050505050565b600060408252610cb26040830185610b7e565b90508260208301529392505050565b600060608252610cd46060830186610b7e565b602083019490945250901515604090910152919050565b6020808252602f908201527f4e6f206578697374656e207065726d69736f73207061726120656a656375746160408201526e391032b9ba3090333ab731b4b7b71760891b606082015260800190565b6020808252601a908201527f456c20736572766963696f206e6f20657374612061637469766f000000000000604082015260600190565b90815260200190565b60005b83811015610d95578181015183820152602001610d7d565b83811115610da4576000848401525b5050505056fea2646970667358221220ac95514053f9d2ccdf36bba331309f52551c69b43af8172bd5c3ce1d3d4a125264736f6c634300060c0033",
    "sourcePath": "/home/secondport/Documents/SmartContracts/Trabajo-Final/Aseguradora.sol",
    "compiler": {
        "name": "solc",
        "version": "0.6.12+commit.27d51765"
    },
    "functionHashes": {
        "ConsultarPrecioServicios(string)": "61976a08",
        "ConsultarServicios()": "20ef9445",
        "DarResultados(address,string,string)": "b0659cbf",
        "DarServicio(address,string)": "bb6a9534",
        "DireccionLab()": "df02634f",
        "NuevoServicioLab(string,uint256)": "a8326986",
        "PeticionesServicios(uint256)": "2d7462af",
        "ServicioSolicitado(address)": "3d404459",
        "VisualizarResultados(address)": "964f63e1",
        "getBalance()": "12065fe0",
        "serviciosLab(string)": "469ccf59"
    },
    "gasEstimates": {
        "creation": {
            "codeDepositCost": "710400",
            "executionCost": "infinite",
            "totalCost": "infinite"
        },
        "external": {
            "ConsultarPrecioServicios(string)": "infinite",
            "ConsultarServicios()": "infinite",
            "DarResultados(address,string,string)": "infinite",
            "DarServicio(address,string)": "infinite",
            "DireccionLab()": "1180",
            "NuevoServicioLab(string,uint256)": "infinite",
            "PeticionesServicios(uint256)": "2083",
            "ServicioSolicitado(address)": "infinite",
            "VisualizarResultados(address)": "infinite",
            "getBalance()": "928",
            "serviciosLab(string)": "infinite"
        }
    }
}