{
    "contractName": "Cliente",
    "abi": [
        {
            "inputs": [
                {
                    "internalType": "string",
                    "name": "_nombre",
                    "type": "string"
                }
            ],
            "name": "AltaCliente",
            "outputs": [],
            "stateMutability": "nonpayable",
            "type": "function"
        },
        {
            "inputs": [
                {
                    "internalType": "string",
                    "name": "_nombre",
                    "type": "string"
                }
            ],
            "name": "ConsultarSaldo",
            "outputs": [
                {
                    "internalType": "uint256",
                    "name": "",
                    "type": "uint256"
                }
            ],
            "stateMutability": "view",
            "type": "function"
        },
        {
            "inputs": [
                {
                    "internalType": "string",
                    "name": "_nombre",
                    "type": "string"
                },
                {
                    "internalType": "uint256",
                    "name": "_cant",
                    "type": "uint256"
                }
            ],
            "name": "Ingresar",
            "outputs": [],
            "stateMutability": "nonpayable",
            "type": "function"
        },
        {
            "inputs": [
                {
                    "internalType": "string",
                    "name": "_nombre",
                    "type": "string"
                },
                {
                    "internalType": "uint256",
                    "name": "_cant",
                    "type": "uint256"
                }
            ],
            "name": "Retirar",
            "outputs": [
                {
                    "internalType": "bool",
                    "name": "",
                    "type": "bool"
                }
            ],
            "stateMutability": "nonpayable",
            "type": "function"
        }
    ],
    "bytecode": "608060405234801561001057600080fd5b506104f7806100206000396000f3fe608060405234801561001057600080fd5b506004361061004c5760003560e01c8063385fd2451461005157806346cf529b14610066578063cb2a0b991461008e578063e25222b6146100a1575b600080fd5b61006461005f366004610385565b6100c2565b005b6100796100743660046103c2565b6100ce565b60405190151581526020015b60405180910390f35b61006461009c3660046103c2565b610150565b6100b46100af366004610385565b61018a565b604051908152602001610085565b6100cb816101b4565b50565b600080600190506000836000866040516100e89190610407565b9081526020016040518091039020600201546101049190610458565b10610145578260008560405161011a9190610407565b9081526020016040518091039020600201600082825461013a9190610458565b909155506101499050565b5060005b9392505050565b806000836040516101619190610407565b90815260200160405180910390206002016000828254610181919061046f565b90915550505050565b6000808260405161019b9190610407565b9081526020016040518091039020600201549050919050565b6040518060600160405280828152602001336001600160a01b0316815260200160008152506000826040516101e99190610407565b90815260200160405180910390206000820151816000019080519060200190610213929190610249565b5060208201516001820180546001600160a01b0319166001600160a01b0390921691909117905560409091015160029091015550565b82805461025590610487565b90600052602060002090601f01602090048101928261027757600085556102bd565b82601f1061029057805160ff19168380011785556102bd565b828001600101855582156102bd579182015b828111156102bd5782518255916020019190600101906102a2565b506102c99291506102cd565b5090565b5b808211156102c957600081556001016102ce565b634e487b7160e01b600052604160045260246000fd5b600082601f83011261030957600080fd5b813567ffffffffffffffff80821115610324576103246102e2565b604051601f8301601f19908116603f0116810190828211818310171561034c5761034c6102e2565b8160405283815286602085880101111561036557600080fd5b836020870160208301376000602085830101528094505050505092915050565b60006020828403121561039757600080fd5b813567ffffffffffffffff8111156103ae57600080fd5b6103ba848285016102f8565b949350505050565b600080604083850312156103d557600080fd5b823567ffffffffffffffff8111156103ec57600080fd5b6103f8858286016102f8565b95602094909401359450505050565b6000825160005b81811015610428576020818601810151858301520161040e565b81811115610437576000828501525b509190910192915050565b634e487b7160e01b600052601160045260246000fd5b60008282101561046a5761046a610442565b500390565b6000821982111561048257610482610442565b500190565b600181811c9082168061049b57607f821691505b6020821081036104bb57634e487b7160e01b600052602260045260246000fd5b5091905056fea26469706673582212204889944b5e6e77d9812a686191d9426e476fae7ac4336984605c96aba4458b8a64736f6c634300080d0033",
    "sourcePath": "/home/secondport/Documents/SmartContracts/Interactuar-Con-Varios-SmartContract/herencia.sol",
    "compiler": {
        "name": "solc",
        "version": "0.8.13+commit.abaa5c0e"
    },
    "functionHashes": {
        "AltaCliente(string)": "385fd245",
        "ConsultarSaldo(string)": "e25222b6",
        "Ingresar(string,uint256)": "cb2a0b99",
        "Retirar(string,uint256)": "46cf529b"
    },
    "gasEstimates": {
        "creation": {
            "codeDepositCost": "254200",
            "executionCost": "294",
            "totalCost": "254494"
        },
        "external": {
            "AltaCliente(string)": "infinite",
            "ConsultarSaldo(string)": "infinite",
            "Ingresar(string,uint256)": "infinite",
            "Retirar(string,uint256)": "infinite"
        }
    }
}