{
    "contractName": "Operaciones",
    "abi": [
        {
            "inputs": [
                {
                    "internalType": "uint256",
                    "name": "_i",
                    "type": "uint256"
                },
                {
                    "internalType": "uint256",
                    "name": "_j",
                    "type": "uint256"
                }
            ],
            "name": "division",
            "outputs": [
                {
                    "internalType": "uint256",
                    "name": "",
                    "type": "uint256"
                }
            ],
            "stateMutability": "pure",
            "type": "function"
        },
        {
            "inputs": [
                {
                    "internalType": "uint256",
                    "name": "_i",
                    "type": "uint256"
                },
                {
                    "internalType": "uint256",
                    "name": "_j",
                    "type": "uint256"
                }
            ],
            "name": "multiplicacion",
            "outputs": [
                {
                    "internalType": "uint256",
                    "name": "",
                    "type": "uint256"
                }
            ],
            "stateMutability": "pure",
            "type": "function"
        }
    ],
    "bytecode": "6101b061003a600b82828239805160001a60731461002d57634e487b7160e01b600052600060045260246000fd5b30600052607381538281f3fe73000000000000000000000000000000000000000030146080604052600436106100405760003560e01c8063d17fb9ea14610045578063e00680521461006a575b600080fd5b610058610053366004610109565b61007d565b60405190815260200160405180910390f35b610058610078366004610109565b6100aa565b600082158061008a575081155b15610097575060006100a4565b6100a1828461012b565b90505b92915050565b60008082116100ff5760405162461bcd60e51b815260206004820152601860248201527f4572726f723a204469766973696f6e20706f72206365726f0000000000000000604482015260640160405180910390fd5b6100a18284610158565b6000806040838503121561011c57600080fd5b50508035926020909101359150565b600081600019048311821515161561015357634e487b7160e01b600052601160045260246000fd5b500290565b60008261017557634e487b7160e01b600052601260045260246000fd5b50049056fea26469706673582212207a329eeb02dbc0243be55b900b774ea86a36a9dea8535c31e6a06bbecb01daf464736f6c634300080d0033",
    "sourcePath": "/home/secondport/Documents/SmartContracts/Interactuar-Con-Varios-SmartContract/librerias.sol",
    "compiler": {
        "name": "solc",
        "version": "0.8.13+commit.abaa5c0e"
    },
    "functionHashes": {
        "division(uint256,uint256)": "e0068052",
        "multiplicacion(uint256,uint256)": "d17fb9ea"
    },
    "gasEstimates": {
        "creation": {
            "codeDepositCost": "86400",
            "executionCost": "166",
            "totalCost": "86566"
        },
        "external": {
            "division(uint256,uint256)": "375",
            "multiplicacion(uint256,uint256)": "410"
        }
    }
}