{
    "contractName": "votacion",
    "abi": [
        {
            "inputs": [],
            "stateMutability": "nonpayable",
            "type": "constructor"
        },
        {
            "inputs": [
                {
                    "internalType": "string",
                    "name": "_nombre",
                    "type": "string"
                },
                {
                    "internalType": "uint256",
                    "name": "_edad",
                    "type": "uint256"
                },
                {
                    "internalType": "string",
                    "name": "_id",
                    "type": "string"
                }
            ],
            "name": "NuevoCandidato",
            "outputs": [],
            "stateMutability": "nonpayable",
            "type": "function"
        },
        {
            "inputs": [],
            "name": "owner",
            "outputs": [
                {
                    "internalType": "address",
                    "name": "",
                    "type": "address"
                }
            ],
            "stateMutability": "view",
            "type": "function"
        }
    ],
    "bytecode": "608060405234801561001057600080fd5b50600080546001600160a01b031916331790556103aa806100326000396000f3fe608060405234801561001057600080fd5b50600436106100365760003560e01c8063133179751461003b5780638da5cb5b14610050575b600080fd5b61004e610049366004610259565b61007f565b005b600054610063906001600160a01b031681565b6040516001600160a01b03909116815260200160405180910390f35b600083838360405160200161009693929190610301565b604051602081830303815290604052805190602001209050806001856040516100bf9190610327565b9081526040516020918190038201902091909155600380546001810182556000919091528551610116927fc2575a0e9e593c00f959f8c92f12db2869c3395a3b0502d05e2516446f71f85b9092019187019061011d565b5050505050565b8280546101299061033a565b90600052602060002090601f01602090048101928261014b5760008555610191565b82601f1061016457805160ff1916838001178555610191565b82800160010185558215610191579182015b82811115610191578251825591602001919060010190610176565b5061019d9291506101a1565b5090565b5b8082111561019d57600081556001016101a2565b634e487b7160e01b600052604160045260246000fd5b600082601f8301126101dd57600080fd5b813567ffffffffffffffff808211156101f8576101f86101b6565b604051601f8301601f19908116603f01168101908282118183101715610220576102206101b6565b8160405283815286602085880101111561023957600080fd5b836020870160208301376000602085830101528094505050505092915050565b60008060006060848603121561026e57600080fd5b833567ffffffffffffffff8082111561028657600080fd5b610292878388016101cc565b94506020860135935060408601359150808211156102af57600080fd5b506102bc868287016101cc565b9150509250925092565b6000815160005b818110156102e757602081850181015186830152016102cd565b818111156102f6576000828601525b509290920192915050565b600061030d82866102c6565b84815261031d60208201856102c6565b9695505050505050565b600061033382846102c6565b9392505050565b600181811c9082168061034e57607f821691505b60208210810361036e57634e487b7160e01b600052602260045260246000fd5b5091905056fea2646970667358221220fa7e1fbe51c603e7abd1b22ecec469904f7f0aafa191ec03736f2b56b31da6e464736f6c634300080d0033",
    "sourcePath": "/home/secondport/Documents/SmartContracts/Sistema-de-Votaciones/votaciones.sol",
    "compiler": {
        "name": "solc",
        "version": "0.8.13+commit.abaa5c0e"
    },
    "functionHashes": {
        "NuevoCandidato(string,uint256,string)": "13317975",
        "owner()": "8da5cb5b"
    },
    "gasEstimates": {
        "creation": {
            "codeDepositCost": "187600",
            "executionCost": "24467",
            "totalCost": "212067"
        },
        "external": {
            "NuevoCandidato(string,uint256,string)": "infinite",
            "owner()": "2325"
        }
    }
}