{
    "contractName": "votacion",
    "abi": [
        {
            "inputs": [],
            "stateMutability": "nonpayable",
            "type": "constructor"
        },
        {
            "inputs": [
                {
                    "internalType": "string",
                    "name": "_nombre",
                    "type": "string"
                },
                {
                    "internalType": "uint256",
                    "name": "_edad",
                    "type": "uint256"
                },
                {
                    "internalType": "string",
                    "name": "_id",
                    "type": "string"
                }
            ],
            "name": "NuevoCandidato",
            "outputs": [],
            "stateMutability": "nonpayable",
            "type": "function"
        },
        {
            "inputs": [
                {
                    "internalType": "string",
                    "name": "_candidato",
                    "type": "string"
                }
            ],
            "name": "Votar",
            "outputs": [],
            "stateMutability": "nonpayable",
            "type": "function"
        },
        {
            "inputs": [],
            "name": "verCandidatos",
            "outputs": [
                {
                    "internalType": "string[]",
                    "name": "",
                    "type": "string[]"
                }
            ],
            "stateMutability": "view",
            "type": "function"
        }
    ],
    "bytecode": "608060405234801561001057600080fd5b50600080546001600160a01b031916331790556106b2806100326000396000f3fe608060405234801561001057600080fd5b50600436106100415760003560e01c80631331797514610046578063caaa49a61461005b578063febe07dc14610079575b600080fd5b61005961005436600461045e565b61008c565b005b61006361012a565b60405161007091906104fb565b60405180910390f35b610059610087366004610575565b610203565b60008383836040516020016100a3939291906105b2565b604051602081830303815290604052805190602001209050806001856040516100cc91906105e9565b9081526040516020918190038201902091909155600380546001810182556000919091528551610123927fc2575a0e9e593c00f959f8c92f12db2869c3395a3b0502d05e2516446f71f85b90920191870190610322565b5050505050565b60606003805480602002602001604051908101604052809291908181526020016000905b828210156101fa57838290600052602060002001805461016d90610605565b80601f016020809104026020016040519081016040528092919081815260200182805461019990610605565b80156101e65780601f106101bb576101008083540402835291602001916101e6565b820191906000526020600020905b8154815290600101906020018083116101c957829003601f168201915b50505050508152602001906001019061014e565b50505050905090565b6040516bffffffffffffffffffffffff193360601b16602082015260009060340160405160208183030381529060405280519060200120905060005b6004548110156102b557816004828154811061025d5761025d61063f565b9060005260206000200154036102a35760405162461bcd60e51b8152602060048201526007602482015266596120766f746f60c81b604482015260640160405180910390fd5b806102ad81610655565b91505061023f565b50600480546001810182556000919091527f8a35acfbc15ff81a39ae7d344fd709f28e8600b4aa8c65c6b64bfe7fe36bd19b018190556040516002906102fc9084906105e9565b908152604051908190036020019020805490600061031983610655565b91905055505050565b82805461032e90610605565b90600052602060002090601f0160209004810192826103505760008555610396565b82601f1061036957805160ff1916838001178555610396565b82800160010185558215610396579182015b8281111561039657825182559160200191906001019061037b565b506103a29291506103a6565b5090565b5b808211156103a257600081556001016103a7565b634e487b7160e01b600052604160045260246000fd5b600082601f8301126103e257600080fd5b813567ffffffffffffffff808211156103fd576103fd6103bb565b604051601f8301601f19908116603f01168101908282118183101715610425576104256103bb565b8160405283815286602085880101111561043e57600080fd5b836020870160208301376000602085830101528094505050505092915050565b60008060006060848603121561047357600080fd5b833567ffffffffffffffff8082111561048b57600080fd5b610497878388016103d1565b94506020860135935060408601359150808211156104b457600080fd5b506104c1868287016103d1565b9150509250925092565b60005b838110156104e65781810151838201526020016104ce565b838111156104f5576000848401525b50505050565b6000602080830181845280855180835260408601915060408160051b870101925083870160005b8281101561056857878503603f1901845281518051808752610549818989018a85016104cb565b601f01601f191695909501860194509285019290850190600101610522565b5092979650505050505050565b60006020828403121561058757600080fd5b813567ffffffffffffffff81111561059e57600080fd5b6105aa848285016103d1565b949350505050565b600084516105c48184602089016104cb565b820184815283516105dc8160208085019088016104cb565b0160200195945050505050565b600082516105fb8184602087016104cb565b9190910192915050565b600181811c9082168061061957607f821691505b60208210810361063957634e487b7160e01b600052602260045260246000fd5b50919050565b634e487b7160e01b600052603260045260246000fd5b60006001820161067557634e487b7160e01b600052601160045260246000fd5b506001019056fea2646970667358221220efe138070246b35f6ffe2dfc66e544401c6b6d14337f755101b5b858892268d864736f6c634300080d0033",
    "sourcePath": "/home/secondport/Documents/SmartContracts/Sistema-de-Votaciones/votaciones.sol",
    "compiler": {
        "name": "solc",
        "version": "0.8.13+commit.abaa5c0e"
    },
    "functionHashes": {
        "NuevoCandidato(string,uint256,string)": "13317975",
        "Votar(string)": "febe07dc",
        "verCandidatos()": "caaa49a6"
    },
    "gasEstimates": {
        "creation": {
            "codeDepositCost": "342800",
            "executionCost": "24615",
            "totalCost": "367415"
        },
        "external": {
            "NuevoCandidato(string,uint256,string)": "infinite",
            "Votar(string)": "infinite",
            "verCandidatos()": "infinite"
        }
    }
}