{
    "contractName": "votacion",
    "abi": [
        {
            "inputs": [],
            "stateMutability": "nonpayable",
            "type": "constructor"
        },
        {
            "inputs": [
                {
                    "internalType": "string",
                    "name": "_nombre",
                    "type": "string"
                },
                {
                    "internalType": "uint256",
                    "name": "_edad",
                    "type": "uint256"
                },
                {
                    "internalType": "string",
                    "name": "_id",
                    "type": "string"
                }
            ],
            "name": "NuevoCandidato",
            "outputs": [],
            "stateMutability": "nonpayable",
            "type": "function"
        },
        {
            "inputs": [
                {
                    "internalType": "string",
                    "name": "_candidato",
                    "type": "string"
                }
            ],
            "name": "Votar",
            "outputs": [],
            "stateMutability": "nonpayable",
            "type": "function"
        },
        {
            "inputs": [],
            "name": "verCandidatos",
            "outputs": [
                {
                    "internalType": "string[]",
                    "name": "",
                    "type": "string[]"
                }
            ],
            "stateMutability": "view",
            "type": "function"
        },
        {
            "inputs": [
                {
                    "internalType": "string",
                    "name": "_nombre",
                    "type": "string"
                }
            ],
            "name": "verVotos",
            "outputs": [
                {
                    "internalType": "uint256",
                    "name": "",
                    "type": "uint256"
                }
            ],
            "stateMutability": "view",
            "type": "function"
        }
    ],
    "bytecode": "608060405234801561001057600080fd5b50600080546001600160a01b03191633179055610702806100326000396000f3fe608060405234801561001057600080fd5b506004361061004c5760003560e01c8063133179751461005157806360df75d414610066578063caaa49a61461008c578063febe07dc146100a1575b600080fd5b61006461005f3660046104ae565b6100b4565b005b61007961007436600461051b565b610152565b6040519081526020015b60405180910390f35b61009461017a565b6040516100839190610588565b6100646100af36600461051b565b610253565b60008383836040516020016100cb93929190610602565b604051602081830303815290604052805190602001209050806001856040516100f49190610639565b908152604051602091819003820190209190915560038054600181018255600091909152855161014b927fc2575a0e9e593c00f959f8c92f12db2869c3395a3b0502d05e2516446f71f85b90920191870190610372565b5050505050565b60006002826040516101649190610639565b9081526020016040518091039020549050919050565b60606003805480602002602001604051908101604052809291908181526020016000905b8282101561024a5783829060005260206000200180546101bd90610655565b80601f01602080910402602001604051908101604052809291908181526020018280546101e990610655565b80156102365780601f1061020b57610100808354040283529160200191610236565b820191906000526020600020905b81548152906001019060200180831161021957829003601f168201915b50505050508152602001906001019061019e565b50505050905090565b6040516bffffffffffffffffffffffff193360601b16602082015260009060340160405160208183030381529060405280519060200120905060005b6004548110156103055781600482815481106102ad576102ad61068f565b9060005260206000200154036102f35760405162461bcd60e51b8152602060048201526007602482015266596120766f746f60c81b604482015260640160405180910390fd5b806102fd816106a5565b91505061028f565b50600480546001810182556000919091527f8a35acfbc15ff81a39ae7d344fd709f28e8600b4aa8c65c6b64bfe7fe36bd19b0181905560405160029061034c908490610639565b9081526040519081900360200190208054906000610369836106a5565b91905055505050565b82805461037e90610655565b90600052602060002090601f0160209004810192826103a057600085556103e6565b82601f106103b957805160ff19168380011785556103e6565b828001600101855582156103e6579182015b828111156103e65782518255916020019190600101906103cb565b506103f29291506103f6565b5090565b5b808211156103f257600081556001016103f7565b634e487b7160e01b600052604160045260246000fd5b600082601f83011261043257600080fd5b813567ffffffffffffffff8082111561044d5761044d61040b565b604051601f8301601f19908116603f011681019082821181831017156104755761047561040b565b8160405283815286602085880101111561048e57600080fd5b836020870160208301376000602085830101528094505050505092915050565b6000806000606084860312156104c357600080fd5b833567ffffffffffffffff808211156104db57600080fd5b6104e787838801610421565b945060208601359350604086013591508082111561050457600080fd5b5061051186828701610421565b9150509250925092565b60006020828403121561052d57600080fd5b813567ffffffffffffffff81111561054457600080fd5b61055084828501610421565b949350505050565b60005b8381101561057357818101518382015260200161055b565b83811115610582576000848401525b50505050565b6000602080830181845280855180835260408601915060408160051b870101925083870160005b828110156105f557878503603f19018452815180518087526105d6818989018a8501610558565b601f01601f1916959095018601945092850192908501906001016105af565b5092979650505050505050565b60008451610614818460208901610558565b8201848152835161062c816020808501908801610558565b0160200195945050505050565b6000825161064b818460208701610558565b9190910192915050565b600181811c9082168061066957607f821691505b60208210810361068957634e487b7160e01b600052602260045260246000fd5b50919050565b634e487b7160e01b600052603260045260246000fd5b6000600182016106c557634e487b7160e01b600052601160045260246000fd5b506001019056fea26469706673582212203b2dae080d9a539141165a128802fbbd9ae6fd5b4ef093f9945d3c52b13aae9064736f6c634300080d0033",
    "sourcePath": "/home/secondport/Documents/SmartContracts/Sistema-de-Votaciones/votaciones.sol",
    "compiler": {
        "name": "solc",
        "version": "0.8.13+commit.abaa5c0e"
    },
    "functionHashes": {
        "NuevoCandidato(string,uint256,string)": "13317975",
        "Votar(string)": "febe07dc",
        "verCandidatos()": "caaa49a6",
        "verVotos(string)": "60df75d4"
    },
    "gasEstimates": {
        "creation": {
            "codeDepositCost": "358800",
            "executionCost": "24634",
            "totalCost": "383434"
        },
        "external": {
            "NuevoCandidato(string,uint256,string)": "infinite",
            "Votar(string)": "infinite",
            "verCandidatos()": "infinite",
            "verVotos(string)": "infinite"
        }
    }
}