{
    "contractName": "votacion",
    "abi": [
        {
            "inputs": [],
            "stateMutability": "nonpayable",
            "type": "constructor"
        },
        {
            "inputs": [
                {
                    "internalType": "string",
                    "name": "_nombre",
                    "type": "string"
                },
                {
                    "internalType": "uint256",
                    "name": "_edad",
                    "type": "uint256"
                },
                {
                    "internalType": "string",
                    "name": "_id",
                    "type": "string"
                }
            ],
            "name": "NuevoCandidato",
            "outputs": [],
            "stateMutability": "nonpayable",
            "type": "function"
        },
        {
            "inputs": [],
            "name": "owner",
            "outputs": [
                {
                    "internalType": "address",
                    "name": "",
                    "type": "address"
                }
            ],
            "stateMutability": "view",
            "type": "function"
        },
        {
            "inputs": [],
            "name": "verCandidatos",
            "outputs": [
                {
                    "internalType": "string[]",
                    "name": "",
                    "type": "string[]"
                }
            ],
            "stateMutability": "view",
            "type": "function"
        }
    ],
    "bytecode": "608060405234801561001057600080fd5b50600080546001600160a01b0319163317905561052d806100326000396000f3fe608060405234801561001057600080fd5b50600436106100415760003560e01c806313317975146100465780638da5cb5b1461005b578063caaa49a61461008b575b600080fd5b610059610054366004610353565b6100a0565b005b60005461006e906001600160a01b031681565b6040516001600160a01b0390911681526020015b60405180910390f35b61009361013e565b60405161008291906103f0565b60008383836040516020016100b79392919061046a565b604051602081830303815290604052805190602001209050806001856040516100e091906104a1565b9081526040516020918190038201902091909155600380546001810182556000919091528551610137927fc2575a0e9e593c00f959f8c92f12db2869c3395a3b0502d05e2516446f71f85b90920191870190610217565b5050505050565b60606003805480602002602001604051908101604052809291908181526020016000905b8282101561020e578382906000526020600020018054610181906104bd565b80601f01602080910402602001604051908101604052809291908181526020018280546101ad906104bd565b80156101fa5780601f106101cf576101008083540402835291602001916101fa565b820191906000526020600020905b8154815290600101906020018083116101dd57829003601f168201915b505050505081526020019060010190610162565b50505050905090565b828054610223906104bd565b90600052602060002090601f016020900481019282610245576000855561028b565b82601f1061025e57805160ff191683800117855561028b565b8280016001018555821561028b579182015b8281111561028b578251825591602001919060010190610270565b5061029792915061029b565b5090565b5b80821115610297576000815560010161029c565b634e487b7160e01b600052604160045260246000fd5b600082601f8301126102d757600080fd5b813567ffffffffffffffff808211156102f2576102f26102b0565b604051601f8301601f19908116603f0116810190828211818310171561031a5761031a6102b0565b8160405283815286602085880101111561033357600080fd5b836020870160208301376000602085830101528094505050505092915050565b60008060006060848603121561036857600080fd5b833567ffffffffffffffff8082111561038057600080fd5b61038c878388016102c6565b94506020860135935060408601359150808211156103a957600080fd5b506103b6868287016102c6565b9150509250925092565b60005b838110156103db5781810151838201526020016103c3565b838111156103ea576000848401525b50505050565b6000602080830181845280855180835260408601915060408160051b870101925083870160005b8281101561045d57878503603f190184528151805180875261043e818989018a85016103c0565b601f01601f191695909501860194509285019290850190600101610417565b5092979650505050505050565b6000845161047c8184602089016103c0565b820184815283516104948160208085019088016103c0565b0160200195945050505050565b600082516104b38184602087016103c0565b9190910192915050565b600181811c908216806104d157607f821691505b6020821081036104f157634e487b7160e01b600052602260045260246000fd5b5091905056fea2646970667358221220a5e29adbf0ad5d0e5bcfe86e49a6f470de4448ce81c591a562bd559e54aaad0d64736f6c634300080d0033",
    "sourcePath": "/home/secondport/Documents/SmartContracts/Sistema-de-Votaciones/votaciones.sol",
    "compiler": {
        "name": "solc",
        "version": "0.8.13+commit.abaa5c0e"
    },
    "functionHashes": {
        "NuevoCandidato(string,uint256,string)": "13317975",
        "owner()": "8da5cb5b",
        "verCandidatos()": "caaa49a6"
    },
    "gasEstimates": {
        "creation": {
            "codeDepositCost": "265000",
            "executionCost": "24541",
            "totalCost": "289541"
        },
        "external": {
            "NuevoCandidato(string,uint256,string)": "infinite",
            "owner()": "2326",
            "verCandidatos()": "infinite"
        }
    }
}