{
    "contractName": "Disney",
    "abi": [
        {
            "inputs": [],
            "payable": false,
            "stateMutability": "nonpayable",
            "type": "constructor"
        },
        {
            "anonymous": false,
            "inputs": [
                {
                    "indexed": false,
                    "internalType": "string",
                    "name": "",
                    "type": "string"
                },
                {
                    "indexed": false,
                    "internalType": "string",
                    "name": "",
                    "type": "string"
                }
            ],
            "name": "baja_atraccion",
            "type": "event"
        },
        {
            "anonymous": false,
            "inputs": [
                {
                    "indexed": false,
                    "internalType": "string",
                    "name": "",
                    "type": "string"
                },
                {
                    "indexed": false,
                    "internalType": "string",
                    "name": "",
                    "type": "string"
                }
            ],
            "name": "baja_comida",
            "type": "event"
        },
        {
            "anonymous": false,
            "inputs": [
                {
                    "indexed": false,
                    "internalType": "string",
                    "name": "",
                    "type": "string"
                },
                {
                    "indexed": false,
                    "internalType": "uint256",
                    "name": "",
                    "type": "uint256"
                },
                {
                    "indexed": false,
                    "internalType": "address",
                    "name": "",
                    "type": "address"
                }
            ],
            "name": "disfruta_atraccion",
            "type": "event"
        },
        {
            "anonymous": false,
            "inputs": [
                {
                    "indexed": false,
                    "internalType": "string",
                    "name": "",
                    "type": "string"
                },
                {
                    "indexed": false,
                    "internalType": "uint256",
                    "name": "",
                    "type": "uint256"
                },
                {
                    "indexed": false,
                    "internalType": "address",
                    "name": "",
                    "type": "address"
                }
            ],
            "name": "disfruta_comida",
            "type": "event"
        },
        {
            "anonymous": false,
            "inputs": [
                {
                    "indexed": false,
                    "internalType": "string",
                    "name": "",
                    "type": "string"
                },
                {
                    "indexed": false,
                    "internalType": "uint256",
                    "name": "",
                    "type": "uint256"
                }
            ],
            "name": "nueva_atraccion",
            "type": "event"
        },
        {
            "anonymous": false,
            "inputs": [
                {
                    "indexed": false,
                    "internalType": "string",
                    "name": "",
                    "type": "string"
                },
                {
                    "indexed": false,
                    "internalType": "uint256",
                    "name": "",
                    "type": "uint256"
                },
                {
                    "indexed": false,
                    "internalType": "string",
                    "name": "",
                    "type": "string"
                }
            ],
            "name": "nueva_comida",
            "type": "event"
        },
        {
            "constant": true,
            "inputs": [],
            "name": "AtraccionesDisponibles",
            "outputs": [
                {
                    "internalType": "string[]",
                    "name": "",
                    "type": "string[]"
                }
            ],
            "payable": false,
            "stateMutability": "view",
            "type": "function"
        },
        {
            "constant": false,
            "inputs": [
                {
                    "internalType": "string",
                    "name": "_nombreAtraccion",
                    "type": "string"
                }
            ],
            "name": "BajaAtraccion",
            "outputs": [],
            "payable": false,
            "stateMutability": "nonpayable",
            "type": "function"
        },
        {
            "constant": false,
            "inputs": [
                {
                    "internalType": "string",
                    "name": "_nombreComida",
                    "type": "string"
                }
            ],
            "name": "BajaComida",
            "outputs": [],
            "payable": false,
            "stateMutability": "nonpayable",
            "type": "function"
        },
        {
            "constant": true,
            "inputs": [
                {
                    "internalType": "address",
                    "name": "",
                    "type": "address"
                }
            ],
            "name": "Clientes",
            "outputs": [
                {
                    "internalType": "uint256",
                    "name": "tokens_comprado",
                    "type": "uint256"
                }
            ],
            "payable": false,
            "stateMutability": "view",
            "type": "function"
        },
        {
            "constant": true,
            "inputs": [],
            "name": "ComidasDisponibles",
            "outputs": [
                {
                    "internalType": "string[]",
                    "name": "",
                    "type": "string[]"
                }
            ],
            "payable": false,
            "stateMutability": "view",
            "type": "function"
        },
        {
            "constant": false,
            "inputs": [
                {
                    "internalType": "uint256",
                    "name": "_numTokens",
                    "type": "uint256"
                }
            ],
            "name": "CompraTokens",
            "outputs": [],
            "payable": true,
            "stateMutability": "payable",
            "type": "function"
        },
        {
            "constant": false,
            "inputs": [
                {
                    "internalType": "string",
                    "name": "_nombreComida",
                    "type": "string"
                }
            ],
            "name": "ComprarComida",
            "outputs": [],
            "payable": false,
            "stateMutability": "nonpayable",
            "type": "function"
        },
        {
            "constant": true,
            "inputs": [
                {
                    "internalType": "string",
                    "name": "",
                    "type": "string"
                }
            ],
            "name": "DetalleAtracciones",
            "outputs": [
                {
                    "internalType": "string",
                    "name": "nombre_atraccion",
                    "type": "string"
                },
                {
                    "internalType": "uint256",
                    "name": "precio_atraccion",
                    "type": "uint256"
                },
                {
                    "internalType": "bool",
                    "name": "estado_atraccion",
                    "type": "bool"
                }
            ],
            "payable": false,
            "stateMutability": "view",
            "type": "function"
        },
        {
            "constant": true,
            "inputs": [
                {
                    "internalType": "string",
                    "name": "",
                    "type": "string"
                }
            ],
            "name": "DetalleComidas",
            "outputs": [
                {
                    "internalType": "string",
                    "name": "nombre_comida",
                    "type": "string"
                },
                {
                    "internalType": "uint256",
                    "name": "precio_comida",
                    "type": "uint256"
                },
                {
                    "internalType": "bool",
                    "name": "estado_comida",
                    "type": "bool"
                }
            ],
            "payable": false,
            "stateMutability": "view",
            "type": "function"
        },
        {
            "constant": false,
            "inputs": [
                {
                    "internalType": "uint256",
                    "name": "_numTokens",
                    "type": "uint256"
                }
            ],
            "name": "DevolverTokens",
            "outputs": [],
            "payable": true,
            "stateMutability": "payable",
            "type": "function"
        },
        {
            "constant": false,
            "inputs": [
                {
                    "internalType": "uint256",
                    "name": "_numTokens",
                    "type": "uint256"
                }
            ],
            "name": "GeneraTokens",
            "outputs": [],
            "payable": false,
            "stateMutability": "nonpayable",
            "type": "function"
        },
        {
            "constant": true,
            "inputs": [],
            "name": "MisAtracciones",
            "outputs": [
                {
                    "internalType": "string[]",
                    "name": "",
                    "type": "string[]"
                }
            ],
            "payable": false,
            "stateMutability": "view",
            "type": "function"
        },
        {
            "constant": true,
            "inputs": [],
            "name": "MisComidas",
            "outputs": [
                {
                    "internalType": "string[]",
                    "name": "",
                    "type": "string[]"
                }
            ],
            "payable": false,
            "stateMutability": "view",
            "type": "function"
        },
        {
            "constant": true,
            "inputs": [],
            "name": "MisTokens",
            "outputs": [
                {
                    "internalType": "uint256",
                    "name": "",
                    "type": "uint256"
                }
            ],
            "payable": false,
            "stateMutability": "view",
            "type": "function"
        },
        {
            "constant": false,
            "inputs": [
                {
                    "internalType": "string",
                    "name": "_nombreAtraccion",
                    "type": "string"
                },
                {
                    "internalType": "uint256",
                    "name": "_precio",
                    "type": "uint256"
                }
            ],
            "name": "NuevaAtraccion",
            "outputs": [],
            "payable": false,
            "stateMutability": "nonpayable",
            "type": "function"
        },
        {
            "constant": false,
            "inputs": [
                {
                    "internalType": "string",
                    "name": "_nombreComida",
                    "type": "string"
                },
                {
                    "internalType": "uint256",
                    "name": "_precio",
                    "type": "uint256"
                }
            ],
            "name": "NuevaComida",
            "outputs": [],
            "payable": false,
            "stateMutability": "nonpayable",
            "type": "function"
        },
        {
            "constant": false,
            "inputs": [
                {
                    "internalType": "string",
                    "name": "_nombreAtraccion",
                    "type": "string"
                }
            ],
            "name": "SubirseAtraccion",
            "outputs": [],
            "payable": false,
            "stateMutability": "nonpayable",
            "type": "function"
        },
        {
            "constant": true,
            "inputs": [],
            "name": "balanceOf",
            "outputs": [
                {
                    "internalType": "uint256",
                    "name": "",
                    "type": "uint256"
                }
            ],
            "payable": false,
            "stateMutability": "view",
            "type": "function"
        },
        {
            "constant": true,
            "inputs": [],
            "name": "owner",
            "outputs": [
                {
                    "internalType": "address payable",
                    "name": "",
                    "type": "address"
                }
            ],
            "payable": false,
            "stateMutability": "view",
            "type": "function"
        }
    ],
    "bytecode": "60806040523480156200001157600080fd5b5061271060405162000023906200007d565b6200002f91906200009c565b604051809103906000f0801580156200004c573d6000803e3d6000fd5b50600080546001600160a01b03929092166001600160a01b03199283161790556001805490911633179055620000c2565b6109518062001e2d83390190565b6200009681620000b5565b82525050565b60208101620000ac82846200008b565b92915050565b90565b6000620000ac82620000b2565b611d5b80620000d26000396000f3fe6080604052600436106101145760003560e01c80637b097d8a116100a0578063ce8f2f3811610064578063ce8f2f38146102cb578063dbbdc421146102eb578063e33f34a01461030b578063f777409114610320578063ff0b5ea91461033357610114565b80637b097d8a1461023f5780638da5cb5b1461025f578063c03d2acc14610281578063c66dca4014610296578063c9e37d21146102b657610114565b80632076b56c116100e75780632076b56c146101995780633230d04b146101b95780634a003dcf146101ce57806370f256b9146101ee578063722713f71461021d57610114565b80631246f6e21461011957806312b918461461013b5780631890154c1461015b5780631fccb33c1461016e575b600080fd5b34801561012557600080fd5b50610139610134366004611564565b610353565b005b34801561014757600080fd5b506101396101563660046114de565b6103c8565b610139610169366004611564565b6105d0565b34801561017a57600080fd5b5061018361074e565b6040516101909190611a63565b60405180910390f35b3480156101a557600080fd5b506101396101b4366004611513565b610827565b3480156101c557600080fd5b50610183610970565b3480156101da57600080fd5b506101396101e93660046114de565b610a4a565b3480156101fa57600080fd5b5061020e6102093660046114de565b610ba8565b60405161019093929190611b3a565b34801561022957600080fd5b50610232610c65565b6040516101909190611c07565b34801561024b57600080fd5b5061020e61025a3660046114de565b610ceb565b34801561026b57600080fd5b50610274610d63565b6040516101909190611a04565b34801561028d57600080fd5b50610183610d72565b3480156102a257600080fd5b506101396102b13660046114de565b610e41565b3480156102c257600080fd5b50610183610f17565b3480156102d757600080fd5b506102326102e636600461149a565b610ff1565b3480156102f757600080fd5b506101396103063660046114de565b611003565b34801561031757600080fd5b506102326110d9565b61013961032e366004611564565b61110a565b34801561033f57600080fd5b5061013961034e366004611513565b611233565b33610362565b60405180910390fd5b600054604051634ee22adf60e01b81526001600160a01b0390911690634ee22adf90610392908590600401611c07565b600060405180830381600087803b1580156103ac57600080fd5b505af11580156103c0573d6000803e3d6000fd5b505050505050565b60006003826040516103da91906119f8565b90815260200160405180910390206001015490506003826040516103fe91906119f8565b9081526040519081900360200190206002015460ff1615156001146104355760405162461bcd60e51b815260040161035990611be7565b6000546040516370a0823160e01b815282916001600160a01b0316906370a0823190610465903390600401611a12565b60206040518083038186803b15801561047d57600080fd5b505afa158015610491573d6000803e3d6000fd5b505050506040513d601f19601f820116820180604052506104b59190810190611582565b10156104d35760405162461bcd60e51b815260040161035990611ba7565b60005460405163f490a35160e01b81526001600160a01b039091169063f490a3519061050790339030908690600401611a20565b602060405180830381600087803b15801561052157600080fd5b505af1158015610535573d6000803e3d6000fd5b505050506040513d601f19601f8201168201806040525061055991908101906114c0565b503360009081526007602090815260408220805460018101808355918452928290208551919361058f939101919086019061137c565b50507f7246a03edf415ab10aa2e7868f4768980d024a3a86ab68f98fcc21567c2f26d78282336040516105c493929190611adc565b60405180910390a15050565b600081116105f05760405162461bcd60e51b815260040161035990611b97565b6000546040516370a0823160e01b815282916001600160a01b0316906370a0823190610620903390600401611a12565b60206040518083038186803b15801561063857600080fd5b505afa15801561064c573d6000803e3d6000fd5b505050506040513d601f19601f820116820180604052506106709190810190611582565b101561068e5760405162461bcd60e51b815260040161035990611ba7565b60005460405163f490a35160e01b81526001600160a01b039091169063f490a351906106c290339030908690600401611a20565b602060405180830381600087803b1580156106dc57600080fd5b505af11580156106f0573d6000803e3d6000fd5b505050506040513d601f19601f8201168201806040525061071491908101906114c0565b50336108fc6107228361136f565b6040518115909202916000818181858888f1935050505015801561074a573d6000803e3d6000fd5b5050565b60606005805480602002602001604051908101604052809291908181526020016000905b8282101561081d5760008481526020908190208301805460408051601f60026000196101006001871615020190941693909304928301859004850281018501909152818152928301828280156108095780601f106107de57610100808354040283529160200191610809565b820191906000526020600020905b8154815290600101906020018083116107ec57829003601f168201915b505050505081526020019060010190610772565b5050505090505b90565b3360038360405161083891906119f8565b9081526040519081900360200190206002015460ff161561086b5760405162461bcd60e51b815260040161035990611bf7565b604080516060810182528481526020810184905260018183015290516003906108959086906119f8565b908152602001604051809103902060008201518160000190805190602001906108bf92919061137c565b506020828101516001838101919091556040909301516002909201805460ff1916921515929092179091556005805492830180825560009190915285519092610930927f036b6384b5eca791c62761152d0c79bb0604c104a5fb6f4eb0703f3154bb3db0909101919087019061137c565b50507ffc9ecd7a6c2ca96d38526a0b9cc22f2474ff8e596dd348edaab06be905ebe3788383604051610963929190611abc565b60405180910390a1505050565b336000908152600760209081526040808320805482518185028101850190935280835260609492939192909184015b8282101561081d5760008481526020908190208301805460408051601f6002600019610100600187161502019094169390930492830185900485028101850190915281815292830182828015610a365780601f10610a0b57610100808354040283529160200191610a36565b820191906000526020600020905b815481529060010190602001808311610a1957829003601f168201915b50505050508152602001906001019061099f565b6000600482604051610a5c91906119f8565b9081526020016040518091039020600101549050600482604051610a8091906119f8565b9081526040519081900360200190206002015460ff161515600114610ab75760405162461bcd60e51b815260040161035990611bc7565b60005460405163f490a35160e01b81526001600160a01b039091169063f490a35190610aeb90339030908690600401611a20565b602060405180830381600087803b158015610b0557600080fd5b505af1158015610b19573d6000803e3d6000fd5b505050506040513d601f19601f82011682018060405250610b3d91908101906114c0565b5033600090815260086020908152604082208054600181018083559184529282902085519193610b73939101919086019061137c565b50507f85ef3e0aa2f5a1974f940061956e15261f5ce81cdb010a26d5760e9d0c47b4d38282336040516105c493929190611adc565b805160208183018101805160048252928201938201939093209190925280546040805160026001841615610100026000190190931692909204601f8101859004850283018501909152808252919290918391830182828015610c4b5780601f10610c2057610100808354040283529160200191610c4b565b820191906000526020600020905b815481529060010190602001808311610c2e57829003601f168201915b50505050600183015460029093015491929160ff16905083565b600080546040516370a0823160e01b81526001600160a01b03909116906370a0823190610c96903090600401611a04565b60206040518083038186803b158015610cae57600080fd5b505afa158015610cc2573d6000803e3d6000fd5b505050506040513d601f19601f82011682018060405250610ce69190810190611582565b905090565b805160208183018101805160038252928201938201939093209190925280546040805160026001841615610100026000190190931692909204601f8101859004850283018501909152808252919290918391830182828015610c4b5780601f10610c2057610100808354040283529160200191610c4b565b6001546001600160a01b031681565b60606006805480602002602001604051908101604052809291908181526020016000905b8282101561081d5760008481526020908190208301805460408051601f6002600019610100600187161502019094169390930492830185900485028101850190915281815292830182828015610e2d5780601f10610e0257610100808354040283529160200191610e2d565b820191906000526020600020905b815481529060010190602001808311610e1057829003601f168201915b505050505081526020019060010190610d96565b33600382604051610e5291906119f8565b9081526040519081900360200190206002015460ff16610e845760405162461bcd60e51b815260040161035990611b87565b600382604051610e9491906119f8565b9081526040519081900360200190206002015460ff1615156001141561074a576000600383604051610ec691906119f8565b908152604051908190036020018120600201805492151560ff19909316929092179091557f7dd6d0d9c053990570eeac4b51b30afa7ed83bf0b9451fc97a3b5d7303d7e92f906105c4908490611a74565b336000908152600860209081526040808320805482518185028101850190935280835260609492939192909184015b8282101561081d5760008481526020908190208301805460408051601f6002600019610100600187161502019094169390930492830185900485028101850190915281815292830182828015610fdd5780601f10610fb257610100808354040283529160200191610fdd565b820191906000526020600020905b815481529060010190602001808311610fc057829003601f168201915b505050505081526020019060010190610f46565b60026020526000908152604090205481565b3360048260405161101491906119f8565b9081526040519081900360200190206002015460ff166110465760405162461bcd60e51b815260040161035990611bb7565b60048260405161105691906119f8565b9081526040519081900360200190206002015460ff1615156001141561074a57600060048360405161108891906119f8565b908152604051908190036020018120600201805492151560ff19909316929092179091557fe6f20bfd95b1f56b3ea956f6b092c69881f6987a23208cf3a6d1efe0fa6fd9de906105c4908490611a98565b600080546040516370a0823160e01b81526001600160a01b03909116906370a0823190610c96903390600401611a12565b60006111158261136f565b9050803410156111375760405162461bcd60e51b815260040161035990611b67565b6040513482900390339082156108fc029083906000818181858888f19350505050158015611169573d6000803e3d6000fd5b506000611174610c65565b9050808411156111965760405162461bcd60e51b815260040161035990611bd7565b60005460405163a9059cbb60e01b81526001600160a01b039091169063a9059cbb906111c89033908890600401611a48565b602060405180830381600087803b1580156111e257600080fd5b505af11580156111f6573d6000803e3d6000fd5b505050506040513d601f19601f8201168201806040525061121a91908101906114c0565b5050336000908152600260205260409020929092555050565b3360048360405161124491906119f8565b9081526040519081900360200190206002015460ff16156112775760405162461bcd60e51b815260040161035990611b77565b604080516060810182528481526020810184905260018183015290516004906112a19086906119f8565b908152602001604051809103902060008201518160000190805190602001906112cb92919061137c565b506020828101516001838101919091556040909301516002909201805460ff191692151592909217909155600680549283018082556000919091528551909261133c927ff652222313e28459528d920b65115c16c04f3efc82aaedc97be59f3f377c0d3f909101919087019061137c565b50507fe4db64bbfdccf27eb151ff5b45c42cf7cd2d8530e969c3e240b2b272983dcefd8383604051610963929190611b09565b670de0b6b3a76400000190565b828054600181600116156101000203166002900490600052602060002090601f016020900481019282601f106113bd57805160ff19168380011785556113ea565b828001600101855582156113ea579182015b828111156113ea5782518255916020019190600101906113cf565b506113f69291506113fa565b5090565b61082491905b808211156113f65760008155600101611400565b803561141f81611cef565b92915050565b805161141f81611d06565b600082601f83011261144157600080fd5b813561145461144f82611c3c565b611c15565b9150808252602083016020830185838301111561147057600080fd5b61147b838284611ca9565b50505092915050565b803561141f81611d0f565b805161141f81611d0f565b6000602082840312156114ac57600080fd5b60006114b88484611414565b949350505050565b6000602082840312156114d257600080fd5b60006114b88484611425565b6000602082840312156114f057600080fd5b813567ffffffffffffffff81111561150757600080fd5b6114b884828501611430565b6000806040838503121561152657600080fd5b823567ffffffffffffffff81111561153d57600080fd5b61154985828601611430565b925050602061155a85828601611484565b9150509250929050565b60006020828403121561157657600080fd5b60006114b88484611484565b60006020828403121561159457600080fd5b60006114b8848461148f565b60006115ac8383611642565b9392505050565b6115bc81611c98565b82525050565b6115bc81611c7c565b60006115d682611c6a565b6115e08185611c6e565b9350836020820285016115f285611c64565b8060005b8581101561162c578484038952815161160f85826115a0565b945061161a83611c64565b60209a909a01999250506001016115f6565b5091979650505050505050565b6115bc81611c87565b600061164d82611c6a565b6116578185611c6e565b9350611667818560208601611cb5565b61167081611ce5565b9093019392505050565b600061168582611c6a565b61168f8185611c77565b935061169f818560208601611cb5565b9290920192915050565b60006116b6602183611c6e565b7f4c6120617472616363696f6e206861207369646f20646164612064652062616a8152606160f81b602082015260400192915050565b60006116f9601b83611c6e565b7f4e6f207469656e657320737566696369656e74652064696e65726f0000000000815260200192915050565b6000611732602383611c6e565b7f59612065786973746520756e6120636f6d69646120636f6e20657365206e6f6d81526262726560e81b602082015260400192915050565b6000611777602783611c6e565b7f4c6120617472616363696f6e206e6f20657869737465206f206e6f20657374618152662061637469766160c81b602082015260400192915050565b60006117c0602383611c6e565b7f4e6f20707565646573206465766f6c7665722030206f206d656e6f7320746f6b815262656e7360e81b602082015260400192915050565b6000611805601c83611c6e565b7f4e6f207469656e657320737566696369656e74657320746f6b656e7300000000815260200192915050565b600061183e601883611c6e565b7f5365206372656f20756e61206e7565766120636f6d6964610000000000000000815260200192915050565b6000611877601e83611c6e565b7f4c6120636f6d696461206861207369646f20646164612064652062616a610000815260200192915050565b60006118b0602483611c6e565b7f4c6120636f6d696461206e6f20657869737465206f206e6f20657374612061638152637469766160e01b602082015260400192915050565b60006118f6601c83611c6e565b7f4c6120636f6d696461206e6f206573746120646973706f6e69626c6500000000815260200192915050565b600061192f602a83611c6e565b7f4e6f20736520707565646520636f6d70726172206573612063616e746964616481526920646520746f6b656e7360b01b602082015260400192915050565b600061197b601f83611c6e565b7f4c6120617472616363696f6e206e6f206573746120646973706f6e69626c6500815260200192915050565b60006119b4602683611c6e565b7f59612065786973746520756e6120617472616363696f6e20636f6e20657365208152656e6f6d62726560d01b602082015260400192915050565b6115bc81610824565b60006115ac828461167a565b6020810161141f82846115c2565b6020810161141f82846115b3565b60608101611a2e82866115b3565b611a3b60208301856115c2565b6114b860408301846119ef565b60408101611a5682856115b3565b6115ac60208301846119ef565b602080825281016115ac81846115cb565b60408082528101611a858184611642565b905081810360208301526115ac816116a9565b60408082528101611aa98184611642565b905081810360208301526115ac8161186a565b60408082528101611acd8185611642565b90506115ac60208301846119ef565b60608082528101611aed8186611642565b9050611afc60208301856119ef565b6114b860408301846115b3565b60608082528101611b1a8185611642565b9050611b2960208301846119ef565b81810360408301526114b881611831565b60608082528101611b4b8186611642565b9050611b5a60208301856119ef565b6114b86040830184611639565b6020808252810161141f816116ec565b6020808252810161141f81611725565b6020808252810161141f8161176a565b6020808252810161141f816117b3565b6020808252810161141f816117f8565b6020808252810161141f816118a3565b6020808252810161141f816118e9565b6020808252810161141f81611922565b6020808252810161141f8161196e565b6020808252810161141f816119a7565b6020810161141f82846119ef565b60405181810167ffffffffffffffff81118282101715611c3457600080fd5b604052919050565b600067ffffffffffffffff821115611c5357600080fd5b506020601f91909101601f19160190565b60200190565b5190565b90815260200190565b919050565b600061141f82611c8c565b151590565b6001600160a01b031690565b600061141f82600061141f82611c7c565b82818337506000910152565b60005b83811015611cd0578181015183820152602001611cb8565b83811115611cdf576000848401525b50505050565b601f01601f191690565b611cf881611c7c565b8114611d0357600080fd5b50565b611cf881611c87565b611cf88161082456fea365627a7a7231582091c56929bfb1f53de5c799fb3b6df2eb304f7d9c538802ee44a10fe19f98b9856c6578706572696d656e74616cf564736f6c63430005100040608060405234801561001057600080fd5b5060405161095138038061095183398101604081905261002f9161005a565b60028190553360009081526020819052604090205561009a565b805161005481610083565b92915050565b60006020828403121561006c57600080fd5b60006100788484610049565b949350505050565b90565b61008c81610080565b811461009757600080fd5b50565b6108a8806100a96000396000f3fe608060405234801561001057600080fd5b50600436106100a95760003560e01c80634ee22adf116100715780634ee22adf1461012957806370a082311461013e57806395d89b4114610151578063a9059cbb14610159578063dd62ed3e1461016c578063f490a3511461017f576100a9565b806306fdde03146100ae578063095ea7b3146100cc57806318160ddd146100ec57806323b872dd14610101578063313ce56714610114575b600080fd5b6100b6610192565b6040516100c3919061079c565b60405180910390f35b6100df6100da366004610699565b6101b8565b6040516100c3919061078e565b6100f4610223565b6040516100c391906107bd565b6100df61010f36600461064c565b610229565b61011c6103b8565b6040516100c391906107cb565b61013c6101373660046106c9565b6103bd565b005b6100f461014c3660046105ec565b6103dd565b6100b66103f8565b6100df610167366004610699565b61041d565b6100f461017a366004610612565b6104ed565b6100df61018d36600461064c565b610518565b6040518060400160405280600a8152602001694552433230426173696360b01b81525081565b3360008181526001602090815260408083206001600160a01b038716808552925280832085905551919290917f8c5be1e5ebec7d5bd14f71427d1e84f3dd0314c0f7b2291e5b200ac8c7c3b925906102119086906107bd565b60405180910390a35060015b92915050565b60025490565b6001600160a01b03831660009081526020819052604081205482111561026a5760405162461bcd60e51b8152600401610261906107ad565b60405180910390fd5b6001600160a01b03841660009081526001602090815260408083203384529091529020548211156102ad5760405162461bcd60e51b8152600401610261906107ad565b6001600160a01b0384166000908152602081905260409020546102d6908363ffffffff6105ae16565b6001600160a01b038516600090815260208181526040808320939093556001815282822033835290522054610311908363ffffffff6105ae16565b6001600160a01b0380861660009081526001602090815260408083203384528252808320949094559186168152908190522054610354908363ffffffff6105c016565b6001600160a01b0380851660008181526020819052604090819020939093559151908616907fddf252ad1be2c89b69c2b068fc378daa952ba7f163c4a11628f55a4df523b3ef906103a69086906107bd565b60405180910390a35060019392505050565b600281565b600280548201905533600090815260208190526040902080549091019055565b6001600160a01b031660009081526020819052604090205490565b6040518060400160405280600981526020016825212516aa27a5a2a760b91b81525081565b3360009081526020819052604081205482111561044c5760405162461bcd60e51b8152600401610261906107ad565b3360009081526020819052604090205461046c908363ffffffff6105ae16565b33600090815260208190526040808220929092556001600160a01b0385168152205461049e908363ffffffff6105c016565b6001600160a01b0384166000818152602081905260409081902092909255905133907fddf252ad1be2c89b69c2b068fc378daa952ba7f163c4a11628f55a4df523b3ef906102119086906107bd565b6001600160a01b03918216600090815260016020908152604080832093909416825291909152205490565b6001600160a01b0383166000908152602081905260408120548211156105505760405162461bcd60e51b8152600401610261906107ad565b6001600160a01b038416600090815260208190526040902054610579908363ffffffff6105ae16565b6001600160a01b038086166000908152602081905260408082209390935590851681522054610354908363ffffffff6105c016565b6000828211156105ba57fe5b50900390565b6000828201838110156105cf57fe5b9392505050565b803561021d81610845565b803561021d8161085c565b6000602082840312156105fe57600080fd5b600061060a84846105d6565b949350505050565b6000806040838503121561062557600080fd5b600061063185856105d6565b9250506020610642858286016105d6565b9150509250929050565b60008060006060848603121561066157600080fd5b600061066d86866105d6565b935050602061067e868287016105d6565b925050604061068f868287016105e1565b9150509250925092565b600080604083850312156106ac57600080fd5b60006106b885856105d6565b9250506020610642858286016105e1565b6000602082840312156106db57600080fd5b600061060a84846105e1565b6106f0816107f1565b82525050565b6000610701826107d9565b61070b81856107dd565b935061071b81856020860161080b565b6107248161083b565b9093019392505050565b600061073b602c836107dd565b7f596f7520646f6e2774206861766520656e6f75676820746f6b656e7320696e2081526b1e5bdd5c881858d8dbdd5b9d60a21b602082015260400192915050565b6106f081610802565b6106f081610805565b6020810161021d82846106e7565b602080825281016105cf81846106f6565b6020808252810161021d8161072e565b6020810161021d828461077c565b6020810161021d8284610785565b5190565b90815260200190565b600061021d826107f6565b151590565b6001600160a01b031690565b90565b60ff1690565b60005b8381101561082657818101518382015260200161080e565b83811115610835576000848401525b50505050565b601f01601f191690565b61084e816107e6565b811461085957600080fd5b50565b61084e8161080256fea365627a7a72315820c11b71333a481e4dc5de9f3acf0279924e85dd880d21a020a2596d30c9cee6996c6578706572696d656e74616cf564736f6c63430005100040",
    "sourcePath": "/home/secondport/Documents/SmartContracts/Proyectos/Sistema-de-pagos-con-Tokens(Disney)/dinsey.sol",
    "compiler": {
        "name": "solc",
        "version": "0.5.16+commit.9c3226ce"
    },
    "functionHashes": {
        "AtraccionesDisponibles()": "1fccb33c",
        "BajaAtraccion(string)": "c66dca40",
        "BajaComida(string)": "dbbdc421",
        "Clientes(address)": "ce8f2f38",
        "ComidasDisponibles()": "c03d2acc",
        "CompraTokens(uint256)": "f7774091",
        "ComprarComida(string)": "4a003dcf",
        "DetalleAtracciones(string)": "7b097d8a",
        "DetalleComidas(string)": "70f256b9",
        "DevolverTokens(uint256)": "1890154c",
        "GeneraTokens(uint256)": "1246f6e2",
        "MisAtracciones()": "3230d04b",
        "MisComidas()": "c9e37d21",
        "MisTokens()": "e33f34a0",
        "NuevaAtraccion(string,uint256)": "2076b56c",
        "NuevaComida(string,uint256)": "ff0b5ea9",
        "SubirseAtraccion(string)": "12b91846",
        "balanceOf()": "722713f7",
        "owner()": "8da5cb5b"
    },
    "gasEstimates": {
        "creation": {
            "codeDepositCost": "1503000",
            "executionCost": "infinite",
            "totalCost": "infinite"
        },
        "external": {
            "AtraccionesDisponibles()": "infinite",
            "BajaAtraccion(string)": "infinite",
            "BajaComida(string)": "infinite",
            "Clientes(address)": "infinite",
            "ComidasDisponibles()": "infinite",
            "CompraTokens(uint256)": "infinite",
            "ComprarComida(string)": "infinite",
            "DetalleAtracciones(string)": "infinite",
            "DetalleComidas(string)": "infinite",
            "DevolverTokens(uint256)": "infinite",
            "GeneraTokens(uint256)": "infinite",
            "MisAtracciones()": "infinite",
            "MisComidas()": "infinite",
            "MisTokens()": "infinite",
            "NuevaAtraccion(string,uint256)": "infinite",
            "NuevaComida(string,uint256)": "infinite",
            "SubirseAtraccion(string)": "infinite",
            "balanceOf()": "infinite",
            "owner()": "infinite"
        },
        "internal": {
            "PrecioTokens(uint256)": "18"
        }
    }
}