{
    "contractName": "ERC20Basic",
    "abi": [
        {
            "inputs": [
                {
                    "internalType": "uint256",
                    "name": "total",
                    "type": "uint256"
                }
            ],
            "payable": false,
            "stateMutability": "nonpayable",
            "type": "constructor"
        },
        {
            "anonymous": false,
            "inputs": [
                {
                    "indexed": true,
                    "internalType": "address",
                    "name": "tokenOwner",
                    "type": "address"
                },
                {
                    "indexed": true,
                    "internalType": "address",
                    "name": "spender",
                    "type": "address"
                },
                {
                    "indexed": false,
                    "internalType": "uint240",
                    "name": "tokenss",
                    "type": "uint240"
                }
            ],
            "name": "Approval",
            "type": "event"
        },
        {
            "anonymous": false,
            "inputs": [
                {
                    "indexed": true,
                    "internalType": "address",
                    "name": "owner",
                    "type": "address"
                },
                {
                    "indexed": true,
                    "internalType": "address",
                    "name": "spender",
                    "type": "address"
                },
                {
                    "indexed": false,
                    "internalType": "uint256",
                    "name": "value",
                    "type": "uint256"
                }
            ],
            "name": "Approval",
            "type": "event"
        },
        {
            "anonymous": false,
            "inputs": [
                {
                    "indexed": true,
                    "internalType": "address",
                    "name": "from",
                    "type": "address"
                },
                {
                    "indexed": true,
                    "internalType": "address",
                    "name": "to",
                    "type": "address"
                },
                {
                    "indexed": false,
                    "internalType": "uint200",
                    "name": "tokens",
                    "type": "uint200"
                }
            ],
            "name": "Transfer",
            "type": "event"
        },
        {
            "anonymous": false,
            "inputs": [
                {
                    "indexed": true,
                    "internalType": "address",
                    "name": "from",
                    "type": "address"
                },
                {
                    "indexed": true,
                    "internalType": "address",
                    "name": "to",
                    "type": "address"
                },
                {
                    "indexed": false,
                    "internalType": "uint256",
                    "name": "value",
                    "type": "uint256"
                }
            ],
            "name": "Transfer",
            "type": "event"
        },
        {
            "constant": true,
            "inputs": [
                {
                    "internalType": "address",
                    "name": "owner",
                    "type": "address"
                },
                {
                    "internalType": "address",
                    "name": "delegate",
                    "type": "address"
                }
            ],
            "name": "allowance",
            "outputs": [
                {
                    "internalType": "uint256",
                    "name": "",
                    "type": "uint256"
                }
            ],
            "payable": false,
            "stateMutability": "view",
            "type": "function"
        },
        {
            "constant": false,
            "inputs": [
                {
                    "internalType": "address",
                    "name": "delegate",
                    "type": "address"
                },
                {
                    "internalType": "uint256",
                    "name": "numTokens",
                    "type": "uint256"
                }
            ],
            "name": "approve",
            "outputs": [
                {
                    "internalType": "bool",
                    "name": "",
                    "type": "bool"
                }
            ],
            "payable": false,
            "stateMutability": "nonpayable",
            "type": "function"
        },
        {
            "constant": true,
            "inputs": [
                {
                    "internalType": "address",
                    "name": "tokenOwner",
                    "type": "address"
                }
            ],
            "name": "balanceOf",
            "outputs": [
                {
                    "internalType": "uint256",
                    "name": "",
                    "type": "uint256"
                }
            ],
            "payable": false,
            "stateMutability": "view",
            "type": "function"
        },
        {
            "constant": true,
            "inputs": [],
            "name": "decimals",
            "outputs": [
                {
                    "internalType": "uint8",
                    "name": "",
                    "type": "uint8"
                }
            ],
            "payable": false,
            "stateMutability": "view",
            "type": "function"
        },
        {
            "constant": false,
            "inputs": [
                {
                    "internalType": "uint256",
                    "name": "newTokens",
                    "type": "uint256"
                }
            ],
            "name": "increaseTotalSuply",
            "outputs": [],
            "payable": false,
            "stateMutability": "nonpayable",
            "type": "function"
        },
        {
            "constant": true,
            "inputs": [],
            "name": "name",
            "outputs": [
                {
                    "internalType": "string",
                    "name": "",
                    "type": "string"
                }
            ],
            "payable": false,
            "stateMutability": "view",
            "type": "function"
        },
        {
            "constant": true,
            "inputs": [],
            "name": "symbol",
            "outputs": [
                {
                    "internalType": "string",
                    "name": "",
                    "type": "string"
                }
            ],
            "payable": false,
            "stateMutability": "view",
            "type": "function"
        },
        {
            "constant": true,
            "inputs": [],
            "name": "totalSupply",
            "outputs": [
                {
                    "internalType": "uint256",
                    "name": "",
                    "type": "uint256"
                }
            ],
            "payable": false,
            "stateMutability": "view",
            "type": "function"
        },
        {
            "constant": false,
            "inputs": [
                {
                    "internalType": "address",
                    "name": "receiver",
                    "type": "address"
                },
                {
                    "internalType": "uint256",
                    "name": "numTokens",
                    "type": "uint256"
                }
            ],
            "name": "transfer",
            "outputs": [
                {
                    "internalType": "bool",
                    "name": "",
                    "type": "bool"
                }
            ],
            "payable": false,
            "stateMutability": "nonpayable",
            "type": "function"
        },
        {
            "constant": false,
            "inputs": [
                {
                    "internalType": "address",
                    "name": "owner",
                    "type": "address"
                },
                {
                    "internalType": "address",
                    "name": "buyer",
                    "type": "address"
                },
                {
                    "internalType": "uint256",
                    "name": "numTokens",
                    "type": "uint256"
                }
            ],
            "name": "transferFrom",
            "outputs": [
                {
                    "internalType": "bool",
                    "name": "",
                    "type": "bool"
                }
            ],
            "payable": false,
            "stateMutability": "nonpayable",
            "type": "function"
        },
        {
            "constant": false,
            "inputs": [
                {
                    "internalType": "address",
                    "name": "sender",
                    "type": "address"
                },
                {
                    "internalType": "address",
                    "name": "receiver",
                    "type": "address"
                },
                {
                    "internalType": "uint256",
                    "name": "numTokens",
                    "type": "uint256"
                }
            ],
            "name": "transferencia_disney",
            "outputs": [
                {
                    "internalType": "bool",
                    "name": "",
                    "type": "bool"
                }
            ],
            "payable": false,
            "stateMutability": "nonpayable",
            "type": "function"
        }
    ],
    "bytecode": "608060405234801561001057600080fd5b5060405161095138038061095183398101604081905261002f9161005a565b60028190553360009081526020819052604090205561009a565b805161005481610083565b92915050565b60006020828403121561006c57600080fd5b60006100788484610049565b949350505050565b90565b61008c81610080565b811461009757600080fd5b50565b6108a8806100a96000396000f3fe608060405234801561001057600080fd5b50600436106100a95760003560e01c80634ee22adf116100715780634ee22adf1461012957806370a082311461013e57806395d89b4114610151578063a9059cbb14610159578063dd62ed3e1461016c578063f490a3511461017f576100a9565b806306fdde03146100ae578063095ea7b3146100cc57806318160ddd146100ec57806323b872dd14610101578063313ce56714610114575b600080fd5b6100b6610192565b6040516100c3919061079c565b60405180910390f35b6100df6100da366004610699565b6101b8565b6040516100c3919061078e565b6100f4610223565b6040516100c391906107bd565b6100df61010f36600461064c565b610229565b61011c6103b8565b6040516100c391906107cb565b61013c6101373660046106c9565b6103bd565b005b6100f461014c3660046105ec565b6103dd565b6100b66103f8565b6100df610167366004610699565b61041d565b6100f461017a366004610612565b6104ed565b6100df61018d36600461064c565b610518565b6040518060400160405280600a8152602001694552433230426173696360b01b81525081565b3360008181526001602090815260408083206001600160a01b038716808552925280832085905551919290917f8c5be1e5ebec7d5bd14f71427d1e84f3dd0314c0f7b2291e5b200ac8c7c3b925906102119086906107bd565b60405180910390a35060015b92915050565b60025490565b6001600160a01b03831660009081526020819052604081205482111561026a5760405162461bcd60e51b8152600401610261906107ad565b60405180910390fd5b6001600160a01b03841660009081526001602090815260408083203384529091529020548211156102ad5760405162461bcd60e51b8152600401610261906107ad565b6001600160a01b0384166000908152602081905260409020546102d6908363ffffffff6105ae16565b6001600160a01b038516600090815260208181526040808320939093556001815282822033835290522054610311908363ffffffff6105ae16565b6001600160a01b0380861660009081526001602090815260408083203384528252808320949094559186168152908190522054610354908363ffffffff6105c016565b6001600160a01b0380851660008181526020819052604090819020939093559151908616907fddf252ad1be2c89b69c2b068fc378daa952ba7f163c4a11628f55a4df523b3ef906103a69086906107bd565b60405180910390a35060019392505050565b600281565b600280548201905533600090815260208190526040902080549091019055565b6001600160a01b031660009081526020819052604090205490565b6040518060400160405280600981526020016825212516aa27a5a2a760b91b81525081565b3360009081526020819052604081205482111561044c5760405162461bcd60e51b8152600401610261906107ad565b3360009081526020819052604090205461046c908363ffffffff6105ae16565b33600090815260208190526040808220929092556001600160a01b0385168152205461049e908363ffffffff6105c016565b6001600160a01b0384166000818152602081905260409081902092909255905133907fddf252ad1be2c89b69c2b068fc378daa952ba7f163c4a11628f55a4df523b3ef906102119086906107bd565b6001600160a01b03918216600090815260016020908152604080832093909416825291909152205490565b6001600160a01b0383166000908152602081905260408120548211156105505760405162461bcd60e51b8152600401610261906107ad565b6001600160a01b038416600090815260208190526040902054610579908363ffffffff6105ae16565b6001600160a01b038086166000908152602081905260408082209390935590851681522054610354908363ffffffff6105c016565b6000828211156105ba57fe5b50900390565b6000828201838110156105cf57fe5b9392505050565b803561021d81610845565b803561021d8161085c565b6000602082840312156105fe57600080fd5b600061060a84846105d6565b949350505050565b6000806040838503121561062557600080fd5b600061063185856105d6565b9250506020610642858286016105d6565b9150509250929050565b60008060006060848603121561066157600080fd5b600061066d86866105d6565b935050602061067e868287016105d6565b925050604061068f868287016105e1565b9150509250925092565b600080604083850312156106ac57600080fd5b60006106b885856105d6565b9250506020610642858286016105e1565b6000602082840312156106db57600080fd5b600061060a84846105e1565b6106f0816107f1565b82525050565b6000610701826107d9565b61070b81856107dd565b935061071b81856020860161080b565b6107248161083b565b9093019392505050565b600061073b602c836107dd565b7f596f7520646f6e2774206861766520656e6f75676820746f6b656e7320696e2081526b1e5bdd5c881858d8dbdd5b9d60a21b602082015260400192915050565b6106f081610802565b6106f081610805565b6020810161021d82846106e7565b602080825281016105cf81846106f6565b6020808252810161021d8161072e565b6020810161021d828461077c565b6020810161021d8284610785565b5190565b90815260200190565b600061021d826107f6565b151590565b6001600160a01b031690565b90565b60ff1690565b60005b8381101561082657818101518382015260200161080e565b83811115610835576000848401525b50505050565b601f01601f191690565b61084e816107e6565b811461085957600080fd5b50565b61084e8161080256fea365627a7a72315820c11b71333a481e4dc5de9f3acf0279924e85dd880d21a020a2596d30c9cee6996c6578706572696d656e74616cf564736f6c63430005100040",
    "sourcePath": "/home/secondport/Documents/SmartContracts/Proyectos/Sistema-de-pagos-con-Tokens(Disney)/ERC20.sol",
    "compiler": {
        "name": "solc",
        "version": "0.5.16+commit.9c3226ce"
    },
    "functionHashes": {
        "allowance(address,address)": "dd62ed3e",
        "approve(address,uint256)": "095ea7b3",
        "balanceOf(address)": "70a08231",
        "decimals()": "313ce567",
        "increaseTotalSuply(uint256)": "4ee22adf",
        "name()": "06fdde03",
        "symbol()": "95d89b41",
        "totalSupply()": "18160ddd",
        "transfer(address,uint256)": "a9059cbb",
        "transferFrom(address,address,uint256)": "23b872dd",
        "transferencia_disney(address,address,uint256)": "f490a351"
    },
    "gasEstimates": {
        "creation": {
            "codeDepositCost": "443200",
            "executionCost": "infinite",
            "totalCost": "infinite"
        },
        "external": {
            "allowance(address,address)": "infinite",
            "approve(address,uint256)": "infinite",
            "balanceOf(address)": "infinite",
            "decimals()": "394",
            "increaseTotalSuply(uint256)": "42054",
            "name()": "infinite",
            "symbol()": "infinite",
            "totalSupply()": "1144",
            "transfer(address,uint256)": "infinite",
            "transferFrom(address,address,uint256)": "infinite",
            "transferencia_disney(address,address,uint256)": "infinite"
        }
    }
}