{
    "contractName": "loteria",
    "abi": [
        {
            "inputs": [],
            "payable": false,
            "stateMutability": "nonpayable",
            "type": "constructor"
        },
        {
            "anonymous": false,
            "inputs": [
                {
                    "indexed": false,
                    "internalType": "address",
                    "name": "",
                    "type": "address"
                },
                {
                    "indexed": false,
                    "internalType": "uint256",
                    "name": "",
                    "type": "uint256"
                }
            ],
            "name": "ComprandoTokens",
            "type": "event"
        },
        {
            "constant": true,
            "inputs": [],
            "name": "Bote",
            "outputs": [
                {
                    "internalType": "uint256",
                    "name": "",
                    "type": "uint256"
                }
            ],
            "payable": false,
            "stateMutability": "view",
            "type": "function"
        },
        {
            "constant": false,
            "inputs": [
                {
                    "internalType": "uint256",
                    "name": "_numTokens",
                    "type": "uint256"
                }
            ],
            "name": "CompraTokens",
            "outputs": [],
            "payable": true,
            "stateMutability": "payable",
            "type": "function"
        },
        {
            "constant": false,
            "inputs": [
                {
                    "internalType": "uint256",
                    "name": "_numTokens",
                    "type": "uint256"
                }
            ],
            "name": "GeneraTokens",
            "outputs": [],
            "payable": false,
            "stateMutability": "nonpayable",
            "type": "function"
        },
        {
            "constant": true,
            "inputs": [],
            "name": "MisTokes",
            "outputs": [
                {
                    "internalType": "uint256",
                    "name": "",
                    "type": "uint256"
                }
            ],
            "payable": false,
            "stateMutability": "view",
            "type": "function"
        },
        {
            "constant": true,
            "inputs": [],
            "name": "TokensDisponibles",
            "outputs": [
                {
                    "internalType": "uint256",
                    "name": "",
                    "type": "uint256"
                }
            ],
            "payable": false,
            "stateMutability": "view",
            "type": "function"
        },
        {
            "constant": true,
            "inputs": [],
            "name": "contrato",
            "outputs": [
                {
                    "internalType": "address",
                    "name": "",
                    "type": "address"
                }
            ],
            "payable": false,
            "stateMutability": "view",
            "type": "function"
        },
        {
            "constant": true,
            "inputs": [],
            "name": "owner",
            "outputs": [
                {
                    "internalType": "address",
                    "name": "",
                    "type": "address"
                }
            ],
            "payable": false,
            "stateMutability": "view",
            "type": "function"
        },
        {
            "constant": true,
            "inputs": [],
            "name": "tokens_creados",
            "outputs": [
                {
                    "internalType": "uint256",
                    "name": "",
                    "type": "uint256"
                }
            ],
            "payable": false,
            "stateMutability": "view",
            "type": "function"
        }
    ],
    "bytecode": "608060405261271060035534801561001657600080fd5b5060035460405161002690610086565b61003091906100a2565b604051809103906000f08015801561004c573d6000803e3d6000fd5b50600080546001600160a01b03929092166001600160a01b03199283161790556001805482163317905560028054909116301790556100b9565b61089e806107d383390190565b61009c816100b6565b82525050565b602081016100b08284610093565b92915050565b90565b61070b806100c86000396000f3fe60806040526004361061007b5760003560e01c8063e1a01e671161004e578063e1a01e6714610104578063f777409114610119578063fd62ed8c1461012c578063fd889ff5146101415761007b565b80631246f6e2146100805780634be250d1146100a257806374189861146100cd5780638da5cb5b146100e2575b600080fd5b34801561008c57600080fd5b506100a061009b3660046104ab565b610156565b005b3480156100ae57600080fd5b506100b76101f1565b6040516100c49190610661565b60405180910390f35b3480156100d957600080fd5b506100b7610277565b3480156100ee57600080fd5b506100f76102ac565b6040516100c491906105f3565b34801561011057600080fd5b506100f76102bb565b6100a06101273660046104ab565b6102ca565b34801561013857600080fd5b506100b7610416565b34801561014d57600080fd5b506100b761041c565b60015433906001600160a01b0316811461018b5760405162461bcd60e51b815260040161018290610641565b60405180910390fd5b600054604051634ee22adf60e01b81526001600160a01b0390911690634ee22adf906101bb908590600401610661565b600060405180830381600087803b1580156101d557600080fd5b505af11580156101e9573d6000803e3d6000fd5b505050505050565b600080546040516370a0823160e01b81526001600160a01b03909116906370a0823190610222903390600401610601565b60206040518083038186803b15801561023a57600080fd5b505afa15801561024e573d6000803e3d6000fd5b505050506040513d601f19601f8201168201806040525061027291908101906104c9565b905090565b600080546001546040516370a0823160e01b81526001600160a01b03928316926370a0823192610222929116906004016105f3565b6001546001600160a01b031681565b6002546001600160a01b031681565b60006102d582610451565b9050803410156102f75760405162461bcd60e51b815260040161018290610651565b60405133903483900380156108fc02916000818181858888f19350505050158015610326573d6000803e3d6000fd5b50600061033161041c565b9050808311156103535760405162461bcd60e51b815260040161018290610631565b60005460405163a9059cbb60e01b81526001600160a01b039091169063a9059cbb90610385903390879060040161060f565b602060405180830381600087803b15801561039f57600080fd5b505af11580156103b3573d6000803e3d6000fd5b505050506040513d601f19601f820116820180604052506103d79190810190610485565b507f8d35b2008914b300cd77b3e786049342b24397a19a58fb6d6fc472dfb3053d50338460405161040992919061060f565b60405180910390a1505050565b60035481565b600080546002546040516370a0823160e01b81526001600160a01b03928316926370a0823192610222929116906004016105f3565b67016345785d8a00000290565b8051610469816106a8565b92915050565b8035610469816106bf565b8051610469816106bf565b60006020828403121561049757600080fd5b60006104a3848461045e565b949350505050565b6000602082840312156104bd57600080fd5b60006104a3848461046f565b6000602082840312156104db57600080fd5b60006104a3848461047a565b6104f081610697565b82525050565b6104f081610678565b600061050c60298361066f565b7f4e6f207469656e657320737566696369656e74657320746f6b656e7320706172815268309031b7b6b83930b960b91b602082015260400192915050565b6000610557602c8361066f565b7f4e6f207469656e6573207065726d69736f732070617261207265616c697a617281526b1032b9ba309030b1b1b4b7b760a11b602082015260400192915050565b60006105a560308361066f565b7f4e6f207469656e657320737566696369656e746573206574686572732070617281526f6120636f6d7072617220746f6b656e7360801b602082015260400192915050565b6104f081610694565b6020810161046982846104f6565b6020810161046982846104e7565b6040810161061d82856104e7565b61062a60208301846105ea565b9392505050565b60208082528101610469816104ff565b602080825281016104698161054a565b6020808252810161046981610598565b6020810161046982846105ea565b90815260200190565b600061046982610688565b151590565b6001600160a01b031690565b90565b600061046982600061046982610678565b6106b181610683565b81146106bc57600080fd5b50565b6106b18161069456fea365627a7a72315820ce22010bb6a557244455f0482c3b374b534b4053fdb332d90df7410ef7170c606c6578706572696d656e74616cf564736f6c63430005100040608060405234801561001057600080fd5b5060405161089e38038061089e83398101604081905261002f9161005a565b60028190553360009081526020819052604090205561009a565b805161005481610083565b92915050565b60006020828403121561006c57600080fd5b60006100788484610049565b949350505050565b90565b61008c81610080565b811461009757600080fd5b50565b6107f5806100a96000396000f3fe608060405234801561001057600080fd5b50600436106100a95760003560e01c80634ee22adf116100715780634ee22adf1461012957806370a082311461013e57806395d89b4114610151578063a9059cbb14610159578063dd62ed3e1461016c578063f7a1d1941461017f576100a9565b806306fdde03146100ae578063095ea7b3146100cc57806318160ddd146100ec57806323b872dd14610101578063313ce56714610114575b600080fd5b6100b6610192565b6040516100c391906106f9565b60405180910390f35b6100df6100da366004610644565b6101b8565b6040516100c391906106eb565b6100f4610223565b6040516100c3919061070a565b6100df61010f3660046105f7565b610229565b61011c610389565b6040516100c39190610718565b61013c610137366004610674565b61038e565b005b6100f461014c366004610597565b6103ae565b6100b66103c9565b6100df610167366004610644565b6103ee565b6100f461017a3660046105bd565b6104ab565b6100df61018d3660046105f7565b6104d6565b6040518060400160405280600a8152602001694552433230426173696360b01b81525081565b3360008181526001602090815260408083206001600160a01b038716808552925280832085905551919290917f8c5be1e5ebec7d5bd14f71427d1e84f3dd0314c0f7b2291e5b200ac8c7c3b9259061021190869061070a565b60405180910390a35060015b92915050565b60025490565b6001600160a01b03831660009081526020819052604081205482111561024e57600080fd5b6001600160a01b038416600090815260016020908152604080832033845290915290205482111561027e57600080fd5b6001600160a01b0384166000908152602081905260409020546102a7908363ffffffff61055916565b6001600160a01b0385166000908152602081815260408083209390935560018152828220338352905220546102e2908363ffffffff61055916565b6001600160a01b0380861660009081526001602090815260408083203384528252808320949094559186168152908190522054610325908363ffffffff61056b16565b6001600160a01b0380851660008181526020819052604090819020939093559151908616907fddf252ad1be2c89b69c2b068fc378daa952ba7f163c4a11628f55a4df523b3ef9061037790869061070a565b60405180910390a35060019392505050565b600281565b600280548201905533600090815260208190526040902080549091019055565b6001600160a01b031660009081526020819052604090205490565b6040518060400160405280600981526020016825212516aa27a5a2a760b91b81525081565b3360009081526020819052604081205482111561040a57600080fd5b3360009081526020819052604090205461042a908363ffffffff61055916565b33600090815260208190526040808220929092556001600160a01b0385168152205461045c908363ffffffff61056b16565b6001600160a01b0384166000818152602081905260409081902092909255905133907fddf252ad1be2c89b69c2b068fc378daa952ba7f163c4a11628f55a4df523b3ef9061021190869061070a565b6001600160a01b03918216600090815260016020908152604080832093909416825291909152205490565b6001600160a01b0383166000908152602081905260408120548211156104fb57600080fd5b6001600160a01b038416600090815260208190526040902054610524908363ffffffff61055916565b6001600160a01b038086166000908152602081905260408082209390935590851681522054610325908363ffffffff61056b16565b60008282111561056557fe5b50900390565b60008282018381101561057a57fe5b9392505050565b803561021d81610792565b803561021d816107a9565b6000602082840312156105a957600080fd5b60006105b58484610581565b949350505050565b600080604083850312156105d057600080fd5b60006105dc8585610581565b92505060206105ed85828601610581565b9150509250929050565b60008060006060848603121561060c57600080fd5b60006106188686610581565b935050602061062986828701610581565b925050604061063a8682870161058c565b9150509250925092565b6000806040838503121561065757600080fd5b60006106638585610581565b92505060206105ed8582860161058c565b60006020828403121561068657600080fd5b60006105b5848461058c565b61069b8161073e565b82525050565b60006106ac82610726565b6106b6818561072a565b93506106c6818560208601610758565b6106cf81610788565b9093019392505050565b61069b8161074f565b61069b81610752565b6020810161021d8284610692565b6020808252810161057a81846106a1565b6020810161021d82846106d9565b6020810161021d82846106e2565b5190565b90815260200190565b600061021d82610743565b151590565b6001600160a01b031690565b90565b60ff1690565b60005b8381101561077357818101518382015260200161075b565b83811115610782576000848401525b50505050565b601f01601f191690565b61079b81610733565b81146107a657600080fd5b50565b61079b8161074f56fea365627a7a72315820297fef5f81f16001d3e68c843839ed8f0e9bfd931e0900e885fbd10d3b5e1ede6c6578706572696d656e74616cf564736f6c63430005100040",
    "sourcePath": "/home/secondport/Documents/SmartContracts/Proyectos/Sistema-de-Loteria/Loteria.sol",
    "compiler": {
        "name": "solc",
        "version": "0.5.16+commit.9c3226ce"
    },
    "functionHashes": {
        "Bote()": "74189861",
        "CompraTokens(uint256)": "f7774091",
        "GeneraTokens(uint256)": "1246f6e2",
        "MisTokes()": "4be250d1",
        "TokensDisponibles()": "fd889ff5",
        "contrato()": "e1a01e67",
        "owner()": "8da5cb5b",
        "tokens_creados()": "fd62ed8c"
    },
    "gasEstimates": {
        "creation": {
            "codeDepositCost": "360600",
            "executionCost": "infinite",
            "totalCost": "infinite"
        },
        "external": {
            "Bote()": "infinite",
            "CompraTokens(uint256)": "infinite",
            "GeneraTokens(uint256)": "infinite",
            "MisTokes()": "infinite",
            "TokensDisponibles()": "infinite",
            "contrato()": "infinite",
            "owner()": "infinite",
            "tokens_creados()": "1143"
        },
        "internal": {
            "PrecioTokens(uint256)": "20"
        }
    }
}