{
    "contractName": "loteria",
    "abi": [
        {
            "inputs": [],
            "payable": false,
            "stateMutability": "nonpayable",
            "type": "constructor"
        },
        {
            "anonymous": false,
            "inputs": [
                {
                    "indexed": false,
                    "internalType": "address",
                    "name": "",
                    "type": "address"
                },
                {
                    "indexed": false,
                    "internalType": "uint256",
                    "name": "",
                    "type": "uint256"
                }
            ],
            "name": "ComprandoTokens",
            "type": "event"
        },
        {
            "anonymous": false,
            "inputs": [
                {
                    "indexed": false,
                    "internalType": "uint256",
                    "name": "",
                    "type": "uint256"
                }
            ],
            "name": "boleto_comprado",
            "type": "event"
        },
        {
            "anonymous": false,
            "inputs": [
                {
                    "indexed": false,
                    "internalType": "uint256",
                    "name": "",
                    "type": "uint256"
                }
            ],
            "name": "boleto_ganador",
            "type": "event"
        },
        {
            "constant": true,
            "inputs": [
                {
                    "internalType": "uint256",
                    "name": "",
                    "type": "uint256"
                }
            ],
            "name": "ADN_Boleto",
            "outputs": [
                {
                    "internalType": "address",
                    "name": "",
                    "type": "address"
                }
            ],
            "payable": false,
            "stateMutability": "view",
            "type": "function"
        },
        {
            "constant": true,
            "inputs": [],
            "name": "Bote",
            "outputs": [
                {
                    "internalType": "uint256",
                    "name": "",
                    "type": "uint256"
                }
            ],
            "payable": false,
            "stateMutability": "view",
            "type": "function"
        },
        {
            "constant": false,
            "inputs": [
                {
                    "internalType": "uint256",
                    "name": "_boletos",
                    "type": "uint256"
                }
            ],
            "name": "CompraBoleto",
            "outputs": [],
            "payable": false,
            "stateMutability": "nonpayable",
            "type": "function"
        },
        {
            "constant": false,
            "inputs": [
                {
                    "internalType": "uint256",
                    "name": "_numTokens",
                    "type": "uint256"
                }
            ],
            "name": "CompraTokens",
            "outputs": [],
            "payable": true,
            "stateMutability": "payable",
            "type": "function"
        },
        {
            "constant": false,
            "inputs": [],
            "name": "Ganador",
            "outputs": [],
            "payable": false,
            "stateMutability": "nonpayable",
            "type": "function"
        },
        {
            "constant": false,
            "inputs": [
                {
                    "internalType": "uint256",
                    "name": "_numTokens",
                    "type": "uint256"
                }
            ],
            "name": "GeneraTokens",
            "outputs": [],
            "payable": false,
            "stateMutability": "nonpayable",
            "type": "function"
        },
        {
            "constant": true,
            "inputs": [],
            "name": "MisTokes",
            "outputs": [
                {
                    "internalType": "uint256",
                    "name": "",
                    "type": "uint256"
                }
            ],
            "payable": false,
            "stateMutability": "view",
            "type": "function"
        },
        {
            "constant": true,
            "inputs": [],
            "name": "PrecioBoleto",
            "outputs": [
                {
                    "internalType": "uint256",
                    "name": "",
                    "type": "uint256"
                }
            ],
            "payable": false,
            "stateMutability": "view",
            "type": "function"
        },
        {
            "constant": true,
            "inputs": [],
            "name": "TokensDisponibles",
            "outputs": [
                {
                    "internalType": "uint256",
                    "name": "",
                    "type": "uint256"
                }
            ],
            "payable": false,
            "stateMutability": "view",
            "type": "function"
        },
        {
            "constant": true,
            "inputs": [],
            "name": "TusBoletos",
            "outputs": [
                {
                    "internalType": "uint256[]",
                    "name": "",
                    "type": "uint256[]"
                }
            ],
            "payable": false,
            "stateMutability": "view",
            "type": "function"
        },
        {
            "constant": true,
            "inputs": [],
            "name": "contrato",
            "outputs": [
                {
                    "internalType": "address",
                    "name": "",
                    "type": "address"
                }
            ],
            "payable": false,
            "stateMutability": "view",
            "type": "function"
        },
        {
            "constant": true,
            "inputs": [
                {
                    "internalType": "address",
                    "name": "",
                    "type": "address"
                },
                {
                    "internalType": "uint256",
                    "name": "",
                    "type": "uint256"
                }
            ],
            "name": "idPersona_boletos",
            "outputs": [
                {
                    "internalType": "uint256",
                    "name": "",
                    "type": "uint256"
                }
            ],
            "payable": false,
            "stateMutability": "view",
            "type": "function"
        },
        {
            "constant": true,
            "inputs": [],
            "name": "owner",
            "outputs": [
                {
                    "internalType": "address",
                    "name": "",
                    "type": "address"
                }
            ],
            "payable": false,
            "stateMutability": "view",
            "type": "function"
        },
        {
            "constant": true,
            "inputs": [],
            "name": "tokens_creados",
            "outputs": [
                {
                    "internalType": "uint256",
                    "name": "",
                    "type": "uint256"
                }
            ],
            "payable": false,
            "stateMutability": "view",
            "type": "function"
        }
    ],
    "bytecode": "60806040526127106003556005600455600060075534801561002057600080fd5b5060035460405161003090610090565b61003a91906100ac565b604051809103906000f080158015610056573d6000803e3d6000fd5b50600080546001600160a01b03929092166001600160a01b03199283161790556001805482163317905560028054909116301790556100c3565b61089e80610f1483390190565b6100a6816100c0565b82525050565b602081016100ba828461009d565b92915050565b90565b610e42806100d26000396000f3fe6080604052600436106100dd5760003560e01c80638c11ff4c1161007f578063e1a01e6711610059578063e1a01e6714610212578063f777409114610227578063fd62ed8c1461023a578063fd889ff51461024f576100dd565b80638c11ff4c146101ae5780638da5cb5b146101d0578063d23ff668146101f2576100dd565b80634be250d1116100bb5780634be250d11461014f57806355911cc11461016457806374189861146101795780638acb3a211461018e576100dd565b80631246f6e2146100e257806327909f2714610104578063454e079b1461012f575b600080fd5b3480156100ee57600080fd5b506101026100fd3660046109ee565b610264565b005b34801561011057600080fd5b506101196102ff565b6040516101269190610d73565b60405180910390f35b34801561013b57600080fd5b5061011961014a36600461098e565b610305565b34801561015b57600080fd5b50610119610333565b34801561017057600080fd5b506101026103b9565b34801561018557600080fd5b50610119610530565b34801561019a57600080fd5b506101026101a93660046109ee565b610565565b3480156101ba57600080fd5b506101c361072e565b6040516101269190610d12565b3480156101dc57600080fd5b506101e561078f565b6040516101269190610cac565b3480156101fe57600080fd5b506101e561020d3660046109ee565b61079e565b34801561021e57600080fd5b506101e56107b9565b6101026102353660046109ee565b6107c8565b34801561024657600080fd5b50610119610914565b34801561025b57600080fd5b5061011961091a565b60015433906001600160a01b031681146102995760405162461bcd60e51b815260040161029090610d43565b60405180910390fd5b600054604051634ee22adf60e01b81526001600160a01b0390911690634ee22adf906102c9908590600401610d73565b600060405180830381600087803b1580156102e357600080fd5b505af11580156102f7573d6000803e3d6000fd5b505050505050565b60045481565b6005602052816000526040600020818154811061031e57fe5b90600052602060002001600091509150505481565b600080546040516370a0823160e01b81526001600160a01b03909116906370a0823190610364903390600401610cba565b60206040518083038186803b15801561037c57600080fd5b505afa158015610390573d6000803e3d6000fd5b505050506040513d601f19601f820116820180604052506103b49190810190610a0c565b905090565b60015433906001600160a01b031681146103e55760405162461bcd60e51b815260040161029090610d43565b6008546104045760405162461bcd60e51b815260040161029090610d53565b600854604051600090829061041d904290602001610c60565b6040516020818303038152906040528051906020012060001c8161043d57fe5b06905060006008828154811061044f57fe5b906000526020600020015490507f7ae8aa8a76009e9379a432b67d892b6006479447de6892c862ce780785a2387d8160405161048b9190610d73565b60405180910390a160008181526006602052604081205490546001600160a01b03918216911663f7a1d19433836104c0610530565b6040518463ffffffff1660e01b81526004016104de93929190610cc8565b602060405180830381600087803b1580156104f857600080fd5b505af115801561050c573d6000803e3d6000fd5b505050506040513d601f19601f820116820180604052506102f791908101906109c8565b600080546001546040516370a0823160e01b81526001600160a01b03928316926370a082319261036492911690600401610cac565b600454810280610573610333565b10156105915760405162461bcd60e51b815260040161029090610d33565b600054600154604051633de8746560e21b81526001600160a01b039283169263f7a1d194926105ca923392909116908690600401610cc8565b602060405180830381600087803b1580156105e457600080fd5b505af11580156105f8573d6000803e3d6000fd5b505050506040513d601f19601f8201168201806040525061061c91908101906109c8565b5060005b82811015610729576000612710423360075460405160200161064493929190610c75565b6040516020818303038152906040528051906020012060001c8161066457fe5b6007805460019081019091553360008181526005602090815260408083208054808701825590845282842097909606969095018690556008805494850190557ff3f7a9fe364faab93b216da50a3214154f22a0a2b415b23a84c8169e8b636ee390930185905584815260069092529082902080546001600160a01b0319169091179055519091507fa69929cb3af1145490f7129170489946bf07bc6cd7474fc4172efc5ec3f060e390610718908390610d73565b60405180910390a150600101610620565b505050565b3360009081526005602090815260409182902080548351818402810184019094528084526060939283018282801561078557602002820191906000526020600020905b815481526020019060010190808311610771575b5050505050905090565b6001546001600160a01b031681565b6006602052600090815260409020546001600160a01b031681565b6002546001600160a01b031681565b60006107d38261094f565b9050803410156107f55760405162461bcd60e51b815260040161029090610d63565b60405133903483900380156108fc02916000818181858888f19350505050158015610824573d6000803e3d6000fd5b50600061082f61091a565b9050808311156108515760405162461bcd60e51b815260040161029090610d23565b60005460405163a9059cbb60e01b81526001600160a01b039091169063a9059cbb906108839033908790600401610cf0565b602060405180830381600087803b15801561089d57600080fd5b505af11580156108b1573d6000803e3d6000fd5b505050506040513d601f19601f820116820180604052506108d591908101906109c8565b507f8d35b2008914b300cd77b3e786049342b24397a19a58fb6d6fc472dfb3053d503384604051610907929190610cf0565b60405180910390a1505050565b60035481565b600080546002546040516370a0823160e01b81526001600160a01b03928316926370a082319261036492911690600401610cac565b67016345785d8a00000290565b803561096781610dd6565b92915050565b805161096781610ded565b803561096781610df6565b805161096781610df6565b600080604083850312156109a157600080fd5b60006109ad858561095c565b92505060206109be85828601610978565b9150509250929050565b6000602082840312156109da57600080fd5b60006109e6848461096d565b949350505050565b600060208284031215610a0057600080fd5b60006109e68484610978565b600060208284031215610a1e57600080fd5b60006109e68484610983565b6000610a368383610c46565b505060200190565b610a4781610db3565b82525050565b610a47610a5982610d94565b610dc4565b610a4781610d94565b6000610a7282610d87565b610a7c8185610d8b565b9350610a8783610d81565b8060005b83811015610ab5578151610a9f8882610a2a565b9750610aaa83610d81565b925050600101610a8b565b509495945050505050565b6000610acd602983610d8b565b7f4e6f207469656e657320737566696369656e74657320746f6b656e7320706172815268309031b7b6b83930b960b91b602082015260400192915050565b6000610b18603183610d8b565b7f4e6f207469656e657320737566696369656e74657320657468657273207061728152706120636f6d7072617220626f6c65746f7360781b602082015260400192915050565b6000610b6b602c83610d8b565b7f4e6f207469656e6573207065726d69736f732070617261207265616c697a617281526b1032b9ba309030b1b1b4b7b760a11b602082015260400192915050565b6000610bb9602683610d8b565b7f4e6f2068617920626f6c65746f7320706172612067656e6572617220756e206781526530b730b237b960d11b602082015260400192915050565b6000610c01603083610d8b565b7f4e6f207469656e657320737566696369656e746573206574686572732070617281526f6120636f6d7072617220746f6b656e7360801b602082015260400192915050565b610a4781610db0565b610a47610c5b82610db0565b610db0565b6000610c6c8284610c4f565b50602001919050565b6000610c818286610c4f565b602082019150610c918285610a4d565b601482019150610ca18284610c4f565b506020019392505050565b602081016109678284610a5e565b602081016109678284610a3e565b60608101610cd68286610a3e565b610ce36020830185610a5e565b6109e66040830184610c46565b60408101610cfe8285610a3e565b610d0b6020830184610c46565b9392505050565b60208082528101610d0b8184610a67565b6020808252810161096781610ac0565b6020808252810161096781610b0b565b6020808252810161096781610b5e565b6020808252810161096781610bac565b6020808252810161096781610bf4565b602081016109678284610c46565b60200190565b5190565b90815260200190565b600061096782610da4565b151590565b6001600160a01b031690565b90565b600061096782600061096782610d94565b60006109678260006109678260601b90565b610ddf81610d94565b8114610dea57600080fd5b50565b610ddf81610d9f565b610ddf81610db056fea365627a7a7231582021677b8114c56ca04198763b2061ad99320cd20f71af176833b0849b56a3679a6c6578706572696d656e74616cf564736f6c63430005100040608060405234801561001057600080fd5b5060405161089e38038061089e83398101604081905261002f9161005a565b60028190553360009081526020819052604090205561009a565b805161005481610083565b92915050565b60006020828403121561006c57600080fd5b60006100788484610049565b949350505050565b90565b61008c81610080565b811461009757600080fd5b50565b6107f5806100a96000396000f3fe608060405234801561001057600080fd5b50600436106100a95760003560e01c80634ee22adf116100715780634ee22adf1461012957806370a082311461013e57806395d89b4114610151578063a9059cbb14610159578063dd62ed3e1461016c578063f7a1d1941461017f576100a9565b806306fdde03146100ae578063095ea7b3146100cc57806318160ddd146100ec57806323b872dd14610101578063313ce56714610114575b600080fd5b6100b6610192565b6040516100c391906106f9565b60405180910390f35b6100df6100da366004610644565b6101b8565b6040516100c391906106eb565b6100f4610223565b6040516100c3919061070a565b6100df61010f3660046105f7565b610229565b61011c610389565b6040516100c39190610718565b61013c610137366004610674565b61038e565b005b6100f461014c366004610597565b6103ae565b6100b66103c9565b6100df610167366004610644565b6103ee565b6100f461017a3660046105bd565b6104ab565b6100df61018d3660046105f7565b6104d6565b6040518060400160405280600a8152602001694552433230426173696360b01b81525081565b3360008181526001602090815260408083206001600160a01b038716808552925280832085905551919290917f8c5be1e5ebec7d5bd14f71427d1e84f3dd0314c0f7b2291e5b200ac8c7c3b9259061021190869061070a565b60405180910390a35060015b92915050565b60025490565b6001600160a01b03831660009081526020819052604081205482111561024e57600080fd5b6001600160a01b038416600090815260016020908152604080832033845290915290205482111561027e57600080fd5b6001600160a01b0384166000908152602081905260409020546102a7908363ffffffff61055916565b6001600160a01b0385166000908152602081815260408083209390935560018152828220338352905220546102e2908363ffffffff61055916565b6001600160a01b0380861660009081526001602090815260408083203384528252808320949094559186168152908190522054610325908363ffffffff61056b16565b6001600160a01b0380851660008181526020819052604090819020939093559151908616907fddf252ad1be2c89b69c2b068fc378daa952ba7f163c4a11628f55a4df523b3ef9061037790869061070a565b60405180910390a35060019392505050565b600281565b600280548201905533600090815260208190526040902080549091019055565b6001600160a01b031660009081526020819052604090205490565b6040518060400160405280600981526020016825212516aa27a5a2a760b91b81525081565b3360009081526020819052604081205482111561040a57600080fd5b3360009081526020819052604090205461042a908363ffffffff61055916565b33600090815260208190526040808220929092556001600160a01b0385168152205461045c908363ffffffff61056b16565b6001600160a01b0384166000818152602081905260409081902092909255905133907fddf252ad1be2c89b69c2b068fc378daa952ba7f163c4a11628f55a4df523b3ef9061021190869061070a565b6001600160a01b03918216600090815260016020908152604080832093909416825291909152205490565b6001600160a01b0383166000908152602081905260408120548211156104fb57600080fd5b6001600160a01b038416600090815260208190526040902054610524908363ffffffff61055916565b6001600160a01b038086166000908152602081905260408082209390935590851681522054610325908363ffffffff61056b16565b60008282111561056557fe5b50900390565b60008282018381101561057a57fe5b9392505050565b803561021d81610792565b803561021d816107a9565b6000602082840312156105a957600080fd5b60006105b58484610581565b949350505050565b600080604083850312156105d057600080fd5b60006105dc8585610581565b92505060206105ed85828601610581565b9150509250929050565b60008060006060848603121561060c57600080fd5b60006106188686610581565b935050602061062986828701610581565b925050604061063a8682870161058c565b9150509250925092565b6000806040838503121561065757600080fd5b60006106638585610581565b92505060206105ed8582860161058c565b60006020828403121561068657600080fd5b60006105b5848461058c565b61069b8161073e565b82525050565b60006106ac82610726565b6106b6818561072a565b93506106c6818560208601610758565b6106cf81610788565b9093019392505050565b61069b8161074f565b61069b81610752565b6020810161021d8284610692565b6020808252810161057a81846106a1565b6020810161021d82846106d9565b6020810161021d82846106e2565b5190565b90815260200190565b600061021d82610743565b151590565b6001600160a01b031690565b90565b60ff1690565b60005b8381101561077357818101518382015260200161075b565b83811115610782576000848401525b50505050565b601f01601f191690565b61079b81610733565b81146107a657600080fd5b50565b61079b8161074f56fea365627a7a72315820297fef5f81f16001d3e68c843839ed8f0e9bfd931e0900e885fbd10d3b5e1ede6c6578706572696d656e74616cf564736f6c63430005100040",
    "sourcePath": "/home/secondport/Documents/SmartContracts/Proyectos/Sistema-de-Loteria/Loteria.sol",
    "compiler": {
        "name": "solc",
        "version": "0.5.16+commit.9c3226ce"
    },
    "functionHashes": {
        "ADN_Boleto(uint256)": "d23ff668",
        "Bote()": "74189861",
        "CompraBoleto(uint256)": "8acb3a21",
        "CompraTokens(uint256)": "f7774091",
        "Ganador()": "55911cc1",
        "GeneraTokens(uint256)": "1246f6e2",
        "MisTokes()": "4be250d1",
        "PrecioBoleto()": "27909f27",
        "TokensDisponibles()": "fd889ff5",
        "TusBoletos()": "8c11ff4c",
        "contrato()": "e1a01e67",
        "idPersona_boletos(address,uint256)": "454e079b",
        "owner()": "8da5cb5b",
        "tokens_creados()": "fd62ed8c"
    },
    "gasEstimates": {
        "creation": {
            "codeDepositCost": "730000",
            "executionCost": "infinite",
            "totalCost": "infinite"
        },
        "external": {
            "ADN_Boleto(uint256)": "infinite",
            "Bote()": "infinite",
            "CompraBoleto(uint256)": "infinite",
            "CompraTokens(uint256)": "infinite",
            "Ganador()": "infinite",
            "GeneraTokens(uint256)": "infinite",
            "MisTokes()": "infinite",
            "PrecioBoleto()": "1145",
            "TokensDisponibles()": "infinite",
            "TusBoletos()": "infinite",
            "contrato()": "infinite",
            "idPersona_boletos(address,uint256)": "infinite",
            "owner()": "infinite",
            "tokens_creados()": "1165"
        },
        "internal": {
            "PrecioTokens(uint256)": "20"
        }
    }
}