{
    "contractName": "loteria",
    "abi": [
        {
            "inputs": [],
            "payable": false,
            "stateMutability": "nonpayable",
            "type": "constructor"
        },
        {
            "anonymous": false,
            "inputs": [
                {
                    "indexed": false,
                    "internalType": "address",
                    "name": "",
                    "type": "address"
                },
                {
                    "indexed": false,
                    "internalType": "uint256",
                    "name": "",
                    "type": "uint256"
                }
            ],
            "name": "ComprandoTokens",
            "type": "event"
        },
        {
            "anonymous": false,
            "inputs": [
                {
                    "indexed": false,
                    "internalType": "uint256",
                    "name": "",
                    "type": "uint256"
                }
            ],
            "name": "boleto_comprado",
            "type": "event"
        },
        {
            "anonymous": false,
            "inputs": [
                {
                    "indexed": false,
                    "internalType": "uint256",
                    "name": "",
                    "type": "uint256"
                }
            ],
            "name": "boleto_ganador",
            "type": "event"
        },
        {
            "anonymous": false,
            "inputs": [
                {
                    "indexed": false,
                    "internalType": "address",
                    "name": "",
                    "type": "address"
                },
                {
                    "indexed": false,
                    "internalType": "uint256",
                    "name": "",
                    "type": "uint256"
                }
            ],
            "name": "tokens_devueltos",
            "type": "event"
        },
        {
            "constant": true,
            "inputs": [
                {
                    "internalType": "uint256",
                    "name": "",
                    "type": "uint256"
                }
            ],
            "name": "ADN_Boleto",
            "outputs": [
                {
                    "internalType": "address",
                    "name": "",
                    "type": "address"
                }
            ],
            "payable": false,
            "stateMutability": "view",
            "type": "function"
        },
        {
            "constant": true,
            "inputs": [],
            "name": "Bote",
            "outputs": [
                {
                    "internalType": "uint256",
                    "name": "",
                    "type": "uint256"
                }
            ],
            "payable": false,
            "stateMutability": "view",
            "type": "function"
        },
        {
            "constant": false,
            "inputs": [
                {
                    "internalType": "uint256",
                    "name": "_boletos",
                    "type": "uint256"
                }
            ],
            "name": "CompraBoleto",
            "outputs": [],
            "payable": false,
            "stateMutability": "nonpayable",
            "type": "function"
        },
        {
            "constant": false,
            "inputs": [
                {
                    "internalType": "uint256",
                    "name": "_numTokens",
                    "type": "uint256"
                }
            ],
            "name": "CompraTokens",
            "outputs": [],
            "payable": true,
            "stateMutability": "payable",
            "type": "function"
        },
        {
            "constant": false,
            "inputs": [
                {
                    "internalType": "uint256",
                    "name": "_numTokens",
                    "type": "uint256"
                }
            ],
            "name": "DevolverTokens",
            "outputs": [],
            "payable": true,
            "stateMutability": "payable",
            "type": "function"
        },
        {
            "constant": false,
            "inputs": [],
            "name": "Ganador",
            "outputs": [],
            "payable": false,
            "stateMutability": "nonpayable",
            "type": "function"
        },
        {
            "constant": false,
            "inputs": [
                {
                    "internalType": "uint256",
                    "name": "_numTokens",
                    "type": "uint256"
                }
            ],
            "name": "GeneraTokens",
            "outputs": [],
            "payable": false,
            "stateMutability": "nonpayable",
            "type": "function"
        },
        {
            "constant": true,
            "inputs": [],
            "name": "MisTokes",
            "outputs": [
                {
                    "internalType": "uint256",
                    "name": "",
                    "type": "uint256"
                }
            ],
            "payable": false,
            "stateMutability": "view",
            "type": "function"
        },
        {
            "constant": true,
            "inputs": [],
            "name": "PrecioBoleto",
            "outputs": [
                {
                    "internalType": "uint256",
                    "name": "",
                    "type": "uint256"
                }
            ],
            "payable": false,
            "stateMutability": "view",
            "type": "function"
        },
        {
            "constant": true,
            "inputs": [],
            "name": "TokensDisponibles",
            "outputs": [
                {
                    "internalType": "uint256",
                    "name": "",
                    "type": "uint256"
                }
            ],
            "payable": false,
            "stateMutability": "view",
            "type": "function"
        },
        {
            "constant": true,
            "inputs": [],
            "name": "TusBoletos",
            "outputs": [
                {
                    "internalType": "uint256[]",
                    "name": "",
                    "type": "uint256[]"
                }
            ],
            "payable": false,
            "stateMutability": "view",
            "type": "function"
        },
        {
            "constant": true,
            "inputs": [],
            "name": "contrato",
            "outputs": [
                {
                    "internalType": "address",
                    "name": "",
                    "type": "address"
                }
            ],
            "payable": false,
            "stateMutability": "view",
            "type": "function"
        },
        {
            "constant": true,
            "inputs": [
                {
                    "internalType": "address",
                    "name": "",
                    "type": "address"
                },
                {
                    "internalType": "uint256",
                    "name": "",
                    "type": "uint256"
                }
            ],
            "name": "idPersona_boletos",
            "outputs": [
                {
                    "internalType": "uint256",
                    "name": "",
                    "type": "uint256"
                }
            ],
            "payable": false,
            "stateMutability": "view",
            "type": "function"
        },
        {
            "constant": true,
            "inputs": [],
            "name": "owner",
            "outputs": [
                {
                    "internalType": "address",
                    "name": "",
                    "type": "address"
                }
            ],
            "payable": false,
            "stateMutability": "view",
            "type": "function"
        },
        {
            "constant": true,
            "inputs": [],
            "name": "tokens_creados",
            "outputs": [
                {
                    "internalType": "uint256",
                    "name": "",
                    "type": "uint256"
                }
            ],
            "payable": false,
            "stateMutability": "view",
            "type": "function"
        }
    ],
    "bytecode": "60806040526127106003556005600455600060075534801561002057600080fd5b5060035460405161003090610090565b61003a91906100ac565b604051809103906000f080158015610056573d6000803e3d6000fd5b50600080546001600160a01b03929092166001600160a01b03199283161790556001805482163317905560028054909116301790556100c3565b61089e8061111783390190565b6100a6816100c0565b82525050565b602081016100ba828461009d565b92915050565b90565b611045806100d26000396000f3fe6080604052600436106100e85760003560e01c80638acb3a211161008a578063e1a01e6711610059578063e1a01e6714610230578063f777409114610245578063fd62ed8c14610258578063fd889ff51461026d576100e8565b80638acb3a21146101ac5780638c11ff4c146101cc5780638da5cb5b146101ee578063d23ff66814610210576100e8565b8063454e079b116100c6578063454e079b1461014d5780634be250d11461016d57806355911cc1146101825780637418986114610197576100e8565b80631246f6e2146100ed5780631890154c1461010f57806327909f2714610122575b600080fd5b3480156100f957600080fd5b5061010d610108366004610b4c565b610282565b005b61010d61011d366004610b4c565b61031d565b34801561012e57600080fd5b5061013761045d565b6040516101449190610f76565b60405180910390f35b34801561015957600080fd5b50610137610168366004610aec565b610463565b34801561017957600080fd5b50610137610491565b34801561018e57600080fd5b5061010d610517565b3480156101a357600080fd5b5061013761068e565b3480156101b857600080fd5b5061010d6101c7366004610b4c565b6106c3565b3480156101d857600080fd5b506101e161088c565b6040516101449190610ef5565b3480156101fa57600080fd5b506102036108ed565b6040516101449190610e8f565b34801561021c57600080fd5b5061020361022b366004610b4c565b6108fc565b34801561023c57600080fd5b50610203610917565b61010d610253366004610b4c565b610926565b34801561026457600080fd5b50610137610a72565b34801561027957600080fd5b50610137610a78565b60015433906001600160a01b031681146102b75760405162461bcd60e51b81526004016102ae90610f26565b60405180910390fd5b600054604051634ee22adf60e01b81526001600160a01b0390911690634ee22adf906102e7908590600401610f76565b600060405180830381600087803b15801561030157600080fd5b505af1158015610315573d6000803e3d6000fd5b505050505050565b6000811161033d5760405162461bcd60e51b81526004016102ae90610f56565b610345610491565b8111156103645760405162461bcd60e51b81526004016102ae90610f36565b600054604051633de8746560e21b81526001600160a01b039091169063f7a1d1949061039890339030908690600401610eab565b602060405180830381600087803b1580156103b257600080fd5b505af11580156103c6573d6000803e3d6000fd5b505050506040513d601f19601f820116820180604052506103ea9190810190610b26565b50336108fc6103f883610aad565b6040518115909202916000818181858888f19350505050158015610420573d6000803e3d6000fd5b507fe9bd038fe8856c724d7c6ad77a257506076881762021ce5b56deaadb2278237e3382604051610452929190610ed3565b60405180910390a150565b60045481565b6005602052816000526040600020818154811061047c57fe5b90600052602060002001600091509150505481565b600080546040516370a0823160e01b81526001600160a01b03909116906370a08231906104c2903390600401610e9d565b60206040518083038186803b1580156104da57600080fd5b505afa1580156104ee573d6000803e3d6000fd5b505050506040513d601f19601f820116820180604052506105129190810190610b6a565b905090565b60015433906001600160a01b031681146105435760405162461bcd60e51b81526004016102ae90610f26565b6008546105625760405162461bcd60e51b81526004016102ae90610f46565b600854604051600090829061057b904290602001610e43565b6040516020818303038152906040528051906020012060001c8161059b57fe5b0690506000600882815481106105ad57fe5b906000526020600020015490507f7ae8aa8a76009e9379a432b67d892b6006479447de6892c862ce780785a2387d816040516105e99190610f76565b60405180910390a160008181526006602052604081205490546001600160a01b03918216911663f7a1d194338361061e61068e565b6040518463ffffffff1660e01b815260040161063c93929190610eab565b602060405180830381600087803b15801561065657600080fd5b505af115801561066a573d6000803e3d6000fd5b505050506040513d601f19601f820116820180604052506103159190810190610b26565b600080546001546040516370a0823160e01b81526001600160a01b03928316926370a08231926104c292911690600401610e8f565b6004548102806106d1610491565b10156106ef5760405162461bcd60e51b81526004016102ae90610f16565b600054600154604051633de8746560e21b81526001600160a01b039283169263f7a1d19492610728923392909116908690600401610eab565b602060405180830381600087803b15801561074257600080fd5b505af1158015610756573d6000803e3d6000fd5b505050506040513d601f19601f8201168201806040525061077a9190810190610b26565b5060005b8281101561088757600061271042336007546040516020016107a293929190610e58565b6040516020818303038152906040528051906020012060001c816107c257fe5b6007805460019081019091553360008181526005602090815260408083208054808701825590845282842097909606969095018690556008805494850190557ff3f7a9fe364faab93b216da50a3214154f22a0a2b415b23a84c8169e8b636ee390930185905584815260069092529082902080546001600160a01b0319169091179055519091507fa69929cb3af1145490f7129170489946bf07bc6cd7474fc4172efc5ec3f060e390610876908390610f76565b60405180910390a15060010161077e565b505050565b336000908152600560209081526040918290208054835181840281018401909452808452606093928301828280156108e357602002820191906000526020600020905b8154815260200190600101908083116108cf575b5050505050905090565b6001546001600160a01b031681565b6006602052600090815260409020546001600160a01b031681565b6002546001600160a01b031681565b600061093182610aad565b9050803410156109535760405162461bcd60e51b81526004016102ae90610f66565b60405133903483900380156108fc02916000818181858888f19350505050158015610982573d6000803e3d6000fd5b50600061098d610a78565b9050808311156109af5760405162461bcd60e51b81526004016102ae90610f06565b60005460405163a9059cbb60e01b81526001600160a01b039091169063a9059cbb906109e19033908790600401610ed3565b602060405180830381600087803b1580156109fb57600080fd5b505af1158015610a0f573d6000803e3d6000fd5b505050506040513d601f19601f82011682018060405250610a339190810190610b26565b507f8d35b2008914b300cd77b3e786049342b24397a19a58fb6d6fc472dfb3053d503384604051610a65929190610ed3565b60405180910390a1505050565b60035481565b600080546002546040516370a0823160e01b81526001600160a01b03928316926370a08231926104c292911690600401610e8f565b67016345785d8a00000290565b8035610ac581610fd9565b92915050565b8051610ac581610ff0565b8035610ac581610ff9565b8051610ac581610ff9565b60008060408385031215610aff57600080fd5b6000610b0b8585610aba565b9250506020610b1c85828601610ad6565b9150509250929050565b600060208284031215610b3857600080fd5b6000610b448484610acb565b949350505050565b600060208284031215610b5e57600080fd5b6000610b448484610ad6565b600060208284031215610b7c57600080fd5b6000610b448484610ae1565b6000610b948383610e29565b505060200190565b610ba581610fb6565b82525050565b610ba5610bb782610f97565b610fc7565b610ba581610f97565b6000610bd082610f8a565b610bda8185610f8e565b9350610be583610f84565b8060005b83811015610c13578151610bfd8882610b88565b9750610c0883610f84565b925050600101610be9565b509495945050505050565b6000610c2b602983610f8e565b7f4e6f207469656e657320737566696369656e74657320746f6b656e7320706172815268309031b7b6b83930b960b91b602082015260400192915050565b6000610c76603183610f8e565b7f4e6f207469656e657320737566696369656e74657320657468657273207061728152706120636f6d7072617220626f6c65746f7360781b602082015260400192915050565b6000610cc9602c83610f8e565b7f4e6f207469656e6573207065726d69736f732070617261207265616c697a617281526b1032b9ba309030b1b1b4b7b760a11b602082015260400192915050565b6000610d17602a83610f8e565b7f4e6f207469656e657320737566696369656e74657320746f6b656e732070617281526930903232bb37b63b32b960b11b602082015260400192915050565b6000610d63602683610f8e565b7f4e6f2068617920626f6c65746f7320706172612067656e6572617220756e206781526530b730b237b960d11b602082015260400192915050565b6000610dab601e83610f8e565b7f4e6f2073652070756564656e206465766f6c766572203020746f6b656e730000815260200192915050565b6000610de4603083610f8e565b7f4e6f207469656e657320737566696369656e746573206574686572732070617281526f6120636f6d7072617220746f6b656e7360801b602082015260400192915050565b610ba581610fb3565b610ba5610e3e82610fb3565b610fb3565b6000610e4f8284610e32565b50602001919050565b6000610e648286610e32565b602082019150610e748285610bab565b601482019150610e848284610e32565b506020019392505050565b60208101610ac58284610bbc565b60208101610ac58284610b9c565b60608101610eb98286610b9c565b610ec66020830185610bbc565b610b446040830184610e29565b60408101610ee18285610b9c565b610eee6020830184610e29565b9392505050565b60208082528101610eee8184610bc5565b60208082528101610ac581610c1e565b60208082528101610ac581610c69565b60208082528101610ac581610cbc565b60208082528101610ac581610d0a565b60208082528101610ac581610d56565b60208082528101610ac581610d9e565b60208082528101610ac581610dd7565b60208101610ac58284610e29565b60200190565b5190565b90815260200190565b6000610ac582610fa7565b151590565b6001600160a01b031690565b90565b6000610ac5826000610ac582610f97565b6000610ac5826000610ac58260601b90565b610fe281610f97565b8114610fed57600080fd5b50565b610fe281610fa2565b610fe281610fb356fea365627a7a723158202f04f0c3d9599cf5520cf4ae4be79d1485ac0d4507b3dbdf1c8c0a6af7709dbe6c6578706572696d656e74616cf564736f6c63430005100040608060405234801561001057600080fd5b5060405161089e38038061089e83398101604081905261002f9161005a565b60028190553360009081526020819052604090205561009a565b805161005481610083565b92915050565b60006020828403121561006c57600080fd5b60006100788484610049565b949350505050565b90565b61008c81610080565b811461009757600080fd5b50565b6107f5806100a96000396000f3fe608060405234801561001057600080fd5b50600436106100a95760003560e01c80634ee22adf116100715780634ee22adf1461012957806370a082311461013e57806395d89b4114610151578063a9059cbb14610159578063dd62ed3e1461016c578063f7a1d1941461017f576100a9565b806306fdde03146100ae578063095ea7b3146100cc57806318160ddd146100ec57806323b872dd14610101578063313ce56714610114575b600080fd5b6100b6610192565b6040516100c391906106f9565b60405180910390f35b6100df6100da366004610644565b6101b8565b6040516100c391906106eb565b6100f4610223565b6040516100c3919061070a565b6100df61010f3660046105f7565b610229565b61011c610389565b6040516100c39190610718565b61013c610137366004610674565b61038e565b005b6100f461014c366004610597565b6103ae565b6100b66103c9565b6100df610167366004610644565b6103ee565b6100f461017a3660046105bd565b6104ab565b6100df61018d3660046105f7565b6104d6565b6040518060400160405280600a8152602001694552433230426173696360b01b81525081565b3360008181526001602090815260408083206001600160a01b038716808552925280832085905551919290917f8c5be1e5ebec7d5bd14f71427d1e84f3dd0314c0f7b2291e5b200ac8c7c3b9259061021190869061070a565b60405180910390a35060015b92915050565b60025490565b6001600160a01b03831660009081526020819052604081205482111561024e57600080fd5b6001600160a01b038416600090815260016020908152604080832033845290915290205482111561027e57600080fd5b6001600160a01b0384166000908152602081905260409020546102a7908363ffffffff61055916565b6001600160a01b0385166000908152602081815260408083209390935560018152828220338352905220546102e2908363ffffffff61055916565b6001600160a01b0380861660009081526001602090815260408083203384528252808320949094559186168152908190522054610325908363ffffffff61056b16565b6001600160a01b0380851660008181526020819052604090819020939093559151908616907fddf252ad1be2c89b69c2b068fc378daa952ba7f163c4a11628f55a4df523b3ef9061037790869061070a565b60405180910390a35060019392505050565b600281565b600280548201905533600090815260208190526040902080549091019055565b6001600160a01b031660009081526020819052604090205490565b6040518060400160405280600981526020016825212516aa27a5a2a760b91b81525081565b3360009081526020819052604081205482111561040a57600080fd5b3360009081526020819052604090205461042a908363ffffffff61055916565b33600090815260208190526040808220929092556001600160a01b0385168152205461045c908363ffffffff61056b16565b6001600160a01b0384166000818152602081905260409081902092909255905133907fddf252ad1be2c89b69c2b068fc378daa952ba7f163c4a11628f55a4df523b3ef9061021190869061070a565b6001600160a01b03918216600090815260016020908152604080832093909416825291909152205490565b6001600160a01b0383166000908152602081905260408120548211156104fb57600080fd5b6001600160a01b038416600090815260208190526040902054610524908363ffffffff61055916565b6001600160a01b038086166000908152602081905260408082209390935590851681522054610325908363ffffffff61056b16565b60008282111561056557fe5b50900390565b60008282018381101561057a57fe5b9392505050565b803561021d81610792565b803561021d816107a9565b6000602082840312156105a957600080fd5b60006105b58484610581565b949350505050565b600080604083850312156105d057600080fd5b60006105dc8585610581565b92505060206105ed85828601610581565b9150509250929050565b60008060006060848603121561060c57600080fd5b60006106188686610581565b935050602061062986828701610581565b925050604061063a8682870161058c565b9150509250925092565b6000806040838503121561065757600080fd5b60006106638585610581565b92505060206105ed8582860161058c565b60006020828403121561068657600080fd5b60006105b5848461058c565b61069b8161073e565b82525050565b60006106ac82610726565b6106b6818561072a565b93506106c6818560208601610758565b6106cf81610788565b9093019392505050565b61069b8161074f565b61069b81610752565b6020810161021d8284610692565b6020808252810161057a81846106a1565b6020810161021d82846106d9565b6020810161021d82846106e2565b5190565b90815260200190565b600061021d82610743565b151590565b6001600160a01b031690565b90565b60ff1690565b60005b8381101561077357818101518382015260200161075b565b83811115610782576000848401525b50505050565b601f01601f191690565b61079b81610733565b81146107a657600080fd5b50565b61079b8161074f56fea365627a7a72315820297fef5f81f16001d3e68c843839ed8f0e9bfd931e0900e885fbd10d3b5e1ede6c6578706572696d656e74616cf564736f6c63430005100040",
    "sourcePath": "/home/secondport/Documents/SmartContracts/Proyectos/Sistema-de-Loteria/Loteria.sol",
    "compiler": {
        "name": "solc",
        "version": "0.5.16+commit.9c3226ce"
    },
    "functionHashes": {
        "ADN_Boleto(uint256)": "d23ff668",
        "Bote()": "74189861",
        "CompraBoleto(uint256)": "8acb3a21",
        "CompraTokens(uint256)": "f7774091",
        "DevolverTokens(uint256)": "1890154c",
        "Ganador()": "55911cc1",
        "GeneraTokens(uint256)": "1246f6e2",
        "MisTokes()": "4be250d1",
        "PrecioBoleto()": "27909f27",
        "TokensDisponibles()": "fd889ff5",
        "TusBoletos()": "8c11ff4c",
        "contrato()": "e1a01e67",
        "idPersona_boletos(address,uint256)": "454e079b",
        "owner()": "8da5cb5b",
        "tokens_creados()": "fd62ed8c"
    },
    "gasEstimates": {
        "creation": {
            "codeDepositCost": "833000",
            "executionCost": "infinite",
            "totalCost": "infinite"
        },
        "external": {
            "ADN_Boleto(uint256)": "infinite",
            "Bote()": "infinite",
            "CompraBoleto(uint256)": "infinite",
            "CompraTokens(uint256)": "infinite",
            "DevolverTokens(uint256)": "infinite",
            "Ganador()": "infinite",
            "GeneraTokens(uint256)": "infinite",
            "MisTokes()": "infinite",
            "PrecioBoleto()": "1167",
            "TokensDisponibles()": "infinite",
            "TusBoletos()": "infinite",
            "contrato()": "infinite",
            "idPersona_boletos(address,uint256)": "infinite",
            "owner()": "infinite",
            "tokens_creados()": "1165"
        },
        "internal": {
            "PrecioTokens(uint256)": "20"
        }
    }
}