{
    "contractName": "loteria",
    "abi": [
        {
            "inputs": [],
            "payable": false,
            "stateMutability": "nonpayable",
            "type": "constructor"
        },
        {
            "anonymous": false,
            "inputs": [
                {
                    "indexed": false,
                    "internalType": "address",
                    "name": "",
                    "type": "address"
                },
                {
                    "indexed": false,
                    "internalType": "uint256",
                    "name": "",
                    "type": "uint256"
                }
            ],
            "name": "ComprandoTokens",
            "type": "event"
        },
        {
            "anonymous": false,
            "inputs": [
                {
                    "indexed": false,
                    "internalType": "uint256",
                    "name": "",
                    "type": "uint256"
                }
            ],
            "name": "boleto_comprado",
            "type": "event"
        },
        {
            "anonymous": false,
            "inputs": [
                {
                    "indexed": false,
                    "internalType": "uint256",
                    "name": "",
                    "type": "uint256"
                }
            ],
            "name": "boleto_ganador",
            "type": "event"
        },
        {
            "constant": true,
            "inputs": [
                {
                    "internalType": "uint256",
                    "name": "",
                    "type": "uint256"
                }
            ],
            "name": "ADN_Boleto",
            "outputs": [
                {
                    "internalType": "address",
                    "name": "",
                    "type": "address"
                }
            ],
            "payable": false,
            "stateMutability": "view",
            "type": "function"
        },
        {
            "constant": true,
            "inputs": [],
            "name": "Bote",
            "outputs": [
                {
                    "internalType": "uint256",
                    "name": "",
                    "type": "uint256"
                }
            ],
            "payable": false,
            "stateMutability": "view",
            "type": "function"
        },
        {
            "constant": false,
            "inputs": [
                {
                    "internalType": "uint256",
                    "name": "_boletos",
                    "type": "uint256"
                }
            ],
            "name": "CompraBoleto",
            "outputs": [],
            "payable": false,
            "stateMutability": "nonpayable",
            "type": "function"
        },
        {
            "constant": false,
            "inputs": [
                {
                    "internalType": "uint256",
                    "name": "_numTokens",
                    "type": "uint256"
                }
            ],
            "name": "CompraTokens",
            "outputs": [],
            "payable": true,
            "stateMutability": "payable",
            "type": "function"
        },
        {
            "constant": false,
            "inputs": [
                {
                    "internalType": "uint256",
                    "name": "_numTokens",
                    "type": "uint256"
                }
            ],
            "name": "GeneraTokens",
            "outputs": [],
            "payable": false,
            "stateMutability": "nonpayable",
            "type": "function"
        },
        {
            "constant": true,
            "inputs": [],
            "name": "MisTokes",
            "outputs": [
                {
                    "internalType": "uint256",
                    "name": "",
                    "type": "uint256"
                }
            ],
            "payable": false,
            "stateMutability": "view",
            "type": "function"
        },
        {
            "constant": true,
            "inputs": [],
            "name": "PrecioBoleto",
            "outputs": [
                {
                    "internalType": "uint256",
                    "name": "",
                    "type": "uint256"
                }
            ],
            "payable": false,
            "stateMutability": "view",
            "type": "function"
        },
        {
            "constant": true,
            "inputs": [],
            "name": "TokensDisponibles",
            "outputs": [
                {
                    "internalType": "uint256",
                    "name": "",
                    "type": "uint256"
                }
            ],
            "payable": false,
            "stateMutability": "view",
            "type": "function"
        },
        {
            "constant": true,
            "inputs": [],
            "name": "contrato",
            "outputs": [
                {
                    "internalType": "address",
                    "name": "",
                    "type": "address"
                }
            ],
            "payable": false,
            "stateMutability": "view",
            "type": "function"
        },
        {
            "constant": true,
            "inputs": [
                {
                    "internalType": "address",
                    "name": "",
                    "type": "address"
                },
                {
                    "internalType": "uint256",
                    "name": "",
                    "type": "uint256"
                }
            ],
            "name": "idPersona_boletos",
            "outputs": [
                {
                    "internalType": "uint256",
                    "name": "",
                    "type": "uint256"
                }
            ],
            "payable": false,
            "stateMutability": "view",
            "type": "function"
        },
        {
            "constant": true,
            "inputs": [],
            "name": "owner",
            "outputs": [
                {
                    "internalType": "address",
                    "name": "",
                    "type": "address"
                }
            ],
            "payable": false,
            "stateMutability": "view",
            "type": "function"
        },
        {
            "constant": true,
            "inputs": [],
            "name": "tokens_creados",
            "outputs": [
                {
                    "internalType": "uint256",
                    "name": "",
                    "type": "uint256"
                }
            ],
            "payable": false,
            "stateMutability": "view",
            "type": "function"
        }
    ],
    "bytecode": "60806040526127106003556005600455600060075534801561002057600080fd5b5060035460405161003090610090565b61003a91906100ac565b604051809103906000f080158015610056573d6000803e3d6000fd5b50600080546001600160a01b03929092166001600160a01b03199283161790556001805482163317905560028054909116301790556100c3565b61089e80610bda83390190565b6100a6816100c0565b82525050565b602081016100ba828461009d565b92915050565b90565b610b08806100d26000396000f3fe6080604052600436106100a75760003560e01c80638da5cb5b116100645780638da5cb5b14610163578063d23ff66814610185578063e1a01e67146101a5578063f7774091146101ba578063fd62ed8c146101cd578063fd889ff5146101e2576100a7565b80631246f6e2146100ac57806327909f27146100ce578063454e079b146100f95780634be250d114610119578063741898611461012e5780638acb3a2114610143575b600080fd5b3480156100b857600080fd5b506100cc6100c73660046107a9565b6101f7565b005b3480156100da57600080fd5b506100e3610292565b6040516100f09190610a43565b60405180910390f35b34801561010557600080fd5b506100e3610114366004610749565b610298565b34801561012557600080fd5b506100e36102c6565b34801561013a57600080fd5b506100e361034c565b34801561014f57600080fd5b506100cc61015e3660046107a9565b610381565b34801561016f57600080fd5b5061017861054a565b6040516100f0919061099d565b34801561019157600080fd5b506101786101a03660046107a9565b610559565b3480156101b157600080fd5b50610178610574565b6100cc6101c83660046107a9565b610583565b3480156101d957600080fd5b506100e36106cf565b3480156101ee57600080fd5b506100e36106d5565b60015433906001600160a01b0316811461022c5760405162461bcd60e51b815260040161022390610a23565b60405180910390fd5b600054604051634ee22adf60e01b81526001600160a01b0390911690634ee22adf9061025c908590600401610a43565b600060405180830381600087803b15801561027657600080fd5b505af115801561028a573d6000803e3d6000fd5b505050505050565b60045481565b600560205281600052604060002081815481106102b157fe5b90600052602060002001600091509150505481565b600080546040516370a0823160e01b81526001600160a01b03909116906370a08231906102f79033906004016109ab565b60206040518083038186803b15801561030f57600080fd5b505afa158015610323573d6000803e3d6000fd5b505050506040513d601f19601f8201168201806040525061034791908101906107c7565b905090565b600080546001546040516370a0823160e01b81526001600160a01b03928316926370a08231926102f79291169060040161099d565b60045481028061038f6102c6565b10156103ad5760405162461bcd60e51b815260040161022390610a13565b600054600154604051633de8746560e21b81526001600160a01b039283169263f7a1d194926103e69233929091169086906004016109b9565b602060405180830381600087803b15801561040057600080fd5b505af1158015610414573d6000803e3d6000fd5b505050506040513d601f19601f820116820180604052506104389190810190610783565b5060005b82811015610545576000612710423360075460405160200161046093929190610966565b6040516020818303038152906040528051906020012060001c8161048057fe5b6007805460019081019091553360008181526005602090815260408083208054808701825590845282842097909606969095018690556008805494850190557ff3f7a9fe364faab93b216da50a3214154f22a0a2b415b23a84c8169e8b636ee390930185905584815260069092529082902080546001600160a01b0319169091179055519091507fa69929cb3af1145490f7129170489946bf07bc6cd7474fc4172efc5ec3f060e390610534908390610a43565b60405180910390a15060010161043c565b505050565b6001546001600160a01b031681565b6006602052600090815260409020546001600160a01b031681565b6002546001600160a01b031681565b600061058e8261070a565b9050803410156105b05760405162461bcd60e51b815260040161022390610a33565b60405133903483900380156108fc02916000818181858888f193505050501580156105df573d6000803e3d6000fd5b5060006105ea6106d5565b90508083111561060c5760405162461bcd60e51b815260040161022390610a03565b60005460405163a9059cbb60e01b81526001600160a01b039091169063a9059cbb9061063e90339087906004016109e1565b602060405180830381600087803b15801561065857600080fd5b505af115801561066c573d6000803e3d6000fd5b505050506040513d601f19601f820116820180604052506106909190810190610783565b507f8d35b2008914b300cd77b3e786049342b24397a19a58fb6d6fc472dfb3053d5033846040516106c29291906109e1565b60405180910390a1505050565b60035481565b600080546002546040516370a0823160e01b81526001600160a01b03928316926370a08231926102f79291169060040161099d565b67016345785d8a00000290565b803561072281610a9c565b92915050565b805161072281610ab3565b803561072281610abc565b805161072281610abc565b6000806040838503121561075c57600080fd5b60006107688585610717565b925050602061077985828601610733565b9150509250929050565b60006020828403121561079557600080fd5b60006107a18484610728565b949350505050565b6000602082840312156107bb57600080fd5b60006107a18484610733565b6000602082840312156107d957600080fd5b60006107a1848461073e565b6107ee81610a79565b82525050565b6107ee61080082610a5a565b610a8a565b6107ee81610a5a565b600061081b602983610a51565b7f4e6f207469656e657320737566696369656e74657320746f6b656e7320706172815268309031b7b6b83930b960b91b602082015260400192915050565b6000610866603183610a51565b7f4e6f207469656e657320737566696369656e74657320657468657273207061728152706120636f6d7072617220626f6c65746f7360781b602082015260400192915050565b60006108b9602c83610a51565b7f4e6f207469656e6573207065726d69736f732070617261207265616c697a617281526b1032b9ba309030b1b1b4b7b760a11b602082015260400192915050565b6000610907603083610a51565b7f4e6f207469656e657320737566696369656e746573206574686572732070617281526f6120636f6d7072617220746f6b656e7360801b602082015260400192915050565b6107ee81610a76565b6107ee61096182610a76565b610a76565b60006109728286610955565b60208201915061098282856107f4565b6014820191506109928284610955565b506020019392505050565b602081016107228284610805565b6020810161072282846107e5565b606081016109c782866107e5565b6109d46020830185610805565b6107a1604083018461094c565b604081016109ef82856107e5565b6109fc602083018461094c565b9392505050565b602080825281016107228161080e565b6020808252810161072281610859565b60208082528101610722816108ac565b60208082528101610722816108fa565b60208101610722828461094c565b90815260200190565b600061072282610a6a565b151590565b6001600160a01b031690565b90565b600061072282600061072282610a5a565b60006107228260006107228260601b90565b610aa581610a5a565b8114610ab057600080fd5b50565b610aa581610a65565b610aa581610a7656fea365627a7a723158209826998f6759265e2be9e616ca94d3b3e1901a9cf5dc944c6c07488163731fe86c6578706572696d656e74616cf564736f6c63430005100040608060405234801561001057600080fd5b5060405161089e38038061089e83398101604081905261002f9161005a565b60028190553360009081526020819052604090205561009a565b805161005481610083565b92915050565b60006020828403121561006c57600080fd5b60006100788484610049565b949350505050565b90565b61008c81610080565b811461009757600080fd5b50565b6107f5806100a96000396000f3fe608060405234801561001057600080fd5b50600436106100a95760003560e01c80634ee22adf116100715780634ee22adf1461012957806370a082311461013e57806395d89b4114610151578063a9059cbb14610159578063dd62ed3e1461016c578063f7a1d1941461017f576100a9565b806306fdde03146100ae578063095ea7b3146100cc57806318160ddd146100ec57806323b872dd14610101578063313ce56714610114575b600080fd5b6100b6610192565b6040516100c391906106f9565b60405180910390f35b6100df6100da366004610644565b6101b8565b6040516100c391906106eb565b6100f4610223565b6040516100c3919061070a565b6100df61010f3660046105f7565b610229565b61011c610389565b6040516100c39190610718565b61013c610137366004610674565b61038e565b005b6100f461014c366004610597565b6103ae565b6100b66103c9565b6100df610167366004610644565b6103ee565b6100f461017a3660046105bd565b6104ab565b6100df61018d3660046105f7565b6104d6565b6040518060400160405280600a8152602001694552433230426173696360b01b81525081565b3360008181526001602090815260408083206001600160a01b038716808552925280832085905551919290917f8c5be1e5ebec7d5bd14f71427d1e84f3dd0314c0f7b2291e5b200ac8c7c3b9259061021190869061070a565b60405180910390a35060015b92915050565b60025490565b6001600160a01b03831660009081526020819052604081205482111561024e57600080fd5b6001600160a01b038416600090815260016020908152604080832033845290915290205482111561027e57600080fd5b6001600160a01b0384166000908152602081905260409020546102a7908363ffffffff61055916565b6001600160a01b0385166000908152602081815260408083209390935560018152828220338352905220546102e2908363ffffffff61055916565b6001600160a01b0380861660009081526001602090815260408083203384528252808320949094559186168152908190522054610325908363ffffffff61056b16565b6001600160a01b0380851660008181526020819052604090819020939093559151908616907fddf252ad1be2c89b69c2b068fc378daa952ba7f163c4a11628f55a4df523b3ef9061037790869061070a565b60405180910390a35060019392505050565b600281565b600280548201905533600090815260208190526040902080549091019055565b6001600160a01b031660009081526020819052604090205490565b6040518060400160405280600981526020016825212516aa27a5a2a760b91b81525081565b3360009081526020819052604081205482111561040a57600080fd5b3360009081526020819052604090205461042a908363ffffffff61055916565b33600090815260208190526040808220929092556001600160a01b0385168152205461045c908363ffffffff61056b16565b6001600160a01b0384166000818152602081905260409081902092909255905133907fddf252ad1be2c89b69c2b068fc378daa952ba7f163c4a11628f55a4df523b3ef9061021190869061070a565b6001600160a01b03918216600090815260016020908152604080832093909416825291909152205490565b6001600160a01b0383166000908152602081905260408120548211156104fb57600080fd5b6001600160a01b038416600090815260208190526040902054610524908363ffffffff61055916565b6001600160a01b038086166000908152602081905260408082209390935590851681522054610325908363ffffffff61056b16565b60008282111561056557fe5b50900390565b60008282018381101561057a57fe5b9392505050565b803561021d81610792565b803561021d816107a9565b6000602082840312156105a957600080fd5b60006105b58484610581565b949350505050565b600080604083850312156105d057600080fd5b60006105dc8585610581565b92505060206105ed85828601610581565b9150509250929050565b60008060006060848603121561060c57600080fd5b60006106188686610581565b935050602061062986828701610581565b925050604061063a8682870161058c565b9150509250925092565b6000806040838503121561065757600080fd5b60006106638585610581565b92505060206105ed8582860161058c565b60006020828403121561068657600080fd5b60006105b5848461058c565b61069b8161073e565b82525050565b60006106ac82610726565b6106b6818561072a565b93506106c6818560208601610758565b6106cf81610788565b9093019392505050565b61069b8161074f565b61069b81610752565b6020810161021d8284610692565b6020808252810161057a81846106a1565b6020810161021d82846106d9565b6020810161021d82846106e2565b5190565b90815260200190565b600061021d82610743565b151590565b6001600160a01b031690565b90565b60ff1690565b60005b8381101561077357818101518382015260200161075b565b83811115610782576000848401525b50505050565b601f01601f191690565b61079b81610733565b81146107a657600080fd5b50565b61079b8161074f56fea365627a7a72315820297fef5f81f16001d3e68c843839ed8f0e9bfd931e0900e885fbd10d3b5e1ede6c6578706572696d656e74616cf564736f6c63430005100040",
    "sourcePath": "/home/secondport/Documents/SmartContracts/Proyectos/Sistema-de-Loteria/Loteria.sol",
    "compiler": {
        "name": "solc",
        "version": "0.5.16+commit.9c3226ce"
    },
    "functionHashes": {
        "ADN_Boleto(uint256)": "d23ff668",
        "Bote()": "74189861",
        "CompraBoleto(uint256)": "8acb3a21",
        "CompraTokens(uint256)": "f7774091",
        "GeneraTokens(uint256)": "1246f6e2",
        "MisTokes()": "4be250d1",
        "PrecioBoleto()": "27909f27",
        "TokensDisponibles()": "fd889ff5",
        "contrato()": "e1a01e67",
        "idPersona_boletos(address,uint256)": "454e079b",
        "owner()": "8da5cb5b",
        "tokens_creados()": "fd62ed8c"
    },
    "gasEstimates": {
        "creation": {
            "codeDepositCost": "564800",
            "executionCost": "infinite",
            "totalCost": "infinite"
        },
        "external": {
            "ADN_Boleto(uint256)": "infinite",
            "Bote()": "infinite",
            "CompraBoleto(uint256)": "infinite",
            "CompraTokens(uint256)": "infinite",
            "GeneraTokens(uint256)": "infinite",
            "MisTokes()": "infinite",
            "PrecioBoleto()": "1122",
            "TokensDisponibles()": "infinite",
            "contrato()": "infinite",
            "idPersona_boletos(address,uint256)": "infinite",
            "owner()": "infinite",
            "tokens_creados()": "1187"
        },
        "internal": {
            "PrecioTokens(uint256)": "20"
        }
    }
}