{
    "contractName": "calculosSeguros",
    "abi": [
        {
            "inputs": [
                {
                    "internalType": "uint256",
                    "name": "_a",
                    "type": "uint256"
                },
                {
                    "internalType": "uint256",
                    "name": "_b",
                    "type": "uint256"
                }
            ],
            "name": "multiplicar",
            "outputs": [
                {
                    "internalType": "uint256",
                    "name": "",
                    "type": "uint256"
                }
            ],
            "stateMutability": "pure",
            "type": "function"
        },
        {
            "inputs": [
                {
                    "internalType": "uint256",
                    "name": "_a",
                    "type": "uint256"
                },
                {
                    "internalType": "uint256",
                    "name": "_b",
                    "type": "uint256"
                }
            ],
            "name": "resta",
            "outputs": [
                {
                    "internalType": "uint256",
                    "name": "",
                    "type": "uint256"
                }
            ],
            "stateMutability": "pure",
            "type": "function"
        },
        {
            "inputs": [
                {
                    "internalType": "uint256",
                    "name": "_a",
                    "type": "uint256"
                },
                {
                    "internalType": "uint256",
                    "name": "_b",
                    "type": "uint256"
                }
            ],
            "name": "suma",
            "outputs": [
                {
                    "internalType": "uint256",
                    "name": "",
                    "type": "uint256"
                }
            ],
            "stateMutability": "pure",
            "type": "function"
        }
    ],
    "bytecode": "608060405234801561001057600080fd5b50610273806100206000396000f3fe608060405234801561001057600080fd5b50600436106100415760003560e01c806352f294bc14610046578063b1b45b1b1461006b578063fbf188a21461007e575b600080fd5b61005961005436600461017f565b610091565b60405190815260200160405180910390f35b61005961007936600461017f565b6100a6565b61005961008c36600461017f565b6100b2565b600061009d83836100be565b90505b92915050565b600061009d83836100da565b600061009d83836100f9565b6000828211156100d0576100d06101a1565b61009d82846101cd565b6000806100e783856101e4565b90508381101561009d5761009d6101a1565b60008260000361010b575060006100a0565b600061011783856101fc565b905082610124858361021b565b1461009d5760405162461bcd60e51b815260206004820152602160248201527f536166654d6174683a206d756c7469706c69636174696f6e206f766572666c6f6044820152607760f81b606482015260840160405180910390fd5b6000806040838503121561019257600080fd5b50508035926020909101359150565b634e487b7160e01b600052600160045260246000fd5b634e487b7160e01b600052601160045260246000fd5b6000828210156101df576101df6101b7565b500390565b600082198211156101f7576101f76101b7565b500190565b6000816000190483118215151615610216576102166101b7565b500290565b60008261023857634e487b7160e01b600052601260045260246000fd5b50049056fea26469706673582212200ba50bd7e88c1c276c13dbd42755091aa3fc1d21be3803d148f220ba7114d45164736f6c634300080d0033",
    "sourcePath": "/home/secondport/Documents/SmartContracts/SafeMath/ejemplo.sol",
    "compiler": {
        "name": "solc",
        "version": "0.8.13+commit.abaa5c0e"
    },
    "functionHashes": {
        "multiplicar(uint256,uint256)": "fbf188a2",
        "resta(uint256,uint256)": "52f294bc",
        "suma(uint256,uint256)": "b1b45b1b"
    },
    "gasEstimates": {
        "creation": {
            "codeDepositCost": "125400",
            "executionCost": "171",
            "totalCost": "125571"
        },
        "external": {
            "multiplicar(uint256,uint256)": "infinite",
            "resta(uint256,uint256)": "infinite",
            "suma(uint256,uint256)": "infinite"
        }
    }
}