{
    "contractName": "bucle_while",
    "abi": [
        {
            "inputs": [],
            "name": "espera",
            "outputs": [
                {
                    "internalType": "bool",
                    "name": "",
                    "type": "bool"
                }
            ],
            "stateMutability": "view",
            "type": "function"
        },
        {
            "inputs": [],
            "name": "fijarTiempo",
            "outputs": [],
            "stateMutability": "nonpayable",
            "type": "function"
        },
        {
            "inputs": [
                {
                    "internalType": "uint256",
                    "name": "_p",
                    "type": "uint256"
                }
            ],
            "name": "siguienrePrimo",
            "outputs": [
                {
                    "internalType": "uint256",
                    "name": "",
                    "type": "uint256"
                }
            ],
            "stateMutability": "pure",
            "type": "function"
        },
        {
            "inputs": [],
            "name": "suma_impares",
            "outputs": [
                {
                    "internalType": "uint256",
                    "name": "",
                    "type": "uint256"
                }
            ],
            "stateMutability": "pure",
            "type": "function"
        }
    ],
    "bytecode": "608060405234801561001057600080fd5b50610238806100206000396000f3fe608060405234801561001057600080fd5b506004361061004c5760003560e01c80630c12a7b714610051578063c8c5f21114610077578063eb57b4821461007f578063fa7f51fd14610097575b600080fd5b61006461005f366004610180565b6100a2565b6040519081526020015b60405180910390f35b6100646100d9565b61008761011c565b604051901515815260200161006e565b6100a042600055565b005b6000806100b08360016101af565b90505b6100bc8161013e565b156100c75792915050565b806100d1816101c7565b9150506100b3565b60008060015b60648111610116576100f26002826101e0565b156101045761010181836101af565b91505b8061010e816101c7565b9150506100df565b50919050565b6000805461012b9060056101af565b4210156101385750600090565b50600190565b600060025b828110156101775761015581846101e0565b6000036101655750600092915050565b8061016f816101c7565b915050610143565b50600192915050565b60006020828403121561019257600080fd5b5035919050565b634e487b7160e01b600052601160045260246000fd5b600082198211156101c2576101c2610199565b500190565b6000600182016101d9576101d9610199565b5060010190565b6000826101fd57634e487b7160e01b600052601260045260246000fd5b50069056fea26469706673582212204c1cd629c78f4907487bad95c9b5ee60ace27c1b611ff9703f1231d3da8333aa64736f6c634300080d0033",
    "sourcePath": "/home/secondport/Documents/SmartContracts/Bucles y Condicionales/bucle-while.sol",
    "compiler": {
        "name": "solc",
        "version": "0.8.13+commit.abaa5c0e"
    },
    "functionHashes": {
        "espera()": "eb57b482",
        "fijarTiempo()": "fa7f51fd",
        "siguienrePrimo(uint256)": "0c12a7b7",
        "suma_impares()": "c8c5f211"
    },
    "gasEstimates": {
        "creation": {
            "codeDepositCost": "113600",
            "executionCost": "159",
            "totalCost": "113759"
        },
        "external": {
            "espera()": "2435",
            "fijarTiempo()": "22281",
            "siguienrePrimo(uint256)": "infinite",
            "suma_impares()": "infinite"
        },
        "internal": {
            "esPrimo(uint256)": "infinite"
        }
    }
}