{
    "contractName": "bucle_for",
    "abi": [
        {
            "inputs": [],
            "name": "asocias",
            "outputs": [],
            "stateMutability": "nonpayable",
            "type": "function"
        },
        {
            "inputs": [],
            "name": "comprobarAsociacion",
            "outputs": [
                {
                    "internalType": "bool",
                    "name": "",
                    "type": "bool"
                },
                {
                    "internalType": "address",
                    "name": "",
                    "type": "address"
                }
            ],
            "stateMutability": "view",
            "type": "function"
        },
        {
            "inputs": [
                {
                    "internalType": "uint256",
                    "name": "_numero",
                    "type": "uint256"
                }
            ],
            "name": "suma",
            "outputs": [
                {
                    "internalType": "uint256",
                    "name": "",
                    "type": "uint256"
                }
            ],
            "stateMutability": "pure",
            "type": "function"
        },
        {
            "inputs": [],
            "name": "sumaFac",
            "outputs": [
                {
                    "internalType": "uint256",
                    "name": "",
                    "type": "uint256"
                }
            ],
            "stateMutability": "pure",
            "type": "function"
        }
    ],
    "bytecode": "608060405234801561001057600080fd5b506102c4806100206000396000f3fe608060405234801561001057600080fd5b506004361061004c5760003560e01c8063270ba4f31461005157806341806a131461006c578063742e6ee414610093578063ddef5a4a146100d9575b600080fd5b6100596100ec565b6040519081526020015b60405180910390f35b610074610155565b6040805192151583526001600160a01b03909116602083015201610063565b6100d7600080546001810182559080527f290decd9548b62a8d60345a988386fc84ba6bc95484008f6362f93160ef3e5630180546001600160a01b03191633179055565b005b6100596100e73660046101f9565b6101bd565b60008060015b600b811161014f57600160025b61010a836001610228565b811161012e5761011a8183610240565b9150806101268161025f565b9150506100ff565b506101398184610228565b92505080806101479061025f565b9150506100f2565b50919050565b6000806000805b6000548110156101b457336001600160a01b03166000828154811061018357610183610278565b6000918252602090912001546001600160a01b0316036101a257600191505b806101ac8161025f565b91505061015c565b50923392509050565b600080825b6101cd846064610228565b8110156101f2576101de8183610228565b9150806101ea8161025f565b9150506101c2565b5092915050565b60006020828403121561020b57600080fd5b5035919050565b634e487b7160e01b600052601160045260246000fd5b6000821982111561023b5761023b610212565b500190565b600081600019048311821515161561025a5761025a610212565b500290565b60006001820161027157610271610212565b5060010190565b634e487b7160e01b600052603260045260246000fdfea26469706673582212209b3ba2b19dbcfa00ed0b1c6abba5000b921dd899ff2b75a36838b9f46718b8be64736f6c634300080d0033",
    "sourcePath": "/home/secondport/Documents/SmartContracts/Bucles y Condicionales/sentencia-for.sol",
    "compiler": {
        "name": "solc",
        "version": "0.8.13+commit.abaa5c0e"
    },
    "functionHashes": {
        "asocias()": "742e6ee4",
        "comprobarAsociacion()": "41806a13",
        "suma(uint256)": "ddef5a4a",
        "sumaFac()": "270ba4f3"
    },
    "gasEstimates": {
        "creation": {
            "codeDepositCost": "141600",
            "executionCost": "190",
            "totalCost": "141790"
        },
        "external": {
            "asocias()": "48619",
            "comprobarAsociacion()": "infinite",
            "suma(uint256)": "infinite",
            "sumaFac()": "infinite"
        }
    }
}