{
    "contractName": "bucle_for",
    "abi": [
        {
            "inputs": [
                {
                    "internalType": "uint256",
                    "name": "_numero",
                    "type": "uint256"
                }
            ],
            "name": "suma",
            "outputs": [
                {
                    "internalType": "uint256",
                    "name": "",
                    "type": "uint256"
                }
            ],
            "stateMutability": "pure",
            "type": "function"
        }
    ],
    "bytecode": "608060405234801561001057600080fd5b50610111806100206000396000f3fe6080604052348015600f57600080fd5b506004361060285760003560e01c8063ddef5a4a14602d575b600080fd5b603c60383660046082565b604e565b60405190815260200160405180910390f35b600080825b605c84606460b0565b811015607b57606a818360b0565b91508060748160c5565b9150506053565b5092915050565b600060208284031215609357600080fd5b5035919050565b634e487b7160e01b600052601160045260246000fd5b6000821982111560c05760c0609a565b500190565b60006001820160d45760d4609a565b506001019056fea26469706673582212201357691e70a06afa81da4c8d71528e76bca87ee53c000bbe9cd50fbf4a1a24ae64736f6c634300080d0033",
    "sourcePath": "/home/secondport/Documents/SmartContracts/Bucles y Condicionales/sentencia-for.sol",
    "compiler": {
        "name": "solc",
        "version": "0.8.13+commit.abaa5c0e"
    },
    "functionHashes": {
        "suma(uint256)": "ddef5a4a"
    },
    "gasEstimates": {
        "creation": {
            "codeDepositCost": "54600",
            "executionCost": "105",
            "totalCost": "54705"
        },
        "external": {
            "suma(uint256)": "infinite"
        }
    }
}