{
    "contractName": "sentencia_if",
    "abi": [
        {
            "inputs": [
                {
                    "internalType": "uint256",
                    "name": "_numero",
                    "type": "uint256"
                }
            ],
            "name": "esParTresCifras",
            "outputs": [
                {
                    "internalType": "bool",
                    "name": "",
                    "type": "bool"
                },
                {
                    "internalType": "uint256",
                    "name": "",
                    "type": "uint256"
                }
            ],
            "stateMutability": "pure",
            "type": "function"
        },
        {
            "inputs": [
                {
                    "internalType": "uint256",
                    "name": "_numero",
                    "type": "uint256"
                }
            ],
            "name": "probarSuerte",
            "outputs": [
                {
                    "internalType": "bool",
                    "name": "",
                    "type": "bool"
                }
            ],
            "stateMutability": "pure",
            "type": "function"
        },
        {
            "inputs": [
                {
                    "internalType": "int256",
                    "name": "_numero",
                    "type": "int256"
                }
            ],
            "name": "valorAbsoluto",
            "outputs": [
                {
                    "internalType": "uint256",
                    "name": "",
                    "type": "uint256"
                }
            ],
            "stateMutability": "pure",
            "type": "function"
        },
        {
            "inputs": [
                {
                    "internalType": "string",
                    "name": "_candidato",
                    "type": "string"
                }
            ],
            "name": "votar",
            "outputs": [
                {
                    "internalType": "string",
                    "name": "",
                    "type": "string"
                }
            ],
            "stateMutability": "pure",
            "type": "function"
        }
    ],
    "bytecode": "608060405234801561001057600080fd5b50610564806100206000396000f3fe608060405234801561001057600080fd5b506004361061004c5760003560e01c806337eddd17146100515780637d82514214610079578063ac1728bc1461009a578063ce3fe641146100c4575b600080fd5b61006461005f366004610312565b6100e4565b60405190151581526020015b60405180910390f35b61008c610087366004610312565b610101565b604051908152602001610070565b6100ad6100a8366004610312565b610127565b604080519215158352602083019190915201610070565b6100d76100d2366004610341565b610167565b6040516100709190610422565b600080826001036100f7575060016100fb565b5060005b92915050565b6000806000831215610120576101198360001961046b565b90506100fb565b5090919050565b600080806101366002856104f0565b1580156101435750606384115b801561015057506103e884105b1561015d57506001610161565b5060005b93915050565b6060807fb39c69d9bdfcadf79b415157306eba32f393029bfec231cd5c189873801c44ee8360405160200161019c9190610512565b60405160208183030381529060405280519060200120036101e3575060408051808201909152600f81526e736520766f746f2061204c7563617360881b60208201526100fb565b7fb4829cb5f45ee8be09083a4b4e1efac9b52639ce1d81a0c7383f636ef36ca24f836040516020016102159190610512565b604051602081830303815290604052805190602001200361025d575060408051808201909152601081526f736520766f746f2061204d617469617360801b60208201526100fb565b7f70fecd047812e70de706d4c588ec73b8717e91798da243a28c78657a5d535e3f8360405160200161028f9190610512565b60405160208183030381529060405280519060200120036102d7575060408051808201909152601081526f1cd9481d9bdd1bc8184813585b9d595b60821b60208201526100fb565b5060408051808201909152601781527f63616e64696461746f206e6f20656e636f6e747261646f000000000000000000602082015292915050565b60006020828403121561032457600080fd5b5035919050565b634e487b7160e01b600052604160045260246000fd5b60006020828403121561035357600080fd5b813567ffffffffffffffff8082111561036b57600080fd5b818401915084601f83011261037f57600080fd5b8135818111156103915761039161032b565b604051601f8201601f19908116603f011681019083821181831017156103b9576103b961032b565b816040528281528760208487010111156103d257600080fd5b826020860160208301376000928101602001929092525095945050505050565b60005b8381101561040d5781810151838201526020016103f5565b8381111561041c576000848401525b50505050565b60208152600082518060208401526104418160408501602087016103f2565b601f01601f19169190910160400192915050565b634e487b7160e01b600052601160045260246000fd5b60006001600160ff1b038184138284138082168684048611161561049157610491610455565b600160ff1b60008712828116878305891216156104b0576104b0610455565b600087129250878205871284841616156104cc576104cc610455565b878505871281841616156104e2576104e2610455565b505050929093029392505050565b60008261050d57634e487b7160e01b600052601260045260246000fd5b500690565b600082516105248184602087016103f2565b919091019291505056fea26469706673582212202c7b0c4d4aff06ebe6c1f8e90df2c61999638bd34a84cc0502fde4d1bba3c41364736f6c634300080d0033",
    "sourcePath": "/home/secondport/Documents/SmartContracts/Bucles y Condicionales/sentencia-if.sol",
    "compiler": {
        "name": "solc",
        "version": "0.8.13+commit.abaa5c0e"
    },
    "functionHashes": {
        "esParTresCifras(uint256)": "ac1728bc",
        "probarSuerte(uint256)": "37eddd17",
        "valorAbsoluto(int256)": "7d825142",
        "votar(string)": "ce3fe641"
    },
    "gasEstimates": {
        "creation": {
            "codeDepositCost": "276000",
            "executionCost": "318",
            "totalCost": "276318"
        },
        "external": {
            "esParTresCifras(uint256)": "507",
            "probarSuerte(uint256)": "306",
            "valorAbsoluto(int256)": "653",
            "votar(string)": "infinite"
        }
    }
}