{
    "contractName": "notas",
    "abi": [
        {
            "inputs": [],
            "stateMutability": "nonpayable",
            "type": "constructor"
        },
        {
            "anonymous": false,
            "inputs": [
                {
                    "indexed": false,
                    "internalType": "bytes32",
                    "name": "",
                    "type": "bytes32"
                },
                {
                    "indexed": false,
                    "internalType": "uint256",
                    "name": "",
                    "type": "uint256"
                }
            ],
            "name": "alumno_evaluado",
            "type": "event"
        },
        {
            "anonymous": false,
            "inputs": [
                {
                    "indexed": false,
                    "internalType": "string",
                    "name": "",
                    "type": "string"
                }
            ],
            "name": "evento_revision",
            "type": "event"
        },
        {
            "inputs": [
                {
                    "internalType": "string",
                    "name": "_idAlumno",
                    "type": "string"
                },
                {
                    "internalType": "uint256",
                    "name": "_nota",
                    "type": "uint256"
                }
            ],
            "name": "Evaluar",
            "outputs": [],
            "stateMutability": "nonpayable",
            "type": "function"
        },
        {
            "inputs": [
                {
                    "internalType": "string",
                    "name": "_idAlumno",
                    "type": "string"
                }
            ],
            "name": "Revision",
            "outputs": [],
            "stateMutability": "nonpayable",
            "type": "function"
        },
        {
            "inputs": [
                {
                    "internalType": "string",
                    "name": "_idAlumno",
                    "type": "string"
                }
            ],
            "name": "VerNotas",
            "outputs": [
                {
                    "internalType": "uint256",
                    "name": "",
                    "type": "uint256"
                }
            ],
            "stateMutability": "view",
            "type": "function"
        },
        {
            "inputs": [],
            "name": "profesor",
            "outputs": [
                {
                    "internalType": "address",
                    "name": "",
                    "type": "address"
                }
            ],
            "stateMutability": "view",
            "type": "function"
        }
    ],
    "bytecode": "608060405234801561001057600080fd5b50600080546001600160a01b0319163317905561051f806100326000396000f3fe608060405234801561001057600080fd5b506004361061004c5760003560e01c8063040d9f60146100515780632cd22cd81461006657806333731af614610079578063df0965761461009f575b600080fd5b61006461005f3660046103ae565b6100ca565b005b6100646100743660046103f3565b6101b4565b61008c6100873660046103f3565b610232565b6040519081526020015b60405180910390f35b6000546100b2906001600160a01b031681565b6040516001600160a01b039091168152602001610096565b60005433906001600160a01b0316811461013e5760405162461bcd60e51b815260206004820152602b60248201527f536f6c6f20656c2070726f6665736f72207075656465207265616c697a61722060448201526a32b9ba309030b1b1b4b7b760a91b606482015260840160405180910390fd5b6000836040516020016101519190610460565b60408051808303601f19018152828252805160209182012060008181526001835283902087905580845290830186905292507f1decb51588158e4fd9a593e42935e33c4641f4958a08256e305bf6dec1092d8f910160405180910390a150505050565b6002805460018101825560009190915281516101f7917f405787fa12a823e0f2b7631cc41b3ba8828b3321ca811111fa75cd3aa3bb5ace01906020840190610272565b507fafd73f39162aa4c0421f362f3a3d26f44b23c73253256cfc1c68794b0973e0a081604051610227919061047c565b60405180910390a150565b600080826040516020016102469190610460565b60408051601f198184030181529181528151602092830120600090815260019092529020549392505050565b82805461027e906104af565b90600052602060002090601f0160209004810192826102a057600085556102e6565b82601f106102b957805160ff19168380011785556102e6565b828001600101855582156102e6579182015b828111156102e65782518255916020019190600101906102cb565b506102f29291506102f6565b5090565b5b808211156102f257600081556001016102f7565b634e487b7160e01b600052604160045260246000fd5b600082601f83011261033257600080fd5b813567ffffffffffffffff8082111561034d5761034d61030b565b604051601f8301601f19908116603f011681019082821181831017156103755761037561030b565b8160405283815286602085880101111561038e57600080fd5b836020870160208301376000602085830101528094505050505092915050565b600080604083850312156103c157600080fd5b823567ffffffffffffffff8111156103d857600080fd5b6103e485828601610321565b95602094909401359450505050565b60006020828403121561040557600080fd5b813567ffffffffffffffff81111561041c57600080fd5b61042884828501610321565b949350505050565b60005b8381101561044b578181015183820152602001610433565b8381111561045a576000848401525b50505050565b60008251610472818460208701610430565b9190910192915050565b602081526000825180602084015261049b816040850160208701610430565b601f01601f19169190910160400192915050565b600181811c908216806104c357607f821691505b6020821081036104e357634e487b7160e01b600052602260045260246000fd5b5091905056fea2646970667358221220482ab0a2b87073a53f8926c5d0f1a93d382e9835f7a7e622b1eb24780187b7dd64736f6c634300080d0033",
    "sourcePath": "/home/secondport/Documents/SmartContracts/Sistema-de-Evaluacion/notas.sol",
    "compiler": {
        "name": "solc",
        "version": "0.8.13+commit.abaa5c0e"
    },
    "functionHashes": {
        "Evaluar(string,uint256)": "040d9f60",
        "Revision(string)": "2cd22cd8",
        "VerNotas(string)": "33731af6",
        "profesor()": "df096576"
    },
    "gasEstimates": {
        "creation": {
            "codeDepositCost": "262200",
            "executionCost": "24535",
            "totalCost": "286735"
        },
        "external": {
            "Evaluar(string,uint256)": "infinite",
            "Revision(string)": "infinite",
            "VerNotas(string)": "infinite",
            "profesor()": "2381"
        }
    }
}