{
    "contractName": "notas",
    "abi": [
        {
            "inputs": [],
            "stateMutability": "nonpayable",
            "type": "constructor"
        },
        {
            "anonymous": false,
            "inputs": [
                {
                    "indexed": false,
                    "internalType": "bytes32",
                    "name": "",
                    "type": "bytes32"
                },
                {
                    "indexed": false,
                    "internalType": "uint256",
                    "name": "",
                    "type": "uint256"
                }
            ],
            "name": "alumno_evaluado",
            "type": "event"
        },
        {
            "anonymous": false,
            "inputs": [
                {
                    "indexed": false,
                    "internalType": "string",
                    "name": "",
                    "type": "string"
                }
            ],
            "name": "evento_revision",
            "type": "event"
        },
        {
            "inputs": [
                {
                    "internalType": "string",
                    "name": "_idAlumno",
                    "type": "string"
                },
                {
                    "internalType": "uint256",
                    "name": "_nota",
                    "type": "uint256"
                }
            ],
            "name": "Evaluar",
            "outputs": [],
            "stateMutability": "nonpayable",
            "type": "function"
        },
        {
            "inputs": [
                {
                    "internalType": "string",
                    "name": "_idAlumno",
                    "type": "string"
                }
            ],
            "name": "Revision",
            "outputs": [],
            "stateMutability": "nonpayable",
            "type": "function"
        },
        {
            "inputs": [
                {
                    "internalType": "string",
                    "name": "_idAlumno",
                    "type": "string"
                }
            ],
            "name": "VerNotas",
            "outputs": [
                {
                    "internalType": "uint256",
                    "name": "",
                    "type": "uint256"
                }
            ],
            "stateMutability": "view",
            "type": "function"
        },
        {
            "inputs": [],
            "name": "VerRevisiones",
            "outputs": [
                {
                    "internalType": "string[]",
                    "name": "",
                    "type": "string[]"
                }
            ],
            "stateMutability": "view",
            "type": "function"
        },
        {
            "inputs": [],
            "name": "profesor",
            "outputs": [
                {
                    "internalType": "address",
                    "name": "",
                    "type": "address"
                }
            ],
            "stateMutability": "view",
            "type": "function"
        }
    ],
    "bytecode": "608060405234801561001057600080fd5b50600080546001600160a01b031916331790556106bf806100326000396000f3fe608060405234801561001057600080fd5b50600436106100575760003560e01c8063040d9f601461005c5780632cd22cd81461007157806333731af614610084578063df096576146100aa578063f22044e6146100d5575b600080fd5b61006f61006a36600461048e565b6100ea565b005b61006f61007f3660046104d3565b610195565b6100976100923660046104d3565b610213565b6040519081526020015b60405180910390f35b6000546100bd906001600160a01b031681565b6040516001600160a01b0390911681526020016100a1565b6100dd610253565b6040516100a1919061056c565b60005433906001600160a01b0316811461011f5760405162461bcd60e51b8152600401610116906105ce565b60405180910390fd5b6000836040516020016101329190610619565b60408051808303601f19018152828252805160209182012060008181526001835283902087905580845290830186905292507f1decb51588158e4fd9a593e42935e33c4641f4958a08256e305bf6dec1092d8f910160405180910390a150505050565b6002805460018101825560009190915281516101d8917f405787fa12a823e0f2b7631cc41b3ba8828b3321ca811111fa75cd3aa3bb5ace0190602084019061035b565b507fafd73f39162aa4c0421f362f3a3d26f44b23c73253256cfc1c68794b0973e0a0816040516102089190610635565b60405180910390a150565b600080826040516020016102279190610619565b60408051601f198184030181529181528151602092830120600090815260019092529020549392505050565b60005460609033906001600160a01b031681146102825760405162461bcd60e51b8152600401610116906105ce565b6002805480602002602001604051908101604052809291908181526020016000905b828210156103505783829060005260206000200180546102c39061064f565b80601f01602080910402602001604051908101604052809291908181526020018280546102ef9061064f565b801561033c5780601f106103115761010080835404028352916020019161033c565b820191906000526020600020905b81548152906001019060200180831161031f57829003601f168201915b5050505050815260200190600101906102a4565b5050505091505b5090565b8280546103679061064f565b90600052602060002090601f01602090048101928261038957600085556103cf565b82601f106103a257805160ff19168380011785556103cf565b828001600101855582156103cf579182015b828111156103cf5782518255916020019190600101906103b4565b506103579291505b8082111561035757600081556001016103d7565b634e487b7160e01b600052604160045260246000fd5b600082601f83011261041257600080fd5b813567ffffffffffffffff8082111561042d5761042d6103eb565b604051601f8301601f19908116603f01168101908282118183101715610455576104556103eb565b8160405283815286602085880101111561046e57600080fd5b836020870160208301376000602085830101528094505050505092915050565b600080604083850312156104a157600080fd5b823567ffffffffffffffff8111156104b857600080fd5b6104c485828601610401565b95602094909401359450505050565b6000602082840312156104e557600080fd5b813567ffffffffffffffff8111156104fc57600080fd5b61050884828501610401565b949350505050565b60005b8381101561052b578181015183820152602001610513565b8381111561053a576000848401525b50505050565b60008151808452610558816020860160208601610510565b601f01601f19169290920160200192915050565b6000602080830181845280855180835260408601915060408160051b870101925083870160005b828110156105c157603f198886030184526105af858351610540565b94509285019290850190600101610593565b5092979650505050505050565b6020808252602b908201527f536f6c6f20656c2070726f6665736f72207075656465207265616c697a61722060408201526a32b9ba309030b1b1b4b7b760a91b606082015260800190565b6000825161062b818460208701610510565b9190910192915050565b6020815260006106486020830184610540565b9392505050565b600181811c9082168061066357607f821691505b60208210810361068357634e487b7160e01b600052602260045260246000fd5b5091905056fea26469706673582212204076ce92d6178cdbbd179b7ba538f90a218fe2065e90f3c627bc265547636a5764736f6c634300080d0033",
    "sourcePath": "/home/secondport/Documents/SmartContracts/Sistema-de-Evaluacion/notas.sol",
    "compiler": {
        "name": "solc",
        "version": "0.8.13+commit.abaa5c0e"
    },
    "functionHashes": {
        "Evaluar(string,uint256)": "040d9f60",
        "Revision(string)": "2cd22cd8",
        "VerNotas(string)": "33731af6",
        "VerRevisiones()": "f22044e6",
        "profesor()": "df096576"
    },
    "gasEstimates": {
        "creation": {
            "codeDepositCost": "345400",
            "executionCost": "24615",
            "totalCost": "370015"
        },
        "external": {
            "Evaluar(string,uint256)": "infinite",
            "Revision(string)": "infinite",
            "VerNotas(string)": "infinite",
            "VerRevisiones()": "infinite",
            "profesor()": "2381"
        }
    }
}