{
    "contractName": "notas",
    "abi": [
        {
            "inputs": [],
            "stateMutability": "nonpayable",
            "type": "constructor"
        },
        {
            "anonymous": false,
            "inputs": [
                {
                    "indexed": false,
                    "internalType": "bytes32",
                    "name": "",
                    "type": "bytes32"
                },
                {
                    "indexed": false,
                    "internalType": "uint256",
                    "name": "",
                    "type": "uint256"
                }
            ],
            "name": "alumno_evaluado",
            "type": "event"
        },
        {
            "anonymous": false,
            "inputs": [
                {
                    "indexed": false,
                    "internalType": "string",
                    "name": "",
                    "type": "string"
                }
            ],
            "name": "evento_revision",
            "type": "event"
        },
        {
            "inputs": [
                {
                    "internalType": "string",
                    "name": "_idAlumno",
                    "type": "string"
                },
                {
                    "internalType": "uint256",
                    "name": "_nota",
                    "type": "uint256"
                }
            ],
            "name": "Evaluar",
            "outputs": [],
            "stateMutability": "nonpayable",
            "type": "function"
        },
        {
            "inputs": [
                {
                    "internalType": "string",
                    "name": "_idAlumno",
                    "type": "string"
                }
            ],
            "name": "VerNotas",
            "outputs": [
                {
                    "internalType": "uint256",
                    "name": "",
                    "type": "uint256"
                }
            ],
            "stateMutability": "view",
            "type": "function"
        },
        {
            "inputs": [],
            "name": "profesor",
            "outputs": [
                {
                    "internalType": "address",
                    "name": "",
                    "type": "address"
                }
            ],
            "stateMutability": "view",
            "type": "function"
        }
    ],
    "bytecode": "608060405234801561001057600080fd5b50600080546001600160a01b0319163317905561036c806100326000396000f3fe608060405234801561001057600080fd5b50600436106100415760003560e01c8063040d9f601461004657806333731af61461005b578063df09657614610081575b600080fd5b610059610054366004610279565b6100ac565b005b61006e6100693660046102be565b610196565b6040519081526020015b60405180910390f35b600054610094906001600160a01b031681565b6040516001600160a01b039091168152602001610078565b60005433906001600160a01b031681146101205760405162461bcd60e51b815260206004820152602b60248201527f536f6c6f20656c2070726f6665736f72207075656465207265616c697a61722060448201526a32b9ba309030b1b1b4b7b760a91b606482015260840160405180910390fd5b60008360405160200161013391906102fb565b60408051808303601f19018152828252805160209182012060008181526001835283902087905580845290830186905292507f1decb51588158e4fd9a593e42935e33c4641f4958a08256e305bf6dec1092d8f910160405180910390a150505050565b600080826040516020016101aa91906102fb565b60408051601f198184030181529181528151602092830120600090815260019092529020549392505050565b634e487b7160e01b600052604160045260246000fd5b600082601f8301126101fd57600080fd5b813567ffffffffffffffff80821115610218576102186101d6565b604051601f8301601f19908116603f01168101908282118183101715610240576102406101d6565b8160405283815286602085880101111561025957600080fd5b836020870160208301376000602085830101528094505050505092915050565b6000806040838503121561028c57600080fd5b823567ffffffffffffffff8111156102a357600080fd5b6102af858286016101ec565b95602094909401359450505050565b6000602082840312156102d057600080fd5b813567ffffffffffffffff8111156102e757600080fd5b6102f3848285016101ec565b949350505050565b6000825160005b8181101561031c5760208186018101518583015201610302565b8181111561032b576000828501525b50919091019291505056fea26469706673582212207ff4cfe4ead147e77d2bc7810bff0d77168cad9782dbaa76be85896f1a88e8b964736f6c634300080d0033",
    "sourcePath": "/home/secondport/Documents/SmartContracts/Sistema-de-Evaluacion/notas.sol",
    "compiler": {
        "name": "solc",
        "version": "0.8.13+commit.abaa5c0e"
    },
    "functionHashes": {
        "Evaluar(string,uint256)": "040d9f60",
        "VerNotas(string)": "33731af6",
        "profesor()": "df096576"
    },
    "gasEstimates": {
        "creation": {
            "codeDepositCost": "175200",
            "executionCost": "24455",
            "totalCost": "199655"
        },
        "external": {
            "Evaluar(string,uint256)": "infinite",
            "VerNotas(string)": "infinite",
            "profesor()": "2359"
        }
    }
}