{
    "contractName": "notas",
    "abi": [
        {
            "inputs": [],
            "stateMutability": "nonpayable",
            "type": "constructor"
        },
        {
            "anonymous": false,
            "inputs": [
                {
                    "indexed": false,
                    "internalType": "bytes32",
                    "name": "",
                    "type": "bytes32"
                },
                {
                    "indexed": false,
                    "internalType": "uint256",
                    "name": "",
                    "type": "uint256"
                }
            ],
            "name": "alumno_evaluado",
            "type": "event"
        },
        {
            "anonymous": false,
            "inputs": [
                {
                    "indexed": false,
                    "internalType": "string",
                    "name": "",
                    "type": "string"
                }
            ],
            "name": "evento_revision",
            "type": "event"
        },
        {
            "inputs": [
                {
                    "internalType": "string",
                    "name": "_idAlumno",
                    "type": "string"
                },
                {
                    "internalType": "uint256",
                    "name": "_nota",
                    "type": "uint256"
                }
            ],
            "name": "Evaluar",
            "outputs": [],
            "stateMutability": "nonpayable",
            "type": "function"
        },
        {
            "inputs": [],
            "name": "profesor",
            "outputs": [
                {
                    "internalType": "address",
                    "name": "",
                    "type": "address"
                }
            ],
            "stateMutability": "view",
            "type": "function"
        }
    ],
    "bytecode": "608060405234801561001057600080fd5b50600080546001600160a01b031916331790556102a5806100326000396000f3fe608060405234801561001057600080fd5b50600436106100365760003560e01c8063040d9f601461003b578063df09657614610050575b600080fd5b61004e61004936600461017f565b61007f565b005b600054610063906001600160a01b031681565b6040516001600160a01b03909116815260200160405180910390f35b60005433906001600160a01b031681146100f35760405162461bcd60e51b815260206004820152602b60248201527f536f6c6f20656c2070726f6665736f72207075656465207265616c697a61722060448201526a32b9ba309030b1b1b4b7b760a91b606482015260840160405180910390fd5b6000836040516020016101069190610234565b60408051808303601f19018152828252805160209182012060008181526001835283902087905580845290830186905292507f1decb51588158e4fd9a593e42935e33c4641f4958a08256e305bf6dec1092d8f910160405180910390a150505050565b634e487b7160e01b600052604160045260246000fd5b6000806040838503121561019257600080fd5b823567ffffffffffffffff808211156101aa57600080fd5b818501915085601f8301126101be57600080fd5b8135818111156101d0576101d0610169565b604051601f8201601f19908116603f011681019083821181831017156101f8576101f8610169565b8160405282815288602084870101111561021157600080fd5b826020860160208301376000602093820184015298969091013596505050505050565b6000825160005b81811015610255576020818601810151858301520161023b565b81811115610264576000828501525b50919091019291505056fea26469706673582212209bd58cdd54c832322a3a79c0e470d8878a3ef14d4e2838770996417f535a619464736f6c634300080d0033",
    "sourcePath": "/home/secondport/Documents/SmartContracts/Sistema-de-Evaluacion/notas.sol",
    "compiler": {
        "name": "solc",
        "version": "0.8.13+commit.abaa5c0e"
    },
    "functionHashes": {
        "Evaluar(string,uint256)": "040d9f60",
        "profesor()": "df096576"
    },
    "gasEstimates": {
        "creation": {
            "codeDepositCost": "135400",
            "executionCost": "24418",
            "totalCost": "159818"
        },
        "external": {
            "Evaluar(string,uint256)": "infinite",
            "profesor()": "2325"
        }
    }
}