{
    "contractName": "causasBeneficas",
    "abi": [
        {
            "inputs": [
                {
                    "internalType": "string",
                    "name": "_nombre",
                    "type": "string"
                }
            ],
            "name": "comprobar_causa",
            "outputs": [
                {
                    "internalType": "bool",
                    "name": "",
                    "type": "bool"
                },
                {
                    "internalType": "uint256",
                    "name": "",
                    "type": "uint256"
                }
            ],
            "stateMutability": "view",
            "type": "function"
        },
        {
            "inputs": [
                {
                    "internalType": "string",
                    "name": "_nombre",
                    "type": "string"
                },
                {
                    "internalType": "uint256",
                    "name": "_cantidad",
                    "type": "uint256"
                }
            ],
            "name": "donar",
            "outputs": [
                {
                    "internalType": "bool",
                    "name": "",
                    "type": "bool"
                }
            ],
            "stateMutability": "nonpayable",
            "type": "function"
        },
        {
            "inputs": [
                {
                    "internalType": "string",
                    "name": "_nombre",
                    "type": "string"
                },
                {
                    "internalType": "uint256",
                    "name": "_precio_objetivo",
                    "type": "uint256"
                }
            ],
            "name": "nuevaCausa",
            "outputs": [],
            "stateMutability": "payable",
            "type": "function"
        }
    ],
    "bytecode": "60806040526000805534801561001457600080fd5b5061053e806100246000396000f3fe6080604052600436106100345760003560e01c80631a2c9b6a146100395780632ca087921461007557806345cd81b31461008a575b600080fd5b34801561004557600080fd5b506100596100543660046103ca565b6100ba565b6040805192151583526020830191909152015b60405180910390f35b610088610083366004610407565b610139565b005b34801561009657600080fd5b506100aa6100a5366004610407565b6101d5565b604051901515815260200161006c565b60008060006001846040516100cf919061044c565b9081526020016040518091039020600201546001856040516100f1919061044c565b9081526020016040518091039020600301540361010c575060015b8060018560405161011d919061044c565b9081526020016040518091039020600301549250925050915091565b6000805490806101488361049d565b91905055600081905550604051806080016040528060005481526020018381526020018281526020016000815250600183604051610186919061044c565b90815260200160405180910390206000820151816000015560208201518160010190805190602001906101ba92919061028e565b50604082015160028201556060909101516003909101555050565b60006001836040516101e7919061044c565b9081526020016040518091039020600201548260018560405161020a919061044c565b90815260200160405180910390206003015461022691906104b6565b111561023457506000610288565b81600184604051610245919061044c565b90815260200160405180910390206003015461026191906104b6565b600184604051610271919061044c565b908152604051908190036020019020600301555060015b92915050565b82805461029a906104ce565b90600052602060002090601f0160209004810192826102bc5760008555610302565b82601f106102d557805160ff1916838001178555610302565b82800160010185558215610302579182015b828111156103025782518255916020019190600101906102e7565b5061030e929150610312565b5090565b5b8082111561030e5760008155600101610313565b634e487b7160e01b600052604160045260246000fd5b600082601f83011261034e57600080fd5b813567ffffffffffffffff8082111561036957610369610327565b604051601f8301601f19908116603f0116810190828211818310171561039157610391610327565b816040528381528660208588010111156103aa57600080fd5b836020870160208301376000602085830101528094505050505092915050565b6000602082840312156103dc57600080fd5b813567ffffffffffffffff8111156103f357600080fd5b6103ff8482850161033d565b949350505050565b6000806040838503121561041a57600080fd5b823567ffffffffffffffff81111561043157600080fd5b61043d8582860161033d565b95602094909401359450505050565b6000825160005b8181101561046d5760208186018101518583015201610453565b8181111561047c576000828501525b509190910192915050565b634e487b7160e01b600052601160045260246000fd5b6000600182016104af576104af610487565b5060010190565b600082198211156104c9576104c9610487565b500190565b600181811c908216806104e257607f821691505b60208210810361050257634e487b7160e01b600052602260045260246000fd5b5091905056fea2646970667358221220486a62f8ebdb670aeee83d65d0eef0aa2e5372c989a22a720712a64ec39591a164736f6c634300080d0033",
    "sourcePath": "/home/secondport/Documents/SmartContracts/MiniProyecto/causas_beneficas.sol",
    "compiler": {
        "name": "solc",
        "version": "0.8.13+commit.abaa5c0e"
    },
    "functionHashes": {
        "comprobar_causa(string)": "1a2c9b6a",
        "donar(string,uint256)": "45cd81b3",
        "nuevaCausa(string,uint256)": "2ca08792"
    },
    "gasEstimates": {
        "creation": {
            "codeDepositCost": "268400",
            "executionCost": "5312",
            "totalCost": "273712"
        },
        "external": {
            "comprobar_causa(string)": "infinite",
            "donar(string,uint256)": "infinite",
            "nuevaCausa(string,uint256)": "infinite"
        }
    }
}