{
    "contractName": "causasBeneficas",
    "abi": [
        {
            "inputs": [
                {
                    "internalType": "string",
                    "name": "_nombre",
                    "type": "string"
                }
            ],
            "name": "comprobar_causa",
            "outputs": [
                {
                    "internalType": "uint256",
                    "name": "",
                    "type": "uint256"
                }
            ],
            "stateMutability": "view",
            "type": "function"
        },
        {
            "inputs": [
                {
                    "internalType": "string",
                    "name": "_nombre",
                    "type": "string"
                },
                {
                    "internalType": "uint256",
                    "name": "_cantidad",
                    "type": "uint256"
                }
            ],
            "name": "donar",
            "outputs": [
                {
                    "internalType": "bool",
                    "name": "",
                    "type": "bool"
                }
            ],
            "stateMutability": "nonpayable",
            "type": "function"
        },
        {
            "inputs": [
                {
                    "internalType": "string",
                    "name": "_nombre",
                    "type": "string"
                },
                {
                    "internalType": "uint256",
                    "name": "_precio_objetivo",
                    "type": "uint256"
                }
            ],
            "name": "nuevaCausa",
            "outputs": [],
            "stateMutability": "payable",
            "type": "function"
        }
    ],
    "bytecode": "60806040526000805534801561001457600080fd5b50610534806100246000396000f3fe6080604052600436106100345760003560e01c80631a2c9b6a146100395780632ca087921461006c57806345cd81b314610081575b600080fd5b34801561004557600080fd5b506100596100543660046103c0565b6100b1565b6040519081526020015b60405180910390f35b61007f61007a3660046103fd565b61012f565b005b34801561008d57600080fd5b506100a161009c3660046103fd565b6101cb565b6040519015158152602001610063565b600080600090506001836040516100c89190610442565b9081526020016040518091039020600201546001846040516100ea9190610442565b90815260200160405180910390206003015410610105575060015b6001836040516101159190610442565b908152602001604051809103902060030154915050919050565b60008054908061013e83610493565b9190505560008190555060405180608001604052806000548152602001838152602001828152602001600081525060018360405161017c9190610442565b90815260200160405180910390206000820151816000015560208201518160010190805190602001906101b0929190610284565b50604082015160028201556060909101516003909101555050565b60006001836040516101dd9190610442565b908152602001604051809103902060020154826001856040516102009190610442565b90815260200160405180910390206003015461021c91906104ac565b111561022a5750600061027e565b8160018460405161023b9190610442565b90815260200160405180910390206003015461025791906104ac565b6001846040516102679190610442565b908152604051908190036020019020600301555060015b92915050565b828054610290906104c4565b90600052602060002090601f0160209004810192826102b257600085556102f8565b82601f106102cb57805160ff19168380011785556102f8565b828001600101855582156102f8579182015b828111156102f85782518255916020019190600101906102dd565b50610304929150610308565b5090565b5b808211156103045760008155600101610309565b634e487b7160e01b600052604160045260246000fd5b600082601f83011261034457600080fd5b813567ffffffffffffffff8082111561035f5761035f61031d565b604051601f8301601f19908116603f011681019082821181831017156103875761038761031d565b816040528381528660208588010111156103a057600080fd5b836020870160208301376000602085830101528094505050505092915050565b6000602082840312156103d257600080fd5b813567ffffffffffffffff8111156103e957600080fd5b6103f584828501610333565b949350505050565b6000806040838503121561041057600080fd5b823567ffffffffffffffff81111561042757600080fd5b61043385828601610333565b95602094909401359450505050565b6000825160005b818110156104635760208186018101518583015201610449565b81811115610472576000828501525b509190910192915050565b634e487b7160e01b600052601160045260246000fd5b6000600182016104a5576104a561047d565b5060010190565b600082198211156104bf576104bf61047d565b500190565b600181811c908216806104d857607f821691505b6020821081036104f857634e487b7160e01b600052602260045260246000fd5b5091905056fea26469706673582212207587b809662c65cb079494d0e696173770f7abcfda8729aaabeb0a9454213cff64736f6c634300080d0033",
    "sourcePath": "/home/secondport/Documents/SmartContracts/MiniProyecto/causas_beneficas.sol",
    "compiler": {
        "name": "solc",
        "version": "0.8.13+commit.abaa5c0e"
    },
    "functionHashes": {
        "comprobar_causa(string)": "1a2c9b6a",
        "donar(string,uint256)": "45cd81b3",
        "nuevaCausa(string,uint256)": "2ca08792"
    },
    "gasEstimates": {
        "creation": {
            "codeDepositCost": "266400",
            "executionCost": "5312",
            "totalCost": "271712"
        },
        "external": {
            "comprobar_causa(string)": "infinite",
            "donar(string,uint256)": "infinite",
            "nuevaCausa(string,uint256)": "infinite"
        }
    }
}