{
    "contractName": "SmartContract1",
    "abi": [
        {
            "inputs": [],
            "name": "Factory",
            "outputs": [],
            "stateMutability": "nonpayable",
            "type": "function"
        },
        {
            "inputs": [
                {
                    "internalType": "address",
                    "name": "",
                    "type": "address"
                }
            ],
            "name": "MiContrato",
            "outputs": [
                {
                    "internalType": "address",
                    "name": "",
                    "type": "address"
                }
            ],
            "stateMutability": "view",
            "type": "function"
        }
    ],
    "bytecode": "608060405234801561001057600080fd5b5061028c806100206000396000f3fe608060405234801561001057600080fd5b50600436106100365760003560e01c80632e3749c11461003b578063c83dd23114610080575b600080fd5b610064610049366004610103565b6000602081905290815260409020546001600160a01b031681565b6040516001600160a01b03909116815260200160405180910390f35b61008861008a565b005b600033604051610099906100f6565b6001600160a01b039091168152602001604051809103906000f0801580156100c5573d6000803e3d6000fd5b5033600090815260208190526040902080546001600160a01b0319166001600160a01b039290921691909117905550565b6101238061013483390190565b60006020828403121561011557600080fd5b81356001600160a01b038116811461012c57600080fd5b939250505056fe608060405234801561001057600080fd5b5060405161012338038061012383398101604081905261002f91610054565b600080546001600160a01b0319166001600160a01b0392909216919091179055610084565b60006020828403121561006657600080fd5b81516001600160a01b038116811461007d57600080fd5b9392505050565b6091806100926000396000f3fe6080604052348015600f57600080fd5b506004361060285760003560e01c80638da5cb5b14602d575b600080fd5b600054603f906001600160a01b031681565b6040516001600160a01b03909116815260200160405180910390f3fea2646970667358221220d7fd94f3addd55cc7abea0ae6466d5907ab44569703e35fae4c271a9cf11f6bb64736f6c634300080d0033a264697066735822122052a01f8dc1009d066eee9f38f2cfe4305e343cdbef710845e2ec2095ffd3419264736f6c634300080d0033",
    "sourcePath": "/home/secondport/Documents/SmartContracts/Fabrica-de-Contratos/factory.sol",
    "compiler": {
        "name": "solc",
        "version": "0.8.13+commit.abaa5c0e"
    },
    "functionHashes": {
        "Factory()": "c83dd231",
        "MiContrato(address)": "2e3749c1"
    },
    "gasEstimates": {
        "creation": {
            "codeDepositCost": "130400",
            "executionCost": "177",
            "totalCost": "130577"
        },
        "external": {
            "Factory()": "infinite",
            "MiContrato(address)": "2492"
        }
    }
}