{
    "contractName": "funciones_globales",
    "abi": [
        {
            "inputs": [],
            "name": "Sig",
            "outputs": [
                {
                    "internalType": "bytes4",
                    "name": "",
                    "type": "bytes4"
                }
            ],
            "stateMutability": "pure",
            "type": "function"
        },
        {
            "inputs": [],
            "name": "getBlockNumber",
            "outputs": [
                {
                    "internalType": "uint256",
                    "name": "",
                    "type": "uint256"
                }
            ],
            "stateMutability": "view",
            "type": "function"
        },
        {
            "inputs": [],
            "name": "getCoinbase",
            "outputs": [
                {
                    "internalType": "address",
                    "name": "",
                    "type": "address"
                }
            ],
            "stateMutability": "view",
            "type": "function"
        },
        {
            "inputs": [],
            "name": "getDifficulty",
            "outputs": [
                {
                    "internalType": "uint256",
                    "name": "",
                    "type": "uint256"
                }
            ],
            "stateMutability": "view",
            "type": "function"
        },
        {
            "inputs": [],
            "name": "getGasPrice",
            "outputs": [
                {
                    "internalType": "uint256",
                    "name": "",
                    "type": "uint256"
                }
            ],
            "stateMutability": "view",
            "type": "function"
        },
        {
            "inputs": [],
            "name": "getNow",
            "outputs": [
                {
                    "internalType": "uint256",
                    "name": "",
                    "type": "uint256"
                }
            ],
            "stateMutability": "view",
            "type": "function"
        },
        {
            "inputs": [],
            "name": "getSender",
            "outputs": [
                {
                    "internalType": "address",
                    "name": "",
                    "type": "address"
                }
            ],
            "stateMutability": "view",
            "type": "function"
        }
    ],
    "bytecode": "608060405234801561001057600080fd5b50610109806100206000396000f3fe6080604052348015600f57600080fd5b506004361060735760003560e01c80635e01eb5a1160545780635e01eb5a1460ab578063b6baffe31460c4578063bbe4fd501460c9578063d1a82a9d1460ce57600080fd5b806326a9020f14607857806342cbb15c146097578063455259cb1460a6575b600080fd5b6040516001600160e01b03196000351681526020015b60405180910390f35b435b604051908152602001608e565b3a6099565b335b6040516001600160a01b039091168152602001608e565b446099565b426099565b4160ad56fea264697066735822122096c8871643e4a0c316d88397a61c896f2c784e0720c2e82685e7627b17f7252764736f6c634300080d0033",
    "sourcePath": "/home/secondport/Documents/SmartContracts/Propiedades de transacciones y bloques/funciones_globales.sol",
    "compiler": {
        "name": "solc",
        "version": "0.8.13+commit.abaa5c0e"
    },
    "functionHashes": {
        "Sig()": "26a9020f",
        "getBlockNumber()": "42cbb15c",
        "getCoinbase()": "d1a82a9d",
        "getDifficulty()": "b6baffe3",
        "getGasPrice()": "455259cb",
        "getNow()": "bbe4fd50",
        "getSender()": "5e01eb5a"
    },
    "gasEstimates": {
        "creation": {
            "codeDepositCost": "53000",
            "executionCost": "105",
            "totalCost": "53105"
        },
        "external": {
            "Sig()": "191",
            "getBlockNumber()": "203",
            "getCoinbase()": "278",
            "getDifficulty()": "213",
            "getGasPrice()": "236",
            "getNow()": "235",
            "getSender()": "201"
        }
    }
}