{
    "contractName": "hash",
    "abi": [
        {
            "inputs": [
                {
                    "internalType": "string",
                    "name": "_cadena",
                    "type": "string"
                }
            ],
            "name": "calcularHash",
            "outputs": [
                {
                    "internalType": "bytes32",
                    "name": "",
                    "type": "bytes32"
                }
            ],
            "stateMutability": "pure",
            "type": "function"
        },
        {
            "inputs": [
                {
                    "internalType": "string",
                    "name": "_cadena",
                    "type": "string"
                },
                {
                    "internalType": "uint256",
                    "name": "_k",
                    "type": "uint256"
                },
                {
                    "internalType": "address",
                    "name": "_direccion",
                    "type": "address"
                }
            ],
            "name": "calcularHash2",
            "outputs": [
                {
                    "internalType": "bytes32",
                    "name": "",
                    "type": "bytes32"
                }
            ],
            "stateMutability": "pure",
            "type": "function"
        },
        {
            "inputs": [
                {
                    "internalType": "string",
                    "name": "_cadena",
                    "type": "string"
                },
                {
                    "internalType": "uint256",
                    "name": "_k",
                    "type": "uint256"
                },
                {
                    "internalType": "address",
                    "name": "_direccion",
                    "type": "address"
                }
            ],
            "name": "calcularHash3",
            "outputs": [
                {
                    "internalType": "bytes32",
                    "name": "",
                    "type": "bytes32"
                }
            ],
            "stateMutability": "pure",
            "type": "function"
        }
    ],
    "bytecode": "608060405234801561001057600080fd5b50610346806100206000396000f3fe608060405234801561001057600080fd5b50600436106100415760003560e01c80633d76e9091461004657806352de28e81461006b578063da100b1d1461007e575b600080fd5b6100596100543660046101b1565b610091565b60405190815260200160405180910390f35b6100596100793660046101ee565b6100c1565b61005961008c3660046101ee565b6100f7565b6000816040516020016100a49190610290565b604051602081830303815290604052805190602001209050919050565b60008383836040516020016100d8939291906102a3565b6040516020818303038152906040528051906020012090509392505050565b60008383836040516020016100d8939291906102e0565b634e487b7160e01b600052604160045260246000fd5b600082601f83011261013557600080fd5b813567ffffffffffffffff808211156101505761015061010e565b604051601f8301601f19908116603f011681019082821181831017156101785761017861010e565b8160405283815286602085880101111561019157600080fd5b836020870160208301376000602085830101528094505050505092915050565b6000602082840312156101c357600080fd5b813567ffffffffffffffff8111156101da57600080fd5b6101e684828501610124565b949350505050565b60008060006060848603121561020357600080fd5b833567ffffffffffffffff81111561021a57600080fd5b61022686828701610124565b9350506020840135915060408401356001600160a01b038116811461024a57600080fd5b809150509250925092565b6000815160005b81811015610276576020818501810151868301520161025c565b81811115610285576000828601525b509290920192915050565b600061029c8284610255565b9392505050565b60006102af8286610255565b938452505060601b6bffffffffffffffffffffffff1916602082015263686f6c6160e01b6034820152603801919050565b60006102ec8286610255565b938452505060601b6bffffffffffffffffffffffff1916602082015260340191905056fea2646970667358221220c7ff1c3c44d49b97e801870abb0524e046c607fbc0f5c2b739ee923bbc42871e64736f6c634300080d0033",
    "sourcePath": "/home/secondport/Documents/SmartContracts/Propiedades de transacciones y bloques/keccak256.sol",
    "compiler": {
        "name": "solc",
        "version": "0.8.13+commit.abaa5c0e"
    },
    "functionHashes": {
        "calcularHash(string)": "3d76e909",
        "calcularHash2(string,uint256,address)": "da100b1d",
        "calcularHash3(string,uint256,address)": "52de28e8"
    },
    "gasEstimates": {
        "creation": {
            "codeDepositCost": "167600",
            "executionCost": "214",
            "totalCost": "167814"
        },
        "external": {
            "calcularHash(string)": "infinite",
            "calcularHash2(string,uint256,address)": "infinite",
            "calcularHash3(string,uint256,address)": "infinite"
        }
    }
}