{
    "contractName": "Modifier",
    "abi": [
        {
            "inputs": [],
            "stateMutability": "nonpayable",
            "type": "constructor"
        },
        {
            "inputs": [
                {
                    "internalType": "string",
                    "name": "_nombre",
                    "type": "string"
                }
            ],
            "name": "altaCliente",
            "outputs": [],
            "stateMutability": "nonpayable",
            "type": "function"
        },
        {
            "inputs": [
                {
                    "internalType": "string",
                    "name": "",
                    "type": "string"
                }
            ],
            "name": "clientes",
            "outputs": [
                {
                    "internalType": "address",
                    "name": "",
                    "type": "address"
                }
            ],
            "stateMutability": "view",
            "type": "function"
        },
        {
            "inputs": [
                {
                    "internalType": "uint256",
                    "name": "_edad",
                    "type": "uint256"
                }
            ],
            "name": "conduciru",
            "outputs": [],
            "stateMutability": "nonpayable",
            "type": "function"
        },
        {
            "inputs": [],
            "name": "ejemplo1",
            "outputs": [],
            "stateMutability": "nonpayable",
            "type": "function"
        },
        {
            "inputs": [
                {
                    "internalType": "string",
                    "name": "_nombre",
                    "type": "string"
                }
            ],
            "name": "ejmplo2",
            "outputs": [],
            "stateMutability": "nonpayable",
            "type": "function"
        },
        {
            "inputs": [],
            "name": "owner",
            "outputs": [
                {
                    "internalType": "address",
                    "name": "",
                    "type": "address"
                }
            ],
            "stateMutability": "view",
            "type": "function"
        }
    ],
    "bytecode": "608060405234801561001057600080fd5b50600080546001600160a01b03191633179055610415806100326000396000f3fe608060405234801561001057600080fd5b50600436106100625760003560e01c8063084f9c37146100675780631cd2e5e51461007c5780636e08385a1461008f578063721645f1146100a25780638da5cb5b146100aa578063b8dac4b0146100d9575b600080fd5b61007a6100753660046102da565b61010d565b005b61007a61008a3660046102da565b610150565b61007a61009d36600461038b565b6101ee565b61007a610250565b6000546100bd906001600160a01b031681565b6040516001600160a01b03909116815260200160405180910390f35b6100bd6100e73660046102da565b80516020818301810180516001825292820191909301209152546001600160a01b031681565b3360018260405161011e91906103a4565b90815260405190819003602001902080546001600160a01b03929092166001600160a01b031990921691909117905550565b80336001600160a01b031660018260405161016b91906103a4565b908152604051908190036020019020546001600160a01b0316146101ea5760405162461bcd60e51b815260206004820152602b60248201527f536f6c6f20656c20636c69656e746520707565646520656a656375746172206560448201526a39ba3090333ab731b4b7b760a91b60648201526084015b60405180910390fd5b5050565b6012818181101561024b5760405162461bcd60e51b815260206004820152602160248201527f456c207573756172696f206465626520736572206d61796f72206465206564616044820152601960fa1b60648201526084016101e1565b505050565b6000546001600160a01b031633146102c25760405162461bcd60e51b815260206004820152602f60248201527f536f6c6f20656c2070726f706965746172696f20707565646520656a6563757460448201526e30b91032b9ba3090333ab731b4b7b760891b60648201526084016101e1565b565b634e487b7160e01b600052604160045260246000fd5b6000602082840312156102ec57600080fd5b813567ffffffffffffffff8082111561030457600080fd5b818401915084601f83011261031857600080fd5b81358181111561032a5761032a6102c4565b604051601f8201601f19908116603f01168101908382118183101715610352576103526102c4565b8160405282815287602084870101111561036b57600080fd5b826020860160208301376000928101602001929092525095945050505050565b60006020828403121561039d57600080fd5b5035919050565b6000825160005b818110156103c557602081860181015185830152016103ab565b818111156103d4576000828501525b50919091019291505056fea2646970667358221220fdda93a4915307b813f84dc7e1c4a5e0aa69f39e473cb076e06a0b940aad58d864736f6c634300080d0033",
    "sourcePath": "/home/secondport/Documents/SmartContracts/Funciones-Avanzadas/modifier.sol",
    "compiler": {
        "name": "solc",
        "version": "0.8.13+commit.abaa5c0e"
    },
    "functionHashes": {
        "altaCliente(string)": "084f9c37",
        "clientes(string)": "b8dac4b0",
        "conduciru(uint256)": "6e08385a",
        "ejemplo1()": "721645f1",
        "ejmplo2(string)": "1cd2e5e5",
        "owner()": "8da5cb5b"
    },
    "gasEstimates": {
        "creation": {
            "codeDepositCost": "209000",
            "executionCost": "24486",
            "totalCost": "233486"
        },
        "external": {
            "altaCliente(string)": "infinite",
            "clientes(string)": "infinite",
            "conduciru(uint256)": "406",
            "ejemplo1()": "2459",
            "ejmplo2(string)": "infinite",
            "owner()": "2391"
        }
    }
}