{
    "contractName": "Require",
    "abi": [
        {
            "inputs": [],
            "name": "cartera",
            "outputs": [
                {
                    "internalType": "uint256",
                    "name": "",
                    "type": "uint256"
                }
            ],
            "stateMutability": "view",
            "type": "function"
        },
        {
            "inputs": [
                {
                    "internalType": "string",
                    "name": "_nombre",
                    "type": "string"
                }
            ],
            "name": "nuevoNombre",
            "outputs": [],
            "stateMutability": "nonpayable",
            "type": "function"
        },
        {
            "inputs": [
                {
                    "internalType": "uint256",
                    "name": "_dinero",
                    "type": "uint256"
                }
            ],
            "name": "pagar",
            "outputs": [
                {
                    "internalType": "uint256",
                    "name": "",
                    "type": "uint256"
                }
            ],
            "stateMutability": "nonpayable",
            "type": "function"
        },
        {
            "inputs": [
                {
                    "internalType": "string",
                    "name": "_password",
                    "type": "string"
                }
            ],
            "name": "password",
            "outputs": [
                {
                    "internalType": "string",
                    "name": "",
                    "type": "string"
                }
            ],
            "stateMutability": "pure",
            "type": "function"
        }
    ],
    "bytecode": "608060405260008055600060015534801561001957600080fd5b5061066b806100296000396000f3fe608060405234801561001057600080fd5b506004361061004c5760003560e01c80633aa6d20814610051578063694b9d341461007757806371d3f37a14610080578063f8f552b4146100a0575b600080fd5b61006461005f3660046103a4565b6100b5565b6040519081526020015b60405180910390f35b61006460015481565b61009361008e3660046103d3565b610130565b60405161006e91906104b4565b6100b36100ae3660046103d3565b6101f7565b005b600080546100c49060056104fd565b42116101095760405162461bcd60e51b815260206004820152600f60248201526e273790383ab2b232b9903830b3b0b960891b60448201526064015b60405180910390fd5b42600081905550816001600082825461012291906104fd565b909155505060015492915050565b60405164313233343560d81b6020820152606090602501604051602081830303815290604052805190602001208260405160200161016e9190610515565b60405160208183030381529060405280519060200120146101c75760405162461bcd60e51b815260206004820152601360248201527250617373776f726420696e636f72726563746f60681b6044820152606401610100565b5050604080518082019091526014815273436f6e74726173656e696120636f72726563746160601b602082015290565b60005b6002548110156102c3576002818154811061021757610217610531565b906000526020600020016040516020016102319190610581565b60405160208183030381529060405280519060200120826040516020016102589190610515565b60405160208183030381529060405280519060200120036102b15760405162461bcd60e51b8152602060048201526013602482015272456c206e6f6d6272652079612065786973746560681b6044820152606401610100565b806102bb8161061c565b9150506101fa565b50600280546001810182556000919091528151610307917f405787fa12a823e0f2b7631cc41b3ba8828b3321ca811111fa75cd3aa3bb5ace0190602084019061030b565b5050565b82805461031790610547565b90600052602060002090601f016020900481019282610339576000855561037f565b82601f1061035257805160ff191683800117855561037f565b8280016001018555821561037f579182015b8281111561037f578251825591602001919060010190610364565b5061038b92915061038f565b5090565b5b8082111561038b5760008155600101610390565b6000602082840312156103b657600080fd5b5035919050565b634e487b7160e01b600052604160045260246000fd5b6000602082840312156103e557600080fd5b813567ffffffffffffffff808211156103fd57600080fd5b818401915084601f83011261041157600080fd5b813581811115610423576104236103bd565b604051601f8201601f19908116603f0116810190838211818310171561044b5761044b6103bd565b8160405282815287602084870101111561046457600080fd5b826020860160208301376000928101602001929092525095945050505050565b60005b8381101561049f578181015183820152602001610487565b838111156104ae576000848401525b50505050565b60208152600082518060208401526104d3816040850160208701610484565b601f01601f19169190910160400192915050565b634e487b7160e01b600052601160045260246000fd5b60008219821115610510576105106104e7565b500190565b60008251610527818460208701610484565b9190910192915050565b634e487b7160e01b600052603260045260246000fd5b600181811c9082168061055b57607f821691505b60208210810361057b57634e487b7160e01b600052602260045260246000fd5b50919050565b600080835481600182811c91508083168061059d57607f831692505b602080841082036105bc57634e487b7160e01b86526022600452602486fd5b8180156105d057600181146105e15761060e565b60ff1986168952848901965061060e565b60008a81526020902060005b868110156106065781548b8201529085019083016105ed565b505084890196505b509498975050505050505050565b60006001820161062e5761062e6104e7565b506001019056fea2646970667358221220c17bb08252153927d3e76f586ca246ebe80ca22c25ecaf924cc67a583b09d25464736f6c634300080d0033",
    "sourcePath": "/home/secondport/Documents/SmartContracts/Funciones-Avanzadas/require.sol",
    "compiler": {
        "name": "solc",
        "version": "0.8.13+commit.abaa5c0e"
    },
    "functionHashes": {
        "cartera()": "694b9d34",
        "nuevoNombre(string)": "f8f552b4",
        "pagar(uint256)": "3aa6d208",
        "password(string)": "71d3f37a"
    },
    "gasEstimates": {
        "creation": {
            "codeDepositCost": "328600",
            "executionCost": "10380",
            "totalCost": "338980"
        },
        "external": {
            "cartera()": "2284",
            "nuevoNombre(string)": "infinite",
            "pagar(uint256)": "infinite",
            "password(string)": "infinite"
        }
    }
}