{
    "contractName": "Sanguche",
    "abi": [
        {
            "inputs": [
                {
                    "internalType": "string",
                    "name": "_ingredientes",
                    "type": "string"
                },
                {
                    "internalType": "uint256",
                    "name": "_tiempo",
                    "type": "uint256"
                }
            ],
            "name": "sanguche",
            "outputs": [],
            "stateMutability": "nonpayable",
            "type": "function"
        },
        {
            "inputs": [],
            "name": "verIngredientes",
            "outputs": [
                {
                    "internalType": "string",
                    "name": "",
                    "type": "string"
                }
            ],
            "stateMutability": "view",
            "type": "function"
        }
    ],
    "bytecode": "608060405234801561001057600080fd5b5061048d806100206000396000f3fe608060405234801561001057600080fd5b50600436106100365760003560e01c806319a08b0b1461003b578063dc53d5c714610050575b600080fd5b61004e6100493660046102ed565b61006e565b005b61005861009d565b60405161006591906103ce565b60405180910390f35b6100996040518060400160405280600881526020016753616e677563686560c01b81525083836100cd565b5050565b60606100c86040518060400160405280600881526020016753616e677563686560c01b81525061018e565b905090565b6040805160608101825284815260208082018590529181018390526000805460018101825590805281518051929360039092027f290decd9548b62a8d60345a988386fc84ba6bc95484008f6362f93160ef3e5630192610130928492019061023e565b506020828101518051610149926001850192019061023e565b50604082015181600201555050816001846040516101679190610401565b9081526020016040518091039020908051906020019061018892919061023e565b50505050565b60606001826040516101a09190610401565b908152602001604051809103902080546101b99061041d565b80601f01602080910402602001604051908101604052809291908181526020018280546101e59061041d565b80156102325780601f1061020757610100808354040283529160200191610232565b820191906000526020600020905b81548152906001019060200180831161021557829003601f168201915b50505050509050919050565b82805461024a9061041d565b90600052602060002090601f01602090048101928261026c57600085556102b2565b82601f1061028557805160ff19168380011785556102b2565b828001600101855582156102b2579182015b828111156102b2578251825591602001919060010190610297565b506102be9291506102c2565b5090565b5b808211156102be57600081556001016102c3565b634e487b7160e01b600052604160045260246000fd5b6000806040838503121561030057600080fd5b823567ffffffffffffffff8082111561031857600080fd5b818501915085601f83011261032c57600080fd5b81358181111561033e5761033e6102d7565b604051601f8201601f19908116603f01168101908382118183101715610366576103666102d7565b8160405282815288602084870101111561037f57600080fd5b826020860160208301376000602093820184015298969091013596505050505050565b60005b838110156103bd5781810151838201526020016103a5565b838111156101885750506000910152565b60208152600082518060208401526103ed8160408501602087016103a2565b601f01601f19169190910160400192915050565b600082516104138184602087016103a2565b9190910192915050565b600181811c9082168061043157607f821691505b60208210810361045157634e487b7160e01b600052602260045260246000fd5b5091905056fea264697066735822122050fc14d32876d1745ba7ba263322262f36ca6a539dd101517f382a51fb1f567d64736f6c634300080d0033",
    "sourcePath": "/home/secondport/Documents/SmartContracts/Funciones-Avanzadas/internal-external.sol",
    "compiler": {
        "name": "solc",
        "version": "0.8.13+commit.abaa5c0e"
    },
    "functionHashes": {
        "sanguche(string,uint256)": "19a08b0b",
        "verIngredientes()": "dc53d5c7"
    },
    "gasEstimates": {
        "creation": {
            "codeDepositCost": "233000",
            "executionCost": "275",
            "totalCost": "233275"
        },
        "external": {
            "sanguche(string,uint256)": "infinite",
            "verIngredientes()": "infinite"
        }
    }
}