{
    "contractName": "casteo",
    "abi": [
        {
            "inputs": [],
            "name": "casteo_1",
            "outputs": [
                {
                    "internalType": "uint64",
                    "name": "",
                    "type": "uint64"
                }
            ],
            "stateMutability": "view",
            "type": "function"
        },
        {
            "inputs": [],
            "name": "casteo_2",
            "outputs": [
                {
                    "internalType": "uint64",
                    "name": "",
                    "type": "uint64"
                }
            ],
            "stateMutability": "view",
            "type": "function"
        },
        {
            "inputs": [],
            "name": "casteo_4",
            "outputs": [
                {
                    "internalType": "int256",
                    "name": "",
                    "type": "int256"
                }
            ],
            "stateMutability": "view",
            "type": "function"
        },
        {
            "inputs": [],
            "name": "casteo_5",
            "outputs": [
                {
                    "internalType": "int256",
                    "name": "",
                    "type": "int256"
                }
            ],
            "stateMutability": "view",
            "type": "function"
        },
        {
            "inputs": [
                {
                    "internalType": "uint8",
                    "name": "_k",
                    "type": "uint8"
                }
            ],
            "name": "convertir",
            "outputs": [
                {
                    "internalType": "uint64",
                    "name": "",
                    "type": "uint64"
                }
            ],
            "stateMutability": "view",
            "type": "function"
        }
    ],
    "bytecode": "6080604052600080546001600160481b03191662177001179055620186a06001819055600280546001600160901b031916650dbba000000f1790819055624c4b40600355600480546001600160801b0319166a0186a0000000000000000117905563010000009004600e0b60055560065534801561007c57600080fd5b506101318061008c6000396000f3fe6080604052348015600f57600080fd5b506004361060505760003560e01c806302b037a71460555780632b74311b1460865780639fe40a171460a5578063af489aa61460b6578063ed4885e51460cb575b600080fd5b60045460689067ffffffffffffffff1681565b60405167ffffffffffffffff90911681526020015b60405180910390f35b60045460689068010000000000000000900467ffffffffffffffff1681565b606860b036600460d3565b60ff1690565b60be60065481565b604051908152602001607d565b60be60055481565b60006020828403121560e457600080fd5b813560ff8116811460f457600080fd5b939250505056fea2646970667358221220ce8ef0a74c8c3a594a990eb6b313e500b97d39a399b57ad7aaa04f48ad9f52bf64736f6c634300080d0033",
    "sourcePath": "/home/secondport/Documents/SmartContracts/Tipos de Variables y Operadores/casteo_variables.sol",
    "compiler": {
        "name": "solc",
        "version": "0.8.13+commit.abaa5c0e"
    },
    "functionHashes": {
        "casteo_1()": "02b037a7",
        "casteo_2()": "2b74311b",
        "casteo_4()": "ed4885e5",
        "casteo_5()": "af489aa6",
        "convertir(uint8)": "9fe40a17"
    },
    "gasEstimates": {
        "creation": {
            "codeDepositCost": "61000",
            "executionCost": "161268",
            "totalCost": "222268"
        },
        "external": {
            "casteo_1()": "2280",
            "casteo_2()": "2313",
            "casteo_4()": "2361",
            "casteo_5()": "2339",
            "convertir(uint8)": "329"
        }
    }
}