{
    "contractName": "compararStrings",
    "abi": [
        {
            "inputs": [
                {
                    "internalType": "string",
                    "name": "_j",
                    "type": "string"
                },
                {
                    "internalType": "string",
                    "name": "_i",
                    "type": "string"
                }
            ],
            "name": "comparar",
            "outputs": [
                {
                    "internalType": "bool",
                    "name": "",
                    "type": "bool"
                }
            ],
            "stateMutability": "view",
            "type": "function"
        }
    ],
    "bytecode": "608060405234801561001057600080fd5b50610236806100206000396000f3fe608060405234801561001057600080fd5b506004361061002b5760003560e01c806332af93f714610030575b600080fd5b61004361003e366004610161565b610057565b604051901515815260200160405180910390f35b60008260405160200161006a91906101c5565b604051602081830303815290604052805190602001208260405160200161009191906101c5565b60405160208183030381529060405280519060200120036100b4575060016100b8565b5060005b92915050565b634e487b7160e01b600052604160045260246000fd5b600082601f8301126100e557600080fd5b813567ffffffffffffffff80821115610100576101006100be565b604051601f8301601f19908116603f01168101908282118183101715610128576101286100be565b8160405283815286602085880101111561014157600080fd5b836020870160208301376000602085830101528094505050505092915050565b6000806040838503121561017457600080fd5b823567ffffffffffffffff8082111561018c57600080fd5b610198868387016100d4565b935060208501359150808211156101ae57600080fd5b506101bb858286016100d4565b9150509250929050565b6000825160005b818110156101e657602081860181015185830152016101cc565b818111156101f5576000828501525b50919091019291505056fea2646970667358221220bde284049263c4066a9af344eb888237ee2aeca22701a718d90ffd0558f64b7464736f6c634300080d0033",
    "sourcePath": "/home/secondport/Documents/SmartContracts/Tipos de Variables y Operadores/comparar.sol",
    "compiler": {
        "name": "solc",
        "version": "0.8.13+commit.abaa5c0e"
    },
    "functionHashes": {
        "comparar(string,string)": "32af93f7"
    },
    "gasEstimates": {
        "creation": {
            "codeDepositCost": "113200",
            "executionCost": "159",
            "totalCost": "113359"
        },
        "external": {
            "comparar(string,string)": "infinite"
        }
    }
}