{
    "contractName": "enumeraciones",
    "abi": [
        {
            "inputs": [],
            "name": "Direcciones",
            "outputs": [
                {
                    "internalType": "enum enumeraciones.direcciones",
                    "name": "",
                    "type": "uint8"
                }
            ],
            "stateMutability": "view",
            "type": "function"
        },
        {
            "inputs": [],
            "name": "Estado",
            "outputs": [
                {
                    "internalType": "enum enumeraciones.estado",
                    "name": "",
                    "type": "uint8"
                }
            ],
            "stateMutability": "view",
            "type": "function"
        },
        {
            "inputs": [],
            "name": "abajo",
            "outputs": [],
            "stateMutability": "nonpayable",
            "type": "function"
        },
        {
            "inputs": [],
            "name": "apagar",
            "outputs": [],
            "stateMutability": "nonpayable",
            "type": "function"
        },
        {
            "inputs": [],
            "name": "arriba",
            "outputs": [],
            "stateMutability": "nonpayable",
            "type": "function"
        },
        {
            "inputs": [],
            "name": "derecha",
            "outputs": [],
            "stateMutability": "nonpayable",
            "type": "function"
        },
        {
            "inputs": [],
            "name": "encender",
            "outputs": [],
            "stateMutability": "nonpayable",
            "type": "function"
        },
        {
            "inputs": [
                {
                    "internalType": "uint256",
                    "name": "_k",
                    "type": "uint256"
                }
            ],
            "name": "fijarDirecciones",
            "outputs": [],
            "stateMutability": "nonpayable",
            "type": "function"
        },
        {
            "inputs": [
                {
                    "internalType": "uint256",
                    "name": "_k",
                    "type": "uint256"
                }
            ],
            "name": "fijarEstado",
            "outputs": [],
            "stateMutability": "nonpayable",
            "type": "function"
        },
        {
            "inputs": [],
            "name": "izquierda",
            "outputs": [],
            "stateMutability": "nonpayable",
            "type": "function"
        }
    ],
    "bytecode": "60806040526000805461ff001916905534801561001b57600080fd5b506102a58061002b6000396000f3fe608060405234801561001057600080fd5b506004361061009e5760003560e01c8063b46e8d1a11610066578063b46e8d1a146100f1578063daf4343f14610104578063e0be4a2e1461010c578063e7260f9a1461011f578063e9073c331461012757600080fd5b806339feafa3146100a3578063862b7129146100c45780638a60839f146100ce578063943fad7f146100d6578063b1e92247146100de575b600080fd5b600054610100900460ff166040516100bb9190610228565b60405180910390f35b6100cc61012f565b005b6100cc610145565b6100cc61015b565b6100cc6100ec366004610242565b610171565b60005460ff166040516100bb919061025b565b6100cc6101a9565b6100cc61011a366004610242565b6101bf565b6100cc6101ec565b6100cc610200565b600080546001919060ff191682805b0217905550565b600080546003919061ff0019166101008361013e565b600080546002919061ff0019166101008361013e565b80600381111561018357610183610212565b6000805461ff0019166101008360038111156101a1576101a1610212565b021790555050565b600080546001919061ff0019166101008361013e565b8060018111156101d1576101d1610212565b6000805460ff1916600183818111156101a1576101a1610212565b60008054819061ff0019166101008261013e565b60008054819060ff191660018261013e565b634e487b7160e01b600052602160045260246000fd5b602081016004831061023c5761023c610212565b91905290565b60006020828403121561025457600080fd5b5035919050565b602081016002831061023c5761023c61021256fea26469706673582212209f8d95df40f46006afd2a8d521d8cd83438886c1751fc55450402e102e30ce3f64736f6c634300080d0033",
    "sourcePath": "/home/secondport/Documents/SmartContracts/Tipos de Variables y Operadores/enums.sol",
    "compiler": {
        "name": "solc",
        "version": "0.8.13+commit.abaa5c0e"
    },
    "functionHashes": {
        "Direcciones()": "39feafa3",
        "Estado()": "b46e8d1a",
        "abajo()": "daf4343f",
        "apagar()": "862b7129",
        "arriba()": "e7260f9a",
        "derecha()": "8a60839f",
        "encender()": "e9073c33",
        "fijarDirecciones(uint256)": "b1e92247",
        "fijarEstado(uint256)": "e0be4a2e",
        "izquierda()": "943fad7f"
    },
    "gasEstimates": {
        "creation": {
            "codeDepositCost": "135400",
            "executionCost": "24401",
            "totalCost": "159801"
        },
        "external": {
            "Direcciones()": "2345",
            "Estado()": "2333",
            "abajo()": "24421",
            "apagar()": "24411",
            "arriba()": "24462",
            "derecha()": "24444",
            "encender()": "24484",
            "fijarDirecciones(uint256)": "24601",
            "fijarEstado(uint256)": "24556",
            "izquierda()": "24466"
        }
    }
}