{
    "contractName": "mas_variables",
    "abi": [
        {
            "inputs": [],
            "name": "ejemploBytes4",
            "outputs": [],
            "stateMutability": "nonpayable",
            "type": "function"
        },
        {
            "inputs": [],
            "name": "hash",
            "outputs": [
                {
                    "internalType": "bytes32",
                    "name": "",
                    "type": "bytes32"
                }
            ],
            "stateMutability": "view",
            "type": "function"
        },
        {
            "inputs": [],
            "name": "id",
            "outputs": [
                {
                    "internalType": "bytes4",
                    "name": "",
                    "type": "bytes4"
                }
            ],
            "stateMutability": "view",
            "type": "function"
        },
        {
            "inputs": [],
            "name": "myAddressInicializado",
            "outputs": [
                {
                    "internalType": "address",
                    "name": "",
                    "type": "address"
                }
            ],
            "stateMutability": "view",
            "type": "function"
        },
        {
            "inputs": [],
            "name": "myAddressInicializado2",
            "outputs": [
                {
                    "internalType": "address",
                    "name": "",
                    "type": "address"
                }
            ],
            "stateMutability": "view",
            "type": "function"
        },
        {
            "inputs": [],
            "name": "myBoolInicializado",
            "outputs": [
                {
                    "internalType": "bool",
                    "name": "",
                    "type": "bool"
                }
            ],
            "stateMutability": "view",
            "type": "function"
        },
        {
            "inputs": [],
            "name": "myBoolInicializadoFalse",
            "outputs": [
                {
                    "internalType": "bool",
                    "name": "",
                    "type": "bool"
                }
            ],
            "stateMutability": "view",
            "type": "function"
        },
        {
            "inputs": [],
            "name": "myStringInicializado",
            "outputs": [
                {
                    "internalType": "string",
                    "name": "",
                    "type": "string"
                }
            ],
            "stateMutability": "view",
            "type": "function"
        },
        {
            "inputs": [],
            "name": "nombre",
            "outputs": [
                {
                    "internalType": "string",
                    "name": "",
                    "type": "string"
                }
            ],
            "stateMutability": "view",
            "type": "function"
        },
        {
            "inputs": [],
            "name": "vacio",
            "outputs": [
                {
                    "internalType": "string",
                    "name": "",
                    "type": "string"
                }
            ],
            "stateMutability": "view",
            "type": "function"
        }
    ],
    "bytecode": "60c06040526004608081905263486f6c6160e01b60a090815261002591600191906100f3565b50604080516020810191829052600090819052610044916002916100f3565b506003805462ffff001916610100179055604080518082019091526005808252644c7563617360d81b6020909201918252610081916006916100f3565b50600660405160200161009491906101c6565b60408051601f198184030181529190528051602090910120600755600980546001600160a01b031990811673123456789012345678901234567890123456789017909155600a805490911690553480156100ed57600080fd5b50610261565b8280546100ff9061018c565b90600052602060002090601f0160209004810192826101215760008555610167565b82601f1061013a57805160ff1916838001178555610167565b82800160010185558215610167579182015b8281111561016757825182559160200191906001019061014c565b50610173929150610177565b5090565b5b808211156101735760008155600101610178565b600181811c908216806101a057607f821691505b6020821081036101c057634e487b7160e01b600052602260045260246000fd5b50919050565b600080835481600182811c9150808316806101e257607f831692505b6020808410820361020157634e487b7160e01b86526022600452602486fd5b818015610215576001811461022657610253565b60ff19861689528489019650610253565b60008a81526020902060005b8681101561024b5781548b820152908501908301610232565b505084890196505b509498975050505050505050565b610300806102706000396000f3fe608060405234801561001057600080fd5b506004361061009e5760003560e01c80638320422e116100665780638320422e146101115780638afc1f3914610127578063af640d0f14610152578063bc7b35b214610178578063d2490c601461018057600080fd5b806309bd5a60146100a3578063149b3303146100bf5780631a538167146100e257806359356ec7146100f7578063728e44e3146100ff575b600080fd5b6100ac60075481565b6040519081526020015b60405180910390f35b6003546100d29062010000900460ff1681565b60405190151581526020016100b6565b6100ea610193565b6040516100b6919061023b565b6100ea610221565b6003546100d290610100900460ff1681565b6008805463ffffffff191660003560e01c179055005b600a5461013a906001600160a01b031681565b6040516001600160a01b0390911681526020016100b6565b60085461015f9060e01b81565b6040516001600160e01b031990911681526020016100b6565b6100ea61022e565b60095461013a906001600160a01b031681565b600280546101a090610290565b80601f01602080910402602001604051908101604052809291908181526020018280546101cc90610290565b80156102195780601f106101ee57610100808354040283529160200191610219565b820191906000526020600020905b8154815290600101906020018083116101fc57829003601f168201915b505050505081565b600180546101a090610290565b600680546101a090610290565b600060208083528351808285015260005b818110156102685785810183015185820160400152820161024c565b8181111561027a576000604083870101525b50601f01601f1916929092016040019392505050565b600181811c908216806102a457607f821691505b6020821081036102c457634e487b7160e01b600052602260045260246000fd5b5091905056fea2646970667358221220dcd119948de07e85c8944dae2b37d2b818f4c58848ca4316c244ffea8c0bff1664736f6c634300080d0033",
    "sourcePath": "/home/secondport/Documents/SmartContracts/Tipos de Variables y Operadores/mas_variables.sol",
    "compiler": {
        "name": "solc",
        "version": "0.8.13+commit.abaa5c0e"
    },
    "functionHashes": {
        "ejemploBytes4()": "8320422e",
        "hash()": "09bd5a60",
        "id()": "af640d0f",
        "myAddressInicializado()": "d2490c60",
        "myAddressInicializado2()": "8afc1f39",
        "myBoolInicializado()": "728e44e3",
        "myBoolInicializadoFalse()": "149b3303",
        "myStringInicializado()": "59356ec7",
        "nombre()": "bc7b35b2",
        "vacio()": "1a538167"
    },
    "gasEstimates": {
        "creation": {
            "codeDepositCost": "153600",
            "executionCost": "infinite",
            "totalCost": "infinite"
        },
        "external": {
            "ejemploBytes4()": "24353",
            "hash()": "2285",
            "id()": "2372",
            "myAddressInicializado()": "2425",
            "myAddressInicializado2()": "2359",
            "myBoolInicializado()": "2410",
            "myBoolInicializadoFalse()": "2344",
            "myStringInicializado()": "infinite",
            "nombre()": "infinite",
            "vacio()": "infinite"
        }
    }
}