{
    "contractName": "Operadores",
    "abi": [
        {
            "inputs": [
                {
                    "internalType": "uint256",
                    "name": "_k",
                    "type": "uint256"
                }
            ],
            "name": "divisibilidad",
            "outputs": [
                {
                    "internalType": "bool",
                    "name": "",
                    "type": "bool"
                }
            ],
            "stateMutability": "pure",
            "type": "function"
        },
        {
            "inputs": [
                {
                    "internalType": "uint256",
                    "name": "_k",
                    "type": "uint256"
                }
            ],
            "name": "divisibilidad1",
            "outputs": [
                {
                    "internalType": "bool",
                    "name": "",
                    "type": "bool"
                }
            ],
            "stateMutability": "pure",
            "type": "function"
        },
        {
            "inputs": [],
            "name": "division",
            "outputs": [
                {
                    "internalType": "uint256",
                    "name": "",
                    "type": "uint256"
                }
            ],
            "stateMutability": "view",
            "type": "function"
        },
        {
            "inputs": [],
            "name": "exponenciacion",
            "outputs": [
                {
                    "internalType": "uint256",
                    "name": "",
                    "type": "uint256"
                }
            ],
            "stateMutability": "view",
            "type": "function"
        },
        {
            "inputs": [],
            "name": "multiplicacion",
            "outputs": [
                {
                    "internalType": "uint256",
                    "name": "",
                    "type": "uint256"
                }
            ],
            "stateMutability": "view",
            "type": "function"
        },
        {
            "inputs": [],
            "name": "residuo",
            "outputs": [
                {
                    "internalType": "uint256",
                    "name": "",
                    "type": "uint256"
                }
            ],
            "stateMutability": "view",
            "type": "function"
        },
        {
            "inputs": [],
            "name": "resta",
            "outputs": [
                {
                    "internalType": "uint256",
                    "name": "",
                    "type": "uint256"
                }
            ],
            "stateMutability": "view",
            "type": "function"
        },
        {
            "inputs": [],
            "name": "suma",
            "outputs": [
                {
                    "internalType": "uint256",
                    "name": "",
                    "type": "uint256"
                }
            ],
            "stateMutability": "view",
            "type": "function"
        },
        {
            "inputs": [],
            "name": "test_1",
            "outputs": [
                {
                    "internalType": "bool",
                    "name": "",
                    "type": "bool"
                }
            ],
            "stateMutability": "view",
            "type": "function"
        },
        {
            "inputs": [],
            "name": "test_2",
            "outputs": [
                {
                    "internalType": "bool",
                    "name": "",
                    "type": "bool"
                }
            ],
            "stateMutability": "view",
            "type": "function"
        },
        {
            "inputs": [],
            "name": "test_3",
            "outputs": [
                {
                    "internalType": "bool",
                    "name": "",
                    "type": "bool"
                }
            ],
            "stateMutability": "view",
            "type": "function"
        }
    ],
    "bytecode": "6080604052602060008190556004600181905561001b916100e8565b60025560015460005461002e9190610100565b6003556001546000546100419190610117565b600455600154600054610054919061014c565b6005556001546000546100679190610160565b60065560015460005461007a919061025a565b60075560036008819055600955600154600054600a805462ff0000198484106101000261ff0019959094119490941661ffff19909116179190911791909116620100001790553480156100cc57600080fd5b5061026d565b634e487b7160e01b600052601160045260246000fd5b600082198211156100fb576100fb6100d2565b500190565b600082821015610112576101126100d2565b500390565b6000816000190483118215151615610131576101316100d2565b500290565b634e487b7160e01b600052601260045260246000fd5b60008261015b5761015b610136565b500490565b60008261016f5761016f610136565b500690565b600181815b808511156101af578160001904821115610195576101956100d2565b808516156101a257918102915b93841c9390800290610179565b509250929050565b6000826101c657506001610254565b816101d357506000610254565b81600181146101e957600281146101f35761020f565b6001915050610254565b60ff841115610204576102046100d2565b50506001821b610254565b5060208310610133831016604e8410600b8410161715610232575081810a610254565b61023c8383610174565b8060001904821115610250576102506100d2565b0290505b92915050565b600061026683836101b7565b9392505050565b61023b8061027c6000396000f3fe608060405234801561001057600080fd5b50600436106100a95760003560e01c8063663bc99011610071578063663bc990146101125780636c3a28e11461011f5780637e7d8ec614610128578063899eb49c14610131578063b9e2fa3514610143578063c76218e61461015657600080fd5b806315e23b4d146100ae5780633205f5fc146100d65780633475a3ed146100ed57806340ba942c146100f657806355079601146100ff575b600080fd5b6100c16100bc3660046101ca565b61015f565b60405190151581526020015b60405180910390f35b6100df60055481565b6040519081526020016100cd565b6100df60035481565b6100df60075481565b6100c161010d3660046101ca565b610196565b600a546100c19060ff1681565b6100df60065481565b6100df60025481565b600a546100c190610100900460ff1681565b600a546100c19062010000900460ff1681565b6100df60045481565b60008061016d600a846101e3565b9050801580159061017f575080600514155b1561018d5750600092915050565b50600192915050565b6000806101a4600a846101e3565b90508015806101b35750806005145b156101c15750600192915050565b50600092915050565b6000602082840312156101dc57600080fd5b5035919050565b60008261020057634e487b7160e01b600052601260045260246000fd5b50069056fea26469706673582212202cd7843cf224c7d152cdd873bf164dc5f78bbe79a732e0f1603ca8ab47f11e6664736f6c634300080d0033",
    "sourcePath": "/home/secondport/Documents/SmartContracts/Tipos de Variables y Operadores/operadores.sol",
    "compiler": {
        "name": "solc",
        "version": "0.8.13+commit.abaa5c0e"
    },
    "functionHashes": {
        "divisibilidad(uint256)": "55079601",
        "divisibilidad1(uint256)": "15e23b4d",
        "division()": "3205f5fc",
        "exponenciacion()": "40ba942c",
        "multiplicacion()": "c76218e6",
        "residuo()": "6c3a28e1",
        "resta()": "3475a3ed",
        "suma()": "7e7d8ec6",
        "test_1()": "663bc990",
        "test_2()": "899eb49c",
        "test_3()": "b9e2fa35"
    },
    "gasEstimates": {
        "creation": {
            "codeDepositCost": "114200",
            "executionCost": "254344",
            "totalCost": "368544"
        },
        "external": {
            "divisibilidad(uint256)": "499",
            "divisibilidad1(uint256)": "420",
            "division()": "2318",
            "exponenciacion()": "2362",
            "multiplicacion()": "2405",
            "residuo()": "2317",
            "resta()": "2340",
            "suma()": "2339",
            "test_1()": "2299",
            "test_2()": "2376",
            "test_3()": "2398"
        }
    }
}