{
    "contractName": "public_private_internal",
    "abi": [
        {
            "inputs": [],
            "stateMutability": "nonpayable",
            "type": "constructor"
        },
        {
            "inputs": [],
            "name": "owner",
            "outputs": [
                {
                    "internalType": "address",
                    "name": "",
                    "type": "address"
                }
            ],
            "stateMutability": "view",
            "type": "function"
        },
        {
            "inputs": [],
            "name": "public_string",
            "outputs": [
                {
                    "internalType": "string",
                    "name": "",
                    "type": "string"
                }
            ],
            "stateMutability": "view",
            "type": "function"
        },
        {
            "inputs": [],
            "name": "public_var",
            "outputs": [
                {
                    "internalType": "uint256",
                    "name": "",
                    "type": "uint256"
                }
            ],
            "stateMutability": "view",
            "type": "function"
        },
        {
            "inputs": [
                {
                    "internalType": "uint256",
                    "name": "_k",
                    "type": "uint256"
                }
            ],
            "name": "test",
            "outputs": [],
            "stateMutability": "nonpayable",
            "type": "function"
        }
    ],
    "bytecode": "6101a460005560c0604052600d60808190526c7075626c69635f737472696e6760981b60a09081526100349160019190610103565b506101a460035560408051808201909152600e8082526d707269766174655f737472696e6760901b602090920191825261007091600491610103565b506005805460ff191660011790556101a460065560405161009e9060200163686f6c6160e01b815260040190565b60408051601f198184030181529190528051602090910120600755600880546001600160a01b031916735b38da6a701c568545dcfcb03fcb875f56beddc41790553480156100eb57600080fd5b50600280546001600160a01b031916331790556101d6565b82805461010f9061019c565b90600052602060002090601f0160209004810192826101315760008555610177565b82601f1061014a57805160ff1916838001178555610177565b82800160010185558215610177579182015b8281111561017757825182559160200191906001019061015c565b50610183929150610187565b5090565b5b808211156101835760008155600101610188565b600181811c908216806101b057607f821691505b6020821081036101d057634e487b7160e01b600052602260045260246000fd5b50919050565b610232806101e56000396000f3fe608060405234801561001057600080fd5b506004361061004c5760003560e01c80631fe3a7831461005157806329e99f071461006f5780638da5cb5b1461008457806399af8c79146100af575b600080fd5b6100596100c6565b6040516100669190610154565b60405180910390f35b61008261007d3660046101a9565b600355565b005b600254610097906001600160a01b031681565b6040516001600160a01b039091168152602001610066565b6100b860005481565b604051908152602001610066565b600180546100d3906101c2565b80601f01602080910402602001604051908101604052809291908181526020018280546100ff906101c2565b801561014c5780601f106101215761010080835404028352916020019161014c565b820191906000526020600020905b81548152906001019060200180831161012f57829003601f168201915b505050505081565b600060208083528351808285015260005b8181101561018157858101830151858201604001528201610165565b81811115610193576000604083870101525b50601f01601f1916929092016040019392505050565b6000602082840312156101bb57600080fd5b5035919050565b600181811c908216806101d657607f821691505b6020821081036101f657634e487b7160e01b600052602260045260246000fd5b5091905056fea2646970667358221220a881f0b54816c058b0b2b4da6c1ce44c8fa41449df8693e16d80a3622c937c1c64736f6c634300080d0033",
    "sourcePath": "/home/secondport/Documents/SmartContracts/Tipos de Variables y Operadores/modificadores.sol",
    "compiler": {
        "name": "solc",
        "version": "0.8.13+commit.abaa5c0e"
    },
    "functionHashes": {
        "owner()": "8da5cb5b",
        "public_string()": "1fe3a783",
        "public_var()": "99af8c79",
        "test(uint256)": "29e99f07"
    },
    "gasEstimates": {
        "creation": {
            "codeDepositCost": "112400",
            "executionCost": "infinite",
            "totalCost": "infinite"
        },
        "external": {
            "owner()": "2359",
            "public_string()": "infinite",
            "public_var()": "2339",
            "test(uint256)": "22312"
        }
    }
}