{
    "contractName": "tiempo",
    "abi": [
        {
            "inputs": [],
            "name": "MasDias",
            "outputs": [
                {
                    "internalType": "uint256",
                    "name": "",
                    "type": "uint256"
                }
            ],
            "stateMutability": "view",
            "type": "function"
        },
        {
            "inputs": [],
            "name": "MasHoras",
            "outputs": [
                {
                    "internalType": "uint256",
                    "name": "",
                    "type": "uint256"
                }
            ],
            "stateMutability": "view",
            "type": "function"
        },
        {
            "inputs": [],
            "name": "MasMinutos",
            "outputs": [
                {
                    "internalType": "uint256",
                    "name": "",
                    "type": "uint256"
                }
            ],
            "stateMutability": "view",
            "type": "function"
        },
        {
            "inputs": [],
            "name": "MasSegundos",
            "outputs": [
                {
                    "internalType": "uint256",
                    "name": "",
                    "type": "uint256"
                }
            ],
            "stateMutability": "view",
            "type": "function"
        },
        {
            "inputs": [],
            "name": "MasSemanas",
            "outputs": [
                {
                    "internalType": "uint256",
                    "name": "",
                    "type": "uint256"
                }
            ],
            "stateMutability": "view",
            "type": "function"
        },
        {
            "inputs": [],
            "name": "dias",
            "outputs": [
                {
                    "internalType": "uint256",
                    "name": "",
                    "type": "uint256"
                }
            ],
            "stateMutability": "view",
            "type": "function"
        },
        {
            "inputs": [],
            "name": "dos_horas",
            "outputs": [
                {
                    "internalType": "uint256",
                    "name": "",
                    "type": "uint256"
                }
            ],
            "stateMutability": "view",
            "type": "function"
        },
        {
            "inputs": [],
            "name": "semanas",
            "outputs": [
                {
                    "internalType": "uint256",
                    "name": "",
                    "type": "uint256"
                }
            ],
            "stateMutability": "view",
            "type": "function"
        },
        {
            "inputs": [],
            "name": "tiempo_actual",
            "outputs": [
                {
                    "internalType": "uint256",
                    "name": "",
                    "type": "uint256"
                }
            ],
            "stateMutability": "view",
            "type": "function"
        },
        {
            "inputs": [],
            "name": "un_minuto",
            "outputs": [
                {
                    "internalType": "uint256",
                    "name": "",
                    "type": "uint256"
                }
            ],
            "stateMutability": "view",
            "type": "function"
        }
    ],
    "bytecode": "608060405242600055603c600155611c206002556241eb006003556224ea0060045534801561002d57600080fd5b506101ad8061003d6000396000f3fe608060405234801561001057600080fd5b506004361061009e5760003560e01c80635a9606a4116100665780635a9606a4146100df578063696c7fb9146100e8578063ab6db199146100f0578063d2c5381a146100f9578063e8b1ed291461010157600080fd5b806301a34875146100a3578063108c4abb146100bd578063172f11fc146100c55780631fd8d6b4146100ce5780634ef06f5f146100d6575b600080fd5b6100ab61010a565b60405190815260200160405180910390f35b6100ab61011c565b6100ab60015481565b6100ab61012a565b6100ab60045481565b6100ab60005481565b6100ab610139565b6100ab60035481565b6100ab610146565b6100ab60025481565b6000610117426032610151565b905090565b600061011742610e10610151565b60006101174262093a80610151565b600061011742603c610151565b600061011742620151805b6000821982111561017257634e487b7160e01b600052601160045260246000fd5b50019056fea2646970667358221220a340ce414f3952cddf681c97093b45b561fda33697b456c9913871ff179d1f1364736f6c634300080d0033",
    "sourcePath": "/home/secondport/Documents/SmartContracts/Tipos de Variables y Operadores/tiempo.sol",
    "compiler": {
        "name": "solc",
        "version": "0.8.13+commit.abaa5c0e"
    },
    "functionHashes": {
        "MasDias()": "d2c5381a",
        "MasHoras()": "108c4abb",
        "MasMinutos()": "696c7fb9",
        "MasSegundos()": "01a34875",
        "MasSemanas()": "1fd8d6b4",
        "dias()": "ab6db199",
        "dos_horas()": "e8b1ed29",
        "semanas()": "4ef06f5f",
        "tiempo_actual()": "5a9606a4",
        "un_minuto()": "172f11fc"
    },
    "gasEstimates": {
        "creation": {
            "codeDepositCost": "85800",
            "executionCost": "110664",
            "totalCost": "196464"
        },
        "external": {
            "MasDias()": "324",
            "MasHoras()": "292",
            "MasMinutos()": "291",
            "MasSegundos()": "270",
            "MasSemanas()": "336",
            "dias()": "2327",
            "dos_horas()": "2371",
            "semanas()": "2372",
            "tiempo_actual()": "2283",
            "un_minuto()": "2328"
        }
    }
}