{
    "contractName": "Arrays",
    "abi": [
        {
            "inputs": [
                {
                    "internalType": "uint256",
                    "name": "",
                    "type": "uint256"
                }
            ],
            "name": "Enteros",
            "outputs": [
                {
                    "internalType": "uint256",
                    "name": "",
                    "type": "uint256"
                }
            ],
            "stateMutability": "view",
            "type": "function"
        },
        {
            "inputs": [
                {
                    "internalType": "uint256",
                    "name": "",
                    "type": "uint256"
                }
            ],
            "name": "EnterosDinamico",
            "outputs": [
                {
                    "internalType": "uint256",
                    "name": "",
                    "type": "uint256"
                }
            ],
            "stateMutability": "view",
            "type": "function"
        },
        {
            "inputs": [
                {
                    "internalType": "uint256",
                    "name": "",
                    "type": "uint256"
                }
            ],
            "name": "Personas",
            "outputs": [
                {
                    "internalType": "string",
                    "name": "nombre",
                    "type": "string"
                },
                {
                    "internalType": "uint32",
                    "name": "edad",
                    "type": "uint32"
                }
            ],
            "stateMutability": "view",
            "type": "function"
        },
        {
            "inputs": [
                {
                    "internalType": "string",
                    "name": "_nombre",
                    "type": "string"
                },
                {
                    "internalType": "uint32",
                    "name": "_edad",
                    "type": "uint32"
                }
            ],
            "name": "agregarPersona",
            "outputs": [],
            "stateMutability": "nonpayable",
            "type": "function"
        },
        {
            "inputs": [],
            "name": "arrayEstatico",
            "outputs": [],
            "stateMutability": "nonpayable",
            "type": "function"
        },
        {
            "inputs": [
                {
                    "internalType": "uint256",
                    "name": "_numero",
                    "type": "uint256"
                }
            ],
            "name": "modificarArray",
            "outputs": [],
            "stateMutability": "nonpayable",
            "type": "function"
        },
        {
            "inputs": [],
            "name": "test",
            "outputs": [
                {
                    "internalType": "uint256",
                    "name": "",
                    "type": "uint256"
                }
            ],
            "stateMutability": "view",
            "type": "function"
        }
    ],
    "bytecode": "61010060405260016080908152600260a052600360c052600460e081905261002991600091610042565b50600254600b5534801561003c57600080fd5b5061009a565b8260058101928215610075579160200282015b82811115610075578251829060ff16905591602001919060010190610055565b50610081929150610085565b5090565b5b808211156100815760008155600101610086565b610550806100a96000396000f3fe608060405234801561001057600080fd5b506004361061007d5760003560e01c8063945d32b31161005b578063945d32b314610100578063aa6faa5d14610121578063f8a8fd6d14610134578063fd7e591d1461013d57600080fd5b80634be17004146100825780634c5a39b01461009357806358ca6f87146100d6575b600080fd5b61009160386004556020600255565b005b6100916100a1366004610373565b600980546001810182556000919091527f6e1540171b6c0c960b71a7020d9f60077f6af931a8bbf590da0223dacf75c7af0155565b6100e96100e4366004610373565b610150565b6040516100f792919061038c565b60405180910390f35b61011361010e366004610373565b610212565b6040519081526020016100f7565b61009161012f36600461041e565b610229565b610113600b5481565b61011361014b366004610373565b6102b9565b600a818154811061016057600080fd5b9060005260206000209060020201600091509050806000018054610183906104e0565b80601f01602080910402602001604051908101604052809291908181526020018280546101af906104e0565b80156101fc5780601f106101d1576101008083540402835291602001916101fc565b820191906000526020600020905b8154815290600101906020018083116101df57829003601f168201915b5050506001909301549192505063ffffffff1682565b6000816005811061022257600080fd5b0154905081565b6040805180820190915282815263ffffffff8216602080830191909152600a80546001810182556000919091528251805160029092027fc65a7bb8d6351c1cf70c95a316cc6a92839c986682d98bc35f958f4883f9d2a80192610291928492909101906102da565b50602091909101516001909101805463ffffffff191663ffffffff9092169190911790555050565b600981815481106102c957600080fd5b600091825260209091200154905081565b8280546102e6906104e0565b90600052602060002090601f016020900481019282610308576000855561034e565b82601f1061032157805160ff191683800117855561034e565b8280016001018555821561034e579182015b8281111561034e578251825591602001919060010190610333565b5061035a92915061035e565b5090565b5b8082111561035a576000815560010161035f565b60006020828403121561038557600080fd5b5035919050565b604081526000835180604084015260005b818110156103ba576020818701810151606086840101520161039d565b818111156103cc576000606083860101525b5063ffffffff93909316602083015250601f91909101601f191601606001919050565b634e487b7160e01b600052604160045260246000fd5b803563ffffffff8116811461041957600080fd5b919050565b6000806040838503121561043157600080fd5b823567ffffffffffffffff8082111561044957600080fd5b818501915085601f83011261045d57600080fd5b81358181111561046f5761046f6103ef565b604051601f8201601f19908116603f01168101908382118183101715610497576104976103ef565b816040528281528860208487010111156104b057600080fd5b8260208601602083013760006020848301015280965050505050506104d760208401610405565b90509250929050565b600181811c908216806104f457607f821691505b60208210810361051457634e487b7160e01b600052602260045260246000fd5b5091905056fea2646970667358221220cdcea3c833798a6c7226cb86ff69e4bb1f5208ac35d20b9960b20be1d08da75964736f6c634300080d0033",
    "sourcePath": "/home/secondport/Documents/SmartContracts/Estructuras de Datos/array.sol",
    "compiler": {
        "name": "solc",
        "version": "0.8.13+commit.abaa5c0e"
    },
    "functionHashes": {
        "Enteros(uint256)": "945d32b3",
        "EnterosDinamico(uint256)": "fd7e591d",
        "Personas(uint256)": "58ca6f87",
        "agregarPersona(string,uint32)": "aa6faa5d",
        "arrayEstatico()": "4be17004",
        "modificarArray(uint256)": "4c5a39b0",
        "test()": "f8a8fd6d"
    },
    "gasEstimates": {
        "creation": {
            "codeDepositCost": "272000",
            "executionCost": "infinite",
            "totalCost": "infinite"
        },
        "external": {
            "Enteros(uint256)": "2418",
            "EnterosDinamico(uint256)": "4641",
            "Personas(uint256)": "infinite",
            "agregarPersona(string,uint32)": "infinite",
            "arrayEstatico()": "44345",
            "modificarArray(uint256)": "46571",
            "test()": "2339"
        }
    }
}