{
    "contractName": "Mappings",
    "abi": [
        {
            "inputs": [
                {
                    "internalType": "string",
                    "name": "",
                    "type": "string"
                }
            ],
            "name": "CantDinero",
            "outputs": [
                {
                    "internalType": "uint256",
                    "name": "",
                    "type": "uint256"
                }
            ],
            "stateMutability": "view",
            "type": "function"
        },
        {
            "inputs": [
                {
                    "internalType": "string",
                    "name": "_nombre",
                    "type": "string"
                }
            ],
            "name": "ConsultarDinero",
            "outputs": [
                {
                    "internalType": "uint256",
                    "name": "",
                    "type": "uint256"
                }
            ],
            "stateMutability": "view",
            "type": "function"
        },
        {
            "inputs": [
                {
                    "internalType": "address",
                    "name": "",
                    "type": "address"
                }
            ],
            "name": "Numero",
            "outputs": [
                {
                    "internalType": "uint256",
                    "name": "",
                    "type": "uint256"
                }
            ],
            "stateMutability": "view",
            "type": "function"
        },
        {
            "inputs": [
                {
                    "internalType": "uint256",
                    "name": "_dni",
                    "type": "uint256"
                }
            ],
            "name": "VisualizarPerosona",
            "outputs": [
                {
                    "components": [
                        {
                            "internalType": "string",
                            "name": "nombre",
                            "type": "string"
                        },
                        {
                            "internalType": "uint256",
                            "name": "edad",
                            "type": "uint256"
                        }
                    ],
                    "internalType": "struct Mappings.Persona",
                    "name": "",
                    "type": "tuple"
                }
            ],
            "stateMutability": "view",
            "type": "function"
        },
        {
            "inputs": [],
            "name": "consultarNumero",
            "outputs": [
                {
                    "internalType": "uint256",
                    "name": "",
                    "type": "uint256"
                }
            ],
            "stateMutability": "view",
            "type": "function"
        },
        {
            "inputs": [
                {
                    "internalType": "uint256",
                    "name": "_numeroDni",
                    "type": "uint256"
                },
                {
                    "internalType": "string",
                    "name": "_nombre",
                    "type": "string"
                },
                {
                    "internalType": "uint256",
                    "name": "_edad",
                    "type": "uint256"
                }
            ],
            "name": "dni_Persona",
            "outputs": [],
            "stateMutability": "nonpayable",
            "type": "function"
        },
        {
            "inputs": [
                {
                    "internalType": "uint256",
                    "name": "_numero",
                    "type": "uint256"
                }
            ],
            "name": "elegirNumero",
            "outputs": [],
            "stateMutability": "nonpayable",
            "type": "function"
        },
        {
            "inputs": [
                {
                    "internalType": "string",
                    "name": "_nombre",
                    "type": "string"
                },
                {
                    "internalType": "uint256",
                    "name": "_cantidad",
                    "type": "uint256"
                }
            ],
            "name": "mDinero",
            "outputs": [],
            "stateMutability": "nonpayable",
            "type": "function"
        },
        {
            "inputs": [
                {
                    "internalType": "uint256",
                    "name": "",
                    "type": "uint256"
                }
            ],
            "name": "personas",
            "outputs": [
                {
                    "internalType": "string",
                    "name": "nombre",
                    "type": "string"
                },
                {
                    "internalType": "uint256",
                    "name": "edad",
                    "type": "uint256"
                }
            ],
            "stateMutability": "view",
            "type": "function"
        }
    ],
    "bytecode": "608060405234801561001057600080fd5b50610747806100206000396000f3fe608060405234801561001057600080fd5b50600436106100935760003560e01c80635bd30c1f116100665780635bd30c1f1461010a5780637fdce9491461013857806392174b4914610163578063d0427d5a14610178578063ec81f7941461019857600080fd5b8063072afbaa1461009857806321897068146100ad5780632a3d9090146100d657806340291e6a146100e9575b600080fd5b6100ab6100a63660046104f0565b6101ab565b005b6100c06100bb366004610540565b6101f4565b6040516100cd91906105b5565b60405180910390f35b6100ab6100e43660046105e7565b6102c3565b6100fc6100f7366004610540565b6102e8565b6040516100cd92919061062c565b61012a61011836600461064e565b60006020819052908152604090205481565b6040519081526020016100cd565b61012a61014636600461067e565b805160208183018101805160018252928201919093012091525481565b3360009081526020819052604090205461012a565b6100ab610186366004610540565b33600090815260208190526040902055565b61012a6101a636600461067e565b61038c565b60408051808201825283815260208082018490526000868152600282529290922081518051929391926101e192849201906103b4565b5060208201518160010155905050505050565b604080518082019091526060815260006020820152600082815260026020526040908190208151808301909252805482908290610230906106bb565b80601f016020809104026020016040519081016040528092919081815260200182805461025c906106bb565b80156102a95780601f1061027e576101008083540402835291602001916102a9565b820191906000526020600020905b81548152906001019060200180831161028c57829003601f168201915b505050505081526020016001820154815250509050919050565b806001836040516102d491906106f5565b908152604051908190036020019020555050565b600260205260009081526040902080548190610303906106bb565b80601f016020809104026020016040519081016040528092919081815260200182805461032f906106bb565b801561037c5780601f106103515761010080835404028352916020019161037c565b820191906000526020600020905b81548152906001019060200180831161035f57829003601f168201915b5050505050908060010154905082565b600060018260405161039e91906106f5565b9081526020016040518091039020549050919050565b8280546103c0906106bb565b90600052602060002090601f0160209004810192826103e25760008555610428565b82601f106103fb57805160ff1916838001178555610428565b82800160010185558215610428579182015b8281111561042857825182559160200191906001019061040d565b50610434929150610438565b5090565b5b808211156104345760008155600101610439565b634e487b7160e01b600052604160045260246000fd5b600082601f83011261047457600080fd5b813567ffffffffffffffff8082111561048f5761048f61044d565b604051601f8301601f19908116603f011681019082821181831017156104b7576104b761044d565b816040528381528660208588010111156104d057600080fd5b836020870160208301376000602085830101528094505050505092915050565b60008060006060848603121561050557600080fd5b83359250602084013567ffffffffffffffff81111561052357600080fd5b61052f86828701610463565b925050604084013590509250925092565b60006020828403121561055257600080fd5b5035919050565b60005b8381101561057457818101518382015260200161055c565b83811115610583576000848401525b50505050565b600081518084526105a1816020860160208601610559565b601f01601f19169290920160200192915050565b6020815260008251604060208401526105d16060840182610589565b9050602084015160408401528091505092915050565b600080604083850312156105fa57600080fd5b823567ffffffffffffffff81111561061157600080fd5b61061d85828601610463565b95602094909401359450505050565b60408152600061063f6040830185610589565b90508260208301529392505050565b60006020828403121561066057600080fd5b81356001600160a01b038116811461067757600080fd5b9392505050565b60006020828403121561069057600080fd5b813567ffffffffffffffff8111156106a757600080fd5b6106b384828501610463565b949350505050565b600181811c908216806106cf57607f821691505b6020821081036106ef57634e487b7160e01b600052602260045260246000fd5b50919050565b60008251610707818460208701610559565b919091019291505056fea2646970667358221220fb8da152c3c5bec2c07cd7d58f78232c2e1dc8287ebdffe20c37bd014e3a543964736f6c634300080d0033",
    "sourcePath": "/home/secondport/Documents/SmartContracts/Estructuras de Datos/mapping.sol",
    "compiler": {
        "name": "solc",
        "version": "0.8.13+commit.abaa5c0e"
    },
    "functionHashes": {
        "CantDinero(string)": "7fdce949",
        "ConsultarDinero(string)": "ec81f794",
        "Numero(address)": "5bd30c1f",
        "VisualizarPerosona(uint256)": "21897068",
        "consultarNumero()": "92174b49",
        "dni_Persona(uint256,string,uint256)": "072afbaa",
        "elegirNumero(uint256)": "d0427d5a",
        "mDinero(string,uint256)": "2a3d9090",
        "personas(uint256)": "40291e6a"
    },
    "gasEstimates": {
        "creation": {
            "codeDepositCost": "372600",
            "executionCost": "411",
            "totalCost": "373011"
        },
        "external": {
            "CantDinero(string)": "infinite",
            "ConsultarDinero(string)": "infinite",
            "Numero(address)": "2487",
            "VisualizarPerosona(uint256)": "infinite",
            "consultarNumero()": "2407",
            "dni_Persona(uint256,string,uint256)": "infinite",
            "elegirNumero(uint256)": "22449",
            "mDinero(string,uint256)": "infinite",
            "personas(uint256)": "infinite"
        }
    }
}