{
    "contractName": "ERC20Basic",
    "abi": [
        {
            "inputs": [
                {
                    "internalType": "uint256",
                    "name": "total",
                    "type": "uint256"
                }
            ],
            "payable": false,
            "stateMutability": "nonpayable",
            "type": "constructor"
        },
        {
            "anonymous": false,
            "inputs": [
                {
                    "indexed": true,
                    "internalType": "address",
                    "name": "tokenOwner",
                    "type": "address"
                },
                {
                    "indexed": true,
                    "internalType": "address",
                    "name": "spender",
                    "type": "address"
                },
                {
                    "indexed": false,
                    "internalType": "uint256",
                    "name": "tokens",
                    "type": "uint256"
                }
            ],
            "name": "Approval",
            "type": "event"
        },
        {
            "anonymous": false,
            "inputs": [
                {
                    "indexed": true,
                    "internalType": "address",
                    "name": "from",
                    "type": "address"
                },
                {
                    "indexed": true,
                    "internalType": "address",
                    "name": "to",
                    "type": "address"
                },
                {
                    "indexed": false,
                    "internalType": "uint256",
                    "name": "tokens",
                    "type": "uint256"
                }
            ],
            "name": "Transfer",
            "type": "event"
        },
        {
            "constant": true,
            "inputs": [
                {
                    "internalType": "address",
                    "name": "owner",
                    "type": "address"
                },
                {
                    "internalType": "address",
                    "name": "delegate",
                    "type": "address"
                }
            ],
            "name": "allowance",
            "outputs": [
                {
                    "internalType": "uint256",
                    "name": "",
                    "type": "uint256"
                }
            ],
            "payable": false,
            "stateMutability": "view",
            "type": "function"
        },
        {
            "constant": false,
            "inputs": [
                {
                    "internalType": "address",
                    "name": "delegate",
                    "type": "address"
                },
                {
                    "internalType": "uint256",
                    "name": "numTokens",
                    "type": "uint256"
                }
            ],
            "name": "approve",
            "outputs": [
                {
                    "internalType": "bool",
                    "name": "",
                    "type": "bool"
                }
            ],
            "payable": false,
            "stateMutability": "nonpayable",
            "type": "function"
        },
        {
            "constant": true,
            "inputs": [
                {
                    "internalType": "address",
                    "name": "tokenOwner",
                    "type": "address"
                }
            ],
            "name": "balanceOf",
            "outputs": [
                {
                    "internalType": "uint256",
                    "name": "",
                    "type": "uint256"
                }
            ],
            "payable": false,
            "stateMutability": "view",
            "type": "function"
        },
        {
            "constant": true,
            "inputs": [],
            "name": "decimals",
            "outputs": [
                {
                    "internalType": "uint8",
                    "name": "",
                    "type": "uint8"
                }
            ],
            "payable": false,
            "stateMutability": "view",
            "type": "function"
        },
        {
            "constant": false,
            "inputs": [
                {
                    "internalType": "uint256",
                    "name": "newTokens",
                    "type": "uint256"
                }
            ],
            "name": "increaseTotalSuply",
            "outputs": [],
            "payable": false,
            "stateMutability": "nonpayable",
            "type": "function"
        },
        {
            "constant": true,
            "inputs": [],
            "name": "name",
            "outputs": [
                {
                    "internalType": "string",
                    "name": "",
                    "type": "string"
                }
            ],
            "payable": false,
            "stateMutability": "view",
            "type": "function"
        },
        {
            "constant": true,
            "inputs": [],
            "name": "symbol",
            "outputs": [
                {
                    "internalType": "string",
                    "name": "",
                    "type": "string"
                }
            ],
            "payable": false,
            "stateMutability": "view",
            "type": "function"
        },
        {
            "constant": true,
            "inputs": [],
            "name": "totalSupply",
            "outputs": [
                {
                    "internalType": "uint256",
                    "name": "",
                    "type": "uint256"
                }
            ],
            "payable": false,
            "stateMutability": "view",
            "type": "function"
        },
        {
            "constant": false,
            "inputs": [
                {
                    "internalType": "address",
                    "name": "receiver",
                    "type": "address"
                },
                {
                    "internalType": "uint256",
                    "name": "numTokens",
                    "type": "uint256"
                }
            ],
            "name": "transfer",
            "outputs": [
                {
                    "internalType": "bool",
                    "name": "",
                    "type": "bool"
                }
            ],
            "payable": false,
            "stateMutability": "nonpayable",
            "type": "function"
        },
        {
            "constant": false,
            "inputs": [
                {
                    "internalType": "address",
                    "name": "owner",
                    "type": "address"
                },
                {
                    "internalType": "address",
                    "name": "buyer",
                    "type": "address"
                },
                {
                    "internalType": "uint256",
                    "name": "numTokens",
                    "type": "uint256"
                }
            ],
            "name": "transferFrom",
            "outputs": [
                {
                    "internalType": "bool",
                    "name": "",
                    "type": "bool"
                }
            ],
            "payable": false,
            "stateMutability": "nonpayable",
            "type": "function"
        }
    ],
    "bytecode": "608060405234801561001057600080fd5b506040516107fd3803806107fd83398101604081905261002f9161005a565b60028190553360009081526020819052604090205561009a565b805161005481610083565b92915050565b60006020828403121561006c57600080fd5b60006100788484610049565b949350505050565b90565b61008c81610080565b811461009757600080fd5b50565b610754806100a96000396000f3fe608060405234801561001057600080fd5b506004361061009e5760003560e01c80634ee22adf116100665780634ee22adf1461011e57806370a082311461013357806395d89b4114610146578063a9059cbb1461014e578063dd62ed3e146101615761009e565b806306fdde03146100a3578063095ea7b3146100c157806318160ddd146100e157806323b872dd146100f6578063313ce56714610109575b600080fd5b6100ab610174565b6040516100b89190610658565b60405180910390f35b6100d46100cf3660046105a3565b61019a565b6040516100b8919061064a565b6100e9610205565b6040516100b89190610669565b6100d4610104366004610556565b61020b565b61011161036b565b6040516100b89190610677565b61013161012c3660046105d3565b610370565b005b6100e96101413660046104f6565b610390565b6100ab6103ab565b6100d461015c3660046105a3565b6103d0565b6100e961016f36600461051c565b61048d565b6040518060400160405280600a8152602001694552433230426173696360b01b81525081565b3360008181526001602090815260408083206001600160a01b038716808552925280832085905551919290917f8c5be1e5ebec7d5bd14f71427d1e84f3dd0314c0f7b2291e5b200ac8c7c3b925906101f3908690610669565b60405180910390a35060015b92915050565b60025490565b6001600160a01b03831660009081526020819052604081205482111561023057600080fd5b6001600160a01b038416600090815260016020908152604080832033845290915290205482111561026057600080fd5b6001600160a01b038416600090815260208190526040902054610289908363ffffffff6104b816565b6001600160a01b0385166000908152602081815260408083209390935560018152828220338352905220546102c4908363ffffffff6104b816565b6001600160a01b0380861660009081526001602090815260408083203384528252808320949094559186168152908190522054610307908363ffffffff6104ca16565b6001600160a01b0380851660008181526020819052604090819020939093559151908616907fddf252ad1be2c89b69c2b068fc378daa952ba7f163c4a11628f55a4df523b3ef90610359908690610669565b60405180910390a35060019392505050565b600281565b600280548201905533600090815260208190526040902080549091019055565b6001600160a01b031660009081526020819052604090205490565b6040518060400160405280600981526020016825212516aa27a5a2a760b91b81525081565b336000908152602081905260408120548211156103ec57600080fd5b3360009081526020819052604090205461040c908363ffffffff6104b816565b33600090815260208190526040808220929092556001600160a01b0385168152205461043e908363ffffffff6104ca16565b6001600160a01b0384166000818152602081905260409081902092909255905133907fddf252ad1be2c89b69c2b068fc378daa952ba7f163c4a11628f55a4df523b3ef906101f3908690610669565b6001600160a01b03918216600090815260016020908152604080832093909416825291909152205490565b6000828211156104c457fe5b50900390565b6000828201838110156104d957fe5b9392505050565b80356101ff816106f1565b80356101ff81610708565b60006020828403121561050857600080fd5b600061051484846104e0565b949350505050565b6000806040838503121561052f57600080fd5b600061053b85856104e0565b925050602061054c858286016104e0565b9150509250929050565b60008060006060848603121561056b57600080fd5b600061057786866104e0565b9350506020610588868287016104e0565b9250506040610599868287016104eb565b9150509250925092565b600080604083850312156105b657600080fd5b60006105c285856104e0565b925050602061054c858286016104eb565b6000602082840312156105e557600080fd5b600061051484846104eb565b6105fa8161069d565b82525050565b600061060b82610685565b6106158185610689565b93506106258185602086016106b7565b61062e816106e7565b9093019392505050565b6105fa816106ae565b6105fa816106b1565b602081016101ff82846105f1565b602080825281016104d98184610600565b602081016101ff8284610638565b602081016101ff8284610641565b5190565b90815260200190565b60006101ff826106a2565b151590565b6001600160a01b031690565b90565b60ff1690565b60005b838110156106d25781810151838201526020016106ba565b838111156106e1576000848401525b50505050565b601f01601f191690565b6106fa81610692565b811461070557600080fd5b50565b6106fa816106ae56fea365627a7a7231582066b80bb5a1f81df3c917eee2b9e09bd7edade8e7d505c333cd2050203580768d6c6578706572696d656e74616cf564736f6c63430005100040",
    "sourcePath": "/home/secondport/Documents/SmartContracts/Trabajo-Final/Tools/ERC20.sol",
    "compiler": {
        "name": "solc",
        "version": "0.5.16+commit.9c3226ce"
    },
    "functionHashes": {
        "allowance(address,address)": "dd62ed3e",
        "approve(address,uint256)": "095ea7b3",
        "balanceOf(address)": "70a08231",
        "decimals()": "313ce567",
        "increaseTotalSuply(uint256)": "4ee22adf",
        "name()": "06fdde03",
        "symbol()": "95d89b41",
        "totalSupply()": "18160ddd",
        "transfer(address,uint256)": "a9059cbb",
        "transferFrom(address,address,uint256)": "23b872dd"
    },
    "gasEstimates": {
        "creation": {
            "codeDepositCost": "375200",
            "executionCost": "infinite",
            "totalCost": "infinite"
        },
        "external": {
            "allowance(address,address)": "infinite",
            "approve(address,uint256)": "infinite",
            "balanceOf(address)": "infinite",
            "decimals()": "394",
            "increaseTotalSuply(uint256)": "42054",
            "name()": "infinite",
            "symbol()": "infinite",
            "totalSupply()": "1144",
            "transfer(address,uint256)": "infinite",
            "transferFrom(address,address,uint256)": "infinite"
        }
    }
}